{
	"utils/Withdraw.sol": {
		"Withdraw": {
			"abi": [
				{
					"inputs": [
						{
							"internalType": "address",
							"name": "owner",
							"type": "address"
						},
						{
							"internalType": "address",
							"name": "target",
							"type": "address"
						},
						{
							"internalType": "uint256",
							"name": "value",
							"type": "uint256"
						}
					],
					"name": "FailedToWithdrawEth",
					"type": "error"
				},
				{
					"inputs": [],
					"name": "NothingToWithdraw",
					"type": "error"
				},
				{
					"inputs": [
						{
							"internalType": "address",
							"name": "token",
							"type": "address"
						}
					],
					"name": "SafeERC20FailedOperation",
					"type": "error"
				},
				{
					"anonymous": false,
					"inputs": [
						{
							"indexed": true,
							"internalType": "address",
							"name": "from",
							"type": "address"
						},
						{
							"indexed": true,
							"internalType": "address",
							"name": "to",
							"type": "address"
						}
					],
					"name": "OwnershipTransferRequested",
					"type": "event"
				},
				{
					"anonymous": false,
					"inputs": [
						{
							"indexed": true,
							"internalType": "address",
							"name": "from",
							"type": "address"
						},
						{
							"indexed": true,
							"internalType": "address",
							"name": "to",
							"type": "address"
						}
					],
					"name": "OwnershipTransferred",
					"type": "event"
				},
				{
					"inputs": [],
					"name": "acceptOwnership",
					"outputs": [],
					"stateMutability": "nonpayable",
					"type": "function"
				},
				{
					"inputs": [],
					"name": "owner",
					"outputs": [
						{
							"internalType": "address",
							"name": "",
							"type": "address"
						}
					],
					"stateMutability": "view",
					"type": "function"
				},
				{
					"inputs": [
						{
							"internalType": "address",
							"name": "to",
							"type": "address"
						}
					],
					"name": "transferOwnership",
					"outputs": [],
					"stateMutability": "nonpayable",
					"type": "function"
				},
				{
					"inputs": [
						{
							"internalType": "address",
							"name": "_beneficiary",
							"type": "address"
						}
					],
					"name": "withdraw",
					"outputs": [],
					"stateMutability": "nonpayable",
					"type": "function"
				},
				{
					"inputs": [
						{
							"internalType": "address",
							"name": "_beneficiary",
							"type": "address"
						},
						{
							"internalType": "address",
							"name": "_token",
							"type": "address"
						}
					],
					"name": "withdrawToken",
					"outputs": [],
					"stateMutability": "nonpayable",
					"type": "function"
				}
			],
			"devdoc": {
				"errors": {
					"SafeERC20FailedOperation(address)": [
						{
							"details": "An operation with an ERC-20 token failed."
						}
					]
				},
				"kind": "dev",
				"methods": {},
				"version": 1
			},
			"evm": {
				"assembly": "    /* \"utils/Withdraw.sol\":499:1289  contract Withdraw is OwnerIsCreator {... */\n  mstore(0x40, 0x80)\n  callvalue\n  dup1\n  iszero\n  tag_1\n  jumpi\n  0x00\n  dup1\n  revert\ntag_1:\n  pop\n    /* \"@chainlink/contracts-ccip/src/v0.8/shared/access/OwnerIsCreator.sol\":291:301  msg.sender */\n  caller\n  dup1\n    /* \"@chainlink/contracts-ccip/src/v0.8/shared/access/ConfirmedOwner.sol\":373:374  0 */\n  0x00\n    /* \"@chainlink/contracts-ccip/src/v0.8/shared/access/OwnerIsCreator.sol\":291:301  msg.sender */\n  dup2\n    /* \"@chainlink/contracts-ccip/src/v0.8/shared/access/ConfirmedOwnerWithProposal.sol\":590:649  require(newOwner != address(0), \"Cannot set owner to zero\") */\n  tag_6\n  jumpi\n  mload(0x40)\n  shl(0xe5, 0x461bcd)\n  dup2\n  mstore\n    /* \"#utility.yul\":216:218   */\n  0x20\n    /* \"@chainlink/contracts-ccip/src/v0.8/shared/access/ConfirmedOwnerWithProposal.sol\":590:649  require(newOwner != address(0), \"Cannot set owner to zero\") */\n  0x04\n  dup3\n  add\n    /* \"#utility.yul\":198:219   */\n  mstore\n    /* \"#utility.yul\":255:257   */\n  0x18\n    /* \"#utility.yul\":235:253   */\n  0x24\n  dup3\n  add\n    /* \"#utility.yul\":228:258   */\n  mstore\n    /* \"#utility.yul\":294:320   */\n  0x43616e6e6f7420736574206f776e657220746f207a65726f0000000000000000\n    /* \"#utility.yul\":274:292   */\n  0x44\n  dup3\n  add\n    /* \"#utility.yul\":267:321   */\n  mstore\n    /* \"#utility.yul\":338:356   */\n  0x64\n  add\n    /* \"@chainlink/contracts-ccip/src/v0.8/shared/access/ConfirmedOwnerWithProposal.sol\":590:649  require(newOwner != address(0), \"Cannot set owner to zero\") */\ntag_7:\n  mload(0x40)\n  dup1\n  swap2\n  sub\n  swap1\n  revert\ntag_6:\n    /* \"@chainlink/contracts-ccip/src/v0.8/shared/access/ConfirmedOwnerWithProposal.sol\":656:663  s_owner */\n  0x00\n    /* \"@chainlink/contracts-ccip/src/v0.8/shared/access/ConfirmedOwnerWithProposal.sol\":656:674  s_owner = newOwner */\n  dup1\n  sload\n  not(sub(shl(0xa0, 0x01), 0x01))\n  and\n  sub(shl(0xa0, 0x01), 0x01)\n  dup5\n  dup2\n  and\n  swap2\n  swap1\n  swap2\n  or\n  swap1\n  swap2\n  sstore\n    /* \"@chainlink/contracts-ccip/src/v0.8/shared/access/ConfirmedOwnerWithProposal.sol\":684:710  pendingOwner != address(0) */\n  dup2\n  and\n  iszero\n    /* \"@chainlink/contracts-ccip/src/v0.8/shared/access/ConfirmedOwnerWithProposal.sol\":680:759  if (pendingOwner != address(0)) {... */\n  tag_10\n  jumpi\n    /* \"@chainlink/contracts-ccip/src/v0.8/shared/access/ConfirmedOwnerWithProposal.sol\":720:752  _transferOwnership(pendingOwner) */\n  tag_10\n    /* \"@chainlink/contracts-ccip/src/v0.8/shared/access/ConfirmedOwnerWithProposal.sol\":739:751  pendingOwner */\n  dup2\n    /* \"@chainlink/contracts-ccip/src/v0.8/shared/access/ConfirmedOwnerWithProposal.sol\":720:738  _transferOwnership */\n  tag_11\n    /* \"@chainlink/contracts-ccip/src/v0.8/shared/access/ConfirmedOwnerWithProposal.sol\":720:752  _transferOwnership(pendingOwner) */\n  jump\t// in\ntag_10:\n    /* \"@chainlink/contracts-ccip/src/v0.8/shared/access/ConfirmedOwnerWithProposal.sol\":481:763  constructor(address newOwner, address pendingOwner) {... */\n  pop\n  pop\n    /* \"@chainlink/contracts-ccip/src/v0.8/shared/access/ConfirmedOwner.sol\":298:379  constructor(address newOwner) ConfirmedOwnerWithProposal(newOwner, address(0)) {} */\n  pop\n    /* \"utils/Withdraw.sol\":499:1289  contract Withdraw is OwnerIsCreator {... */\n  jump(tag_19)\n    /* \"@chainlink/contracts-ccip/src/v0.8/shared/access/ConfirmedOwnerWithProposal.sol\":1536:1775  function _transferOwnership(address to) private {... */\ntag_11:\n    /* \"@chainlink/contracts-ccip/src/v0.8/shared/access/ConfirmedOwnerWithProposal.sol\":1655:1665  msg.sender */\n  caller\n  sub(shl(0xa0, 0x01), 0x01)\n    /* \"@chainlink/contracts-ccip/src/v0.8/shared/access/ConfirmedOwnerWithProposal.sol\":1649:1665  to != msg.sender */\n  dup3\n  and\n  sub\n    /* \"@chainlink/contracts-ccip/src/v0.8/shared/access/ConfirmedOwnerWithProposal.sol\":1641:1693  require(to != msg.sender, \"Cannot transfer to self\") */\n  tag_16\n  jumpi\n  mload(0x40)\n  shl(0xe5, 0x461bcd)\n  dup2\n  mstore\n    /* \"#utility.yul\":569:571   */\n  0x20\n    /* \"@chainlink/contracts-ccip/src/v0.8/shared/access/ConfirmedOwnerWithProposal.sol\":1641:1693  require(to != msg.sender, \"Cannot transfer to self\") */\n  0x04\n  dup3\n  add\n    /* \"#utility.yul\":551:572   */\n  mstore\n    /* \"#utility.yul\":608:610   */\n  0x17\n    /* \"#utility.yul\":588:606   */\n  0x24\n  dup3\n  add\n    /* \"#utility.yul\":581:611   */\n  mstore\n    /* \"#utility.yul\":647:672   */\n  0x43616e6e6f74207472616e7366657220746f2073656c66000000000000000000\n    /* \"#utility.yul\":627:645   */\n  0x44\n  dup3\n  add\n    /* \"#utility.yul\":620:673   */\n  mstore\n    /* \"#utility.yul\":690:708   */\n  0x64\n  add\n    /* \"@chainlink/contracts-ccip/src/v0.8/shared/access/ConfirmedOwnerWithProposal.sol\":1641:1693  require(to != msg.sender, \"Cannot transfer to self\") */\n  tag_7\n    /* \"#utility.yul\":367:714   */\n  jump\n    /* \"@chainlink/contracts-ccip/src/v0.8/shared/access/ConfirmedOwnerWithProposal.sol\":1641:1693  require(to != msg.sender, \"Cannot transfer to self\") */\ntag_16:\n    /* \"@chainlink/contracts-ccip/src/v0.8/shared/access/ConfirmedOwnerWithProposal.sol\":1700:1714  s_pendingOwner */\n  0x01\n    /* \"@chainlink/contracts-ccip/src/v0.8/shared/access/ConfirmedOwnerWithProposal.sol\":1700:1719  s_pendingOwner = to */\n  dup1\n  sload\n  not(sub(shl(0xa0, 0x01), 0x01))\n  and\n  sub(shl(0xa0, 0x01), 0x01)\n  dup4\n  dup2\n  and\n  swap2\n  dup3\n  or\n  swap1\n  swap3\n  sstore\n  0x00\n    /* \"@chainlink/contracts-ccip/src/v0.8/shared/access/ConfirmedOwnerWithProposal.sol\":1758:1765  s_owner */\n  dup1\n  sload\n    /* \"@chainlink/contracts-ccip/src/v0.8/shared/access/ConfirmedOwnerWithProposal.sol\":1731:1770  OwnershipTransferRequested(s_owner, to) */\n  mload(0x40)\n    /* \"@chainlink/contracts-ccip/src/v0.8/shared/access/ConfirmedOwnerWithProposal.sol\":1700:1719  s_pendingOwner = to */\n  swap3\n  swap4\n    /* \"@chainlink/contracts-ccip/src/v0.8/shared/access/ConfirmedOwnerWithProposal.sol\":1758:1765  s_owner */\n  and\n  swap2\n    /* \"@chainlink/contracts-ccip/src/v0.8/shared/access/ConfirmedOwnerWithProposal.sol\":1731:1770  OwnershipTransferRequested(s_owner, to) */\n  0xed8889f560326eb138920d842192f0eb3dd22b4f139c87a2c57538e05bae1278\n  swap2\n  swap1\n  log3\n    /* \"@chainlink/contracts-ccip/src/v0.8/shared/access/ConfirmedOwnerWithProposal.sol\":1536:1775  function _transferOwnership(address to) private {... */\n  pop\n  jump\t// out\n    /* \"#utility.yul\":367:714   */\ntag_19:\n    /* \"utils/Withdraw.sol\":499:1289  contract Withdraw is OwnerIsCreator {... */\n  dataSize(sub_0)\n  dup1\n  dataOffset(sub_0)\n  0x00\n  codecopy\n  0x00\n  return\nstop\n\nsub_0: assembly {\n        /* \"utils/Withdraw.sol\":499:1289  contract Withdraw is OwnerIsCreator {... */\n      mstore(0x40, 0x80)\n      callvalue\n      dup1\n      iszero\n      tag_1\n      jumpi\n      0x00\n      dup1\n      revert\n    tag_1:\n      pop\n      jumpi(tag_2, lt(calldatasize, 0x04))\n      shr(0xe0, calldataload(0x00))\n      dup1\n      0x3aeac4e1\n      eq\n      tag_3\n      jumpi\n      dup1\n      0x51cff8d9\n      eq\n      tag_4\n      jumpi\n      dup1\n      0x79ba5097\n      eq\n      tag_5\n      jumpi\n      dup1\n      0x8da5cb5b\n      eq\n      tag_6\n      jumpi\n      dup1\n      0xf2fde38b\n      eq\n      tag_7\n      jumpi\n    tag_2:\n      0x00\n      dup1\n      revert\n        /* \"utils/Withdraw.sol\":1015:1286  function withdrawToken(address _beneficiary, address _token) public onlyOwner {... */\n    tag_3:\n      tag_8\n      tag_9\n      calldatasize\n      0x04\n      tag_10\n      jump\t// in\n    tag_9:\n      tag_11\n      jump\t// in\n    tag_8:\n      stop\n        /* \"utils/Withdraw.sol\":689:1007  function withdraw(address _beneficiary) public onlyOwner {... */\n    tag_4:\n      tag_8\n      tag_13\n      calldatasize\n      0x04\n      tag_14\n      jump\t// in\n    tag_13:\n      tag_15\n      jump\t// in\n        /* \"@chainlink/contracts-ccip/src/v0.8/shared/access/ConfirmedOwnerWithProposal.sol\":1026:1342  function acceptOwnership() external override {... */\n    tag_5:\n      tag_8\n      tag_17\n      jump\t// in\n        /* \"@chainlink/contracts-ccip/src/v0.8/shared/access/ConfirmedOwnerWithProposal.sol\":1382:1463  function owner() public view override returns (address) {... */\n    tag_6:\n        /* \"@chainlink/contracts-ccip/src/v0.8/shared/access/ConfirmedOwnerWithProposal.sol\":1429:1436  address */\n      0x00\n        /* \"@chainlink/contracts-ccip/src/v0.8/shared/access/ConfirmedOwnerWithProposal.sol\":1451:1458  s_owner */\n      sload\n        /* \"@chainlink/contracts-ccip/src/v0.8/shared/access/ConfirmedOwnerWithProposal.sol\":1382:1463  function owner() public view override returns (address) {... */\n      0x40\n      dup1\n      mload\n      sub(shl(0xa0, 0x01), 0x01)\n        /* \"@chainlink/contracts-ccip/src/v0.8/shared/access/ConfirmedOwnerWithProposal.sol\":1451:1458  s_owner */\n      swap1\n      swap3\n      and\n        /* \"#utility.yul\":794:845   */\n      dup3\n      mstore\n        /* \"@chainlink/contracts-ccip/src/v0.8/shared/access/ConfirmedOwnerWithProposal.sol\":1382:1463  function owner() public view override returns (address) {... */\n      mload\n      swap1\n      dup2\n      swap1\n      sub\n        /* \"#utility.yul\":782:784   */\n      0x20\n        /* \"@chainlink/contracts-ccip/src/v0.8/shared/access/ConfirmedOwnerWithProposal.sol\":1382:1463  function owner() public view override returns (address) {... */\n      add\n      swap1\n      return\n        /* \"@chainlink/contracts-ccip/src/v0.8/shared/access/ConfirmedOwnerWithProposal.sol\":847:945  function transferOwnership(address to) public override onlyOwner {... */\n    tag_7:\n      tag_8\n      tag_23\n      calldatasize\n      0x04\n      tag_14\n      jump\t// in\n    tag_23:\n      tag_24\n      jump\t// in\n        /* \"utils/Withdraw.sol\":1015:1286  function withdrawToken(address _beneficiary, address _token) public onlyOwner {... */\n    tag_11:\n        /* \"@chainlink/contracts-ccip/src/v0.8/shared/access/ConfirmedOwnerWithProposal.sol\":2075:2095  _validateOwnership() */\n      tag_26\n        /* \"@chainlink/contracts-ccip/src/v0.8/shared/access/ConfirmedOwnerWithProposal.sol\":2075:2093  _validateOwnership */\n      tag_27\n        /* \"@chainlink/contracts-ccip/src/v0.8/shared/access/ConfirmedOwnerWithProposal.sol\":2075:2095  _validateOwnership() */\n      jump\t// in\n    tag_26:\n        /* \"utils/Withdraw.sol\":1121:1160  IERC20(_token).balanceOf(address(this)) */\n      mload(0x40)\n      shl(0xe0, 0x70a08231)\n      dup2\n      mstore\n        /* \"utils/Withdraw.sol\":1154:1158  this */\n      address\n        /* \"utils/Withdraw.sol\":1121:1160  IERC20(_token).balanceOf(address(this)) */\n      0x04\n      dup3\n      add\n        /* \"#utility.yul\":794:845   */\n      mstore\n        /* \"utils/Withdraw.sol\":1104:1118  uint256 amount */\n      0x00\n      swap1\n      sub(shl(0xa0, 0x01), 0x01)\n        /* \"utils/Withdraw.sol\":1121:1145  IERC20(_token).balanceOf */\n      dup4\n      and\n      swap1\n      0x70a08231\n      swap1\n        /* \"#utility.yul\":767:785   */\n      0x24\n      add\n        /* \"utils/Withdraw.sol\":1121:1160  IERC20(_token).balanceOf(address(this)) */\n      0x20\n      mload(0x40)\n      dup1\n      dup4\n      sub\n      dup2\n      dup7\n      gas\n      staticcall\n      iszero\n      dup1\n      iszero\n      tag_31\n      jumpi\n      returndatasize\n      0x00\n      dup1\n      returndatacopy\n      revert(0x00, returndatasize)\n    tag_31:\n      pop\n      pop\n      pop\n      pop\n      mload(0x40)\n      returndatasize\n      not(0x1f)\n      0x1f\n      dup3\n      add\n      and\n      dup3\n      add\n      dup1\n      0x40\n      mstore\n      pop\n      dup2\n      add\n      swap1\n      tag_32\n      swap2\n      swap1\n      tag_33\n      jump\t// in\n    tag_32:\n        /* \"utils/Withdraw.sol\":1104:1160  uint256 amount = IERC20(_token).balanceOf(address(this)) */\n      swap1\n      pop\n        /* \"utils/Withdraw.sol\":1177:1183  amount */\n      dup1\n        /* \"utils/Withdraw.sol\":1187:1188  0 */\n      0x00\n        /* \"utils/Withdraw.sol\":1177:1188  amount == 0 */\n      sub\n        /* \"utils/Withdraw.sol\":1173:1216  if (amount == 0) revert NothingToWithdraw() */\n      tag_34\n      jumpi\n        /* \"utils/Withdraw.sol\":1197:1216  NothingToWithdraw() */\n      mload(0x40)\n      shl(0xe5, 0x0686827b)\n      dup2\n      mstore\n      0x04\n      add\n      mload(0x40)\n      dup1\n      swap2\n      sub\n      swap1\n      revert\n        /* \"utils/Withdraw.sol\":1173:1216  if (amount == 0) revert NothingToWithdraw() */\n    tag_34:\n        /* \"utils/Withdraw.sol\":1229:1278  IERC20(_token).safeTransfer(_beneficiary, amount) */\n      tag_35\n      sub(shl(0xa0, 0x01), 0x01)\n        /* \"utils/Withdraw.sol\":1229:1256  IERC20(_token).safeTransfer */\n      dup4\n      and\n        /* \"utils/Withdraw.sol\":1257:1269  _beneficiary */\n      dup5\n        /* \"utils/Withdraw.sol\":1271:1277  amount */\n      dup4\n        /* \"utils/Withdraw.sol\":1229:1256  IERC20(_token).safeTransfer */\n      tag_36\n        /* \"utils/Withdraw.sol\":1229:1278  IERC20(_token).safeTransfer(_beneficiary, amount) */\n      jump\t// in\n    tag_35:\n        /* \"utils/Withdraw.sol\":1093:1286  {... */\n      pop\n        /* \"utils/Withdraw.sol\":1015:1286  function withdrawToken(address _beneficiary, address _token) public onlyOwner {... */\n      pop\n      pop\n      jump\t// out\n        /* \"utils/Withdraw.sol\":689:1007  function withdraw(address _beneficiary) public onlyOwner {... */\n    tag_15:\n        /* \"@chainlink/contracts-ccip/src/v0.8/shared/access/ConfirmedOwnerWithProposal.sol\":2075:2095  _validateOwnership() */\n      tag_38\n        /* \"@chainlink/contracts-ccip/src/v0.8/shared/access/ConfirmedOwnerWithProposal.sol\":2075:2093  _validateOwnership */\n      tag_27\n        /* \"@chainlink/contracts-ccip/src/v0.8/shared/access/ConfirmedOwnerWithProposal.sol\":2075:2095  _validateOwnership() */\n      jump\t// in\n    tag_38:\n        /* \"utils/Withdraw.sol\":774:795  address(this).balance */\n      selfbalance\n        /* \"utils/Withdraw.sol\":757:771  uint256 amount */\n      0x00\n        /* \"utils/Withdraw.sol\":812:823  amount == 0 */\n      dup2\n      swap1\n      sub\n        /* \"utils/Withdraw.sol\":808:851  if (amount == 0) revert NothingToWithdraw() */\n      tag_40\n      jumpi\n        /* \"utils/Withdraw.sol\":832:851  NothingToWithdraw() */\n      mload(0x40)\n      shl(0xe5, 0x0686827b)\n      dup2\n      mstore\n      0x04\n      add\n      mload(0x40)\n      dup1\n      swap2\n      sub\n      swap1\n      revert\n        /* \"utils/Withdraw.sol\":808:851  if (amount == 0) revert NothingToWithdraw() */\n    tag_40:\n        /* \"utils/Withdraw.sol\":865:874  bool sent */\n      0x00\n        /* \"utils/Withdraw.sol\":879:891  _beneficiary */\n      dup3\n      sub(shl(0xa0, 0x01), 0x01)\n        /* \"utils/Withdraw.sol\":879:896  _beneficiary.call */\n      and\n        /* \"utils/Withdraw.sol\":904:910  amount */\n      dup3\n        /* \"utils/Withdraw.sol\":879:915  _beneficiary.call{value: amount}(\"\") */\n      mload(0x40)\n      0x00\n      mload(0x40)\n      dup1\n      dup4\n      sub\n      dup2\n      dup6\n      dup8\n      gas\n      call\n      swap3\n      pop\n      pop\n      pop\n      returndatasize\n      dup1\n      0x00\n      dup2\n      eq\n      tag_45\n      jumpi\n      mload(0x40)\n      swap2\n      pop\n      and(add(returndatasize, 0x3f), not(0x1f))\n      dup3\n      add\n      0x40\n      mstore\n      returndatasize\n      dup3\n      mstore\n      returndatasize\n      0x00\n      0x20\n      dup5\n      add\n      returndatacopy\n      jump(tag_44)\n    tag_45:\n      0x60\n      swap2\n      pop\n    tag_44:\n      pop\n        /* \"utils/Withdraw.sol\":864:915  (bool sent,) = _beneficiary.call{value: amount}(\"\") */\n      pop\n      swap1\n      pop\n        /* \"utils/Withdraw.sol\":933:937  sent */\n      dup1\n        /* \"utils/Withdraw.sol\":928:999  if (!sent) revert FailedToWithdrawEth(msg.sender, _beneficiary, amount) */\n      tag_35\n      jumpi\n        /* \"utils/Withdraw.sol\":946:999  FailedToWithdrawEth(msg.sender, _beneficiary, amount) */\n      mload(0x40)\n      shl(0xe0, 0x9d11f563)\n      dup2\n      mstore\n        /* \"utils/Withdraw.sol\":966:976  msg.sender */\n      caller\n        /* \"utils/Withdraw.sol\":946:999  FailedToWithdrawEth(msg.sender, _beneficiary, amount) */\n      0x04\n      dup3\n      add\n        /* \"#utility.yul\":1495:1529   */\n      mstore\n      sub(shl(0xa0, 0x01), 0x01)\n        /* \"#utility.yul\":1565:1580   */\n      dup5\n      and\n        /* \"#utility.yul\":1545:1563   */\n      0x24\n      dup3\n      add\n        /* \"#utility.yul\":1538:1581   */\n      mstore\n        /* \"#utility.yul\":1597:1615   */\n      0x44\n      dup2\n      add\n        /* \"#utility.yul\":1590:1624   */\n      dup4\n      swap1\n      mstore\n        /* \"#utility.yul\":1430:1448   */\n      0x64\n      add\n        /* \"utils/Withdraw.sol\":946:999  FailedToWithdrawEth(msg.sender, _beneficiary, amount) */\n    tag_47:\n      mload(0x40)\n      dup1\n      swap2\n      sub\n      swap1\n      revert\n        /* \"@chainlink/contracts-ccip/src/v0.8/shared/access/ConfirmedOwnerWithProposal.sol\":1026:1342  function acceptOwnership() external override {... */\n    tag_17:\n        /* \"@chainlink/contracts-ccip/src/v0.8/shared/access/ConfirmedOwnerWithProposal.sol\":1150:1164  s_pendingOwner */\n      and(sub(shl(0xa0, 0x01), 0x01), sload(0x01))\n        /* \"@chainlink/contracts-ccip/src/v0.8/shared/access/ConfirmedOwnerWithProposal.sol\":1136:1146  msg.sender */\n      caller\n        /* \"@chainlink/contracts-ccip/src/v0.8/shared/access/ConfirmedOwnerWithProposal.sol\":1136:1164  msg.sender == s_pendingOwner */\n      eq\n        /* \"@chainlink/contracts-ccip/src/v0.8/shared/access/ConfirmedOwnerWithProposal.sol\":1128:1191  require(msg.sender == s_pendingOwner, \"Must be proposed owner\") */\n      tag_50\n      jumpi\n      mload(0x40)\n      shl(0xe5, 0x461bcd)\n      dup2\n      mstore\n        /* \"#utility.yul\":1837:1839   */\n      0x20\n        /* \"@chainlink/contracts-ccip/src/v0.8/shared/access/ConfirmedOwnerWithProposal.sol\":1128:1191  require(msg.sender == s_pendingOwner, \"Must be proposed owner\") */\n      0x04\n      dup3\n      add\n        /* \"#utility.yul\":1819:1840   */\n      mstore\n        /* \"#utility.yul\":1876:1878   */\n      0x16\n        /* \"#utility.yul\":1856:1874   */\n      0x24\n      dup3\n      add\n        /* \"#utility.yul\":1849:1879   */\n      mstore\n      shl(0x51, 0x26bab9ba10313290383937b837b9b2b21037bbb732b9)\n        /* \"#utility.yul\":1895:1913   */\n      0x44\n      dup3\n      add\n        /* \"#utility.yul\":1888:1940   */\n      mstore\n        /* \"#utility.yul\":1957:1975   */\n      0x64\n      add\n        /* \"@chainlink/contracts-ccip/src/v0.8/shared/access/ConfirmedOwnerWithProposal.sol\":1128:1191  require(msg.sender == s_pendingOwner, \"Must be proposed owner\") */\n      tag_47\n        /* \"#utility.yul\":1635:1981   */\n      jump\n        /* \"@chainlink/contracts-ccip/src/v0.8/shared/access/ConfirmedOwnerWithProposal.sol\":1128:1191  require(msg.sender == s_pendingOwner, \"Must be proposed owner\") */\n    tag_50:\n        /* \"@chainlink/contracts-ccip/src/v0.8/shared/access/ConfirmedOwnerWithProposal.sol\":1198:1214  address oldOwner */\n      0x00\n        /* \"@chainlink/contracts-ccip/src/v0.8/shared/access/ConfirmedOwnerWithProposal.sol\":1217:1224  s_owner */\n      dup1\n      sload\n        /* \"@chainlink/contracts-ccip/src/v0.8/shared/access/ConfirmedOwnerWithProposal.sol\":1240:1250  msg.sender */\n      caller\n      not(sub(shl(0xa0, 0x01), 0x01))\n        /* \"@chainlink/contracts-ccip/src/v0.8/shared/access/ConfirmedOwnerWithProposal.sol\":1230:1250  s_owner = msg.sender */\n      dup1\n      dup4\n      and\n      dup3\n      or\n      dup5\n      sstore\n      0x01\n        /* \"@chainlink/contracts-ccip/src/v0.8/shared/access/ConfirmedOwnerWithProposal.sol\":1256:1283  s_pendingOwner = address(0) */\n      dup1\n      sload\n      swap1\n      swap2\n      and\n      swap1\n      sstore\n        /* \"@chainlink/contracts-ccip/src/v0.8/shared/access/ConfirmedOwnerWithProposal.sol\":1295:1337  OwnershipTransferred(oldOwner, msg.sender) */\n      mload(0x40)\n      sub(shl(0xa0, 0x01), 0x01)\n        /* \"@chainlink/contracts-ccip/src/v0.8/shared/access/ConfirmedOwnerWithProposal.sol\":1217:1224  s_owner */\n      swap1\n      swap3\n      and\n      swap3\n        /* \"@chainlink/contracts-ccip/src/v0.8/shared/access/ConfirmedOwnerWithProposal.sol\":1240:1250  msg.sender */\n      swap1\n      swap2\n        /* \"@chainlink/contracts-ccip/src/v0.8/shared/access/ConfirmedOwnerWithProposal.sol\":1217:1224  s_owner */\n      dup4\n      swap2\n        /* \"@chainlink/contracts-ccip/src/v0.8/shared/access/ConfirmedOwnerWithProposal.sol\":1295:1337  OwnershipTransferred(oldOwner, msg.sender) */\n      0x8be0079c531659141344cd1fd0a4f28419497f9722a3daafe3b4186f6b6457e0\n      swap2\n      log3\n        /* \"@chainlink/contracts-ccip/src/v0.8/shared/access/ConfirmedOwnerWithProposal.sol\":1071:1342  {... */\n      pop\n        /* \"@chainlink/contracts-ccip/src/v0.8/shared/access/ConfirmedOwnerWithProposal.sol\":1026:1342  function acceptOwnership() external override {... */\n      jump\t// out\n        /* \"@chainlink/contracts-ccip/src/v0.8/shared/access/ConfirmedOwnerWithProposal.sol\":847:945  function transferOwnership(address to) public override onlyOwner {... */\n    tag_24:\n        /* \"@chainlink/contracts-ccip/src/v0.8/shared/access/ConfirmedOwnerWithProposal.sol\":2075:2095  _validateOwnership() */\n      tag_55\n        /* \"@chainlink/contracts-ccip/src/v0.8/shared/access/ConfirmedOwnerWithProposal.sol\":2075:2093  _validateOwnership */\n      tag_27\n        /* \"@chainlink/contracts-ccip/src/v0.8/shared/access/ConfirmedOwnerWithProposal.sol\":2075:2095  _validateOwnership() */\n      jump\t// in\n    tag_55:\n        /* \"@chainlink/contracts-ccip/src/v0.8/shared/access/ConfirmedOwnerWithProposal.sol\":918:940  _transferOwnership(to) */\n      tag_57\n        /* \"@chainlink/contracts-ccip/src/v0.8/shared/access/ConfirmedOwnerWithProposal.sol\":937:939  to */\n      dup2\n        /* \"@chainlink/contracts-ccip/src/v0.8/shared/access/ConfirmedOwnerWithProposal.sol\":918:936  _transferOwnership */\n      tag_58\n        /* \"@chainlink/contracts-ccip/src/v0.8/shared/access/ConfirmedOwnerWithProposal.sol\":918:940  _transferOwnership(to) */\n      jump\t// in\n    tag_57:\n        /* \"@chainlink/contracts-ccip/src/v0.8/shared/access/ConfirmedOwnerWithProposal.sol\":847:945  function transferOwnership(address to) public override onlyOwner {... */\n      pop\n      jump\t// out\n        /* \"@chainlink/contracts-ccip/src/v0.8/shared/access/ConfirmedOwnerWithProposal.sol\":1809:1971  function _validateOwnership() internal view {... */\n    tag_27:\n        /* \"@chainlink/contracts-ccip/src/v0.8/shared/access/ConfirmedOwnerWithProposal.sol\":1932:1939  s_owner */\n      and(sub(shl(0xa0, 0x01), 0x01), sload(0x00))\n        /* \"@chainlink/contracts-ccip/src/v0.8/shared/access/ConfirmedOwnerWithProposal.sol\":1918:1928  msg.sender */\n      caller\n        /* \"@chainlink/contracts-ccip/src/v0.8/shared/access/ConfirmedOwnerWithProposal.sol\":1918:1939  msg.sender == s_owner */\n      eq\n        /* \"@chainlink/contracts-ccip/src/v0.8/shared/access/ConfirmedOwnerWithProposal.sol\":1910:1966  require(msg.sender == s_owner, \"Only callable by owner\") */\n      tag_60\n      jumpi\n      mload(0x40)\n      shl(0xe5, 0x461bcd)\n      dup2\n      mstore\n        /* \"#utility.yul\":2188:2190   */\n      0x20\n        /* \"@chainlink/contracts-ccip/src/v0.8/shared/access/ConfirmedOwnerWithProposal.sol\":1910:1966  require(msg.sender == s_owner, \"Only callable by owner\") */\n      0x04\n      dup3\n      add\n        /* \"#utility.yul\":2170:2191   */\n      mstore\n        /* \"#utility.yul\":2227:2229   */\n      0x16\n        /* \"#utility.yul\":2207:2225   */\n      0x24\n      dup3\n      add\n        /* \"#utility.yul\":2200:2230   */\n      mstore\n      shl(0x51, 0x27b7363c9031b0b63630b1363290313c9037bbb732b9)\n        /* \"#utility.yul\":2246:2264   */\n      0x44\n      dup3\n      add\n        /* \"#utility.yul\":2239:2291   */\n      mstore\n        /* \"#utility.yul\":2308:2326   */\n      0x64\n      add\n        /* \"@chainlink/contracts-ccip/src/v0.8/shared/access/ConfirmedOwnerWithProposal.sol\":1910:1966  require(msg.sender == s_owner, \"Only callable by owner\") */\n      tag_47\n        /* \"#utility.yul\":1986:2332   */\n      jump\n        /* \"@chainlink/contracts-ccip/src/v0.8/shared/access/ConfirmedOwnerWithProposal.sol\":1910:1966  require(msg.sender == s_owner, \"Only callable by owner\") */\n    tag_60:\n        /* \"@chainlink/contracts-ccip/src/v0.8/shared/access/ConfirmedOwnerWithProposal.sol\":1809:1971  function _validateOwnership() internal view {... */\n      jump\t// out\n        /* \"@openzeppelin/contracts/token/ERC20/utils/SafeERC20.sol\":1271:1431  function safeTransfer(IERC20 token, address to, uint256 value) internal {... */\n    tag_36:\n        /* \"@openzeppelin/contracts/token/ERC20/utils/SafeERC20.sol\":1380:1423  abi.encodeCall(token.transfer, (to, value)) */\n      0x40\n      dup1\n      mload\n      sub(shl(0xa0, 0x01), 0x01)\n        /* \"#utility.yul\":2529:2561   */\n      dup5\n      and\n        /* \"@openzeppelin/contracts/token/ERC20/utils/SafeERC20.sol\":1380:1423  abi.encodeCall(token.transfer, (to, value)) */\n      0x24\n      dup3\n      add\n        /* \"#utility.yul\":2511:2562   */\n      mstore\n        /* \"#utility.yul\":2578:2596   */\n      0x44\n      dup1\n      dup3\n      add\n        /* \"#utility.yul\":2571:2605   */\n      dup5\n      swap1\n      mstore\n        /* \"@openzeppelin/contracts/token/ERC20/utils/SafeERC20.sol\":1380:1423  abi.encodeCall(token.transfer, (to, value)) */\n      dup3\n      mload\n      dup1\n      dup4\n      sub\n      swap1\n      swap2\n      add\n      dup2\n      mstore\n        /* \"#utility.yul\":2484:2502   */\n      0x64\n      swap1\n      swap2\n      add\n        /* \"@openzeppelin/contracts/token/ERC20/utils/SafeERC20.sol\":1380:1423  abi.encodeCall(token.transfer, (to, value)) */\n      swap1\n      swap2\n      mstore\n      0x20\n      dup2\n      add\n      dup1\n      mload\n      sub(shl(0xe0, 0x01), 0x01)\n      and\n      shl(0xe0, 0xa9059cbb)\n      or\n      swap1\n      mstore\n        /* \"@openzeppelin/contracts/token/ERC20/utils/SafeERC20.sol\":1353:1424  _callOptionalReturn(token, abi.encodeCall(token.transfer, (to, value))) */\n      tag_35\n      swap1\n        /* \"@openzeppelin/contracts/token/ERC20/utils/SafeERC20.sol\":1373:1378  token */\n      dup5\n      swap1\n        /* \"@openzeppelin/contracts/token/ERC20/utils/SafeERC20.sol\":1353:1372  _callOptionalReturn */\n      tag_67\n        /* \"@openzeppelin/contracts/token/ERC20/utils/SafeERC20.sol\":1353:1424  _callOptionalReturn(token, abi.encodeCall(token.transfer, (to, value))) */\n      jump\t// in\n        /* \"@chainlink/contracts-ccip/src/v0.8/shared/access/ConfirmedOwnerWithProposal.sol\":1536:1775  function _transferOwnership(address to) private {... */\n    tag_58:\n        /* \"@chainlink/contracts-ccip/src/v0.8/shared/access/ConfirmedOwnerWithProposal.sol\":1655:1665  msg.sender */\n      caller\n      sub(shl(0xa0, 0x01), 0x01)\n        /* \"@chainlink/contracts-ccip/src/v0.8/shared/access/ConfirmedOwnerWithProposal.sol\":1649:1665  to != msg.sender */\n      dup3\n      and\n      sub\n        /* \"@chainlink/contracts-ccip/src/v0.8/shared/access/ConfirmedOwnerWithProposal.sol\":1641:1693  require(to != msg.sender, \"Cannot transfer to self\") */\n      tag_69\n      jumpi\n      mload(0x40)\n      shl(0xe5, 0x461bcd)\n      dup2\n      mstore\n        /* \"#utility.yul\":2818:2820   */\n      0x20\n        /* \"@chainlink/contracts-ccip/src/v0.8/shared/access/ConfirmedOwnerWithProposal.sol\":1641:1693  require(to != msg.sender, \"Cannot transfer to self\") */\n      0x04\n      dup3\n      add\n        /* \"#utility.yul\":2800:2821   */\n      mstore\n        /* \"#utility.yul\":2857:2859   */\n      0x17\n        /* \"#utility.yul\":2837:2855   */\n      0x24\n      dup3\n      add\n        /* \"#utility.yul\":2830:2860   */\n      mstore\n        /* \"#utility.yul\":2896:2921   */\n      0x43616e6e6f74207472616e7366657220746f2073656c66000000000000000000\n        /* \"#utility.yul\":2876:2894   */\n      0x44\n      dup3\n      add\n        /* \"#utility.yul\":2869:2922   */\n      mstore\n        /* \"#utility.yul\":2939:2957   */\n      0x64\n      add\n        /* \"@chainlink/contracts-ccip/src/v0.8/shared/access/ConfirmedOwnerWithProposal.sol\":1641:1693  require(to != msg.sender, \"Cannot transfer to self\") */\n      tag_47\n        /* \"#utility.yul\":2616:2963   */\n      jump\n        /* \"@chainlink/contracts-ccip/src/v0.8/shared/access/ConfirmedOwnerWithProposal.sol\":1641:1693  require(to != msg.sender, \"Cannot transfer to self\") */\n    tag_69:\n        /* \"@chainlink/contracts-ccip/src/v0.8/shared/access/ConfirmedOwnerWithProposal.sol\":1700:1714  s_pendingOwner */\n      0x01\n        /* \"@chainlink/contracts-ccip/src/v0.8/shared/access/ConfirmedOwnerWithProposal.sol\":1700:1719  s_pendingOwner = to */\n      dup1\n      sload\n      not(sub(shl(0xa0, 0x01), 0x01))\n      and\n      sub(shl(0xa0, 0x01), 0x01)\n      dup4\n      dup2\n      and\n      swap2\n      dup3\n      or\n      swap1\n      swap3\n      sstore\n      0x00\n        /* \"@chainlink/contracts-ccip/src/v0.8/shared/access/ConfirmedOwnerWithProposal.sol\":1758:1765  s_owner */\n      dup1\n      sload\n        /* \"@chainlink/contracts-ccip/src/v0.8/shared/access/ConfirmedOwnerWithProposal.sol\":1731:1770  OwnershipTransferRequested(s_owner, to) */\n      mload(0x40)\n        /* \"@chainlink/contracts-ccip/src/v0.8/shared/access/ConfirmedOwnerWithProposal.sol\":1700:1719  s_pendingOwner = to */\n      swap3\n      swap4\n        /* \"@chainlink/contracts-ccip/src/v0.8/shared/access/ConfirmedOwnerWithProposal.sol\":1758:1765  s_owner */\n      and\n      swap2\n        /* \"@chainlink/contracts-ccip/src/v0.8/shared/access/ConfirmedOwnerWithProposal.sol\":1731:1770  OwnershipTransferRequested(s_owner, to) */\n      0xed8889f560326eb138920d842192f0eb3dd22b4f139c87a2c57538e05bae1278\n      swap2\n      swap1\n      log3\n        /* \"@chainlink/contracts-ccip/src/v0.8/shared/access/ConfirmedOwnerWithProposal.sol\":1536:1775  function _transferOwnership(address to) private {... */\n      pop\n      jump\t// out\n        /* \"@openzeppelin/contracts/token/ERC20/utils/SafeERC20.sol\":7738:8458  function _callOptionalReturn(IERC20 token, bytes memory data) private {... */\n    tag_67:\n        /* \"@openzeppelin/contracts/token/ERC20/utils/SafeERC20.sol\":7818:7836  uint256 returnSize */\n      0x00\n        /* \"@openzeppelin/contracts/token/ERC20/utils/SafeERC20.sol\":7846:7865  uint256 returnValue */\n      dup1\n        /* \"@openzeppelin/contracts/token/ERC20/utils/SafeERC20.sol\":7984:7988  0x20 */\n      0x20\n        /* \"@openzeppelin/contracts/token/ERC20/utils/SafeERC20.sol\":7981:7982  0 */\n      0x00\n        /* \"@openzeppelin/contracts/token/ERC20/utils/SafeERC20.sol\":7974:7978  data */\n      dup5\n        /* \"@openzeppelin/contracts/token/ERC20/utils/SafeERC20.sol\":7968:7979  mload(data) */\n      mload\n        /* \"@openzeppelin/contracts/token/ERC20/utils/SafeERC20.sol\":7961:7965  0x20 */\n      0x20\n        /* \"@openzeppelin/contracts/token/ERC20/utils/SafeERC20.sol\":7955:7959  data */\n      dup7\n        /* \"@openzeppelin/contracts/token/ERC20/utils/SafeERC20.sol\":7951:7966  add(data, 0x20) */\n      add\n        /* \"@openzeppelin/contracts/token/ERC20/utils/SafeERC20.sol\":7948:7949  0 */\n      0x00\n        /* \"@openzeppelin/contracts/token/ERC20/utils/SafeERC20.sol\":7941:7946  token */\n      dup9\n        /* \"@openzeppelin/contracts/token/ERC20/utils/SafeERC20.sol\":7934:7939  gas() */\n      gas\n        /* \"@openzeppelin/contracts/token/ERC20/utils/SafeERC20.sol\":7929:7989  call(gas(), token, 0, add(data, 0x20), mload(data), 0, 0x20) */\n      call\n        /* \"@openzeppelin/contracts/token/ERC20/utils/SafeERC20.sol\":8041:8048  success */\n      dup1\n        /* \"@openzeppelin/contracts/token/ERC20/utils/SafeERC20.sol\":8031:8207  if iszero(success) {... */\n      tag_73\n      jumpi\n        /* \"@openzeppelin/contracts/token/ERC20/utils/SafeERC20.sol\":8085:8089  0x40 */\n      0x40\n        /* \"@openzeppelin/contracts/token/ERC20/utils/SafeERC20.sol\":8079:8090  mload(0x40) */\n      mload\n        /* \"@openzeppelin/contracts/token/ERC20/utils/SafeERC20.sol\":8130:8146  returndatasize() */\n      returndatasize\n        /* \"@openzeppelin/contracts/token/ERC20/utils/SafeERC20.sol\":8127:8128  0 */\n      0x00\n        /* \"@openzeppelin/contracts/token/ERC20/utils/SafeERC20.sol\":8122:8125  ptr */\n      dup3\n        /* \"@openzeppelin/contracts/token/ERC20/utils/SafeERC20.sol\":8107:8147  returndatacopy(ptr, 0, returndatasize()) */\n      returndatacopy\n        /* \"@openzeppelin/contracts/token/ERC20/utils/SafeERC20.sol\":8176:8192  returndatasize() */\n      returndatasize\n        /* \"@openzeppelin/contracts/token/ERC20/utils/SafeERC20.sol\":8171:8174  ptr */\n      dup2\n        /* \"@openzeppelin/contracts/token/ERC20/utils/SafeERC20.sol\":8164:8193  revert(ptr, returndatasize()) */\n      revert\n        /* \"@openzeppelin/contracts/token/ERC20/utils/SafeERC20.sol\":8031:8207  if iszero(success) {... */\n    tag_73:\n      pop\n      pop\n        /* \"@openzeppelin/contracts/token/ERC20/utils/SafeERC20.sol\":8284:8285  0 */\n      0x00\n        /* \"@openzeppelin/contracts/token/ERC20/utils/SafeERC20.sol\":8278:8286  mload(0) */\n      mload\n        /* \"@openzeppelin/contracts/token/ERC20/utils/SafeERC20.sol\":8234:8250  returndatasize() */\n      returndatasize\n      swap2\n      pop\n        /* \"@openzeppelin/contracts/token/ERC20/utils/SafeERC20.sol\":8310:8325  returnSize == 0 */\n      dup2\n      iszero\n        /* \"@openzeppelin/contracts/token/ERC20/utils/SafeERC20.sol\":8310:8378  returnSize == 0 ? address(token).code.length == 0 : returnValue != 1 */\n      tag_74\n      jumpi\n        /* \"@openzeppelin/contracts/token/ERC20/utils/SafeERC20.sol\":8362:8373  returnValue */\n      dup1\n        /* \"@openzeppelin/contracts/token/ERC20/utils/SafeERC20.sol\":8377:8378  1 */\n      0x01\n        /* \"@openzeppelin/contracts/token/ERC20/utils/SafeERC20.sol\":8362:8378  returnValue != 1 */\n      eq\n      iszero\n        /* \"@openzeppelin/contracts/token/ERC20/utils/SafeERC20.sol\":8310:8378  returnSize == 0 ? address(token).code.length == 0 : returnValue != 1 */\n      jump(tag_75)\n    tag_74:\n      sub(shl(0xa0, 0x01), 0x01)\n        /* \"@openzeppelin/contracts/token/ERC20/utils/SafeERC20.sol\":8328:8354  address(token).code.length */\n      dup5\n      and\n      extcodesize\n        /* \"@openzeppelin/contracts/token/ERC20/utils/SafeERC20.sol\":8328:8359  address(token).code.length == 0 */\n      iszero\n        /* \"@openzeppelin/contracts/token/ERC20/utils/SafeERC20.sol\":8310:8378  returnSize == 0 ? address(token).code.length == 0 : returnValue != 1 */\n    tag_75:\n        /* \"@openzeppelin/contracts/token/ERC20/utils/SafeERC20.sol\":8306:8452  if (returnSize == 0 ? address(token).code.length == 0 : returnValue != 1) {... */\n      iszero\n      tag_76\n      jumpi\n        /* \"@openzeppelin/contracts/token/ERC20/utils/SafeERC20.sol\":8401:8441  SafeERC20FailedOperation(address(token)) */\n      mload(0x40)\n      shl(0xe0, 0x5274afe7)\n      dup2\n      mstore\n      sub(shl(0xa0, 0x01), 0x01)\n        /* \"#utility.yul\":812:844   */\n      dup6\n      and\n        /* \"@openzeppelin/contracts/token/ERC20/utils/SafeERC20.sol\":8401:8441  SafeERC20FailedOperation(address(token)) */\n      0x04\n      dup3\n      add\n        /* \"#utility.yul\":794:845   */\n      mstore\n        /* \"#utility.yul\":767:785   */\n      0x24\n      add\n        /* \"@openzeppelin/contracts/token/ERC20/utils/SafeERC20.sol\":8401:8441  SafeERC20FailedOperation(address(token)) */\n      tag_47\n        /* \"#utility.yul\":648:851   */\n      jump\n        /* \"@openzeppelin/contracts/token/ERC20/utils/SafeERC20.sol\":8306:8452  if (returnSize == 0 ? address(token).code.length == 0 : returnValue != 1) {... */\n    tag_76:\n        /* \"@openzeppelin/contracts/token/ERC20/utils/SafeERC20.sol\":7808:8458  {... */\n      pop\n      pop\n        /* \"@openzeppelin/contracts/token/ERC20/utils/SafeERC20.sol\":7738:8458  function _callOptionalReturn(IERC20 token, bytes memory data) private {... */\n      pop\n      pop\n      jump\t// out\n        /* \"#utility.yul\":14:187   */\n    tag_78:\n        /* \"#utility.yul\":82:102   */\n      dup1\n      calldataload\n      sub(shl(0xa0, 0x01), 0x01)\n        /* \"#utility.yul\":131:162   */\n      dup2\n      and\n        /* \"#utility.yul\":121:163   */\n      dup2\n      eq\n        /* \"#utility.yul\":111:181   */\n      tag_81\n      jumpi\n        /* \"#utility.yul\":177:178   */\n      0x00\n        /* \"#utility.yul\":174:175   */\n      dup1\n        /* \"#utility.yul\":167:179   */\n      revert\n        /* \"#utility.yul\":111:181   */\n    tag_81:\n        /* \"#utility.yul\":14:187   */\n      swap2\n      swap1\n      pop\n      jump\t// out\n        /* \"#utility.yul\":192:452   */\n    tag_10:\n        /* \"#utility.yul\":260:266   */\n      0x00\n        /* \"#utility.yul\":268:274   */\n      dup1\n        /* \"#utility.yul\":321:323   */\n      0x40\n        /* \"#utility.yul\":309:318   */\n      dup4\n        /* \"#utility.yul\":300:307   */\n      dup6\n        /* \"#utility.yul\":296:319   */\n      sub\n        /* \"#utility.yul\":292:324   */\n      slt\n        /* \"#utility.yul\":289:341   */\n      iszero\n      tag_83\n      jumpi\n        /* \"#utility.yul\":337:338   */\n      0x00\n        /* \"#utility.yul\":334:335   */\n      dup1\n        /* \"#utility.yul\":327:339   */\n      revert\n        /* \"#utility.yul\":289:341   */\n    tag_83:\n        /* \"#utility.yul\":360:389   */\n      tag_84\n        /* \"#utility.yul\":379:388   */\n      dup4\n        /* \"#utility.yul\":360:389   */\n      tag_78\n      jump\t// in\n    tag_84:\n        /* \"#utility.yul\":350:389   */\n      swap2\n      pop\n        /* \"#utility.yul\":408:446   */\n      tag_85\n        /* \"#utility.yul\":442:444   */\n      0x20\n        /* \"#utility.yul\":431:440   */\n      dup5\n        /* \"#utility.yul\":427:445   */\n      add\n        /* \"#utility.yul\":408:446   */\n      tag_78\n      jump\t// in\n    tag_85:\n        /* \"#utility.yul\":398:446   */\n      swap1\n      pop\n        /* \"#utility.yul\":192:452   */\n      swap3\n      pop\n      swap3\n      swap1\n      pop\n      jump\t// out\n        /* \"#utility.yul\":457:643   */\n    tag_14:\n        /* \"#utility.yul\":516:522   */\n      0x00\n        /* \"#utility.yul\":569:571   */\n      0x20\n        /* \"#utility.yul\":557:566   */\n      dup3\n        /* \"#utility.yul\":548:555   */\n      dup5\n        /* \"#utility.yul\":544:567   */\n      sub\n        /* \"#utility.yul\":540:572   */\n      slt\n        /* \"#utility.yul\":537:589   */\n      iszero\n      tag_87\n      jumpi\n        /* \"#utility.yul\":585:586   */\n      0x00\n        /* \"#utility.yul\":582:583   */\n      dup1\n        /* \"#utility.yul\":575:587   */\n      revert\n        /* \"#utility.yul\":537:589   */\n    tag_87:\n        /* \"#utility.yul\":608:637   */\n      tag_88\n        /* \"#utility.yul\":627:636   */\n      dup3\n        /* \"#utility.yul\":608:637   */\n      tag_78\n      jump\t// in\n    tag_88:\n        /* \"#utility.yul\":598:637   */\n      swap4\n        /* \"#utility.yul\":457:643   */\n      swap3\n      pop\n      pop\n      pop\n      jump\t// out\n        /* \"#utility.yul\":856:1040   */\n    tag_33:\n        /* \"#utility.yul\":926:932   */\n      0x00\n        /* \"#utility.yul\":979:981   */\n      0x20\n        /* \"#utility.yul\":967:976   */\n      dup3\n        /* \"#utility.yul\":958:965   */\n      dup5\n        /* \"#utility.yul\":954:977   */\n      sub\n        /* \"#utility.yul\":950:982   */\n      slt\n        /* \"#utility.yul\":947:999   */\n      iszero\n      tag_91\n      jumpi\n        /* \"#utility.yul\":995:996   */\n      0x00\n        /* \"#utility.yul\":992:993   */\n      dup1\n        /* \"#utility.yul\":985:997   */\n      revert\n        /* \"#utility.yul\":947:999   */\n    tag_91:\n      pop\n        /* \"#utility.yul\":1018:1034   */\n      mload\n      swap2\n        /* \"#utility.yul\":856:1040   */\n      swap1\n      pop\n      jump\t// out\n\n    auxdata: 0xa26469706673582212208cad1100158374029d56df6f828d2a81dcb93ed4dd826e4be8fced04a042d05164736f6c63430008180033\n}\n",
				"bytecode": {
					"linkReferences": {},
					"object": "608060405234801561001057600080fd5b5033806000816100675760405162461bcd60e51b815260206004820152601860248201527f43616e6e6f7420736574206f776e657220746f207a65726f000000000000000060448201526064015b60405180910390fd5b600080546001600160a01b0319166001600160a01b0384811691909117909155811615610097576100978161009f565b505050610148565b336001600160a01b038216036100f75760405162461bcd60e51b815260206004820152601760248201527f43616e6e6f74207472616e7366657220746f2073656c66000000000000000000604482015260640161005e565b600180546001600160a01b0319166001600160a01b0383811691821790925560008054604051929316917fed8889f560326eb138920d842192f0eb3dd22b4f139c87a2c57538e05bae12789190a350565b61056e806101576000396000f3fe608060405234801561001057600080fd5b50600436106100575760003560e01c80633aeac4e11461005c57806351cff8d91461007157806379ba5097146100845780638da5cb5b1461008c578063f2fde38b146100ab575b600080fd5b61006f61006a3660046104ca565b6100be565b005b61006f61007f3660046104fd565b61016d565b61006f610229565b600054604080516001600160a01b039092168252519081900360200190f35b61006f6100b93660046104fd565b6102d3565b6100c66102e7565b6040516370a0823160e01b81523060048201526000906001600160a01b038316906370a0823190602401602060405180830381865afa15801561010d573d6000803e3d6000fd5b505050506040513d601f19601f82011682018060405250810190610131919061051f565b90508060000361015457604051630686827b60e51b815260040160405180910390fd5b6101686001600160a01b038316848361033c565b505050565b6101756102e7565b47600081900361019857604051630686827b60e51b815260040160405180910390fd5b6000826001600160a01b03168260405160006040518083038185875af1925050503d80600081146101e5576040519150601f19603f3d011682016040523d82523d6000602084013e6101ea565b606091505b505090508061016857604051639d11f56360e01b81523360048201526001600160a01b0384166024820152604481018390526064015b60405180910390fd5b6001546001600160a01b0316331461027c5760405162461bcd60e51b815260206004820152601660248201527526bab9ba10313290383937b837b9b2b21037bbb732b960511b6044820152606401610220565b60008054336001600160a01b0319808316821784556001805490911690556040516001600160a01b0390921692909183917f8be0079c531659141344cd1fd0a4f28419497f9722a3daafe3b4186f6b6457e091a350565b6102db6102e7565b6102e48161038e565b50565b6000546001600160a01b0316331461033a5760405162461bcd60e51b815260206004820152601660248201527527b7363c9031b0b63630b1363290313c9037bbb732b960511b6044820152606401610220565b565b604080516001600160a01b038416602482015260448082018490528251808303909101815260649091019091526020810180516001600160e01b031663a9059cbb60e01b179052610168908490610437565b336001600160a01b038216036103e65760405162461bcd60e51b815260206004820152601760248201527f43616e6e6f74207472616e7366657220746f2073656c660000000000000000006044820152606401610220565b600180546001600160a01b0319166001600160a01b0383811691821790925560008054604051929316917fed8889f560326eb138920d842192f0eb3dd22b4f139c87a2c57538e05bae12789190a350565b600080602060008451602086016000885af18061045a576040513d6000823e3d81fd5b50506000513d9150811561047257806001141561047f565b6001600160a01b0384163b155b156104a857604051635274afe760e01b81526001600160a01b0385166004820152602401610220565b50505050565b80356001600160a01b03811681146104c557600080fd5b919050565b600080604083850312156104dd57600080fd5b6104e6836104ae565b91506104f4602084016104ae565b90509250929050565b60006020828403121561050f57600080fd5b610518826104ae565b9392505050565b60006020828403121561053157600080fd5b505191905056fea26469706673582212208cad1100158374029d56df6f828d2a81dcb93ed4dd826e4be8fced04a042d05164736f6c63430008180033",
					"opcodes": "PUSH1 0x80 PUSH1 0x40 MSTORE CALLVALUE DUP1 ISZERO PUSH2 0x10 JUMPI PUSH1 0x0 DUP1 REVERT JUMPDEST POP CALLER DUP1 PUSH1 0x0 DUP2 PUSH2 0x67 JUMPI PUSH1 0x40 MLOAD PUSH3 0x461BCD PUSH1 0xE5 SHL DUP2 MSTORE PUSH1 0x20 PUSH1 0x4 DUP3 ADD MSTORE PUSH1 0x18 PUSH1 0x24 DUP3 ADD MSTORE PUSH32 0x43616E6E6F7420736574206F776E657220746F207A65726F0000000000000000 PUSH1 0x44 DUP3 ADD MSTORE PUSH1 0x64 ADD JUMPDEST PUSH1 0x40 MLOAD DUP1 SWAP2 SUB SWAP1 REVERT JUMPDEST PUSH1 0x0 DUP1 SLOAD PUSH1 0x1 PUSH1 0x1 PUSH1 0xA0 SHL SUB NOT AND PUSH1 0x1 PUSH1 0x1 PUSH1 0xA0 SHL SUB DUP5 DUP2 AND SWAP2 SWAP1 SWAP2 OR SWAP1 SWAP2 SSTORE DUP2 AND ISZERO PUSH2 0x97 JUMPI PUSH2 0x97 DUP2 PUSH2 0x9F JUMP JUMPDEST POP POP POP PUSH2 0x148 JUMP JUMPDEST CALLER PUSH1 0x1 PUSH1 0x1 PUSH1 0xA0 SHL SUB DUP3 AND SUB PUSH2 0xF7 JUMPI PUSH1 0x40 MLOAD PUSH3 0x461BCD PUSH1 0xE5 SHL DUP2 MSTORE PUSH1 0x20 PUSH1 0x4 DUP3 ADD MSTORE PUSH1 0x17 PUSH1 0x24 DUP3 ADD MSTORE PUSH32 0x43616E6E6F74207472616E7366657220746F2073656C66000000000000000000 PUSH1 0x44 DUP3 ADD MSTORE PUSH1 0x64 ADD PUSH2 0x5E JUMP JUMPDEST PUSH1 0x1 DUP1 SLOAD PUSH1 0x1 PUSH1 0x1 PUSH1 0xA0 SHL SUB NOT AND PUSH1 0x1 PUSH1 0x1 PUSH1 0xA0 SHL SUB DUP4 DUP2 AND SWAP2 DUP3 OR SWAP1 SWAP3 SSTORE PUSH1 0x0 DUP1 SLOAD PUSH1 0x40 MLOAD SWAP3 SWAP4 AND SWAP2 PUSH32 0xED8889F560326EB138920D842192F0EB3DD22B4F139C87A2C57538E05BAE1278 SWAP2 SWAP1 LOG3 POP JUMP JUMPDEST PUSH2 0x56E DUP1 PUSH2 0x157 PUSH1 0x0 CODECOPY PUSH1 0x0 RETURN INVALID PUSH1 0x80 PUSH1 0x40 MSTORE CALLVALUE DUP1 ISZERO PUSH2 0x10 JUMPI PUSH1 0x0 DUP1 REVERT JUMPDEST POP PUSH1 0x4 CALLDATASIZE LT PUSH2 0x57 JUMPI PUSH1 0x0 CALLDATALOAD PUSH1 0xE0 SHR DUP1 PUSH4 0x3AEAC4E1 EQ PUSH2 0x5C JUMPI DUP1 PUSH4 0x51CFF8D9 EQ PUSH2 0x71 JUMPI DUP1 PUSH4 0x79BA5097 EQ PUSH2 0x84 JUMPI DUP1 PUSH4 0x8DA5CB5B EQ PUSH2 0x8C JUMPI DUP1 PUSH4 0xF2FDE38B EQ PUSH2 0xAB JUMPI JUMPDEST PUSH1 0x0 DUP1 REVERT JUMPDEST PUSH2 0x6F PUSH2 0x6A CALLDATASIZE PUSH1 0x4 PUSH2 0x4CA JUMP JUMPDEST PUSH2 0xBE JUMP JUMPDEST STOP JUMPDEST PUSH2 0x6F PUSH2 0x7F CALLDATASIZE PUSH1 0x4 PUSH2 0x4FD JUMP JUMPDEST PUSH2 0x16D JUMP JUMPDEST PUSH2 0x6F PUSH2 0x229 JUMP JUMPDEST PUSH1 0x0 SLOAD PUSH1 0x40 DUP1 MLOAD PUSH1 0x1 PUSH1 0x1 PUSH1 0xA0 SHL SUB SWAP1 SWAP3 AND DUP3 MSTORE MLOAD SWAP1 DUP2 SWAP1 SUB PUSH1 0x20 ADD SWAP1 RETURN JUMPDEST PUSH2 0x6F PUSH2 0xB9 CALLDATASIZE PUSH1 0x4 PUSH2 0x4FD JUMP JUMPDEST PUSH2 0x2D3 JUMP JUMPDEST PUSH2 0xC6 PUSH2 0x2E7 JUMP JUMPDEST PUSH1 0x40 MLOAD PUSH4 0x70A08231 PUSH1 0xE0 SHL DUP2 MSTORE ADDRESS PUSH1 0x4 DUP3 ADD MSTORE PUSH1 0x0 SWAP1 PUSH1 0x1 PUSH1 0x1 PUSH1 0xA0 SHL SUB DUP4 AND SWAP1 PUSH4 0x70A08231 SWAP1 PUSH1 0x24 ADD PUSH1 0x20 PUSH1 0x40 MLOAD DUP1 DUP4 SUB DUP2 DUP7 GAS STATICCALL ISZERO DUP1 ISZERO PUSH2 0x10D JUMPI RETURNDATASIZE PUSH1 0x0 DUP1 RETURNDATACOPY RETURNDATASIZE PUSH1 0x0 REVERT JUMPDEST POP POP POP POP PUSH1 0x40 MLOAD RETURNDATASIZE PUSH1 0x1F NOT PUSH1 0x1F DUP3 ADD AND DUP3 ADD DUP1 PUSH1 0x40 MSTORE POP DUP2 ADD SWAP1 PUSH2 0x131 SWAP2 SWAP1 PUSH2 0x51F JUMP JUMPDEST SWAP1 POP DUP1 PUSH1 0x0 SUB PUSH2 0x154 JUMPI PUSH1 0x40 MLOAD PUSH4 0x686827B PUSH1 0xE5 SHL DUP2 MSTORE PUSH1 0x4 ADD PUSH1 0x40 MLOAD DUP1 SWAP2 SUB SWAP1 REVERT JUMPDEST PUSH2 0x168 PUSH1 0x1 PUSH1 0x1 PUSH1 0xA0 SHL SUB DUP4 AND DUP5 DUP4 PUSH2 0x33C JUMP JUMPDEST POP POP POP JUMP JUMPDEST PUSH2 0x175 PUSH2 0x2E7 JUMP JUMPDEST SELFBALANCE PUSH1 0x0 DUP2 SWAP1 SUB PUSH2 0x198 JUMPI PUSH1 0x40 MLOAD PUSH4 0x686827B PUSH1 0xE5 SHL DUP2 MSTORE PUSH1 0x4 ADD PUSH1 0x40 MLOAD DUP1 SWAP2 SUB SWAP1 REVERT JUMPDEST PUSH1 0x0 DUP3 PUSH1 0x1 PUSH1 0x1 PUSH1 0xA0 SHL SUB AND DUP3 PUSH1 0x40 MLOAD PUSH1 0x0 PUSH1 0x40 MLOAD DUP1 DUP4 SUB DUP2 DUP6 DUP8 GAS CALL SWAP3 POP POP POP RETURNDATASIZE DUP1 PUSH1 0x0 DUP2 EQ PUSH2 0x1E5 JUMPI PUSH1 0x40 MLOAD SWAP2 POP PUSH1 0x1F NOT PUSH1 0x3F RETURNDATASIZE ADD AND DUP3 ADD PUSH1 0x40 MSTORE RETURNDATASIZE DUP3 MSTORE RETURNDATASIZE PUSH1 0x0 PUSH1 0x20 DUP5 ADD RETURNDATACOPY PUSH2 0x1EA JUMP JUMPDEST PUSH1 0x60 SWAP2 POP JUMPDEST POP POP SWAP1 POP DUP1 PUSH2 0x168 JUMPI PUSH1 0x40 MLOAD PUSH4 0x9D11F563 PUSH1 0xE0 SHL DUP2 MSTORE CALLER PUSH1 0x4 DUP3 ADD MSTORE PUSH1 0x1 PUSH1 0x1 PUSH1 0xA0 SHL SUB DUP5 AND PUSH1 0x24 DUP3 ADD MSTORE PUSH1 0x44 DUP2 ADD DUP4 SWAP1 MSTORE PUSH1 0x64 ADD JUMPDEST PUSH1 0x40 MLOAD DUP1 SWAP2 SUB SWAP1 REVERT JUMPDEST PUSH1 0x1 SLOAD PUSH1 0x1 PUSH1 0x1 PUSH1 0xA0 SHL SUB AND CALLER EQ PUSH2 0x27C JUMPI PUSH1 0x40 MLOAD PUSH3 0x461BCD PUSH1 0xE5 SHL DUP2 MSTORE PUSH1 0x20 PUSH1 0x4 DUP3 ADD MSTORE PUSH1 0x16 PUSH1 0x24 DUP3 ADD MSTORE PUSH22 0x26BAB9BA10313290383937B837B9B2B21037BBB732B9 PUSH1 0x51 SHL PUSH1 0x44 DUP3 ADD MSTORE PUSH1 0x64 ADD PUSH2 0x220 JUMP JUMPDEST PUSH1 0x0 DUP1 SLOAD CALLER PUSH1 0x1 PUSH1 0x1 PUSH1 0xA0 SHL SUB NOT DUP1 DUP4 AND DUP3 OR DUP5 SSTORE PUSH1 0x1 DUP1 SLOAD SWAP1 SWAP2 AND SWAP1 SSTORE PUSH1 0x40 MLOAD PUSH1 0x1 PUSH1 0x1 PUSH1 0xA0 SHL SUB SWAP1 SWAP3 AND SWAP3 SWAP1 SWAP2 DUP4 SWAP2 PUSH32 0x8BE0079C531659141344CD1FD0A4F28419497F9722A3DAAFE3B4186F6B6457E0 SWAP2 LOG3 POP JUMP JUMPDEST PUSH2 0x2DB PUSH2 0x2E7 JUMP JUMPDEST PUSH2 0x2E4 DUP2 PUSH2 0x38E JUMP JUMPDEST POP JUMP JUMPDEST PUSH1 0x0 SLOAD PUSH1 0x1 PUSH1 0x1 PUSH1 0xA0 SHL SUB AND CALLER EQ PUSH2 0x33A JUMPI PUSH1 0x40 MLOAD PUSH3 0x461BCD PUSH1 0xE5 SHL DUP2 MSTORE PUSH1 0x20 PUSH1 0x4 DUP3 ADD MSTORE PUSH1 0x16 PUSH1 0x24 DUP3 ADD MSTORE PUSH22 0x27B7363C9031B0B63630B1363290313C9037BBB732B9 PUSH1 0x51 SHL PUSH1 0x44 DUP3 ADD MSTORE PUSH1 0x64 ADD PUSH2 0x220 JUMP JUMPDEST JUMP JUMPDEST PUSH1 0x40 DUP1 MLOAD PUSH1 0x1 PUSH1 0x1 PUSH1 0xA0 SHL SUB DUP5 AND PUSH1 0x24 DUP3 ADD MSTORE PUSH1 0x44 DUP1 DUP3 ADD DUP5 SWAP1 MSTORE DUP3 MLOAD DUP1 DUP4 SUB SWAP1 SWAP2 ADD DUP2 MSTORE PUSH1 0x64 SWAP1 SWAP2 ADD SWAP1 SWAP2 MSTORE PUSH1 0x20 DUP2 ADD DUP1 MLOAD PUSH1 0x1 PUSH1 0x1 PUSH1 0xE0 SHL SUB AND PUSH4 0xA9059CBB PUSH1 0xE0 SHL OR SWAP1 MSTORE PUSH2 0x168 SWAP1 DUP5 SWAP1 PUSH2 0x437 JUMP JUMPDEST CALLER PUSH1 0x1 PUSH1 0x1 PUSH1 0xA0 SHL SUB DUP3 AND SUB PUSH2 0x3E6 JUMPI PUSH1 0x40 MLOAD PUSH3 0x461BCD PUSH1 0xE5 SHL DUP2 MSTORE PUSH1 0x20 PUSH1 0x4 DUP3 ADD MSTORE PUSH1 0x17 PUSH1 0x24 DUP3 ADD MSTORE PUSH32 0x43616E6E6F74207472616E7366657220746F2073656C66000000000000000000 PUSH1 0x44 DUP3 ADD MSTORE PUSH1 0x64 ADD PUSH2 0x220 JUMP JUMPDEST PUSH1 0x1 DUP1 SLOAD PUSH1 0x1 PUSH1 0x1 PUSH1 0xA0 SHL SUB NOT AND PUSH1 0x1 PUSH1 0x1 PUSH1 0xA0 SHL SUB DUP4 DUP2 AND SWAP2 DUP3 OR SWAP1 SWAP3 SSTORE PUSH1 0x0 DUP1 SLOAD PUSH1 0x40 MLOAD SWAP3 SWAP4 AND SWAP2 PUSH32 0xED8889F560326EB138920D842192F0EB3DD22B4F139C87A2C57538E05BAE1278 SWAP2 SWAP1 LOG3 POP JUMP JUMPDEST PUSH1 0x0 DUP1 PUSH1 0x20 PUSH1 0x0 DUP5 MLOAD PUSH1 0x20 DUP7 ADD PUSH1 0x0 DUP9 GAS CALL DUP1 PUSH2 0x45A JUMPI PUSH1 0x40 MLOAD RETURNDATASIZE PUSH1 0x0 DUP3 RETURNDATACOPY RETURNDATASIZE DUP2 REVERT JUMPDEST POP POP PUSH1 0x0 MLOAD RETURNDATASIZE SWAP2 POP DUP2 ISZERO PUSH2 0x472 JUMPI DUP1 PUSH1 0x1 EQ ISZERO PUSH2 0x47F JUMP JUMPDEST PUSH1 0x1 PUSH1 0x1 PUSH1 0xA0 SHL SUB DUP5 AND EXTCODESIZE ISZERO JUMPDEST ISZERO PUSH2 0x4A8 JUMPI PUSH1 0x40 MLOAD PUSH4 0x5274AFE7 PUSH1 0xE0 SHL DUP2 MSTORE PUSH1 0x1 PUSH1 0x1 PUSH1 0xA0 SHL SUB DUP6 AND PUSH1 0x4 DUP3 ADD MSTORE PUSH1 0x24 ADD PUSH2 0x220 JUMP JUMPDEST POP POP POP POP JUMP JUMPDEST DUP1 CALLDATALOAD PUSH1 0x1 PUSH1 0x1 PUSH1 0xA0 SHL SUB DUP2 AND DUP2 EQ PUSH2 0x4C5 JUMPI PUSH1 0x0 DUP1 REVERT JUMPDEST SWAP2 SWAP1 POP JUMP JUMPDEST PUSH1 0x0 DUP1 PUSH1 0x40 DUP4 DUP6 SUB SLT ISZERO PUSH2 0x4DD JUMPI PUSH1 0x0 DUP1 REVERT JUMPDEST PUSH2 0x4E6 DUP4 PUSH2 0x4AE JUMP JUMPDEST SWAP2 POP PUSH2 0x4F4 PUSH1 0x20 DUP5 ADD PUSH2 0x4AE JUMP JUMPDEST SWAP1 POP SWAP3 POP SWAP3 SWAP1 POP JUMP JUMPDEST PUSH1 0x0 PUSH1 0x20 DUP3 DUP5 SUB SLT ISZERO PUSH2 0x50F JUMPI PUSH1 0x0 DUP1 REVERT JUMPDEST PUSH2 0x518 DUP3 PUSH2 0x4AE JUMP JUMPDEST SWAP4 SWAP3 POP POP POP JUMP JUMPDEST PUSH1 0x0 PUSH1 0x20 DUP3 DUP5 SUB SLT ISZERO PUSH2 0x531 JUMPI PUSH1 0x0 DUP1 REVERT JUMPDEST POP MLOAD SWAP2 SWAP1 POP JUMP INVALID LOG2 PUSH5 0x6970667358 0x22 SLT KECCAK256 DUP13 0xAD GT STOP ISZERO DUP4 PUSH21 0x29D56DF6F828D2A81DCB93ED4DD826E4BE8FCED04 LOG0 TIMESTAMP 0xD0 MLOAD PUSH5 0x736F6C6343 STOP ADDMOD XOR STOP CALLER "
				},
				"gasEstimates": {
					"creation": {
						"codeDepositCost": "278000",
						"executionCost": "24653",
						"totalCost": "302653"
					},
					"external": {
						"acceptOwnership()": "52321",
						"owner()": "2336",
						"transferOwnership(address)": "30502",
						"withdraw(address)": "infinite",
						"withdrawToken(address,address)": "infinite"
					}
				},
				"methodIdentifiers": {
					"acceptOwnership()": "79ba5097",
					"owner()": "8da5cb5b",
					"transferOwnership(address)": "f2fde38b",
					"withdraw(address)": "51cff8d9",
					"withdrawToken(address,address)": "3aeac4e1"
				}
			},
			"storageLayout": {
				"storage": [
					{
						"astId": 29,
						"contract": "utils/Withdraw.sol:Withdraw",
						"label": "s_owner",
						"offset": 0,
						"slot": "0",
						"type": "t_address"
					},
					{
						"astId": 31,
						"contract": "utils/Withdraw.sol:Withdraw",
						"label": "s_pendingOwner",
						"offset": 0,
						"slot": "1",
						"type": "t_address"
					}
				],
				"types": {
					"t_address": {
						"encoding": "inplace",
						"label": "address",
						"numberOfBytes": "20"
					}
				}
			},
			"userdoc": {
				"kind": "user",
				"methods": {
					"acceptOwnership()": {
						"notice": "Allows an ownership transfer to be completed by the recipient."
					},
					"owner()": {
						"notice": "Get the current owner"
					},
					"transferOwnership(address)": {
						"notice": "Allows an owner to begin transferring ownership to a new address."
					}
				},
				"notice": "THIS IS AN EXAMPLE CONTRACT THAT USES HARDCODED VALUES FOR CLARITY. THIS IS AN EXAMPLE CONTRACT THAT USES UN-AUDITED CODE. DO NOT USE THIS CODE IN PRODUCTION.",
				"version": 1
			}
		}
	}
}