{
	"data": {
		"bytecode": {
			"linkReferences": {},
			"object": "60e060405234801562000010575f80fd5b50604051620033d3380380620033d3833981016040819052620000339162000206565b8333805f83620000438162000102565b506001600160a01b038216620000a05760405162461bcd60e51b815260206004820152601860248201527f43616e6e6f7420736574206f776e657220746f207a65726f000000000000000060448201526064015b60405180910390fd5b600580546001600160a01b0319166001600160a01b0384811691909117909155811615620000d357620000d38162000114565b5050600160095550506001600160a01b03928316608052911660a0526001600160401b031660c0525062000461565b600262000110828262000395565b5050565b336001600160a01b038216036200016e5760405162461bcd60e51b815260206004820152601760248201527f43616e6e6f74207472616e7366657220746f2073656c66000000000000000000604482015260640162000097565b600680546001600160a01b0319166001600160a01b03838116918217909255600554604051919216907fed8889f560326eb138920d842192f0eb3dd22b4f139c87a2c57538e05bae1278905f90a350565b634e487b7160e01b5f52604160045260245ffd5b80516001600160a01b0381168114620001ea575f80fd5b919050565b80516001600160401b0381168114620001ea575f80fd5b5f805f80608085870312156200021a575f80fd5b84516001600160401b038082111562000231575f80fd5b818701915087601f83011262000245575f80fd5b8151818111156200025a576200025a620001bf565b604051601f8201601f19908116603f01168101908382118183101715620002855762000285620001bf565b81604052828152602093508a84848701011115620002a1575f80fd5b5f91505b82821015620002c45784820184015181830185015290830190620002a5565b5f848483010152809850505050620002de818801620001d3565b94505050620002f060408601620001d3565b91506200030060608601620001ef565b905092959194509250565b600181811c908216806200032057607f821691505b6020821081036200033f57634e487b7160e01b5f52602260045260245ffd5b50919050565b601f8211156200039057805f5260205f20601f840160051c810160208510156200036c5750805b601f840160051c820191505b818110156200038d575f815560010162000378565b50505b505050565b81516001600160401b03811115620003b157620003b1620001bf565b620003c981620003c284546200030b565b8462000345565b602080601f831160018114620003ff575f8415620003e75750858301515b5f19600386901b1c1916600185901b17855562000459565b5f85815260208120601f198616915b828110156200042f578886015182559484019460019091019084016200040e565b50858210156200044d57878501515f19600388901b60f8161c191681555b505060018460011b0185555b505050505050565b60805160a05160c051612f01620004d25f395f818161042701528181610c1f01528181610d9001526113b901525f8181610733015281816108d10152818161095e0152610a3901525f818161081601528181610a0a01528181610abb01528181610b7a015261122b0152612f015ff3fe608060405234801561000f575f80fd5b5060043610610186575f3560e01c80635dc5ebdb116100d9578063b942f8cb11610093578063e985e9c51161006e578063e985e9c514610385578063f242432a14610398578063f2fde38b146103ab578063f5298aca146103be575f80fd5b8063b942f8cb14610340578063bd85b03914610353578063c1341c4f14610372575f80fd5b80635dc5ebdb146102c35780636b20c454146102e457806379ba5097146102f757806385572ffb146102ff5780638da5cb5b14610312578063a22cb4651461032d575f80fd5b80632eb2c2d6116101445780634e1273f41161011f5780634e1273f41461025c5780634f558e791461027c57806351cff8d91461029d57806355cc4e57146102b0575f80fd5b80632eb2c2d6146102235780633aeac4e11461023657806341eade4614610249575f80fd5b8062fdd58e1461018a57806301ffc9a7146101b05780630ce639c4146101d35780630e89341c146101e857806318160ddd14610208578063240b3b4914610210575b5f80fd5b61019d610198366004612167565b6103d1565b6040519081526020015b60405180910390f35b6101c36101be3660046121a6565b6103f8565b60405190151581526020016101a7565b6101e66101e136600461228b565b61041c565b005b6101fb6101f63660046122e6565b61052a565b6040516101a79190612340565b60045461019d565b61019d61021e366004612352565b6105e4565b6101e6610231366004612477565b610c73565b6101e661024436600461251d565b610cda565b6101e6610257366004612554565b610d85565b61026f61026a36600461256d565b610e60565b6040516101a79190612662565b6101c361028a3660046122e6565b5f90815260036020526040902054151590565b6101e66102ab366004612674565b610f2a565b6101e66102be366004612674565b610fdc565b6102d66102d1366004612554565b61102d565b6040516101a792919061268f565b6101e66102f23660046126ba565b6110d9565b6101e6611173565b6101e661030d366004612720565b611220565b6005546040516001600160a01b0390911681526020016101a7565b6101e661033b366004612763565b61140a565b6101e661034e36600461278f565b611419565b61019d6103613660046122e6565b5f9081526003602052604090205490565b6101e66103803660046128b6565b6114c4565b6101c361039336600461251d565b611522565b6101e66103a636600461290a565b61154f565b6101e66103b9366004612674565b6115ae565b6101e66103cc36600461296d565b6115bf565b5f818152602081815260408083206001600160a01b03861684529091529020545b92915050565b5f6001600160e01b031982166385572ffb60e01b14806103f257506103f282611630565b61042461167f565b827f00000000000000000000000000000000000000000000000000000000000000006001600160401b0316816001600160401b031603610487576040516340d8e3a160e01b81526001600160401b03821660048201526024015b60405180910390fd5b6040805180820182526001600160a01b03858116825260208083018681526001600160401b0389165f908152600a909252939020825181546001600160a01b0319169216919091178155915190919060018201906104e59082612a1b565b509050507f59cc0b49d3359ac35e3872e99199469b6a1025c9a945cd9b6a411bffe337272d84848460405161051c93929190612ad6565b60405180910390a150505050565b5f818152600860205260408120805460609291906105479061299f565b80601f01602080910402602001604051908101604052809291908181526020018280546105739061299f565b80156105be5780601f10610595576101008083540402835291602001916105be565b820191905f5260205f20905b8154815290600101906020018083116105a157829003601f168201915b505050505090505f8151116105db576105d6836116d4565b6105dd565b805b9392505050565b5f6105ed611766565b6001600160401b0383165f908152600a602052604090205483906001600160a01b031661063857604051630e19fdf760e11b81526001600160401b038216600482015260240161047e565b5f6106428861052a565b905061064f8a89896115bf565b6040805160a0810182526001600160401b0387165f908152600a602052918220546001600160a01b031660c08201528060e0810160405160208183030381529060405281526020018c8c8c8c8c886040516020016106b296959493929190612b11565b60408051601f1981840301815291905281526020015f60405190808252806020026020018201604052801561070c57816020015b604080518082019091525f80825260208201528152602001906001900390816106e65790505b508152602001600187600181111561072657610726612b69565b14610731575f610753565b7f00000000000000000000000000000000000000000000000000000000000000005b6001600160a01b03168152602001600a5f896001600160401b03166001600160401b031681526020019081526020015f2060010180546107929061299f565b80601f01602080910402602001604051908101604052809291908181526020018280546107be9061299f565b80156108095780601f106107e057610100808354040283529160200191610809565b820191905f5260205f20905b8154815290600101906020018083116107ec57829003601f168201915b505050505081525090505f7f00000000000000000000000000000000000000000000000000000000000000006001600160a01b03166320487ded88846040518363ffffffff1660e01b8152600401610862929190612b7d565b602060405180830381865afa15801561087d573d5f803e3d5ffd5b505050506040513d601f19601f820116820180604052508101906108a19190612c57565b905060018660018111156108b7576108b7612b69565b03610b39576040516370a0823160e01b81523060048201527f00000000000000000000000000000000000000000000000000000000000000006001600160a01b0316906370a0823190602401602060405180830381865afa15801561091e573d5f803e3d5ffd5b505050506040513d601f19601f820116820180604052508101906109429190612c57565b8111156109f3576040516370a0823160e01b81523060048201527f00000000000000000000000000000000000000000000000000000000000000006001600160a01b0316906370a0823190602401602060405180830381865afa1580156109ab573d5f803e3d5ffd5b505050506040513d601f19601f820116820180604052508101906109cf9190612c57565b6040516328fdcaa160e01b815260048101919091526024810182905260440161047e565b60405163095ea7b360e01b81526001600160a01b037f000000000000000000000000000000000000000000000000000000000000000081166004830152602482018390527f0000000000000000000000000000000000000000000000000000000000000000169063095ea7b3906044016020604051808303815f875af1158015610a7f573d5f803e3d5ffd5b505050506040513d601f19601f82011682018060405250810190610aa39190612c6e565b506040516396f4e9f960e01b81526001600160a01b037f000000000000000000000000000000000000000000000000000000000000000016906396f4e9f990610af2908a908690600401612b7d565b6020604051808303815f875af1158015610b0e573d5f803e3d5ffd5b505050506040513d601f19601f82011682018060405250810190610b329190612c57565b9450610bf7565b47811115610b63576040516328fdcaa160e01b81524760048201526024810182905260440161047e565b6040516396f4e9f960e01b81526001600160a01b037f000000000000000000000000000000000000000000000000000000000000000016906396f4e9f9908390610bb3908b908790600401612b7d565b60206040518083038185885af1158015610bcf573d5f803e3d5ffd5b50505050506040513d601f19601f82011682018060405250810190610bf49190612c57565b94505b7f300e6c20d2e9d8db9b2df40ebce943d9dae3fa3a8eaec841a3d1cb9a1e8b6ad78c8c8c8c8c7f00000000000000000000000000000000000000000000000000000000000000008d604051610c529796959493929190612c89565b60405180910390a150505050610c686001600955565b979650505050505050565b336001600160a01b0386168114801590610c945750610c928682611522565b155b15610cc55760405163711bec9160e11b81526001600160a01b0380831660048301528716602482015260440161047e565b610cd28686868686611790565b505050505050565b610ce261167f565b6040516370a0823160e01b81523060048201525f906001600160a01b038316906370a0823190602401602060405180830381865afa158015610d26573d5f803e3d5ffd5b505050506040513d601f19601f82011682018060405250810190610d4a9190612c57565b9050805f03610d6c57604051630686827b60e51b815260040160405180910390fd5b610d806001600160a01b03831684836117f5565b505050565b610d8d61167f565b807f00000000000000000000000000000000000000000000000000000000000000006001600160401b0316816001600160401b031603610deb576040516340d8e3a160e01b81526001600160401b038216600482015260240161047e565b6001600160401b0382165f908152600a6020526040812080546001600160a01b031916815590610e1e6001830182612109565b50506040516001600160401b03831681527f67e02000179a6045f4db8fb1b09f01e170b0347e0b698fc5112ce4d798ef19f69060200160405180910390a15050565b60608151835114610e915781518351604051635b05999160e01b81526004810192909252602482015260440161047e565b5f83516001600160401b03811115610eab57610eab6121dc565b604051908082528060200260200182016040528015610ed4578160200160208202803683370190505b5090505f5b8451811015610f2257602080820286010151610efd906020808402870101516103d1565b828281518110610f0f57610f0f612ce6565b6020908102919091010152600101610ed9565b509392505050565b610f3261167f565b475f819003610f5457604051630686827b60e51b815260040160405180910390fd5b5f826001600160a01b0316826040515f6040518083038185875af1925050503d805f8114610f9d576040519150601f19603f3d011682016040523d82523d5f602084013e610fa2565b606091505b5050905080610d8057604051639d11f56360e01b81523360048201526001600160a01b03841660248201526044810183905260640161047e565b610fe461167f565b600780546001600160a01b0319166001600160a01b0383169081179091556040517fd56ed7b1c1110348b1fbf418469f6fc4acc32d9b675e9e1e448cc19169a64ca0905f90a250565b600a6020525f9081526040902080546001820180546001600160a01b0390921692916110589061299f565b80601f01602080910402602001604051908101604052809291908181526020018280546110849061299f565b80156110cf5780601f106110a6576101008083540402835291602001916110cf565b820191905f5260205f20905b8154815290600101906020018083116110b257829003601f168201915b5050505050905082565b3330148015906110f457506007546001600160a01b03163314155b1561111457604051637725137960e11b815233600482015260240161047e565b6001600160a01b038316331480159061113457506111328333611522565b155b1561116857335b60405163711bec9160e11b81526001600160a01b039182166004820152908416602482015260440161047e565b610d80838383611847565b6006546001600160a01b031633146111c65760405162461bcd60e51b815260206004820152601660248201527526bab9ba10313290383937b837b9b2b21037bbb732b960511b604482015260640161047e565b600580546001600160a01b0319808216339081179093556006805490911690556040516001600160a01b03909116919082907f8be0079c531659141344cd1fd0a4f28419497f9722a3daafe3b4186f6b6457e0905f90a350565b336001600160a01b037f0000000000000000000000000000000000000000000000000000000000000000161461126b576040516335fdcccd60e21b815233600482015260240161047e565b611273611766565b6112836040820160208301612554565b6001600160401b0381165f908152600a60205260409020546001600160a01b03166112cc57604051630e19fdf760e11b81526001600160401b038216600482015260240161047e565b6112dc6040830160208401612554565b6112e96040840184612cfa565b8101906112f69190612674565b6001600160401b0382165f908152600a60205260409020546001600160a01b038281169116146113445760405163baf46cd160e01b81526001600160a01b038216600482015260240161047e565b5f6113556040860160208701612554565b90505f808080808061136a60608c018c612cfa565b8101906113779190612d43565b95509550955095509550955061139085858585856114c4565b7f8a69e2b5fbcc69a1f5d6326fb26db5bc43cd18d09d2e79a48a50b77da16432f986868686868c7f00000000000000000000000000000000000000000000000000000000000000006040516113eb9796959493929190612c89565b60405180910390a1505050505050505050506114076001600955565b50565b61141533838361188a565b5050565b33301480159061143457506007546001600160a01b03163314155b1561145457604051637725137960e11b815233600482015260240161047e565b6114608585858561191e565b5f5b8451811015610cd25781818151811061147d5761147d612ce6565b602002602001015160085f87848151811061149a5761149a612ce6565b602002602001015181526020019081526020015f2090816114bb9190612a1b565b50600101611462565b3330148015906114df57506007546001600160a01b03163314155b156114ff57604051637725137960e11b815233600482015260240161047e565b61150b8585858561195a565b5f848152600860205260409020610cd28282612a1b565b6001600160a01b039182165f90815260016020908152604080832093909416825291909152205460ff1690565b336001600160a01b0386168114801590611570575061156e8682611522565b155b156115a15760405163711bec9160e11b81526001600160a01b0380831660048301528716602482015260440161047e565b610cd286868686866119b5565b6115b661167f565b61140781611a41565b3330148015906115da57506007546001600160a01b03163314155b156115fa57604051637725137960e11b815233600482015260240161047e565b6001600160a01b038316331480159061161a57506116188333611522565b155b15611625573361113b565b610d80838383611aea565b5f6001600160e01b03198216636cdb3d1360e11b148061166057506001600160e01b031982166303a24d0760e21b145b806103f257506301ffc9a760e01b6001600160e01b03198316146103f2565b6005546001600160a01b031633146116d25760405162461bcd60e51b815260206004820152601660248201527527b7363c9031b0b63630b1363290313c9037bbb732b960511b604482015260640161047e565b565b6060600280546116e39061299f565b80601f016020809104026020016040519081016040528092919081815260200182805461170f9061299f565b801561175a5780601f106117315761010080835404028352916020019161175a565b820191905f5260205f20905b81548152906001019060200180831161173d57829003601f168201915b50505050509050919050565b60026009540361178957604051633ee5aeb560e01b815260040160405180910390fd5b6002600955565b6001600160a01b0384166117b957604051632bfa23e760e11b81525f600482015260240161047e565b6001600160a01b0385166117e157604051626a0d4560e21b81525f600482015260240161047e565b6117ee8585858585611b4c565b5050505050565b604080516001600160a01b038416602482015260448082018490528251808303909101815260649091019091526020810180516001600160e01b031663a9059cbb60e01b179052610d80908490611b9f565b6001600160a01b03831661186f57604051626a0d4560e21b81525f600482015260240161047e565b610d80835f848460405180602001604052805f815250611b4c565b6001600160a01b0382166118b25760405162ced3e160e81b81525f600482015260240161047e565b6001600160a01b038381165f81815260016020908152604080832094871680845294825291829020805460ff191686151590811790915591519182527f17307eab39ab6107e8899845ad3d59bd9653f200f220920489ca2b5937696c31910160405180910390a3505050565b6001600160a01b03841661194757604051632bfa23e760e11b81525f600482015260240161047e565b6119545f85858585611b4c565b50505050565b6001600160a01b03841661198357604051632bfa23e760e11b81525f600482015260240161047e565b60408051600180825260208201869052818301908152606082018590526080820190925290610cd25f87848487611b4c565b6001600160a01b0384166119de57604051632bfa23e760e11b81525f600482015260240161047e565b6001600160a01b038516611a0657604051626a0d4560e21b81525f600482015260240161047e565b60408051600180825260208201869052818301908152606082018590526080820190925290611a388787848487611b4c565b50505050505050565b336001600160a01b03821603611a995760405162461bcd60e51b815260206004820152601760248201527f43616e6e6f74207472616e7366657220746f2073656c66000000000000000000604482015260640161047e565b600680546001600160a01b0319166001600160a01b03838116918217909255600554604051919216907fed8889f560326eb138920d842192f0eb3dd22b4f139c87a2c57538e05bae1278905f90a350565b6001600160a01b038316611b1257604051626a0d4560e21b81525f600482015260240161047e565b604080516001808252602082018590528183019081526060820184905260a082019092525f608082018181529192916117ee918791859085905b611b5885858585611c0b565b6001600160a01b038416156117ee5782513390600103611b915760208481015190840151611b8a838989858589611cf2565b5050610cd2565b610cd2818787878787611e13565b5f8060205f8451602086015f885af180611bbe576040513d5f823e3d81fd5b50505f513d91508115611bd5578060011415611be2565b6001600160a01b0384163b155b1561195457604051635274afe760e01b81526001600160a01b038516600482015260240161047e565b611c1784848484611efa565b6001600160a01b038416611c94575f805b8351811015611c7b5760208181028481018201519086018201515f908152600390925260408220805491928392611c60908490612dd7565b90915550611c7090508184612dd7565b925050600101611c28565b508060045f828254611c8d9190612dd7565b9091555050505b6001600160a01b038316611954575f805b8351811015611ce15760208181028481018201519086018201515f90815260039092526040909120805482900390559190910190600101611ca5565b506004805491909103905550505050565b6001600160a01b0384163b15610cd25760405163f23a6e6160e01b81526001600160a01b0385169063f23a6e6190611d369089908990889088908890600401612df6565b6020604051808303815f875af1925050508015611d70575060408051601f3d908101601f19168201909252611d6d91810190612e2f565b60015b611dd7573d808015611d9d576040519150601f19603f3d011682016040523d82523d5f602084013e611da2565b606091505b5080515f03611dcf57604051632bfa23e760e11b81526001600160a01b038616600482015260240161047e565b805181602001fd5b6001600160e01b0319811663f23a6e6160e01b14611a3857604051632bfa23e760e11b81526001600160a01b038616600482015260240161047e565b6001600160a01b0384163b15610cd25760405163bc197c8160e01b81526001600160a01b0385169063bc197c8190611e579089908990889088908890600401612e4a565b6020604051808303815f875af1925050508015611e91575060408051601f3d908101601f19168201909252611e8e91810190612e2f565b60015b611ebe573d808015611d9d576040519150601f19603f3d011682016040523d82523d5f602084013e611da2565b6001600160e01b0319811663bc197c8160e01b14611a3857604051632bfa23e760e11b81526001600160a01b038616600482015260240161047e565b8051825114611f295781518151604051635b05999160e01b81526004810192909252602482015260440161047e565b335f5b835181101561202b576020818102858101820151908501909101516001600160a01b03881615611fdd575f828152602081815260408083206001600160a01b038c16845290915290205481811015611fb7576040516303dee4c560e01b81526001600160a01b038a16600482015260248101829052604481018390526064810184905260840161047e565b5f838152602081815260408083206001600160a01b038d16845290915290209082900390555b6001600160a01b03871615612021575f828152602081815260408083206001600160a01b038b1684529091528120805483929061201b908490612dd7565b90915550505b5050600101611f2c565b5082516001036120ab5760208301515f906020840151909150856001600160a01b0316876001600160a01b0316846001600160a01b03167fc3d58168c5ae7397731d063d5bbf3d657854427343f4c083240f7aacaa2d0f62858560405161209c929190918252602082015260400190565b60405180910390a450506117ee565b836001600160a01b0316856001600160a01b0316826001600160a01b03167f4a39dc06d4c0dbc64b70af90fd698a233a518aa5d07e595d983b8c0526c8f7fb86866040516120fa929190612ea7565b60405180910390a45050505050565b5080546121159061299f565b5f825580601f10612124575050565b601f0160209004905f5260205f209081019061140791905b8082111561214f575f815560010161213c565b5090565b6001600160a01b0381168114611407575f80fd5b5f8060408385031215612178575f80fd5b823561218381612153565b946020939093013593505050565b6001600160e01b031981168114611407575f80fd5b5f602082840312156121b6575f80fd5b81356105dd81612191565b80356001600160401b03811681146121d7575f80fd5b919050565b634e487b7160e01b5f52604160045260245ffd5b604051601f8201601f191681016001600160401b0381118282101715612218576122186121dc565b604052919050565b5f82601f83011261222f575f80fd5b81356001600160401b03811115612248576122486121dc565b61225b601f8201601f19166020016121f0565b81815284602083860101111561226f575f80fd5b816020850160208301375f918101602001919091529392505050565b5f805f6060848603121561229d575f80fd5b6122a6846121c1565b925060208401356122b681612153565b915060408401356001600160401b038111156122d0575f80fd5b6122dc86828701612220565b9150509250925092565b5f602082840312156122f6575f80fd5b5035919050565b5f81518084525f5b8181101561232157602081850181015186830182015201612305565b505f602082860101526020601f19601f83011685010191505092915050565b602081525f6105dd60208301846122fd565b5f805f805f805f60e0888a031215612368575f80fd5b873561237381612153565b9650602088013561238381612153565b9550604088013594506060880135935060808801356001600160401b038111156123ab575f80fd5b6123b78a828b01612220565b9350506123c660a089016121c1565b915060c0880135600281106123d9575f80fd5b8091505092959891949750929550565b5f6001600160401b03821115612401576124016121dc565b5060051b60200190565b5f82601f83011261241a575f80fd5b8135602061242f61242a836123e9565b6121f0565b8083825260208201915060208460051b870101935086841115612450575f80fd5b602086015b8481101561246c5780358352918301918301612455565b509695505050505050565b5f805f805f60a0868803121561248b575f80fd5b853561249681612153565b945060208601356124a681612153565b935060408601356001600160401b03808211156124c1575f80fd5b6124cd89838a0161240b565b945060608801359150808211156124e2575f80fd5b6124ee89838a0161240b565b93506080880135915080821115612503575f80fd5b5061251088828901612220565b9150509295509295909350565b5f806040838503121561252e575f80fd5b823561253981612153565b9150602083013561254981612153565b809150509250929050565b5f60208284031215612564575f80fd5b6105dd826121c1565b5f806040838503121561257e575f80fd5b82356001600160401b0380821115612594575f80fd5b818501915085601f8301126125a7575f80fd5b813560206125b761242a836123e9565b82815260059290921b840181019181810190898411156125d5575f80fd5b948201945b838610156125fc5785356125ed81612153565b825294820194908201906125da565b96505086013592505080821115612611575f80fd5b5061261e8582860161240b565b9150509250929050565b5f815180845260208085019450602084015f5b838110156126575781518752958201959082019060010161263b565b509495945050505050565b602081525f6105dd6020830184612628565b5f60208284031215612684575f80fd5b81356105dd81612153565b6001600160a01b03831681526040602082018190525f906126b2908301846122fd565b949350505050565b5f805f606084860312156126cc575f80fd5b83356126d781612153565b925060208401356001600160401b03808211156126f2575f80fd5b6126fe8783880161240b565b93506040860135915080821115612713575f80fd5b506122dc8682870161240b565b5f60208284031215612730575f80fd5b81356001600160401b03811115612745575f80fd5b820160a081850312156105dd575f80fd5b8015158114611407575f80fd5b5f8060408385031215612774575f80fd5b823561277f81612153565b9150602083013561254981612756565b5f805f805f60a086880312156127a3575f80fd5b85356127ae81612153565b94506020868101356001600160401b03808211156127ca575f80fd5b6127d68a838b0161240b565b965060408901359150808211156127eb575f80fd5b6127f78a838b0161240b565b9550606089013591508082111561280c575f80fd5b6128188a838b01612220565b9450608089013591508082111561282d575f80fd5b818901915089601f830112612840575f80fd5b813561284e61242a826123e9565b81815260059190911b8301840190848101908c83111561286c575f80fd5b8585015b838110156128a257803585811115612886575f80fd5b6128948f89838a0101612220565b845250918601918601612870565b508096505050505050509295509295909350565b5f805f805f60a086880312156128ca575f80fd5b85356128d581612153565b9450602086013593506040860135925060608601356001600160401b03808211156128fe575f80fd5b6124ee89838a01612220565b5f805f805f60a0868803121561291e575f80fd5b853561292981612153565b9450602086013561293981612153565b9350604086013592506060860135915060808601356001600160401b03811115612961575f80fd5b61251088828901612220565b5f805f6060848603121561297f575f80fd5b833561298a81612153565b95602085013595506040909401359392505050565b600181811c908216806129b357607f821691505b6020821081036129d157634e487b7160e01b5f52602260045260245ffd5b50919050565b601f821115610d8057805f5260205f20601f840160051c810160208510156129fc5750805b601f840160051c820191505b818110156117ee575f8155600101612a08565b81516001600160401b03811115612a3457612a346121dc565b612a4881612a42845461299f565b846129d7565b602080601f831160018114612a7b575f8415612a645750858301515b5f19600386901b1c1916600185901b178555610cd2565b5f85815260208120601f198616915b82811015612aa957888601518255948401946001909101908401612a8a565b5085821015612ac657878501515f19600388901b60f8161c191681555b5050505050600190811b01905550565b6001600160401b03841681526001600160a01b03831660208201526060604082018190525f90612b08908301846122fd565b95945050505050565b6001600160a01b03878116825286166020820152604081018590526060810184905260c0608082018190525f90612b4a908301856122fd565b82810360a0840152612b5c81856122fd565b9998505050505050505050565b634e487b7160e01b5f52602160045260245ffd5b5f60406001600160401b03851683526020604081850152845160a06040860152612baa60e08601826122fd565b905081860151603f1980878403016060880152612bc783836122fd565b6040890151888203830160808a0152805180835290860194505f9350908501905b80841015612c1a57845180516001600160a01b0316835286015186830152938501936001939093019290860190612be8565b5060608901516001600160a01b031660a08901526080890151888203830160c08a01529550612c4981876122fd565b9a9950505050505050505050565b5f60208284031215612c67575f80fd5b5051919050565b5f60208284031215612c7e575f80fd5b81516105dd81612756565b6001600160a01b03888116825287166020820152604081018690526060810185905260e0608082018190525f90612cc2908301866122fd565b6001600160401b0394851660a08401529290931660c0909101529695505050505050565b634e487b7160e01b5f52603260045260245ffd5b5f808335601e19843603018112612d0f575f80fd5b8301803591506001600160401b03821115612d28575f80fd5b602001915036819003821315612d3c575f80fd5b9250929050565b5f805f805f8060c08789031215612d58575f80fd5b8635612d6381612153565b95506020870135612d7381612153565b9450604087013593506060870135925060808701356001600160401b0380821115612d9c575f80fd5b612da88a838b01612220565b935060a0890135915080821115612dbd575f80fd5b50612dca89828a01612220565b9150509295509295509295565b808201808211156103f257634e487b7160e01b5f52601160045260245ffd5b6001600160a01b03868116825285166020820152604081018490526060810183905260a0608082018190525f90610c68908301846122fd565b5f60208284031215612e3f575f80fd5b81516105dd81612191565b6001600160a01b0386811682528516602082015260a0604082018190525f90612e7590830186612628565b8281036060840152612e878186612628565b90508281036080840152612e9b81856122fd565b98975050505050505050565b604081525f612eb96040830185612628565b8281036020840152612b08818561262856fea2646970667358221220479d6e1bff6892cd120d95b231a63c097d464d36372194fe750cc5bddc11f44d64736f6c63430008180033",
			"opcodes": "PUSH1 0xE0 PUSH1 0x40 MSTORE CALLVALUE DUP1 ISZERO PUSH3 0x10 JUMPI PUSH0 DUP1 REVERT JUMPDEST POP PUSH1 0x40 MLOAD PUSH3 0x33D3 CODESIZE SUB DUP1 PUSH3 0x33D3 DUP4 CODECOPY DUP2 ADD PUSH1 0x40 DUP2 SWAP1 MSTORE PUSH3 0x33 SWAP2 PUSH3 0x206 JUMP JUMPDEST DUP4 CALLER DUP1 PUSH0 DUP4 PUSH3 0x43 DUP2 PUSH3 0x102 JUMP JUMPDEST POP PUSH1 0x1 PUSH1 0x1 PUSH1 0xA0 SHL SUB DUP3 AND PUSH3 0xA0 JUMPI PUSH1 0x40 MLOAD PUSH3 0x461BCD PUSH1 0xE5 SHL DUP2 MSTORE PUSH1 0x20 PUSH1 0x4 DUP3 ADD MSTORE PUSH1 0x18 PUSH1 0x24 DUP3 ADD MSTORE PUSH32 0x43616E6E6F7420736574206F776E657220746F207A65726F0000000000000000 PUSH1 0x44 DUP3 ADD MSTORE PUSH1 0x64 ADD JUMPDEST PUSH1 0x40 MLOAD DUP1 SWAP2 SUB SWAP1 REVERT JUMPDEST PUSH1 0x5 DUP1 SLOAD PUSH1 0x1 PUSH1 0x1 PUSH1 0xA0 SHL SUB NOT AND PUSH1 0x1 PUSH1 0x1 PUSH1 0xA0 SHL SUB DUP5 DUP2 AND SWAP2 SWAP1 SWAP2 OR SWAP1 SWAP2 SSTORE DUP2 AND ISZERO PUSH3 0xD3 JUMPI PUSH3 0xD3 DUP2 PUSH3 0x114 JUMP JUMPDEST POP POP PUSH1 0x1 PUSH1 0x9 SSTORE POP POP PUSH1 0x1 PUSH1 0x1 PUSH1 0xA0 SHL SUB SWAP3 DUP4 AND PUSH1 0x80 MSTORE SWAP2 AND PUSH1 0xA0 MSTORE PUSH1 0x1 PUSH1 0x1 PUSH1 0x40 SHL SUB AND PUSH1 0xC0 MSTORE POP PUSH3 0x461 JUMP JUMPDEST PUSH1 0x2 PUSH3 0x110 DUP3 DUP3 PUSH3 0x395 JUMP JUMPDEST POP POP JUMP JUMPDEST CALLER PUSH1 0x1 PUSH1 0x1 PUSH1 0xA0 SHL SUB DUP3 AND SUB PUSH3 0x16E JUMPI PUSH1 0x40 MLOAD PUSH3 0x461BCD PUSH1 0xE5 SHL DUP2 MSTORE PUSH1 0x20 PUSH1 0x4 DUP3 ADD MSTORE PUSH1 0x17 PUSH1 0x24 DUP3 ADD MSTORE PUSH32 0x43616E6E6F74207472616E7366657220746F2073656C66000000000000000000 PUSH1 0x44 DUP3 ADD MSTORE PUSH1 0x64 ADD PUSH3 0x97 JUMP JUMPDEST PUSH1 0x6 DUP1 SLOAD PUSH1 0x1 PUSH1 0x1 PUSH1 0xA0 SHL SUB NOT AND PUSH1 0x1 PUSH1 0x1 PUSH1 0xA0 SHL SUB DUP4 DUP2 AND SWAP2 DUP3 OR SWAP1 SWAP3 SSTORE PUSH1 0x5 SLOAD PUSH1 0x40 MLOAD SWAP2 SWAP3 AND SWAP1 PUSH32 0xED8889F560326EB138920D842192F0EB3DD22B4F139C87A2C57538E05BAE1278 SWAP1 PUSH0 SWAP1 LOG3 POP JUMP JUMPDEST PUSH4 0x4E487B71 PUSH1 0xE0 SHL PUSH0 MSTORE PUSH1 0x41 PUSH1 0x4 MSTORE PUSH1 0x24 PUSH0 REVERT JUMPDEST DUP1 MLOAD PUSH1 0x1 PUSH1 0x1 PUSH1 0xA0 SHL SUB DUP2 AND DUP2 EQ PUSH3 0x1EA JUMPI PUSH0 DUP1 REVERT JUMPDEST SWAP2 SWAP1 POP JUMP JUMPDEST DUP1 MLOAD PUSH1 0x1 PUSH1 0x1 PUSH1 0x40 SHL SUB DUP2 AND DUP2 EQ PUSH3 0x1EA JUMPI PUSH0 DUP1 REVERT JUMPDEST PUSH0 DUP1 PUSH0 DUP1 PUSH1 0x80 DUP6 DUP8 SUB SLT ISZERO PUSH3 0x21A JUMPI PUSH0 DUP1 REVERT JUMPDEST DUP5 MLOAD PUSH1 0x1 PUSH1 0x1 PUSH1 0x40 SHL SUB DUP1 DUP3 GT ISZERO PUSH3 0x231 JUMPI PUSH0 DUP1 REVERT JUMPDEST DUP2 DUP8 ADD SWAP2 POP DUP8 PUSH1 0x1F DUP4 ADD SLT PUSH3 0x245 JUMPI PUSH0 DUP1 REVERT JUMPDEST DUP2 MLOAD DUP2 DUP2 GT ISZERO PUSH3 0x25A JUMPI PUSH3 0x25A PUSH3 0x1BF JUMP JUMPDEST PUSH1 0x40 MLOAD PUSH1 0x1F DUP3 ADD PUSH1 0x1F NOT SWAP1 DUP2 AND PUSH1 0x3F ADD AND DUP2 ADD SWAP1 DUP4 DUP3 GT DUP2 DUP4 LT OR ISZERO PUSH3 0x285 JUMPI PUSH3 0x285 PUSH3 0x1BF JUMP JUMPDEST DUP2 PUSH1 0x40 MSTORE DUP3 DUP2 MSTORE PUSH1 0x20 SWAP4 POP DUP11 DUP5 DUP5 DUP8 ADD ADD GT ISZERO PUSH3 0x2A1 JUMPI PUSH0 DUP1 REVERT JUMPDEST PUSH0 SWAP2 POP JUMPDEST DUP3 DUP3 LT ISZERO PUSH3 0x2C4 JUMPI DUP5 DUP3 ADD DUP5 ADD MLOAD DUP2 DUP4 ADD DUP6 ADD MSTORE SWAP1 DUP4 ADD SWAP1 PUSH3 0x2A5 JUMP JUMPDEST PUSH0 DUP5 DUP5 DUP4 ADD ADD MSTORE DUP1 SWAP9 POP POP POP POP PUSH3 0x2DE DUP2 DUP9 ADD PUSH3 0x1D3 JUMP JUMPDEST SWAP5 POP POP POP PUSH3 0x2F0 PUSH1 0x40 DUP7 ADD PUSH3 0x1D3 JUMP JUMPDEST SWAP2 POP PUSH3 0x300 PUSH1 0x60 DUP7 ADD PUSH3 0x1EF JUMP JUMPDEST SWAP1 POP SWAP3 SWAP6 SWAP2 SWAP5 POP SWAP3 POP JUMP JUMPDEST PUSH1 0x1 DUP2 DUP2 SHR SWAP1 DUP3 AND DUP1 PUSH3 0x320 JUMPI PUSH1 0x7F DUP3 AND SWAP2 POP JUMPDEST PUSH1 0x20 DUP3 LT DUP2 SUB PUSH3 0x33F JUMPI PUSH4 0x4E487B71 PUSH1 0xE0 SHL PUSH0 MSTORE PUSH1 0x22 PUSH1 0x4 MSTORE PUSH1 0x24 PUSH0 REVERT JUMPDEST POP SWAP2 SWAP1 POP JUMP JUMPDEST PUSH1 0x1F DUP3 GT ISZERO PUSH3 0x390 JUMPI DUP1 PUSH0 MSTORE PUSH1 0x20 PUSH0 KECCAK256 PUSH1 0x1F DUP5 ADD PUSH1 0x5 SHR DUP2 ADD PUSH1 0x20 DUP6 LT ISZERO PUSH3 0x36C JUMPI POP DUP1 JUMPDEST PUSH1 0x1F DUP5 ADD PUSH1 0x5 SHR DUP3 ADD SWAP2 POP JUMPDEST DUP2 DUP2 LT ISZERO PUSH3 0x38D JUMPI PUSH0 DUP2 SSTORE PUSH1 0x1 ADD PUSH3 0x378 JUMP JUMPDEST POP POP JUMPDEST POP POP POP JUMP JUMPDEST DUP2 MLOAD PUSH1 0x1 PUSH1 0x1 PUSH1 0x40 SHL SUB DUP2 GT ISZERO PUSH3 0x3B1 JUMPI PUSH3 0x3B1 PUSH3 0x1BF JUMP JUMPDEST PUSH3 0x3C9 DUP2 PUSH3 0x3C2 DUP5 SLOAD PUSH3 0x30B JUMP JUMPDEST DUP5 PUSH3 0x345 JUMP JUMPDEST PUSH1 0x20 DUP1 PUSH1 0x1F DUP4 GT PUSH1 0x1 DUP2 EQ PUSH3 0x3FF JUMPI PUSH0 DUP5 ISZERO PUSH3 0x3E7 JUMPI POP DUP6 DUP4 ADD MLOAD JUMPDEST PUSH0 NOT PUSH1 0x3 DUP7 SWAP1 SHL SHR NOT AND PUSH1 0x1 DUP6 SWAP1 SHL OR DUP6 SSTORE PUSH3 0x459 JUMP JUMPDEST PUSH0 DUP6 DUP2 MSTORE PUSH1 0x20 DUP2 KECCAK256 PUSH1 0x1F NOT DUP7 AND SWAP2 JUMPDEST DUP3 DUP2 LT ISZERO PUSH3 0x42F JUMPI DUP9 DUP7 ADD MLOAD DUP3 SSTORE SWAP5 DUP5 ADD SWAP5 PUSH1 0x1 SWAP1 SWAP2 ADD SWAP1 DUP5 ADD PUSH3 0x40E JUMP JUMPDEST POP DUP6 DUP3 LT ISZERO PUSH3 0x44D JUMPI DUP8 DUP6 ADD MLOAD PUSH0 NOT PUSH1 0x3 DUP9 SWAP1 SHL PUSH1 0xF8 AND SHR NOT AND DUP2 SSTORE JUMPDEST POP POP PUSH1 0x1 DUP5 PUSH1 0x1 SHL ADD DUP6 SSTORE JUMPDEST POP POP POP POP POP POP JUMP JUMPDEST PUSH1 0x80 MLOAD PUSH1 0xA0 MLOAD PUSH1 0xC0 MLOAD PUSH2 0x2F01 PUSH3 0x4D2 PUSH0 CODECOPY PUSH0 DUP2 DUP2 PUSH2 0x427 ADD MSTORE DUP2 DUP2 PUSH2 0xC1F ADD MSTORE DUP2 DUP2 PUSH2 0xD90 ADD MSTORE PUSH2 0x13B9 ADD MSTORE PUSH0 DUP2 DUP2 PUSH2 0x733 ADD MSTORE DUP2 DUP2 PUSH2 0x8D1 ADD MSTORE DUP2 DUP2 PUSH2 0x95E ADD MSTORE PUSH2 0xA39 ADD MSTORE PUSH0 DUP2 DUP2 PUSH2 0x816 ADD MSTORE DUP2 DUP2 PUSH2 0xA0A ADD MSTORE DUP2 DUP2 PUSH2 0xABB ADD MSTORE DUP2 DUP2 PUSH2 0xB7A ADD MSTORE PUSH2 0x122B ADD MSTORE PUSH2 0x2F01 PUSH0 RETURN INVALID PUSH1 0x80 PUSH1 0x40 MSTORE CALLVALUE DUP1 ISZERO PUSH2 0xF JUMPI PUSH0 DUP1 REVERT JUMPDEST POP PUSH1 0x4 CALLDATASIZE LT PUSH2 0x186 JUMPI PUSH0 CALLDATALOAD PUSH1 0xE0 SHR DUP1 PUSH4 0x5DC5EBDB GT PUSH2 0xD9 JUMPI DUP1 PUSH4 0xB942F8CB GT PUSH2 0x93 JUMPI DUP1 PUSH4 0xE985E9C5 GT PUSH2 0x6E JUMPI DUP1 PUSH4 0xE985E9C5 EQ PUSH2 0x385 JUMPI DUP1 PUSH4 0xF242432A EQ PUSH2 0x398 JUMPI DUP1 PUSH4 0xF2FDE38B EQ PUSH2 0x3AB JUMPI DUP1 PUSH4 0xF5298ACA EQ PUSH2 0x3BE JUMPI PUSH0 DUP1 REVERT JUMPDEST DUP1 PUSH4 0xB942F8CB EQ PUSH2 0x340 JUMPI DUP1 PUSH4 0xBD85B039 EQ PUSH2 0x353 JUMPI DUP1 PUSH4 0xC1341C4F EQ PUSH2 0x372 JUMPI PUSH0 DUP1 REVERT JUMPDEST DUP1 PUSH4 0x5DC5EBDB EQ PUSH2 0x2C3 JUMPI DUP1 PUSH4 0x6B20C454 EQ PUSH2 0x2E4 JUMPI DUP1 PUSH4 0x79BA5097 EQ PUSH2 0x2F7 JUMPI DUP1 PUSH4 0x85572FFB EQ PUSH2 0x2FF JUMPI DUP1 PUSH4 0x8DA5CB5B EQ PUSH2 0x312 JUMPI DUP1 PUSH4 0xA22CB465 EQ PUSH2 0x32D JUMPI PUSH0 DUP1 REVERT JUMPDEST DUP1 PUSH4 0x2EB2C2D6 GT PUSH2 0x144 JUMPI DUP1 PUSH4 0x4E1273F4 GT PUSH2 0x11F JUMPI DUP1 PUSH4 0x4E1273F4 EQ PUSH2 0x25C JUMPI DUP1 PUSH4 0x4F558E79 EQ PUSH2 0x27C JUMPI DUP1 PUSH4 0x51CFF8D9 EQ PUSH2 0x29D JUMPI DUP1 PUSH4 0x55CC4E57 EQ PUSH2 0x2B0 JUMPI PUSH0 DUP1 REVERT JUMPDEST DUP1 PUSH4 0x2EB2C2D6 EQ PUSH2 0x223 JUMPI DUP1 PUSH4 0x3AEAC4E1 EQ PUSH2 0x236 JUMPI DUP1 PUSH4 0x41EADE46 EQ PUSH2 0x249 JUMPI PUSH0 DUP1 REVERT JUMPDEST DUP1 PUSH3 0xFDD58E EQ PUSH2 0x18A JUMPI DUP1 PUSH4 0x1FFC9A7 EQ PUSH2 0x1B0 JUMPI DUP1 PUSH4 0xCE639C4 EQ PUSH2 0x1D3 JUMPI DUP1 PUSH4 0xE89341C EQ PUSH2 0x1E8 JUMPI DUP1 PUSH4 0x18160DDD EQ PUSH2 0x208 JUMPI DUP1 PUSH4 0x240B3B49 EQ PUSH2 0x210 JUMPI JUMPDEST PUSH0 DUP1 REVERT JUMPDEST PUSH2 0x19D PUSH2 0x198 CALLDATASIZE PUSH1 0x4 PUSH2 0x2167 JUMP JUMPDEST PUSH2 0x3D1 JUMP JUMPDEST PUSH1 0x40 MLOAD SWAP1 DUP2 MSTORE PUSH1 0x20 ADD JUMPDEST PUSH1 0x40 MLOAD DUP1 SWAP2 SUB SWAP1 RETURN JUMPDEST PUSH2 0x1C3 PUSH2 0x1BE CALLDATASIZE PUSH1 0x4 PUSH2 0x21A6 JUMP JUMPDEST PUSH2 0x3F8 JUMP JUMPDEST PUSH1 0x40 MLOAD SWAP1 ISZERO ISZERO DUP2 MSTORE PUSH1 0x20 ADD PUSH2 0x1A7 JUMP JUMPDEST PUSH2 0x1E6 PUSH2 0x1E1 CALLDATASIZE PUSH1 0x4 PUSH2 0x228B JUMP JUMPDEST PUSH2 0x41C JUMP JUMPDEST STOP JUMPDEST PUSH2 0x1FB PUSH2 0x1F6 CALLDATASIZE PUSH1 0x4 PUSH2 0x22E6 JUMP JUMPDEST PUSH2 0x52A JUMP JUMPDEST PUSH1 0x40 MLOAD PUSH2 0x1A7 SWAP2 SWAP1 PUSH2 0x2340 JUMP JUMPDEST PUSH1 0x4 SLOAD PUSH2 0x19D JUMP JUMPDEST PUSH2 0x19D PUSH2 0x21E CALLDATASIZE PUSH1 0x4 PUSH2 0x2352 JUMP JUMPDEST PUSH2 0x5E4 JUMP JUMPDEST PUSH2 0x1E6 PUSH2 0x231 CALLDATASIZE PUSH1 0x4 PUSH2 0x2477 JUMP JUMPDEST PUSH2 0xC73 JUMP JUMPDEST PUSH2 0x1E6 PUSH2 0x244 CALLDATASIZE PUSH1 0x4 PUSH2 0x251D JUMP JUMPDEST PUSH2 0xCDA JUMP JUMPDEST PUSH2 0x1E6 PUSH2 0x257 CALLDATASIZE PUSH1 0x4 PUSH2 0x2554 JUMP JUMPDEST PUSH2 0xD85 JUMP JUMPDEST PUSH2 0x26F PUSH2 0x26A CALLDATASIZE PUSH1 0x4 PUSH2 0x256D JUMP JUMPDEST PUSH2 0xE60 JUMP JUMPDEST PUSH1 0x40 MLOAD PUSH2 0x1A7 SWAP2 SWAP1 PUSH2 0x2662 JUMP JUMPDEST PUSH2 0x1C3 PUSH2 0x28A CALLDATASIZE PUSH1 0x4 PUSH2 0x22E6 JUMP JUMPDEST PUSH0 SWAP1 DUP2 MSTORE PUSH1 0x3 PUSH1 0x20 MSTORE PUSH1 0x40 SWAP1 KECCAK256 SLOAD ISZERO ISZERO SWAP1 JUMP JUMPDEST PUSH2 0x1E6 PUSH2 0x2AB CALLDATASIZE PUSH1 0x4 PUSH2 0x2674 JUMP JUMPDEST PUSH2 0xF2A JUMP JUMPDEST PUSH2 0x1E6 PUSH2 0x2BE CALLDATASIZE PUSH1 0x4 PUSH2 0x2674 JUMP JUMPDEST PUSH2 0xFDC JUMP JUMPDEST PUSH2 0x2D6 PUSH2 0x2D1 CALLDATASIZE PUSH1 0x4 PUSH2 0x2554 JUMP JUMPDEST PUSH2 0x102D JUMP JUMPDEST PUSH1 0x40 MLOAD PUSH2 0x1A7 SWAP3 SWAP2 SWAP1 PUSH2 0x268F JUMP JUMPDEST PUSH2 0x1E6 PUSH2 0x2F2 CALLDATASIZE PUSH1 0x4 PUSH2 0x26BA JUMP JUMPDEST PUSH2 0x10D9 JUMP JUMPDEST PUSH2 0x1E6 PUSH2 0x1173 JUMP JUMPDEST PUSH2 0x1E6 PUSH2 0x30D CALLDATASIZE PUSH1 0x4 PUSH2 0x2720 JUMP JUMPDEST PUSH2 0x1220 JUMP JUMPDEST PUSH1 0x5 SLOAD PUSH1 0x40 MLOAD PUSH1 0x1 PUSH1 0x1 PUSH1 0xA0 SHL SUB SWAP1 SWAP2 AND DUP2 MSTORE PUSH1 0x20 ADD PUSH2 0x1A7 JUMP JUMPDEST PUSH2 0x1E6 PUSH2 0x33B CALLDATASIZE PUSH1 0x4 PUSH2 0x2763 JUMP JUMPDEST PUSH2 0x140A JUMP JUMPDEST PUSH2 0x1E6 PUSH2 0x34E CALLDATASIZE PUSH1 0x4 PUSH2 0x278F JUMP JUMPDEST PUSH2 0x1419 JUMP JUMPDEST PUSH2 0x19D PUSH2 0x361 CALLDATASIZE PUSH1 0x4 PUSH2 0x22E6 JUMP JUMPDEST PUSH0 SWAP1 DUP2 MSTORE PUSH1 0x3 PUSH1 0x20 MSTORE PUSH1 0x40 SWAP1 KECCAK256 SLOAD SWAP1 JUMP JUMPDEST PUSH2 0x1E6 PUSH2 0x380 CALLDATASIZE PUSH1 0x4 PUSH2 0x28B6 JUMP JUMPDEST PUSH2 0x14C4 JUMP JUMPDEST PUSH2 0x1C3 PUSH2 0x393 CALLDATASIZE PUSH1 0x4 PUSH2 0x251D JUMP JUMPDEST PUSH2 0x1522 JUMP JUMPDEST PUSH2 0x1E6 PUSH2 0x3A6 CALLDATASIZE PUSH1 0x4 PUSH2 0x290A JUMP JUMPDEST PUSH2 0x154F JUMP JUMPDEST PUSH2 0x1E6 PUSH2 0x3B9 CALLDATASIZE PUSH1 0x4 PUSH2 0x2674 JUMP JUMPDEST PUSH2 0x15AE JUMP JUMPDEST PUSH2 0x1E6 PUSH2 0x3CC CALLDATASIZE PUSH1 0x4 PUSH2 0x296D JUMP JUMPDEST PUSH2 0x15BF JUMP JUMPDEST PUSH0 DUP2 DUP2 MSTORE PUSH1 0x20 DUP2 DUP2 MSTORE PUSH1 0x40 DUP1 DUP4 KECCAK256 PUSH1 0x1 PUSH1 0x1 PUSH1 0xA0 SHL SUB DUP7 AND DUP5 MSTORE SWAP1 SWAP2 MSTORE SWAP1 KECCAK256 SLOAD JUMPDEST SWAP3 SWAP2 POP POP JUMP JUMPDEST PUSH0 PUSH1 0x1 PUSH1 0x1 PUSH1 0xE0 SHL SUB NOT DUP3 AND PUSH4 0x85572FFB PUSH1 0xE0 SHL EQ DUP1 PUSH2 0x3F2 JUMPI POP PUSH2 0x3F2 DUP3 PUSH2 0x1630 JUMP JUMPDEST PUSH2 0x424 PUSH2 0x167F JUMP JUMPDEST DUP3 PUSH32 0x0 PUSH1 0x1 PUSH1 0x1 PUSH1 0x40 SHL SUB AND DUP2 PUSH1 0x1 PUSH1 0x1 PUSH1 0x40 SHL SUB AND SUB PUSH2 0x487 JUMPI PUSH1 0x40 MLOAD PUSH4 0x40D8E3A1 PUSH1 0xE0 SHL DUP2 MSTORE PUSH1 0x1 PUSH1 0x1 PUSH1 0x40 SHL SUB DUP3 AND PUSH1 0x4 DUP3 ADD MSTORE PUSH1 0x24 ADD JUMPDEST PUSH1 0x40 MLOAD DUP1 SWAP2 SUB SWAP1 REVERT JUMPDEST PUSH1 0x40 DUP1 MLOAD DUP1 DUP3 ADD DUP3 MSTORE PUSH1 0x1 PUSH1 0x1 PUSH1 0xA0 SHL SUB DUP6 DUP2 AND DUP3 MSTORE PUSH1 0x20 DUP1 DUP4 ADD DUP7 DUP2 MSTORE PUSH1 0x1 PUSH1 0x1 PUSH1 0x40 SHL SUB DUP10 AND PUSH0 SWAP1 DUP2 MSTORE PUSH1 0xA SWAP1 SWAP3 MSTORE SWAP4 SWAP1 KECCAK256 DUP3 MLOAD DUP2 SLOAD PUSH1 0x1 PUSH1 0x1 PUSH1 0xA0 SHL SUB NOT AND SWAP3 AND SWAP2 SWAP1 SWAP2 OR DUP2 SSTORE SWAP2 MLOAD SWAP1 SWAP2 SWAP1 PUSH1 0x1 DUP3 ADD SWAP1 PUSH2 0x4E5 SWAP1 DUP3 PUSH2 0x2A1B JUMP JUMPDEST POP SWAP1 POP POP PUSH32 0x59CC0B49D3359AC35E3872E99199469B6A1025C9A945CD9B6A411BFFE337272D DUP5 DUP5 DUP5 PUSH1 0x40 MLOAD PUSH2 0x51C SWAP4 SWAP3 SWAP2 SWAP1 PUSH2 0x2AD6 JUMP JUMPDEST PUSH1 0x40 MLOAD DUP1 SWAP2 SUB SWAP1 LOG1 POP POP POP POP JUMP JUMPDEST PUSH0 DUP2 DUP2 MSTORE PUSH1 0x8 PUSH1 0x20 MSTORE PUSH1 0x40 DUP2 KECCAK256 DUP1 SLOAD PUSH1 0x60 SWAP3 SWAP2 SWAP1 PUSH2 0x547 SWAP1 PUSH2 0x299F JUMP JUMPDEST DUP1 PUSH1 0x1F ADD PUSH1 0x20 DUP1 SWAP2 DIV MUL PUSH1 0x20 ADD PUSH1 0x40 MLOAD SWAP1 DUP2 ADD PUSH1 0x40 MSTORE DUP1 SWAP3 SWAP2 SWAP1 DUP2 DUP2 MSTORE PUSH1 0x20 ADD DUP3 DUP1 SLOAD PUSH2 0x573 SWAP1 PUSH2 0x299F JUMP JUMPDEST DUP1 ISZERO PUSH2 0x5BE JUMPI DUP1 PUSH1 0x1F LT PUSH2 0x595 JUMPI PUSH2 0x100 DUP1 DUP4 SLOAD DIV MUL DUP4 MSTORE SWAP2 PUSH1 0x20 ADD SWAP2 PUSH2 0x5BE JUMP JUMPDEST DUP3 ADD SWAP2 SWAP1 PUSH0 MSTORE PUSH1 0x20 PUSH0 KECCAK256 SWAP1 JUMPDEST DUP2 SLOAD DUP2 MSTORE SWAP1 PUSH1 0x1 ADD SWAP1 PUSH1 0x20 ADD DUP1 DUP4 GT PUSH2 0x5A1 JUMPI DUP3 SWAP1 SUB PUSH1 0x1F AND DUP3 ADD SWAP2 JUMPDEST POP POP POP POP POP SWAP1 POP PUSH0 DUP2 MLOAD GT PUSH2 0x5DB JUMPI PUSH2 0x5D6 DUP4 PUSH2 0x16D4 JUMP JUMPDEST PUSH2 0x5DD JUMP JUMPDEST DUP1 JUMPDEST SWAP4 SWAP3 POP POP POP JUMP JUMPDEST PUSH0 PUSH2 0x5ED PUSH2 0x1766 JUMP JUMPDEST PUSH1 0x1 PUSH1 0x1 PUSH1 0x40 SHL SUB DUP4 AND PUSH0 SWAP1 DUP2 MSTORE PUSH1 0xA PUSH1 0x20 MSTORE PUSH1 0x40 SWAP1 KECCAK256 SLOAD DUP4 SWAP1 PUSH1 0x1 PUSH1 0x1 PUSH1 0xA0 SHL SUB AND PUSH2 0x638 JUMPI PUSH1 0x40 MLOAD PUSH4 0xE19FDF7 PUSH1 0xE1 SHL DUP2 MSTORE PUSH1 0x1 PUSH1 0x1 PUSH1 0x40 SHL SUB DUP3 AND PUSH1 0x4 DUP3 ADD MSTORE PUSH1 0x24 ADD PUSH2 0x47E JUMP JUMPDEST PUSH0 PUSH2 0x642 DUP9 PUSH2 0x52A JUMP JUMPDEST SWAP1 POP PUSH2 0x64F DUP11 DUP10 DUP10 PUSH2 0x15BF JUMP JUMPDEST PUSH1 0x40 DUP1 MLOAD PUSH1 0xA0 DUP2 ADD DUP3 MSTORE PUSH1 0x1 PUSH1 0x1 PUSH1 0x40 SHL SUB DUP8 AND PUSH0 SWAP1 DUP2 MSTORE PUSH1 0xA PUSH1 0x20 MSTORE SWAP2 DUP3 KECCAK256 SLOAD PUSH1 0x1 PUSH1 0x1 PUSH1 0xA0 SHL SUB AND PUSH1 0xC0 DUP3 ADD MSTORE DUP1 PUSH1 0xE0 DUP2 ADD PUSH1 0x40 MLOAD PUSH1 0x20 DUP2 DUP4 SUB SUB DUP2 MSTORE SWAP1 PUSH1 0x40 MSTORE DUP2 MSTORE PUSH1 0x20 ADD DUP13 DUP13 DUP13 DUP13 DUP13 DUP9 PUSH1 0x40 MLOAD PUSH1 0x20 ADD PUSH2 0x6B2 SWAP7 SWAP6 SWAP5 SWAP4 SWAP3 SWAP2 SWAP1 PUSH2 0x2B11 JUMP JUMPDEST PUSH1 0x40 DUP1 MLOAD PUSH1 0x1F NOT DUP2 DUP5 SUB ADD DUP2 MSTORE SWAP2 SWAP1 MSTORE DUP2 MSTORE PUSH1 0x20 ADD PUSH0 PUSH1 0x40 MLOAD SWAP1 DUP1 DUP3 MSTORE DUP1 PUSH1 0x20 MUL PUSH1 0x20 ADD DUP3 ADD PUSH1 0x40 MSTORE DUP1 ISZERO PUSH2 0x70C JUMPI DUP2 PUSH1 0x20 ADD JUMPDEST PUSH1 0x40 DUP1 MLOAD DUP1 DUP3 ADD SWAP1 SWAP2 MSTORE PUSH0 DUP1 DUP3 MSTORE PUSH1 0x20 DUP3 ADD MSTORE DUP2 MSTORE PUSH1 0x20 ADD SWAP1 PUSH1 0x1 SWAP1 SUB SWAP1 DUP2 PUSH2 0x6E6 JUMPI SWAP1 POP JUMPDEST POP DUP2 MSTORE PUSH1 0x20 ADD PUSH1 0x1 DUP8 PUSH1 0x1 DUP2 GT ISZERO PUSH2 0x726 JUMPI PUSH2 0x726 PUSH2 0x2B69 JUMP JUMPDEST EQ PUSH2 0x731 JUMPI PUSH0 PUSH2 0x753 JUMP JUMPDEST PUSH32 0x0 JUMPDEST PUSH1 0x1 PUSH1 0x1 PUSH1 0xA0 SHL SUB AND DUP2 MSTORE PUSH1 0x20 ADD PUSH1 0xA PUSH0 DUP10 PUSH1 0x1 PUSH1 0x1 PUSH1 0x40 SHL SUB AND PUSH1 0x1 PUSH1 0x1 PUSH1 0x40 SHL SUB AND DUP2 MSTORE PUSH1 0x20 ADD SWAP1 DUP2 MSTORE PUSH1 0x20 ADD PUSH0 KECCAK256 PUSH1 0x1 ADD DUP1 SLOAD PUSH2 0x792 SWAP1 PUSH2 0x299F JUMP JUMPDEST DUP1 PUSH1 0x1F ADD PUSH1 0x20 DUP1 SWAP2 DIV MUL PUSH1 0x20 ADD PUSH1 0x40 MLOAD SWAP1 DUP2 ADD PUSH1 0x40 MSTORE DUP1 SWAP3 SWAP2 SWAP1 DUP2 DUP2 MSTORE PUSH1 0x20 ADD DUP3 DUP1 SLOAD PUSH2 0x7BE SWAP1 PUSH2 0x299F JUMP JUMPDEST DUP1 ISZERO PUSH2 0x809 JUMPI DUP1 PUSH1 0x1F LT PUSH2 0x7E0 JUMPI PUSH2 0x100 DUP1 DUP4 SLOAD DIV MUL DUP4 MSTORE SWAP2 PUSH1 0x20 ADD SWAP2 PUSH2 0x809 JUMP JUMPDEST DUP3 ADD SWAP2 SWAP1 PUSH0 MSTORE PUSH1 0x20 PUSH0 KECCAK256 SWAP1 JUMPDEST DUP2 SLOAD DUP2 MSTORE SWAP1 PUSH1 0x1 ADD SWAP1 PUSH1 0x20 ADD DUP1 DUP4 GT PUSH2 0x7EC JUMPI DUP3 SWAP1 SUB PUSH1 0x1F AND DUP3 ADD SWAP2 JUMPDEST POP POP POP POP POP DUP2 MSTORE POP SWAP1 POP PUSH0 PUSH32 0x0 PUSH1 0x1 PUSH1 0x1 PUSH1 0xA0 SHL SUB AND PUSH4 0x20487DED DUP9 DUP5 PUSH1 0x40 MLOAD DUP4 PUSH4 0xFFFFFFFF AND PUSH1 0xE0 SHL DUP2 MSTORE PUSH1 0x4 ADD PUSH2 0x862 SWAP3 SWAP2 SWAP1 PUSH2 0x2B7D JUMP JUMPDEST PUSH1 0x20 PUSH1 0x40 MLOAD DUP1 DUP4 SUB DUP2 DUP7 GAS STATICCALL ISZERO DUP1 ISZERO PUSH2 0x87D JUMPI RETURNDATASIZE PUSH0 DUP1 RETURNDATACOPY RETURNDATASIZE PUSH0 REVERT JUMPDEST POP POP POP POP PUSH1 0x40 MLOAD RETURNDATASIZE PUSH1 0x1F NOT PUSH1 0x1F DUP3 ADD AND DUP3 ADD DUP1 PUSH1 0x40 MSTORE POP DUP2 ADD SWAP1 PUSH2 0x8A1 SWAP2 SWAP1 PUSH2 0x2C57 JUMP JUMPDEST SWAP1 POP PUSH1 0x1 DUP7 PUSH1 0x1 DUP2 GT ISZERO PUSH2 0x8B7 JUMPI PUSH2 0x8B7 PUSH2 0x2B69 JUMP JUMPDEST SUB PUSH2 0xB39 JUMPI PUSH1 0x40 MLOAD PUSH4 0x70A08231 PUSH1 0xE0 SHL DUP2 MSTORE ADDRESS PUSH1 0x4 DUP3 ADD MSTORE PUSH32 0x0 PUSH1 0x1 PUSH1 0x1 PUSH1 0xA0 SHL SUB AND SWAP1 PUSH4 0x70A08231 SWAP1 PUSH1 0x24 ADD PUSH1 0x20 PUSH1 0x40 MLOAD DUP1 DUP4 SUB DUP2 DUP7 GAS STATICCALL ISZERO DUP1 ISZERO PUSH2 0x91E JUMPI RETURNDATASIZE PUSH0 DUP1 RETURNDATACOPY RETURNDATASIZE PUSH0 REVERT JUMPDEST POP POP POP POP PUSH1 0x40 MLOAD RETURNDATASIZE PUSH1 0x1F NOT PUSH1 0x1F DUP3 ADD AND DUP3 ADD DUP1 PUSH1 0x40 MSTORE POP DUP2 ADD SWAP1 PUSH2 0x942 SWAP2 SWAP1 PUSH2 0x2C57 JUMP JUMPDEST DUP2 GT ISZERO PUSH2 0x9F3 JUMPI PUSH1 0x40 MLOAD PUSH4 0x70A08231 PUSH1 0xE0 SHL DUP2 MSTORE ADDRESS PUSH1 0x4 DUP3 ADD MSTORE PUSH32 0x0 PUSH1 0x1 PUSH1 0x1 PUSH1 0xA0 SHL SUB AND SWAP1 PUSH4 0x70A08231 SWAP1 PUSH1 0x24 ADD PUSH1 0x20 PUSH1 0x40 MLOAD DUP1 DUP4 SUB DUP2 DUP7 GAS STATICCALL ISZERO DUP1 ISZERO PUSH2 0x9AB JUMPI RETURNDATASIZE PUSH0 DUP1 RETURNDATACOPY RETURNDATASIZE PUSH0 REVERT JUMPDEST POP POP POP POP PUSH1 0x40 MLOAD RETURNDATASIZE PUSH1 0x1F NOT PUSH1 0x1F DUP3 ADD AND DUP3 ADD DUP1 PUSH1 0x40 MSTORE POP DUP2 ADD SWAP1 PUSH2 0x9CF SWAP2 SWAP1 PUSH2 0x2C57 JUMP JUMPDEST PUSH1 0x40 MLOAD PUSH4 0x28FDCAA1 PUSH1 0xE0 SHL DUP2 MSTORE PUSH1 0x4 DUP2 ADD SWAP2 SWAP1 SWAP2 MSTORE PUSH1 0x24 DUP2 ADD DUP3 SWAP1 MSTORE PUSH1 0x44 ADD PUSH2 0x47E JUMP JUMPDEST PUSH1 0x40 MLOAD PUSH4 0x95EA7B3 PUSH1 0xE0 SHL DUP2 MSTORE PUSH1 0x1 PUSH1 0x1 PUSH1 0xA0 SHL SUB PUSH32 0x0 DUP2 AND PUSH1 0x4 DUP4 ADD MSTORE PUSH1 0x24 DUP3 ADD DUP4 SWAP1 MSTORE PUSH32 0x0 AND SWAP1 PUSH4 0x95EA7B3 SWAP1 PUSH1 0x44 ADD PUSH1 0x20 PUSH1 0x40 MLOAD DUP1 DUP4 SUB DUP2 PUSH0 DUP8 GAS CALL ISZERO DUP1 ISZERO PUSH2 0xA7F JUMPI RETURNDATASIZE PUSH0 DUP1 RETURNDATACOPY RETURNDATASIZE PUSH0 REVERT JUMPDEST POP POP POP POP PUSH1 0x40 MLOAD RETURNDATASIZE PUSH1 0x1F NOT PUSH1 0x1F DUP3 ADD AND DUP3 ADD DUP1 PUSH1 0x40 MSTORE POP DUP2 ADD SWAP1 PUSH2 0xAA3 SWAP2 SWAP1 PUSH2 0x2C6E JUMP JUMPDEST POP PUSH1 0x40 MLOAD PUSH4 0x96F4E9F9 PUSH1 0xE0 SHL DUP2 MSTORE PUSH1 0x1 PUSH1 0x1 PUSH1 0xA0 SHL SUB PUSH32 0x0 AND SWAP1 PUSH4 0x96F4E9F9 SWAP1 PUSH2 0xAF2 SWAP1 DUP11 SWAP1 DUP7 SWAP1 PUSH1 0x4 ADD PUSH2 0x2B7D JUMP JUMPDEST PUSH1 0x20 PUSH1 0x40 MLOAD DUP1 DUP4 SUB DUP2 PUSH0 DUP8 GAS CALL ISZERO DUP1 ISZERO PUSH2 0xB0E JUMPI RETURNDATASIZE PUSH0 DUP1 RETURNDATACOPY RETURNDATASIZE PUSH0 REVERT JUMPDEST POP POP POP POP PUSH1 0x40 MLOAD RETURNDATASIZE PUSH1 0x1F NOT PUSH1 0x1F DUP3 ADD AND DUP3 ADD DUP1 PUSH1 0x40 MSTORE POP DUP2 ADD SWAP1 PUSH2 0xB32 SWAP2 SWAP1 PUSH2 0x2C57 JUMP JUMPDEST SWAP5 POP PUSH2 0xBF7 JUMP JUMPDEST SELFBALANCE DUP2 GT ISZERO PUSH2 0xB63 JUMPI PUSH1 0x40 MLOAD PUSH4 0x28FDCAA1 PUSH1 0xE0 SHL DUP2 MSTORE SELFBALANCE PUSH1 0x4 DUP3 ADD MSTORE PUSH1 0x24 DUP2 ADD DUP3 SWAP1 MSTORE PUSH1 0x44 ADD PUSH2 0x47E JUMP JUMPDEST PUSH1 0x40 MLOAD PUSH4 0x96F4E9F9 PUSH1 0xE0 SHL DUP2 MSTORE PUSH1 0x1 PUSH1 0x1 PUSH1 0xA0 SHL SUB PUSH32 0x0 AND SWAP1 PUSH4 0x96F4E9F9 SWAP1 DUP4 SWAP1 PUSH2 0xBB3 SWAP1 DUP12 SWAP1 DUP8 SWAP1 PUSH1 0x4 ADD PUSH2 0x2B7D JUMP JUMPDEST PUSH1 0x20 PUSH1 0x40 MLOAD DUP1 DUP4 SUB DUP2 DUP6 DUP9 GAS CALL ISZERO DUP1 ISZERO PUSH2 0xBCF JUMPI RETURNDATASIZE PUSH0 DUP1 RETURNDATACOPY RETURNDATASIZE PUSH0 REVERT JUMPDEST POP POP POP POP POP PUSH1 0x40 MLOAD RETURNDATASIZE PUSH1 0x1F NOT PUSH1 0x1F DUP3 ADD AND DUP3 ADD DUP1 PUSH1 0x40 MSTORE POP DUP2 ADD SWAP1 PUSH2 0xBF4 SWAP2 SWAP1 PUSH2 0x2C57 JUMP JUMPDEST SWAP5 POP JUMPDEST PUSH32 0x300E6C20D2E9D8DB9B2DF40EBCE943D9DAE3FA3A8EAEC841A3D1CB9A1E8B6AD7 DUP13 DUP13 DUP13 DUP13 DUP13 PUSH32 0x0 DUP14 PUSH1 0x40 MLOAD PUSH2 0xC52 SWAP8 SWAP7 SWAP6 SWAP5 SWAP4 SWAP3 SWAP2 SWAP1 PUSH2 0x2C89 JUMP JUMPDEST PUSH1 0x40 MLOAD DUP1 SWAP2 SUB SWAP1 LOG1 POP POP POP POP PUSH2 0xC68 PUSH1 0x1 PUSH1 0x9 SSTORE JUMP JUMPDEST SWAP8 SWAP7 POP POP POP POP POP POP POP JUMP JUMPDEST CALLER PUSH1 0x1 PUSH1 0x1 PUSH1 0xA0 SHL SUB DUP7 AND DUP2 EQ DUP1 ISZERO SWAP1 PUSH2 0xC94 JUMPI POP PUSH2 0xC92 DUP7 DUP3 PUSH2 0x1522 JUMP JUMPDEST ISZERO JUMPDEST ISZERO PUSH2 0xCC5 JUMPI PUSH1 0x40 MLOAD PUSH4 0x711BEC91 PUSH1 0xE1 SHL DUP2 MSTORE PUSH1 0x1 PUSH1 0x1 PUSH1 0xA0 SHL SUB DUP1 DUP4 AND PUSH1 0x4 DUP4 ADD MSTORE DUP8 AND PUSH1 0x24 DUP3 ADD MSTORE PUSH1 0x44 ADD PUSH2 0x47E JUMP JUMPDEST PUSH2 0xCD2 DUP7 DUP7 DUP7 DUP7 DUP7 PUSH2 0x1790 JUMP JUMPDEST POP POP POP POP POP POP JUMP JUMPDEST PUSH2 0xCE2 PUSH2 0x167F JUMP JUMPDEST PUSH1 0x40 MLOAD PUSH4 0x70A08231 PUSH1 0xE0 SHL DUP2 MSTORE ADDRESS PUSH1 0x4 DUP3 ADD MSTORE PUSH0 SWAP1 PUSH1 0x1 PUSH1 0x1 PUSH1 0xA0 SHL SUB DUP4 AND SWAP1 PUSH4 0x70A08231 SWAP1 PUSH1 0x24 ADD PUSH1 0x20 PUSH1 0x40 MLOAD DUP1 DUP4 SUB DUP2 DUP7 GAS STATICCALL ISZERO DUP1 ISZERO PUSH2 0xD26 JUMPI RETURNDATASIZE PUSH0 DUP1 RETURNDATACOPY RETURNDATASIZE PUSH0 REVERT JUMPDEST POP POP POP POP PUSH1 0x40 MLOAD RETURNDATASIZE PUSH1 0x1F NOT PUSH1 0x1F DUP3 ADD AND DUP3 ADD DUP1 PUSH1 0x40 MSTORE POP DUP2 ADD SWAP1 PUSH2 0xD4A SWAP2 SWAP1 PUSH2 0x2C57 JUMP JUMPDEST SWAP1 POP DUP1 PUSH0 SUB PUSH2 0xD6C JUMPI PUSH1 0x40 MLOAD PUSH4 0x686827B PUSH1 0xE5 SHL DUP2 MSTORE PUSH1 0x4 ADD PUSH1 0x40 MLOAD DUP1 SWAP2 SUB SWAP1 REVERT JUMPDEST PUSH2 0xD80 PUSH1 0x1 PUSH1 0x1 PUSH1 0xA0 SHL SUB DUP4 AND DUP5 DUP4 PUSH2 0x17F5 JUMP JUMPDEST POP POP POP JUMP JUMPDEST PUSH2 0xD8D PUSH2 0x167F JUMP JUMPDEST DUP1 PUSH32 0x0 PUSH1 0x1 PUSH1 0x1 PUSH1 0x40 SHL SUB AND DUP2 PUSH1 0x1 PUSH1 0x1 PUSH1 0x40 SHL SUB AND SUB PUSH2 0xDEB JUMPI PUSH1 0x40 MLOAD PUSH4 0x40D8E3A1 PUSH1 0xE0 SHL DUP2 MSTORE PUSH1 0x1 PUSH1 0x1 PUSH1 0x40 SHL SUB DUP3 AND PUSH1 0x4 DUP3 ADD MSTORE PUSH1 0x24 ADD PUSH2 0x47E JUMP JUMPDEST PUSH1 0x1 PUSH1 0x1 PUSH1 0x40 SHL SUB DUP3 AND PUSH0 SWAP1 DUP2 MSTORE PUSH1 0xA PUSH1 0x20 MSTORE PUSH1 0x40 DUP2 KECCAK256 DUP1 SLOAD PUSH1 0x1 PUSH1 0x1 PUSH1 0xA0 SHL SUB NOT AND DUP2 SSTORE SWAP1 PUSH2 0xE1E PUSH1 0x1 DUP4 ADD DUP3 PUSH2 0x2109 JUMP JUMPDEST POP POP PUSH1 0x40 MLOAD PUSH1 0x1 PUSH1 0x1 PUSH1 0x40 SHL SUB DUP4 AND DUP2 MSTORE PUSH32 0x67E02000179A6045F4DB8FB1B09F01E170B0347E0B698FC5112CE4D798EF19F6 SWAP1 PUSH1 0x20 ADD PUSH1 0x40 MLOAD DUP1 SWAP2 SUB SWAP1 LOG1 POP POP JUMP JUMPDEST PUSH1 0x60 DUP2 MLOAD DUP4 MLOAD EQ PUSH2 0xE91 JUMPI DUP2 MLOAD DUP4 MLOAD PUSH1 0x40 MLOAD PUSH4 0x5B059991 PUSH1 0xE0 SHL DUP2 MSTORE PUSH1 0x4 DUP2 ADD SWAP3 SWAP1 SWAP3 MSTORE PUSH1 0x24 DUP3 ADD MSTORE PUSH1 0x44 ADD PUSH2 0x47E JUMP JUMPDEST PUSH0 DUP4 MLOAD PUSH1 0x1 PUSH1 0x1 PUSH1 0x40 SHL SUB DUP2 GT ISZERO PUSH2 0xEAB JUMPI PUSH2 0xEAB PUSH2 0x21DC JUMP JUMPDEST PUSH1 0x40 MLOAD SWAP1 DUP1 DUP3 MSTORE DUP1 PUSH1 0x20 MUL PUSH1 0x20 ADD DUP3 ADD PUSH1 0x40 MSTORE DUP1 ISZERO PUSH2 0xED4 JUMPI DUP2 PUSH1 0x20 ADD PUSH1 0x20 DUP3 MUL DUP1 CALLDATASIZE DUP4 CALLDATACOPY ADD SWAP1 POP JUMPDEST POP SWAP1 POP PUSH0 JUMPDEST DUP5 MLOAD DUP2 LT ISZERO PUSH2 0xF22 JUMPI PUSH1 0x20 DUP1 DUP3 MUL DUP7 ADD ADD MLOAD PUSH2 0xEFD SWAP1 PUSH1 0x20 DUP1 DUP5 MUL DUP8 ADD ADD MLOAD PUSH2 0x3D1 JUMP JUMPDEST DUP3 DUP3 DUP2 MLOAD DUP2 LT PUSH2 0xF0F JUMPI PUSH2 0xF0F PUSH2 0x2CE6 JUMP JUMPDEST PUSH1 0x20 SWAP1 DUP2 MUL SWAP2 SWAP1 SWAP2 ADD ADD MSTORE PUSH1 0x1 ADD PUSH2 0xED9 JUMP JUMPDEST POP SWAP4 SWAP3 POP POP POP JUMP JUMPDEST PUSH2 0xF32 PUSH2 0x167F JUMP JUMPDEST SELFBALANCE PUSH0 DUP2 SWAP1 SUB PUSH2 0xF54 JUMPI PUSH1 0x40 MLOAD PUSH4 0x686827B PUSH1 0xE5 SHL DUP2 MSTORE PUSH1 0x4 ADD PUSH1 0x40 MLOAD DUP1 SWAP2 SUB SWAP1 REVERT JUMPDEST PUSH0 DUP3 PUSH1 0x1 PUSH1 0x1 PUSH1 0xA0 SHL SUB AND DUP3 PUSH1 0x40 MLOAD PUSH0 PUSH1 0x40 MLOAD DUP1 DUP4 SUB DUP2 DUP6 DUP8 GAS CALL SWAP3 POP POP POP RETURNDATASIZE DUP1 PUSH0 DUP2 EQ PUSH2 0xF9D JUMPI PUSH1 0x40 MLOAD SWAP2 POP PUSH1 0x1F NOT PUSH1 0x3F RETURNDATASIZE ADD AND DUP3 ADD PUSH1 0x40 MSTORE RETURNDATASIZE DUP3 MSTORE RETURNDATASIZE PUSH0 PUSH1 0x20 DUP5 ADD RETURNDATACOPY PUSH2 0xFA2 JUMP JUMPDEST PUSH1 0x60 SWAP2 POP JUMPDEST POP POP SWAP1 POP DUP1 PUSH2 0xD80 JUMPI PUSH1 0x40 MLOAD PUSH4 0x9D11F563 PUSH1 0xE0 SHL DUP2 MSTORE CALLER PUSH1 0x4 DUP3 ADD MSTORE PUSH1 0x1 PUSH1 0x1 PUSH1 0xA0 SHL SUB DUP5 AND PUSH1 0x24 DUP3 ADD MSTORE PUSH1 0x44 DUP2 ADD DUP4 SWAP1 MSTORE PUSH1 0x64 ADD PUSH2 0x47E JUMP JUMPDEST PUSH2 0xFE4 PUSH2 0x167F JUMP JUMPDEST PUSH1 0x7 DUP1 SLOAD PUSH1 0x1 PUSH1 0x1 PUSH1 0xA0 SHL SUB NOT AND PUSH1 0x1 PUSH1 0x1 PUSH1 0xA0 SHL SUB DUP4 AND SWAP1 DUP2 OR SWAP1 SWAP2 SSTORE PUSH1 0x40 MLOAD PUSH32 0xD56ED7B1C1110348B1FBF418469F6FC4ACC32D9B675E9E1E448CC19169A64CA0 SWAP1 PUSH0 SWAP1 LOG2 POP JUMP JUMPDEST PUSH1 0xA PUSH1 0x20 MSTORE PUSH0 SWAP1 DUP2 MSTORE PUSH1 0x40 SWAP1 KECCAK256 DUP1 SLOAD PUSH1 0x1 DUP3 ADD DUP1 SLOAD PUSH1 0x1 PUSH1 0x1 PUSH1 0xA0 SHL SUB SWAP1 SWAP3 AND SWAP3 SWAP2 PUSH2 0x1058 SWAP1 PUSH2 0x299F JUMP JUMPDEST DUP1 PUSH1 0x1F ADD PUSH1 0x20 DUP1 SWAP2 DIV MUL PUSH1 0x20 ADD PUSH1 0x40 MLOAD SWAP1 DUP2 ADD PUSH1 0x40 MSTORE DUP1 SWAP3 SWAP2 SWAP1 DUP2 DUP2 MSTORE PUSH1 0x20 ADD DUP3 DUP1 SLOAD PUSH2 0x1084 SWAP1 PUSH2 0x299F JUMP JUMPDEST DUP1 ISZERO PUSH2 0x10CF JUMPI DUP1 PUSH1 0x1F LT PUSH2 0x10A6 JUMPI PUSH2 0x100 DUP1 DUP4 SLOAD DIV MUL DUP4 MSTORE SWAP2 PUSH1 0x20 ADD SWAP2 PUSH2 0x10CF JUMP JUMPDEST DUP3 ADD SWAP2 SWAP1 PUSH0 MSTORE PUSH1 0x20 PUSH0 KECCAK256 SWAP1 JUMPDEST DUP2 SLOAD DUP2 MSTORE SWAP1 PUSH1 0x1 ADD SWAP1 PUSH1 0x20 ADD DUP1 DUP4 GT PUSH2 0x10B2 JUMPI DUP3 SWAP1 SUB PUSH1 0x1F AND DUP3 ADD SWAP2 JUMPDEST POP POP POP POP POP SWAP1 POP DUP3 JUMP JUMPDEST CALLER ADDRESS EQ DUP1 ISZERO SWAP1 PUSH2 0x10F4 JUMPI POP PUSH1 0x7 SLOAD PUSH1 0x1 PUSH1 0x1 PUSH1 0xA0 SHL SUB AND CALLER EQ ISZERO JUMPDEST ISZERO PUSH2 0x1114 JUMPI PUSH1 0x40 MLOAD PUSH4 0x77251379 PUSH1 0xE1 SHL DUP2 MSTORE CALLER PUSH1 0x4 DUP3 ADD MSTORE PUSH1 0x24 ADD PUSH2 0x47E JUMP JUMPDEST PUSH1 0x1 PUSH1 0x1 PUSH1 0xA0 SHL SUB DUP4 AND CALLER EQ DUP1 ISZERO SWAP1 PUSH2 0x1134 JUMPI POP PUSH2 0x1132 DUP4 CALLER PUSH2 0x1522 JUMP JUMPDEST ISZERO JUMPDEST ISZERO PUSH2 0x1168 JUMPI CALLER JUMPDEST PUSH1 0x40 MLOAD PUSH4 0x711BEC91 PUSH1 0xE1 SHL DUP2 MSTORE PUSH1 0x1 PUSH1 0x1 PUSH1 0xA0 SHL SUB SWAP2 DUP3 AND PUSH1 0x4 DUP3 ADD MSTORE SWAP1 DUP5 AND PUSH1 0x24 DUP3 ADD MSTORE PUSH1 0x44 ADD PUSH2 0x47E JUMP JUMPDEST PUSH2 0xD80 DUP4 DUP4 DUP4 PUSH2 0x1847 JUMP JUMPDEST PUSH1 0x6 SLOAD PUSH1 0x1 PUSH1 0x1 PUSH1 0xA0 SHL SUB AND CALLER EQ PUSH2 0x11C6 JUMPI PUSH1 0x40 MLOAD PUSH3 0x461BCD PUSH1 0xE5 SHL DUP2 MSTORE PUSH1 0x20 PUSH1 0x4 DUP3 ADD MSTORE PUSH1 0x16 PUSH1 0x24 DUP3 ADD MSTORE PUSH22 0x26BAB9BA10313290383937B837B9B2B21037BBB732B9 PUSH1 0x51 SHL PUSH1 0x44 DUP3 ADD MSTORE PUSH1 0x64 ADD PUSH2 0x47E JUMP JUMPDEST PUSH1 0x5 DUP1 SLOAD PUSH1 0x1 PUSH1 0x1 PUSH1 0xA0 SHL SUB NOT DUP1 DUP3 AND CALLER SWAP1 DUP2 OR SWAP1 SWAP4 SSTORE PUSH1 0x6 DUP1 SLOAD SWAP1 SWAP2 AND SWAP1 SSTORE PUSH1 0x40 MLOAD PUSH1 0x1 PUSH1 0x1 PUSH1 0xA0 SHL SUB SWAP1 SWAP2 AND SWAP2 SWAP1 DUP3 SWAP1 PUSH32 0x8BE0079C531659141344CD1FD0A4F28419497F9722A3DAAFE3B4186F6B6457E0 SWAP1 PUSH0 SWAP1 LOG3 POP JUMP JUMPDEST CALLER PUSH1 0x1 PUSH1 0x1 PUSH1 0xA0 SHL SUB PUSH32 0x0 AND EQ PUSH2 0x126B JUMPI PUSH1 0x40 MLOAD PUSH4 0x35FDCCCD PUSH1 0xE2 SHL DUP2 MSTORE CALLER PUSH1 0x4 DUP3 ADD MSTORE PUSH1 0x24 ADD PUSH2 0x47E JUMP JUMPDEST PUSH2 0x1273 PUSH2 0x1766 JUMP JUMPDEST PUSH2 0x1283 PUSH1 0x40 DUP3 ADD PUSH1 0x20 DUP4 ADD PUSH2 0x2554 JUMP JUMPDEST PUSH1 0x1 PUSH1 0x1 PUSH1 0x40 SHL SUB DUP2 AND PUSH0 SWAP1 DUP2 MSTORE PUSH1 0xA PUSH1 0x20 MSTORE PUSH1 0x40 SWAP1 KECCAK256 SLOAD PUSH1 0x1 PUSH1 0x1 PUSH1 0xA0 SHL SUB AND PUSH2 0x12CC JUMPI PUSH1 0x40 MLOAD PUSH4 0xE19FDF7 PUSH1 0xE1 SHL DUP2 MSTORE PUSH1 0x1 PUSH1 0x1 PUSH1 0x40 SHL SUB DUP3 AND PUSH1 0x4 DUP3 ADD MSTORE PUSH1 0x24 ADD PUSH2 0x47E JUMP JUMPDEST PUSH2 0x12DC PUSH1 0x40 DUP4 ADD PUSH1 0x20 DUP5 ADD PUSH2 0x2554 JUMP JUMPDEST PUSH2 0x12E9 PUSH1 0x40 DUP5 ADD DUP5 PUSH2 0x2CFA JUMP JUMPDEST DUP2 ADD SWAP1 PUSH2 0x12F6 SWAP2 SWAP1 PUSH2 0x2674 JUMP JUMPDEST PUSH1 0x1 PUSH1 0x1 PUSH1 0x40 SHL SUB DUP3 AND PUSH0 SWAP1 DUP2 MSTORE PUSH1 0xA PUSH1 0x20 MSTORE PUSH1 0x40 SWAP1 KECCAK256 SLOAD PUSH1 0x1 PUSH1 0x1 PUSH1 0xA0 SHL SUB DUP3 DUP2 AND SWAP2 AND EQ PUSH2 0x1344 JUMPI PUSH1 0x40 MLOAD PUSH4 0xBAF46CD1 PUSH1 0xE0 SHL DUP2 MSTORE PUSH1 0x1 PUSH1 0x1 PUSH1 0xA0 SHL SUB DUP3 AND PUSH1 0x4 DUP3 ADD MSTORE PUSH1 0x24 ADD PUSH2 0x47E JUMP JUMPDEST PUSH0 PUSH2 0x1355 PUSH1 0x40 DUP7 ADD PUSH1 0x20 DUP8 ADD PUSH2 0x2554 JUMP JUMPDEST SWAP1 POP PUSH0 DUP1 DUP1 DUP1 DUP1 DUP1 PUSH2 0x136A PUSH1 0x60 DUP13 ADD DUP13 PUSH2 0x2CFA JUMP JUMPDEST DUP2 ADD SWAP1 PUSH2 0x1377 SWAP2 SWAP1 PUSH2 0x2D43 JUMP JUMPDEST SWAP6 POP SWAP6 POP SWAP6 POP SWAP6 POP SWAP6 POP SWAP6 POP PUSH2 0x1390 DUP6 DUP6 DUP6 DUP6 DUP6 PUSH2 0x14C4 JUMP JUMPDEST PUSH32 0x8A69E2B5FBCC69A1F5D6326FB26DB5BC43CD18D09D2E79A48A50B77DA16432F9 DUP7 DUP7 DUP7 DUP7 DUP7 DUP13 PUSH32 0x0 PUSH1 0x40 MLOAD PUSH2 0x13EB SWAP8 SWAP7 SWAP6 SWAP5 SWAP4 SWAP3 SWAP2 SWAP1 PUSH2 0x2C89 JUMP JUMPDEST PUSH1 0x40 MLOAD DUP1 SWAP2 SUB SWAP1 LOG1 POP POP POP POP POP POP POP POP POP POP PUSH2 0x1407 PUSH1 0x1 PUSH1 0x9 SSTORE JUMP JUMPDEST POP JUMP JUMPDEST PUSH2 0x1415 CALLER DUP4 DUP4 PUSH2 0x188A JUMP JUMPDEST POP POP JUMP JUMPDEST CALLER ADDRESS EQ DUP1 ISZERO SWAP1 PUSH2 0x1434 JUMPI POP PUSH1 0x7 SLOAD PUSH1 0x1 PUSH1 0x1 PUSH1 0xA0 SHL SUB AND CALLER EQ ISZERO JUMPDEST ISZERO PUSH2 0x1454 JUMPI PUSH1 0x40 MLOAD PUSH4 0x77251379 PUSH1 0xE1 SHL DUP2 MSTORE CALLER PUSH1 0x4 DUP3 ADD MSTORE PUSH1 0x24 ADD PUSH2 0x47E JUMP JUMPDEST PUSH2 0x1460 DUP6 DUP6 DUP6 DUP6 PUSH2 0x191E JUMP JUMPDEST PUSH0 JUMPDEST DUP5 MLOAD DUP2 LT ISZERO PUSH2 0xCD2 JUMPI DUP2 DUP2 DUP2 MLOAD DUP2 LT PUSH2 0x147D JUMPI PUSH2 0x147D PUSH2 0x2CE6 JUMP JUMPDEST PUSH1 0x20 MUL PUSH1 0x20 ADD ADD MLOAD PUSH1 0x8 PUSH0 DUP8 DUP5 DUP2 MLOAD DUP2 LT PUSH2 0x149A JUMPI PUSH2 0x149A PUSH2 0x2CE6 JUMP JUMPDEST PUSH1 0x20 MUL PUSH1 0x20 ADD ADD MLOAD DUP2 MSTORE PUSH1 0x20 ADD SWAP1 DUP2 MSTORE PUSH1 0x20 ADD PUSH0 KECCAK256 SWAP1 DUP2 PUSH2 0x14BB SWAP2 SWAP1 PUSH2 0x2A1B JUMP JUMPDEST POP PUSH1 0x1 ADD PUSH2 0x1462 JUMP JUMPDEST CALLER ADDRESS EQ DUP1 ISZERO SWAP1 PUSH2 0x14DF JUMPI POP PUSH1 0x7 SLOAD PUSH1 0x1 PUSH1 0x1 PUSH1 0xA0 SHL SUB AND CALLER EQ ISZERO JUMPDEST ISZERO PUSH2 0x14FF JUMPI PUSH1 0x40 MLOAD PUSH4 0x77251379 PUSH1 0xE1 SHL DUP2 MSTORE CALLER PUSH1 0x4 DUP3 ADD MSTORE PUSH1 0x24 ADD PUSH2 0x47E JUMP JUMPDEST PUSH2 0x150B DUP6 DUP6 DUP6 DUP6 PUSH2 0x195A JUMP JUMPDEST PUSH0 DUP5 DUP2 MSTORE PUSH1 0x8 PUSH1 0x20 MSTORE PUSH1 0x40 SWAP1 KECCAK256 PUSH2 0xCD2 DUP3 DUP3 PUSH2 0x2A1B JUMP JUMPDEST PUSH1 0x1 PUSH1 0x1 PUSH1 0xA0 SHL SUB SWAP2 DUP3 AND PUSH0 SWAP1 DUP2 MSTORE PUSH1 0x1 PUSH1 0x20 SWAP1 DUP2 MSTORE PUSH1 0x40 DUP1 DUP4 KECCAK256 SWAP4 SWAP1 SWAP5 AND DUP3 MSTORE SWAP2 SWAP1 SWAP2 MSTORE KECCAK256 SLOAD PUSH1 0xFF AND SWAP1 JUMP JUMPDEST CALLER PUSH1 0x1 PUSH1 0x1 PUSH1 0xA0 SHL SUB DUP7 AND DUP2 EQ DUP1 ISZERO SWAP1 PUSH2 0x1570 JUMPI POP PUSH2 0x156E DUP7 DUP3 PUSH2 0x1522 JUMP JUMPDEST ISZERO JUMPDEST ISZERO PUSH2 0x15A1 JUMPI PUSH1 0x40 MLOAD PUSH4 0x711BEC91 PUSH1 0xE1 SHL DUP2 MSTORE PUSH1 0x1 PUSH1 0x1 PUSH1 0xA0 SHL SUB DUP1 DUP4 AND PUSH1 0x4 DUP4 ADD MSTORE DUP8 AND PUSH1 0x24 DUP3 ADD MSTORE PUSH1 0x44 ADD PUSH2 0x47E JUMP JUMPDEST PUSH2 0xCD2 DUP7 DUP7 DUP7 DUP7 DUP7 PUSH2 0x19B5 JUMP JUMPDEST PUSH2 0x15B6 PUSH2 0x167F JUMP JUMPDEST PUSH2 0x1407 DUP2 PUSH2 0x1A41 JUMP JUMPDEST CALLER ADDRESS EQ DUP1 ISZERO SWAP1 PUSH2 0x15DA JUMPI POP PUSH1 0x7 SLOAD PUSH1 0x1 PUSH1 0x1 PUSH1 0xA0 SHL SUB AND CALLER EQ ISZERO JUMPDEST ISZERO PUSH2 0x15FA JUMPI PUSH1 0x40 MLOAD PUSH4 0x77251379 PUSH1 0xE1 SHL DUP2 MSTORE CALLER PUSH1 0x4 DUP3 ADD MSTORE PUSH1 0x24 ADD PUSH2 0x47E JUMP JUMPDEST PUSH1 0x1 PUSH1 0x1 PUSH1 0xA0 SHL SUB DUP4 AND CALLER EQ DUP1 ISZERO SWAP1 PUSH2 0x161A JUMPI POP PUSH2 0x1618 DUP4 CALLER PUSH2 0x1522 JUMP JUMPDEST ISZERO JUMPDEST ISZERO PUSH2 0x1625 JUMPI CALLER PUSH2 0x113B JUMP JUMPDEST PUSH2 0xD80 DUP4 DUP4 DUP4 PUSH2 0x1AEA JUMP JUMPDEST PUSH0 PUSH1 0x1 PUSH1 0x1 PUSH1 0xE0 SHL SUB NOT DUP3 AND PUSH4 0x6CDB3D13 PUSH1 0xE1 SHL EQ DUP1 PUSH2 0x1660 JUMPI POP PUSH1 0x1 PUSH1 0x1 PUSH1 0xE0 SHL SUB NOT DUP3 AND PUSH4 0x3A24D07 PUSH1 0xE2 SHL EQ JUMPDEST DUP1 PUSH2 0x3F2 JUMPI POP PUSH4 0x1FFC9A7 PUSH1 0xE0 SHL PUSH1 0x1 PUSH1 0x1 PUSH1 0xE0 SHL SUB NOT DUP4 AND EQ PUSH2 0x3F2 JUMP JUMPDEST PUSH1 0x5 SLOAD PUSH1 0x1 PUSH1 0x1 PUSH1 0xA0 SHL SUB AND CALLER EQ PUSH2 0x16D2 JUMPI PUSH1 0x40 MLOAD PUSH3 0x461BCD PUSH1 0xE5 SHL DUP2 MSTORE PUSH1 0x20 PUSH1 0x4 DUP3 ADD MSTORE PUSH1 0x16 PUSH1 0x24 DUP3 ADD MSTORE PUSH22 0x27B7363C9031B0B63630B1363290313C9037BBB732B9 PUSH1 0x51 SHL PUSH1 0x44 DUP3 ADD MSTORE PUSH1 0x64 ADD PUSH2 0x47E JUMP JUMPDEST JUMP JUMPDEST PUSH1 0x60 PUSH1 0x2 DUP1 SLOAD PUSH2 0x16E3 SWAP1 PUSH2 0x299F JUMP JUMPDEST DUP1 PUSH1 0x1F ADD PUSH1 0x20 DUP1 SWAP2 DIV MUL PUSH1 0x20 ADD PUSH1 0x40 MLOAD SWAP1 DUP2 ADD PUSH1 0x40 MSTORE DUP1 SWAP3 SWAP2 SWAP1 DUP2 DUP2 MSTORE PUSH1 0x20 ADD DUP3 DUP1 SLOAD PUSH2 0x170F SWAP1 PUSH2 0x299F JUMP JUMPDEST DUP1 ISZERO PUSH2 0x175A JUMPI DUP1 PUSH1 0x1F LT PUSH2 0x1731 JUMPI PUSH2 0x100 DUP1 DUP4 SLOAD DIV MUL DUP4 MSTORE SWAP2 PUSH1 0x20 ADD SWAP2 PUSH2 0x175A JUMP JUMPDEST DUP3 ADD SWAP2 SWAP1 PUSH0 MSTORE PUSH1 0x20 PUSH0 KECCAK256 SWAP1 JUMPDEST DUP2 SLOAD DUP2 MSTORE SWAP1 PUSH1 0x1 ADD SWAP1 PUSH1 0x20 ADD DUP1 DUP4 GT PUSH2 0x173D JUMPI DUP3 SWAP1 SUB PUSH1 0x1F AND DUP3 ADD SWAP2 JUMPDEST POP POP POP POP POP SWAP1 POP SWAP2 SWAP1 POP JUMP JUMPDEST PUSH1 0x2 PUSH1 0x9 SLOAD SUB PUSH2 0x1789 JUMPI PUSH1 0x40 MLOAD PUSH4 0x3EE5AEB5 PUSH1 0xE0 SHL DUP2 MSTORE PUSH1 0x4 ADD PUSH1 0x40 MLOAD DUP1 SWAP2 SUB SWAP1 REVERT JUMPDEST PUSH1 0x2 PUSH1 0x9 SSTORE JUMP JUMPDEST PUSH1 0x1 PUSH1 0x1 PUSH1 0xA0 SHL SUB DUP5 AND PUSH2 0x17B9 JUMPI PUSH1 0x40 MLOAD PUSH4 0x2BFA23E7 PUSH1 0xE1 SHL DUP2 MSTORE PUSH0 PUSH1 0x4 DUP3 ADD MSTORE PUSH1 0x24 ADD PUSH2 0x47E JUMP JUMPDEST PUSH1 0x1 PUSH1 0x1 PUSH1 0xA0 SHL SUB DUP6 AND PUSH2 0x17E1 JUMPI PUSH1 0x40 MLOAD PUSH3 0x6A0D45 PUSH1 0xE2 SHL DUP2 MSTORE PUSH0 PUSH1 0x4 DUP3 ADD MSTORE PUSH1 0x24 ADD PUSH2 0x47E JUMP JUMPDEST PUSH2 0x17EE DUP6 DUP6 DUP6 DUP6 DUP6 PUSH2 0x1B4C JUMP JUMPDEST POP POP POP POP POP JUMP JUMPDEST PUSH1 0x40 DUP1 MLOAD PUSH1 0x1 PUSH1 0x1 PUSH1 0xA0 SHL SUB DUP5 AND PUSH1 0x24 DUP3 ADD MSTORE PUSH1 0x44 DUP1 DUP3 ADD DUP5 SWAP1 MSTORE DUP3 MLOAD DUP1 DUP4 SUB SWAP1 SWAP2 ADD DUP2 MSTORE PUSH1 0x64 SWAP1 SWAP2 ADD SWAP1 SWAP2 MSTORE PUSH1 0x20 DUP2 ADD DUP1 MLOAD PUSH1 0x1 PUSH1 0x1 PUSH1 0xE0 SHL SUB AND PUSH4 0xA9059CBB PUSH1 0xE0 SHL OR SWAP1 MSTORE PUSH2 0xD80 SWAP1 DUP5 SWAP1 PUSH2 0x1B9F JUMP JUMPDEST PUSH1 0x1 PUSH1 0x1 PUSH1 0xA0 SHL SUB DUP4 AND PUSH2 0x186F JUMPI PUSH1 0x40 MLOAD PUSH3 0x6A0D45 PUSH1 0xE2 SHL DUP2 MSTORE PUSH0 PUSH1 0x4 DUP3 ADD MSTORE PUSH1 0x24 ADD PUSH2 0x47E JUMP JUMPDEST PUSH2 0xD80 DUP4 PUSH0 DUP5 DUP5 PUSH1 0x40 MLOAD DUP1 PUSH1 0x20 ADD PUSH1 0x40 MSTORE DUP1 PUSH0 DUP2 MSTORE POP PUSH2 0x1B4C JUMP JUMPDEST PUSH1 0x1 PUSH1 0x1 PUSH1 0xA0 SHL SUB DUP3 AND PUSH2 0x18B2 JUMPI PUSH1 0x40 MLOAD PUSH3 0xCED3E1 PUSH1 0xE8 SHL DUP2 MSTORE PUSH0 PUSH1 0x4 DUP3 ADD MSTORE PUSH1 0x24 ADD PUSH2 0x47E JUMP JUMPDEST PUSH1 0x1 PUSH1 0x1 PUSH1 0xA0 SHL SUB DUP4 DUP2 AND PUSH0 DUP2 DUP2 MSTORE PUSH1 0x1 PUSH1 0x20 SWAP1 DUP2 MSTORE PUSH1 0x40 DUP1 DUP4 KECCAK256 SWAP5 DUP8 AND DUP1 DUP5 MSTORE SWAP5 DUP3 MSTORE SWAP2 DUP3 SWAP1 KECCAK256 DUP1 SLOAD PUSH1 0xFF NOT AND DUP7 ISZERO ISZERO SWAP1 DUP2 OR SWAP1 SWAP2 SSTORE SWAP2 MLOAD SWAP2 DUP3 MSTORE PUSH32 0x17307EAB39AB6107E8899845AD3D59BD9653F200F220920489CA2B5937696C31 SWAP2 ADD PUSH1 0x40 MLOAD DUP1 SWAP2 SUB SWAP1 LOG3 POP POP POP JUMP JUMPDEST PUSH1 0x1 PUSH1 0x1 PUSH1 0xA0 SHL SUB DUP5 AND PUSH2 0x1947 JUMPI PUSH1 0x40 MLOAD PUSH4 0x2BFA23E7 PUSH1 0xE1 SHL DUP2 MSTORE PUSH0 PUSH1 0x4 DUP3 ADD MSTORE PUSH1 0x24 ADD PUSH2 0x47E JUMP JUMPDEST PUSH2 0x1954 PUSH0 DUP6 DUP6 DUP6 DUP6 PUSH2 0x1B4C JUMP JUMPDEST POP POP POP POP JUMP JUMPDEST PUSH1 0x1 PUSH1 0x1 PUSH1 0xA0 SHL SUB DUP5 AND PUSH2 0x1983 JUMPI PUSH1 0x40 MLOAD PUSH4 0x2BFA23E7 PUSH1 0xE1 SHL DUP2 MSTORE PUSH0 PUSH1 0x4 DUP3 ADD MSTORE PUSH1 0x24 ADD PUSH2 0x47E JUMP JUMPDEST PUSH1 0x40 DUP1 MLOAD PUSH1 0x1 DUP1 DUP3 MSTORE PUSH1 0x20 DUP3 ADD DUP7 SWAP1 MSTORE DUP2 DUP4 ADD SWAP1 DUP2 MSTORE PUSH1 0x60 DUP3 ADD DUP6 SWAP1 MSTORE PUSH1 0x80 DUP3 ADD SWAP1 SWAP3 MSTORE SWAP1 PUSH2 0xCD2 PUSH0 DUP8 DUP5 DUP5 DUP8 PUSH2 0x1B4C JUMP JUMPDEST PUSH1 0x1 PUSH1 0x1 PUSH1 0xA0 SHL SUB DUP5 AND PUSH2 0x19DE JUMPI PUSH1 0x40 MLOAD PUSH4 0x2BFA23E7 PUSH1 0xE1 SHL DUP2 MSTORE PUSH0 PUSH1 0x4 DUP3 ADD MSTORE PUSH1 0x24 ADD PUSH2 0x47E JUMP JUMPDEST PUSH1 0x1 PUSH1 0x1 PUSH1 0xA0 SHL SUB DUP6 AND PUSH2 0x1A06 JUMPI PUSH1 0x40 MLOAD PUSH3 0x6A0D45 PUSH1 0xE2 SHL DUP2 MSTORE PUSH0 PUSH1 0x4 DUP3 ADD MSTORE PUSH1 0x24 ADD PUSH2 0x47E JUMP JUMPDEST PUSH1 0x40 DUP1 MLOAD PUSH1 0x1 DUP1 DUP3 MSTORE PUSH1 0x20 DUP3 ADD DUP7 SWAP1 MSTORE DUP2 DUP4 ADD SWAP1 DUP2 MSTORE PUSH1 0x60 DUP3 ADD DUP6 SWAP1 MSTORE PUSH1 0x80 DUP3 ADD SWAP1 SWAP3 MSTORE SWAP1 PUSH2 0x1A38 DUP8 DUP8 DUP5 DUP5 DUP8 PUSH2 0x1B4C JUMP JUMPDEST POP POP POP POP POP POP POP JUMP JUMPDEST CALLER PUSH1 0x1 PUSH1 0x1 PUSH1 0xA0 SHL SUB DUP3 AND SUB PUSH2 0x1A99 JUMPI PUSH1 0x40 MLOAD PUSH3 0x461BCD PUSH1 0xE5 SHL DUP2 MSTORE PUSH1 0x20 PUSH1 0x4 DUP3 ADD MSTORE PUSH1 0x17 PUSH1 0x24 DUP3 ADD MSTORE PUSH32 0x43616E6E6F74207472616E7366657220746F2073656C66000000000000000000 PUSH1 0x44 DUP3 ADD MSTORE PUSH1 0x64 ADD PUSH2 0x47E JUMP JUMPDEST PUSH1 0x6 DUP1 SLOAD PUSH1 0x1 PUSH1 0x1 PUSH1 0xA0 SHL SUB NOT AND PUSH1 0x1 PUSH1 0x1 PUSH1 0xA0 SHL SUB DUP4 DUP2 AND SWAP2 DUP3 OR SWAP1 SWAP3 SSTORE PUSH1 0x5 SLOAD PUSH1 0x40 MLOAD SWAP2 SWAP3 AND SWAP1 PUSH32 0xED8889F560326EB138920D842192F0EB3DD22B4F139C87A2C57538E05BAE1278 SWAP1 PUSH0 SWAP1 LOG3 POP JUMP JUMPDEST PUSH1 0x1 PUSH1 0x1 PUSH1 0xA0 SHL SUB DUP4 AND PUSH2 0x1B12 JUMPI PUSH1 0x40 MLOAD PUSH3 0x6A0D45 PUSH1 0xE2 SHL DUP2 MSTORE PUSH0 PUSH1 0x4 DUP3 ADD MSTORE PUSH1 0x24 ADD PUSH2 0x47E JUMP JUMPDEST PUSH1 0x40 DUP1 MLOAD PUSH1 0x1 DUP1 DUP3 MSTORE PUSH1 0x20 DUP3 ADD DUP6 SWAP1 MSTORE DUP2 DUP4 ADD SWAP1 DUP2 MSTORE PUSH1 0x60 DUP3 ADD DUP5 SWAP1 MSTORE PUSH1 0xA0 DUP3 ADD SWAP1 SWAP3 MSTORE PUSH0 PUSH1 0x80 DUP3 ADD DUP2 DUP2 MSTORE SWAP2 SWAP3 SWAP2 PUSH2 0x17EE SWAP2 DUP8 SWAP2 DUP6 SWAP1 DUP6 SWAP1 JUMPDEST PUSH2 0x1B58 DUP6 DUP6 DUP6 DUP6 PUSH2 0x1C0B JUMP JUMPDEST PUSH1 0x1 PUSH1 0x1 PUSH1 0xA0 SHL SUB DUP5 AND ISZERO PUSH2 0x17EE JUMPI DUP3 MLOAD CALLER SWAP1 PUSH1 0x1 SUB PUSH2 0x1B91 JUMPI PUSH1 0x20 DUP5 DUP2 ADD MLOAD SWAP1 DUP5 ADD MLOAD PUSH2 0x1B8A DUP4 DUP10 DUP10 DUP6 DUP6 DUP10 PUSH2 0x1CF2 JUMP JUMPDEST POP POP PUSH2 0xCD2 JUMP JUMPDEST PUSH2 0xCD2 DUP2 DUP8 DUP8 DUP8 DUP8 DUP8 PUSH2 0x1E13 JUMP JUMPDEST PUSH0 DUP1 PUSH1 0x20 PUSH0 DUP5 MLOAD PUSH1 0x20 DUP7 ADD PUSH0 DUP9 GAS CALL DUP1 PUSH2 0x1BBE JUMPI PUSH1 0x40 MLOAD RETURNDATASIZE PUSH0 DUP3 RETURNDATACOPY RETURNDATASIZE DUP2 REVERT JUMPDEST POP POP PUSH0 MLOAD RETURNDATASIZE SWAP2 POP DUP2 ISZERO PUSH2 0x1BD5 JUMPI DUP1 PUSH1 0x1 EQ ISZERO PUSH2 0x1BE2 JUMP JUMPDEST PUSH1 0x1 PUSH1 0x1 PUSH1 0xA0 SHL SUB DUP5 AND EXTCODESIZE ISZERO JUMPDEST ISZERO PUSH2 0x1954 JUMPI PUSH1 0x40 MLOAD PUSH4 0x5274AFE7 PUSH1 0xE0 SHL DUP2 MSTORE PUSH1 0x1 PUSH1 0x1 PUSH1 0xA0 SHL SUB DUP6 AND PUSH1 0x4 DUP3 ADD MSTORE PUSH1 0x24 ADD PUSH2 0x47E JUMP JUMPDEST PUSH2 0x1C17 DUP5 DUP5 DUP5 DUP5 PUSH2 0x1EFA JUMP JUMPDEST PUSH1 0x1 PUSH1 0x1 PUSH1 0xA0 SHL SUB DUP5 AND PUSH2 0x1C94 JUMPI PUSH0 DUP1 JUMPDEST DUP4 MLOAD DUP2 LT ISZERO PUSH2 0x1C7B JUMPI PUSH1 0x20 DUP2 DUP2 MUL DUP5 DUP2 ADD DUP3 ADD MLOAD SWAP1 DUP7 ADD DUP3 ADD MLOAD PUSH0 SWAP1 DUP2 MSTORE PUSH1 0x3 SWAP1 SWAP3 MSTORE PUSH1 0x40 DUP3 KECCAK256 DUP1 SLOAD SWAP2 SWAP3 DUP4 SWAP3 PUSH2 0x1C60 SWAP1 DUP5 SWAP1 PUSH2 0x2DD7 JUMP JUMPDEST SWAP1 SWAP2 SSTORE POP PUSH2 0x1C70 SWAP1 POP DUP2 DUP5 PUSH2 0x2DD7 JUMP JUMPDEST SWAP3 POP POP PUSH1 0x1 ADD PUSH2 0x1C28 JUMP JUMPDEST POP DUP1 PUSH1 0x4 PUSH0 DUP3 DUP3 SLOAD PUSH2 0x1C8D SWAP2 SWAP1 PUSH2 0x2DD7 JUMP JUMPDEST SWAP1 SWAP2 SSTORE POP POP POP JUMPDEST PUSH1 0x1 PUSH1 0x1 PUSH1 0xA0 SHL SUB DUP4 AND PUSH2 0x1954 JUMPI PUSH0 DUP1 JUMPDEST DUP4 MLOAD DUP2 LT ISZERO PUSH2 0x1CE1 JUMPI PUSH1 0x20 DUP2 DUP2 MUL DUP5 DUP2 ADD DUP3 ADD MLOAD SWAP1 DUP7 ADD DUP3 ADD MLOAD PUSH0 SWAP1 DUP2 MSTORE PUSH1 0x3 SWAP1 SWAP3 MSTORE PUSH1 0x40 SWAP1 SWAP2 KECCAK256 DUP1 SLOAD DUP3 SWAP1 SUB SWAP1 SSTORE SWAP2 SWAP1 SWAP2 ADD SWAP1 PUSH1 0x1 ADD PUSH2 0x1CA5 JUMP JUMPDEST POP PUSH1 0x4 DUP1 SLOAD SWAP2 SWAP1 SWAP2 SUB SWAP1 SSTORE POP POP POP POP JUMP JUMPDEST PUSH1 0x1 PUSH1 0x1 PUSH1 0xA0 SHL SUB DUP5 AND EXTCODESIZE ISZERO PUSH2 0xCD2 JUMPI PUSH1 0x40 MLOAD PUSH4 0xF23A6E61 PUSH1 0xE0 SHL DUP2 MSTORE PUSH1 0x1 PUSH1 0x1 PUSH1 0xA0 SHL SUB DUP6 AND SWAP1 PUSH4 0xF23A6E61 SWAP1 PUSH2 0x1D36 SWAP1 DUP10 SWAP1 DUP10 SWAP1 DUP9 SWAP1 DUP9 SWAP1 DUP9 SWAP1 PUSH1 0x4 ADD PUSH2 0x2DF6 JUMP JUMPDEST PUSH1 0x20 PUSH1 0x40 MLOAD DUP1 DUP4 SUB DUP2 PUSH0 DUP8 GAS CALL SWAP3 POP POP POP DUP1 ISZERO PUSH2 0x1D70 JUMPI POP PUSH1 0x40 DUP1 MLOAD PUSH1 0x1F RETURNDATASIZE SWAP1 DUP2 ADD PUSH1 0x1F NOT AND DUP3 ADD SWAP1 SWAP3 MSTORE PUSH2 0x1D6D SWAP2 DUP2 ADD SWAP1 PUSH2 0x2E2F JUMP JUMPDEST PUSH1 0x1 JUMPDEST PUSH2 0x1DD7 JUMPI RETURNDATASIZE DUP1 DUP1 ISZERO PUSH2 0x1D9D JUMPI PUSH1 0x40 MLOAD SWAP2 POP PUSH1 0x1F NOT PUSH1 0x3F RETURNDATASIZE ADD AND DUP3 ADD PUSH1 0x40 MSTORE RETURNDATASIZE DUP3 MSTORE RETURNDATASIZE PUSH0 PUSH1 0x20 DUP5 ADD RETURNDATACOPY PUSH2 0x1DA2 JUMP JUMPDEST PUSH1 0x60 SWAP2 POP JUMPDEST POP DUP1 MLOAD PUSH0 SUB PUSH2 0x1DCF JUMPI PUSH1 0x40 MLOAD PUSH4 0x2BFA23E7 PUSH1 0xE1 SHL DUP2 MSTORE PUSH1 0x1 PUSH1 0x1 PUSH1 0xA0 SHL SUB DUP7 AND PUSH1 0x4 DUP3 ADD MSTORE PUSH1 0x24 ADD PUSH2 0x47E JUMP JUMPDEST DUP1 MLOAD DUP2 PUSH1 0x20 ADD REVERT JUMPDEST PUSH1 0x1 PUSH1 0x1 PUSH1 0xE0 SHL SUB NOT DUP2 AND PUSH4 0xF23A6E61 PUSH1 0xE0 SHL EQ PUSH2 0x1A38 JUMPI PUSH1 0x40 MLOAD PUSH4 0x2BFA23E7 PUSH1 0xE1 SHL DUP2 MSTORE PUSH1 0x1 PUSH1 0x1 PUSH1 0xA0 SHL SUB DUP7 AND PUSH1 0x4 DUP3 ADD MSTORE PUSH1 0x24 ADD PUSH2 0x47E JUMP JUMPDEST PUSH1 0x1 PUSH1 0x1 PUSH1 0xA0 SHL SUB DUP5 AND EXTCODESIZE ISZERO PUSH2 0xCD2 JUMPI PUSH1 0x40 MLOAD PUSH4 0xBC197C81 PUSH1 0xE0 SHL DUP2 MSTORE PUSH1 0x1 PUSH1 0x1 PUSH1 0xA0 SHL SUB DUP6 AND SWAP1 PUSH4 0xBC197C81 SWAP1 PUSH2 0x1E57 SWAP1 DUP10 SWAP1 DUP10 SWAP1 DUP9 SWAP1 DUP9 SWAP1 DUP9 SWAP1 PUSH1 0x4 ADD PUSH2 0x2E4A JUMP JUMPDEST PUSH1 0x20 PUSH1 0x40 MLOAD DUP1 DUP4 SUB DUP2 PUSH0 DUP8 GAS CALL SWAP3 POP POP POP DUP1 ISZERO PUSH2 0x1E91 JUMPI POP PUSH1 0x40 DUP1 MLOAD PUSH1 0x1F RETURNDATASIZE SWAP1 DUP2 ADD PUSH1 0x1F NOT AND DUP3 ADD SWAP1 SWAP3 MSTORE PUSH2 0x1E8E SWAP2 DUP2 ADD SWAP1 PUSH2 0x2E2F JUMP JUMPDEST PUSH1 0x1 JUMPDEST PUSH2 0x1EBE JUMPI RETURNDATASIZE DUP1 DUP1 ISZERO PUSH2 0x1D9D JUMPI PUSH1 0x40 MLOAD SWAP2 POP PUSH1 0x1F NOT PUSH1 0x3F RETURNDATASIZE ADD AND DUP3 ADD PUSH1 0x40 MSTORE RETURNDATASIZE DUP3 MSTORE RETURNDATASIZE PUSH0 PUSH1 0x20 DUP5 ADD RETURNDATACOPY PUSH2 0x1DA2 JUMP JUMPDEST PUSH1 0x1 PUSH1 0x1 PUSH1 0xE0 SHL SUB NOT DUP2 AND PUSH4 0xBC197C81 PUSH1 0xE0 SHL EQ PUSH2 0x1A38 JUMPI PUSH1 0x40 MLOAD PUSH4 0x2BFA23E7 PUSH1 0xE1 SHL DUP2 MSTORE PUSH1 0x1 PUSH1 0x1 PUSH1 0xA0 SHL SUB DUP7 AND PUSH1 0x4 DUP3 ADD MSTORE PUSH1 0x24 ADD PUSH2 0x47E JUMP JUMPDEST DUP1 MLOAD DUP3 MLOAD EQ PUSH2 0x1F29 JUMPI DUP2 MLOAD DUP2 MLOAD PUSH1 0x40 MLOAD PUSH4 0x5B059991 PUSH1 0xE0 SHL DUP2 MSTORE PUSH1 0x4 DUP2 ADD SWAP3 SWAP1 SWAP3 MSTORE PUSH1 0x24 DUP3 ADD MSTORE PUSH1 0x44 ADD PUSH2 0x47E JUMP JUMPDEST CALLER PUSH0 JUMPDEST DUP4 MLOAD DUP2 LT ISZERO PUSH2 0x202B JUMPI PUSH1 0x20 DUP2 DUP2 MUL DUP6 DUP2 ADD DUP3 ADD MLOAD SWAP1 DUP6 ADD SWAP1 SWAP2 ADD MLOAD PUSH1 0x1 PUSH1 0x1 PUSH1 0xA0 SHL SUB DUP9 AND ISZERO PUSH2 0x1FDD JUMPI PUSH0 DUP3 DUP2 MSTORE PUSH1 0x20 DUP2 DUP2 MSTORE PUSH1 0x40 DUP1 DUP4 KECCAK256 PUSH1 0x1 PUSH1 0x1 PUSH1 0xA0 SHL SUB DUP13 AND DUP5 MSTORE SWAP1 SWAP2 MSTORE SWAP1 KECCAK256 SLOAD DUP2 DUP2 LT ISZERO PUSH2 0x1FB7 JUMPI PUSH1 0x40 MLOAD PUSH4 0x3DEE4C5 PUSH1 0xE0 SHL DUP2 MSTORE PUSH1 0x1 PUSH1 0x1 PUSH1 0xA0 SHL SUB DUP11 AND PUSH1 0x4 DUP3 ADD MSTORE PUSH1 0x24 DUP2 ADD DUP3 SWAP1 MSTORE PUSH1 0x44 DUP2 ADD DUP4 SWAP1 MSTORE PUSH1 0x64 DUP2 ADD DUP5 SWAP1 MSTORE PUSH1 0x84 ADD PUSH2 0x47E JUMP JUMPDEST PUSH0 DUP4 DUP2 MSTORE PUSH1 0x20 DUP2 DUP2 MSTORE PUSH1 0x40 DUP1 DUP4 KECCAK256 PUSH1 0x1 PUSH1 0x1 PUSH1 0xA0 SHL SUB DUP14 AND DUP5 MSTORE SWAP1 SWAP2 MSTORE SWAP1 KECCAK256 SWAP1 DUP3 SWAP1 SUB SWAP1 SSTORE JUMPDEST PUSH1 0x1 PUSH1 0x1 PUSH1 0xA0 SHL SUB DUP8 AND ISZERO PUSH2 0x2021 JUMPI PUSH0 DUP3 DUP2 MSTORE PUSH1 0x20 DUP2 DUP2 MSTORE PUSH1 0x40 DUP1 DUP4 KECCAK256 PUSH1 0x1 PUSH1 0x1 PUSH1 0xA0 SHL SUB DUP12 AND DUP5 MSTORE SWAP1 SWAP2 MSTORE DUP2 KECCAK256 DUP1 SLOAD DUP4 SWAP3 SWAP1 PUSH2 0x201B SWAP1 DUP5 SWAP1 PUSH2 0x2DD7 JUMP JUMPDEST SWAP1 SWAP2 SSTORE POP POP JUMPDEST POP POP PUSH1 0x1 ADD PUSH2 0x1F2C JUMP JUMPDEST POP DUP3 MLOAD PUSH1 0x1 SUB PUSH2 0x20AB JUMPI PUSH1 0x20 DUP4 ADD MLOAD PUSH0 SWAP1 PUSH1 0x20 DUP5 ADD MLOAD SWAP1 SWAP2 POP DUP6 PUSH1 0x1 PUSH1 0x1 PUSH1 0xA0 SHL SUB AND DUP8 PUSH1 0x1 PUSH1 0x1 PUSH1 0xA0 SHL SUB AND DUP5 PUSH1 0x1 PUSH1 0x1 PUSH1 0xA0 SHL SUB AND PUSH32 0xC3D58168C5AE7397731D063D5BBF3D657854427343F4C083240F7AACAA2D0F62 DUP6 DUP6 PUSH1 0x40 MLOAD PUSH2 0x209C SWAP3 SWAP2 SWAP1 SWAP2 DUP3 MSTORE PUSH1 0x20 DUP3 ADD MSTORE PUSH1 0x40 ADD SWAP1 JUMP JUMPDEST PUSH1 0x40 MLOAD DUP1 SWAP2 SUB SWAP1 LOG4 POP POP PUSH2 0x17EE JUMP JUMPDEST DUP4 PUSH1 0x1 PUSH1 0x1 PUSH1 0xA0 SHL SUB AND DUP6 PUSH1 0x1 PUSH1 0x1 PUSH1 0xA0 SHL SUB AND DUP3 PUSH1 0x1 PUSH1 0x1 PUSH1 0xA0 SHL SUB AND PUSH32 0x4A39DC06D4C0DBC64B70AF90FD698A233A518AA5D07E595D983B8C0526C8F7FB DUP7 DUP7 PUSH1 0x40 MLOAD PUSH2 0x20FA SWAP3 SWAP2 SWAP1 PUSH2 0x2EA7 JUMP JUMPDEST PUSH1 0x40 MLOAD DUP1 SWAP2 SUB SWAP1 LOG4 POP POP POP POP POP JUMP JUMPDEST POP DUP1 SLOAD PUSH2 0x2115 SWAP1 PUSH2 0x299F JUMP JUMPDEST PUSH0 DUP3 SSTORE DUP1 PUSH1 0x1F LT PUSH2 0x2124 JUMPI POP POP JUMP JUMPDEST PUSH1 0x1F ADD PUSH1 0x20 SWAP1 DIV SWAP1 PUSH0 MSTORE PUSH1 0x20 PUSH0 KECCAK256 SWAP1 DUP2 ADD SWAP1 PUSH2 0x1407 SWAP2 SWAP1 JUMPDEST DUP1 DUP3 GT ISZERO PUSH2 0x214F JUMPI PUSH0 DUP2 SSTORE PUSH1 0x1 ADD PUSH2 0x213C JUMP JUMPDEST POP SWAP1 JUMP JUMPDEST PUSH1 0x1 PUSH1 0x1 PUSH1 0xA0 SHL SUB DUP2 AND DUP2 EQ PUSH2 0x1407 JUMPI PUSH0 DUP1 REVERT JUMPDEST PUSH0 DUP1 PUSH1 0x40 DUP4 DUP6 SUB SLT ISZERO PUSH2 0x2178 JUMPI PUSH0 DUP1 REVERT JUMPDEST DUP3 CALLDATALOAD PUSH2 0x2183 DUP2 PUSH2 0x2153 JUMP JUMPDEST SWAP5 PUSH1 0x20 SWAP4 SWAP1 SWAP4 ADD CALLDATALOAD SWAP4 POP POP POP JUMP JUMPDEST PUSH1 0x1 PUSH1 0x1 PUSH1 0xE0 SHL SUB NOT DUP2 AND DUP2 EQ PUSH2 0x1407 JUMPI PUSH0 DUP1 REVERT JUMPDEST PUSH0 PUSH1 0x20 DUP3 DUP5 SUB SLT ISZERO PUSH2 0x21B6 JUMPI PUSH0 DUP1 REVERT JUMPDEST DUP2 CALLDATALOAD PUSH2 0x5DD DUP2 PUSH2 0x2191 JUMP JUMPDEST DUP1 CALLDATALOAD PUSH1 0x1 PUSH1 0x1 PUSH1 0x40 SHL SUB DUP2 AND DUP2 EQ PUSH2 0x21D7 JUMPI PUSH0 DUP1 REVERT JUMPDEST SWAP2 SWAP1 POP JUMP JUMPDEST PUSH4 0x4E487B71 PUSH1 0xE0 SHL PUSH0 MSTORE PUSH1 0x41 PUSH1 0x4 MSTORE PUSH1 0x24 PUSH0 REVERT JUMPDEST PUSH1 0x40 MLOAD PUSH1 0x1F DUP3 ADD PUSH1 0x1F NOT AND DUP2 ADD PUSH1 0x1 PUSH1 0x1 PUSH1 0x40 SHL SUB DUP2 GT DUP3 DUP3 LT OR ISZERO PUSH2 0x2218 JUMPI PUSH2 0x2218 PUSH2 0x21DC JUMP JUMPDEST PUSH1 0x40 MSTORE SWAP2 SWAP1 POP JUMP JUMPDEST PUSH0 DUP3 PUSH1 0x1F DUP4 ADD SLT PUSH2 0x222F JUMPI PUSH0 DUP1 REVERT JUMPDEST DUP2 CALLDATALOAD PUSH1 0x1 PUSH1 0x1 PUSH1 0x40 SHL SUB DUP2 GT ISZERO PUSH2 0x2248 JUMPI PUSH2 0x2248 PUSH2 0x21DC JUMP JUMPDEST PUSH2 0x225B PUSH1 0x1F DUP3 ADD PUSH1 0x1F NOT AND PUSH1 0x20 ADD PUSH2 0x21F0 JUMP JUMPDEST DUP2 DUP2 MSTORE DUP5 PUSH1 0x20 DUP4 DUP7 ADD ADD GT ISZERO PUSH2 0x226F JUMPI PUSH0 DUP1 REVERT JUMPDEST DUP2 PUSH1 0x20 DUP6 ADD PUSH1 0x20 DUP4 ADD CALLDATACOPY PUSH0 SWAP2 DUP2 ADD PUSH1 0x20 ADD SWAP2 SWAP1 SWAP2 MSTORE SWAP4 SWAP3 POP POP POP JUMP JUMPDEST PUSH0 DUP1 PUSH0 PUSH1 0x60 DUP5 DUP7 SUB SLT ISZERO PUSH2 0x229D JUMPI PUSH0 DUP1 REVERT JUMPDEST PUSH2 0x22A6 DUP5 PUSH2 0x21C1 JUMP JUMPDEST SWAP3 POP PUSH1 0x20 DUP5 ADD CALLDATALOAD PUSH2 0x22B6 DUP2 PUSH2 0x2153 JUMP JUMPDEST SWAP2 POP PUSH1 0x40 DUP5 ADD CALLDATALOAD PUSH1 0x1 PUSH1 0x1 PUSH1 0x40 SHL SUB DUP2 GT ISZERO PUSH2 0x22D0 JUMPI PUSH0 DUP1 REVERT JUMPDEST PUSH2 0x22DC DUP7 DUP3 DUP8 ADD PUSH2 0x2220 JUMP JUMPDEST SWAP2 POP POP SWAP3 POP SWAP3 POP SWAP3 JUMP JUMPDEST PUSH0 PUSH1 0x20 DUP3 DUP5 SUB SLT ISZERO PUSH2 0x22F6 JUMPI PUSH0 DUP1 REVERT JUMPDEST POP CALLDATALOAD SWAP2 SWAP1 POP JUMP JUMPDEST PUSH0 DUP2 MLOAD DUP1 DUP5 MSTORE PUSH0 JUMPDEST DUP2 DUP2 LT ISZERO PUSH2 0x2321 JUMPI PUSH1 0x20 DUP2 DUP6 ADD DUP2 ADD MLOAD DUP7 DUP4 ADD DUP3 ADD MSTORE ADD PUSH2 0x2305 JUMP JUMPDEST POP PUSH0 PUSH1 0x20 DUP3 DUP7 ADD ADD MSTORE PUSH1 0x20 PUSH1 0x1F NOT PUSH1 0x1F DUP4 ADD AND DUP6 ADD ADD SWAP2 POP POP SWAP3 SWAP2 POP POP JUMP JUMPDEST PUSH1 0x20 DUP2 MSTORE PUSH0 PUSH2 0x5DD PUSH1 0x20 DUP4 ADD DUP5 PUSH2 0x22FD JUMP JUMPDEST PUSH0 DUP1 PUSH0 DUP1 PUSH0 DUP1 PUSH0 PUSH1 0xE0 DUP9 DUP11 SUB SLT ISZERO PUSH2 0x2368 JUMPI PUSH0 DUP1 REVERT JUMPDEST DUP8 CALLDATALOAD PUSH2 0x2373 DUP2 PUSH2 0x2153 JUMP JUMPDEST SWAP7 POP PUSH1 0x20 DUP9 ADD CALLDATALOAD PUSH2 0x2383 DUP2 PUSH2 0x2153 JUMP JUMPDEST SWAP6 POP PUSH1 0x40 DUP9 ADD CALLDATALOAD SWAP5 POP PUSH1 0x60 DUP9 ADD CALLDATALOAD SWAP4 POP PUSH1 0x80 DUP9 ADD CALLDATALOAD PUSH1 0x1 PUSH1 0x1 PUSH1 0x40 SHL SUB DUP2 GT ISZERO PUSH2 0x23AB JUMPI PUSH0 DUP1 REVERT JUMPDEST PUSH2 0x23B7 DUP11 DUP3 DUP12 ADD PUSH2 0x2220 JUMP JUMPDEST SWAP4 POP POP PUSH2 0x23C6 PUSH1 0xA0 DUP10 ADD PUSH2 0x21C1 JUMP JUMPDEST SWAP2 POP PUSH1 0xC0 DUP9 ADD CALLDATALOAD PUSH1 0x2 DUP2 LT PUSH2 0x23D9 JUMPI PUSH0 DUP1 REVERT JUMPDEST DUP1 SWAP2 POP POP SWAP3 SWAP6 SWAP9 SWAP2 SWAP5 SWAP8 POP SWAP3 SWAP6 POP JUMP JUMPDEST PUSH0 PUSH1 0x1 PUSH1 0x1 PUSH1 0x40 SHL SUB DUP3 GT ISZERO PUSH2 0x2401 JUMPI PUSH2 0x2401 PUSH2 0x21DC JUMP JUMPDEST POP PUSH1 0x5 SHL PUSH1 0x20 ADD SWAP1 JUMP JUMPDEST PUSH0 DUP3 PUSH1 0x1F DUP4 ADD SLT PUSH2 0x241A JUMPI PUSH0 DUP1 REVERT JUMPDEST DUP2 CALLDATALOAD PUSH1 0x20 PUSH2 0x242F PUSH2 0x242A DUP4 PUSH2 0x23E9 JUMP JUMPDEST PUSH2 0x21F0 JUMP JUMPDEST DUP1 DUP4 DUP3 MSTORE PUSH1 0x20 DUP3 ADD SWAP2 POP PUSH1 0x20 DUP5 PUSH1 0x5 SHL DUP8 ADD ADD SWAP4 POP DUP7 DUP5 GT ISZERO PUSH2 0x2450 JUMPI PUSH0 DUP1 REVERT JUMPDEST PUSH1 0x20 DUP7 ADD JUMPDEST DUP5 DUP2 LT ISZERO PUSH2 0x246C JUMPI DUP1 CALLDATALOAD DUP4 MSTORE SWAP2 DUP4 ADD SWAP2 DUP4 ADD PUSH2 0x2455 JUMP JUMPDEST POP SWAP7 SWAP6 POP POP POP POP POP POP JUMP JUMPDEST PUSH0 DUP1 PUSH0 DUP1 PUSH0 PUSH1 0xA0 DUP7 DUP9 SUB SLT ISZERO PUSH2 0x248B JUMPI PUSH0 DUP1 REVERT JUMPDEST DUP6 CALLDATALOAD PUSH2 0x2496 DUP2 PUSH2 0x2153 JUMP JUMPDEST SWAP5 POP PUSH1 0x20 DUP7 ADD CALLDATALOAD PUSH2 0x24A6 DUP2 PUSH2 0x2153 JUMP JUMPDEST SWAP4 POP PUSH1 0x40 DUP7 ADD CALLDATALOAD PUSH1 0x1 PUSH1 0x1 PUSH1 0x40 SHL SUB DUP1 DUP3 GT ISZERO PUSH2 0x24C1 JUMPI PUSH0 DUP1 REVERT JUMPDEST PUSH2 0x24CD DUP10 DUP4 DUP11 ADD PUSH2 0x240B JUMP JUMPDEST SWAP5 POP PUSH1 0x60 DUP9 ADD CALLDATALOAD SWAP2 POP DUP1 DUP3 GT ISZERO PUSH2 0x24E2 JUMPI PUSH0 DUP1 REVERT JUMPDEST PUSH2 0x24EE DUP10 DUP4 DUP11 ADD PUSH2 0x240B JUMP JUMPDEST SWAP4 POP PUSH1 0x80 DUP9 ADD CALLDATALOAD SWAP2 POP DUP1 DUP3 GT ISZERO PUSH2 0x2503 JUMPI PUSH0 DUP1 REVERT JUMPDEST POP PUSH2 0x2510 DUP9 DUP3 DUP10 ADD PUSH2 0x2220 JUMP JUMPDEST SWAP2 POP POP SWAP3 SWAP6 POP SWAP3 SWAP6 SWAP1 SWAP4 POP JUMP JUMPDEST PUSH0 DUP1 PUSH1 0x40 DUP4 DUP6 SUB SLT ISZERO PUSH2 0x252E JUMPI PUSH0 DUP1 REVERT JUMPDEST DUP3 CALLDATALOAD PUSH2 0x2539 DUP2 PUSH2 0x2153 JUMP JUMPDEST SWAP2 POP PUSH1 0x20 DUP4 ADD CALLDATALOAD PUSH2 0x2549 DUP2 PUSH2 0x2153 JUMP JUMPDEST DUP1 SWAP2 POP POP SWAP3 POP SWAP3 SWAP1 POP JUMP JUMPDEST PUSH0 PUSH1 0x20 DUP3 DUP5 SUB SLT ISZERO PUSH2 0x2564 JUMPI PUSH0 DUP1 REVERT JUMPDEST PUSH2 0x5DD DUP3 PUSH2 0x21C1 JUMP JUMPDEST PUSH0 DUP1 PUSH1 0x40 DUP4 DUP6 SUB SLT ISZERO PUSH2 0x257E JUMPI PUSH0 DUP1 REVERT JUMPDEST DUP3 CALLDATALOAD PUSH1 0x1 PUSH1 0x1 PUSH1 0x40 SHL SUB DUP1 DUP3 GT ISZERO PUSH2 0x2594 JUMPI PUSH0 DUP1 REVERT JUMPDEST DUP2 DUP6 ADD SWAP2 POP DUP6 PUSH1 0x1F DUP4 ADD SLT PUSH2 0x25A7 JUMPI PUSH0 DUP1 REVERT JUMPDEST DUP2 CALLDATALOAD PUSH1 0x20 PUSH2 0x25B7 PUSH2 0x242A DUP4 PUSH2 0x23E9 JUMP JUMPDEST DUP3 DUP2 MSTORE PUSH1 0x5 SWAP3 SWAP1 SWAP3 SHL DUP5 ADD DUP2 ADD SWAP2 DUP2 DUP2 ADD SWAP1 DUP10 DUP5 GT ISZERO PUSH2 0x25D5 JUMPI PUSH0 DUP1 REVERT JUMPDEST SWAP5 DUP3 ADD SWAP5 JUMPDEST DUP4 DUP7 LT ISZERO PUSH2 0x25FC JUMPI DUP6 CALLDATALOAD PUSH2 0x25ED DUP2 PUSH2 0x2153 JUMP JUMPDEST DUP3 MSTORE SWAP5 DUP3 ADD SWAP5 SWAP1 DUP3 ADD SWAP1 PUSH2 0x25DA JUMP JUMPDEST SWAP7 POP POP DUP7 ADD CALLDATALOAD SWAP3 POP POP DUP1 DUP3 GT ISZERO PUSH2 0x2611 JUMPI PUSH0 DUP1 REVERT JUMPDEST POP PUSH2 0x261E DUP6 DUP3 DUP7 ADD PUSH2 0x240B JUMP JUMPDEST SWAP2 POP POP SWAP3 POP SWAP3 SWAP1 POP JUMP JUMPDEST PUSH0 DUP2 MLOAD DUP1 DUP5 MSTORE PUSH1 0x20 DUP1 DUP6 ADD SWAP5 POP PUSH1 0x20 DUP5 ADD PUSH0 JUMPDEST DUP4 DUP2 LT ISZERO PUSH2 0x2657 JUMPI DUP2 MLOAD DUP8 MSTORE SWAP6 DUP3 ADD SWAP6 SWAP1 DUP3 ADD SWAP1 PUSH1 0x1 ADD PUSH2 0x263B JUMP JUMPDEST POP SWAP5 SWAP6 SWAP5 POP POP POP POP POP JUMP JUMPDEST PUSH1 0x20 DUP2 MSTORE PUSH0 PUSH2 0x5DD PUSH1 0x20 DUP4 ADD DUP5 PUSH2 0x2628 JUMP JUMPDEST PUSH0 PUSH1 0x20 DUP3 DUP5 SUB SLT ISZERO PUSH2 0x2684 JUMPI PUSH0 DUP1 REVERT JUMPDEST DUP2 CALLDATALOAD PUSH2 0x5DD DUP2 PUSH2 0x2153 JUMP JUMPDEST PUSH1 0x1 PUSH1 0x1 PUSH1 0xA0 SHL SUB DUP4 AND DUP2 MSTORE PUSH1 0x40 PUSH1 0x20 DUP3 ADD DUP2 SWAP1 MSTORE PUSH0 SWAP1 PUSH2 0x26B2 SWAP1 DUP4 ADD DUP5 PUSH2 0x22FD JUMP JUMPDEST SWAP5 SWAP4 POP POP POP POP JUMP JUMPDEST PUSH0 DUP1 PUSH0 PUSH1 0x60 DUP5 DUP7 SUB SLT ISZERO PUSH2 0x26CC JUMPI PUSH0 DUP1 REVERT JUMPDEST DUP4 CALLDATALOAD PUSH2 0x26D7 DUP2 PUSH2 0x2153 JUMP JUMPDEST SWAP3 POP PUSH1 0x20 DUP5 ADD CALLDATALOAD PUSH1 0x1 PUSH1 0x1 PUSH1 0x40 SHL SUB DUP1 DUP3 GT ISZERO PUSH2 0x26F2 JUMPI PUSH0 DUP1 REVERT JUMPDEST PUSH2 0x26FE DUP8 DUP4 DUP9 ADD PUSH2 0x240B JUMP JUMPDEST SWAP4 POP PUSH1 0x40 DUP7 ADD CALLDATALOAD SWAP2 POP DUP1 DUP3 GT ISZERO PUSH2 0x2713 JUMPI PUSH0 DUP1 REVERT JUMPDEST POP PUSH2 0x22DC DUP7 DUP3 DUP8 ADD PUSH2 0x240B JUMP JUMPDEST PUSH0 PUSH1 0x20 DUP3 DUP5 SUB SLT ISZERO PUSH2 0x2730 JUMPI PUSH0 DUP1 REVERT JUMPDEST DUP2 CALLDATALOAD PUSH1 0x1 PUSH1 0x1 PUSH1 0x40 SHL SUB DUP2 GT ISZERO PUSH2 0x2745 JUMPI PUSH0 DUP1 REVERT JUMPDEST DUP3 ADD PUSH1 0xA0 DUP2 DUP6 SUB SLT ISZERO PUSH2 0x5DD JUMPI PUSH0 DUP1 REVERT JUMPDEST DUP1 ISZERO ISZERO DUP2 EQ PUSH2 0x1407 JUMPI PUSH0 DUP1 REVERT JUMPDEST PUSH0 DUP1 PUSH1 0x40 DUP4 DUP6 SUB SLT ISZERO PUSH2 0x2774 JUMPI PUSH0 DUP1 REVERT JUMPDEST DUP3 CALLDATALOAD PUSH2 0x277F DUP2 PUSH2 0x2153 JUMP JUMPDEST SWAP2 POP PUSH1 0x20 DUP4 ADD CALLDATALOAD PUSH2 0x2549 DUP2 PUSH2 0x2756 JUMP JUMPDEST PUSH0 DUP1 PUSH0 DUP1 PUSH0 PUSH1 0xA0 DUP7 DUP9 SUB SLT ISZERO PUSH2 0x27A3 JUMPI PUSH0 DUP1 REVERT JUMPDEST DUP6 CALLDATALOAD PUSH2 0x27AE DUP2 PUSH2 0x2153 JUMP JUMPDEST SWAP5 POP PUSH1 0x20 DUP7 DUP2 ADD CALLDATALOAD PUSH1 0x1 PUSH1 0x1 PUSH1 0x40 SHL SUB DUP1 DUP3 GT ISZERO PUSH2 0x27CA JUMPI PUSH0 DUP1 REVERT JUMPDEST PUSH2 0x27D6 DUP11 DUP4 DUP12 ADD PUSH2 0x240B JUMP JUMPDEST SWAP7 POP PUSH1 0x40 DUP10 ADD CALLDATALOAD SWAP2 POP DUP1 DUP3 GT ISZERO PUSH2 0x27EB JUMPI PUSH0 DUP1 REVERT JUMPDEST PUSH2 0x27F7 DUP11 DUP4 DUP12 ADD PUSH2 0x240B JUMP JUMPDEST SWAP6 POP PUSH1 0x60 DUP10 ADD CALLDATALOAD SWAP2 POP DUP1 DUP3 GT ISZERO PUSH2 0x280C JUMPI PUSH0 DUP1 REVERT JUMPDEST PUSH2 0x2818 DUP11 DUP4 DUP12 ADD PUSH2 0x2220 JUMP JUMPDEST SWAP5 POP PUSH1 0x80 DUP10 ADD CALLDATALOAD SWAP2 POP DUP1 DUP3 GT ISZERO PUSH2 0x282D JUMPI PUSH0 DUP1 REVERT JUMPDEST DUP2 DUP10 ADD SWAP2 POP DUP10 PUSH1 0x1F DUP4 ADD SLT PUSH2 0x2840 JUMPI PUSH0 DUP1 REVERT JUMPDEST DUP2 CALLDATALOAD PUSH2 0x284E PUSH2 0x242A DUP3 PUSH2 0x23E9 JUMP JUMPDEST DUP2 DUP2 MSTORE PUSH1 0x5 SWAP2 SWAP1 SWAP2 SHL DUP4 ADD DUP5 ADD SWAP1 DUP5 DUP2 ADD SWAP1 DUP13 DUP4 GT ISZERO PUSH2 0x286C JUMPI PUSH0 DUP1 REVERT JUMPDEST DUP6 DUP6 ADD JUMPDEST DUP4 DUP2 LT ISZERO PUSH2 0x28A2 JUMPI DUP1 CALLDATALOAD DUP6 DUP2 GT ISZERO PUSH2 0x2886 JUMPI PUSH0 DUP1 REVERT JUMPDEST PUSH2 0x2894 DUP16 DUP10 DUP4 DUP11 ADD ADD PUSH2 0x2220 JUMP JUMPDEST DUP5 MSTORE POP SWAP2 DUP7 ADD SWAP2 DUP7 ADD PUSH2 0x2870 JUMP JUMPDEST POP DUP1 SWAP7 POP POP POP POP POP POP POP SWAP3 SWAP6 POP SWAP3 SWAP6 SWAP1 SWAP4 POP JUMP JUMPDEST PUSH0 DUP1 PUSH0 DUP1 PUSH0 PUSH1 0xA0 DUP7 DUP9 SUB SLT ISZERO PUSH2 0x28CA JUMPI PUSH0 DUP1 REVERT JUMPDEST DUP6 CALLDATALOAD PUSH2 0x28D5 DUP2 PUSH2 0x2153 JUMP JUMPDEST SWAP5 POP PUSH1 0x20 DUP7 ADD CALLDATALOAD SWAP4 POP PUSH1 0x40 DUP7 ADD CALLDATALOAD SWAP3 POP PUSH1 0x60 DUP7 ADD CALLDATALOAD PUSH1 0x1 PUSH1 0x1 PUSH1 0x40 SHL SUB DUP1 DUP3 GT ISZERO PUSH2 0x28FE JUMPI PUSH0 DUP1 REVERT JUMPDEST PUSH2 0x24EE DUP10 DUP4 DUP11 ADD PUSH2 0x2220 JUMP JUMPDEST PUSH0 DUP1 PUSH0 DUP1 PUSH0 PUSH1 0xA0 DUP7 DUP9 SUB SLT ISZERO PUSH2 0x291E JUMPI PUSH0 DUP1 REVERT JUMPDEST DUP6 CALLDATALOAD PUSH2 0x2929 DUP2 PUSH2 0x2153 JUMP JUMPDEST SWAP5 POP PUSH1 0x20 DUP7 ADD CALLDATALOAD PUSH2 0x2939 DUP2 PUSH2 0x2153 JUMP JUMPDEST SWAP4 POP PUSH1 0x40 DUP7 ADD CALLDATALOAD SWAP3 POP PUSH1 0x60 DUP7 ADD CALLDATALOAD SWAP2 POP PUSH1 0x80 DUP7 ADD CALLDATALOAD PUSH1 0x1 PUSH1 0x1 PUSH1 0x40 SHL SUB DUP2 GT ISZERO PUSH2 0x2961 JUMPI PUSH0 DUP1 REVERT JUMPDEST PUSH2 0x2510 DUP9 DUP3 DUP10 ADD PUSH2 0x2220 JUMP JUMPDEST PUSH0 DUP1 PUSH0 PUSH1 0x60 DUP5 DUP7 SUB SLT ISZERO PUSH2 0x297F JUMPI PUSH0 DUP1 REVERT JUMPDEST DUP4 CALLDATALOAD PUSH2 0x298A DUP2 PUSH2 0x2153 JUMP JUMPDEST SWAP6 PUSH1 0x20 DUP6 ADD CALLDATALOAD SWAP6 POP PUSH1 0x40 SWAP1 SWAP5 ADD CALLDATALOAD SWAP4 SWAP3 POP POP POP JUMP JUMPDEST PUSH1 0x1 DUP2 DUP2 SHR SWAP1 DUP3 AND DUP1 PUSH2 0x29B3 JUMPI PUSH1 0x7F DUP3 AND SWAP2 POP JUMPDEST PUSH1 0x20 DUP3 LT DUP2 SUB PUSH2 0x29D1 JUMPI PUSH4 0x4E487B71 PUSH1 0xE0 SHL PUSH0 MSTORE PUSH1 0x22 PUSH1 0x4 MSTORE PUSH1 0x24 PUSH0 REVERT JUMPDEST POP SWAP2 SWAP1 POP JUMP JUMPDEST PUSH1 0x1F DUP3 GT ISZERO PUSH2 0xD80 JUMPI DUP1 PUSH0 MSTORE PUSH1 0x20 PUSH0 KECCAK256 PUSH1 0x1F DUP5 ADD PUSH1 0x5 SHR DUP2 ADD PUSH1 0x20 DUP6 LT ISZERO PUSH2 0x29FC JUMPI POP DUP1 JUMPDEST PUSH1 0x1F DUP5 ADD PUSH1 0x5 SHR DUP3 ADD SWAP2 POP JUMPDEST DUP2 DUP2 LT ISZERO PUSH2 0x17EE JUMPI PUSH0 DUP2 SSTORE PUSH1 0x1 ADD PUSH2 0x2A08 JUMP JUMPDEST DUP2 MLOAD PUSH1 0x1 PUSH1 0x1 PUSH1 0x40 SHL SUB DUP2 GT ISZERO PUSH2 0x2A34 JUMPI PUSH2 0x2A34 PUSH2 0x21DC JUMP JUMPDEST PUSH2 0x2A48 DUP2 PUSH2 0x2A42 DUP5 SLOAD PUSH2 0x299F JUMP JUMPDEST DUP5 PUSH2 0x29D7 JUMP JUMPDEST PUSH1 0x20 DUP1 PUSH1 0x1F DUP4 GT PUSH1 0x1 DUP2 EQ PUSH2 0x2A7B JUMPI PUSH0 DUP5 ISZERO PUSH2 0x2A64 JUMPI POP DUP6 DUP4 ADD MLOAD JUMPDEST PUSH0 NOT PUSH1 0x3 DUP7 SWAP1 SHL SHR NOT AND PUSH1 0x1 DUP6 SWAP1 SHL OR DUP6 SSTORE PUSH2 0xCD2 JUMP JUMPDEST PUSH0 DUP6 DUP2 MSTORE PUSH1 0x20 DUP2 KECCAK256 PUSH1 0x1F NOT DUP7 AND SWAP2 JUMPDEST DUP3 DUP2 LT ISZERO PUSH2 0x2AA9 JUMPI DUP9 DUP7 ADD MLOAD DUP3 SSTORE SWAP5 DUP5 ADD SWAP5 PUSH1 0x1 SWAP1 SWAP2 ADD SWAP1 DUP5 ADD PUSH2 0x2A8A JUMP JUMPDEST POP DUP6 DUP3 LT ISZERO PUSH2 0x2AC6 JUMPI DUP8 DUP6 ADD MLOAD PUSH0 NOT PUSH1 0x3 DUP9 SWAP1 SHL PUSH1 0xF8 AND SHR NOT AND DUP2 SSTORE JUMPDEST POP POP POP POP POP PUSH1 0x1 SWAP1 DUP2 SHL ADD SWAP1 SSTORE POP JUMP JUMPDEST PUSH1 0x1 PUSH1 0x1 PUSH1 0x40 SHL SUB DUP5 AND DUP2 MSTORE PUSH1 0x1 PUSH1 0x1 PUSH1 0xA0 SHL SUB DUP4 AND PUSH1 0x20 DUP3 ADD MSTORE PUSH1 0x60 PUSH1 0x40 DUP3 ADD DUP2 SWAP1 MSTORE PUSH0 SWAP1 PUSH2 0x2B08 SWAP1 DUP4 ADD DUP5 PUSH2 0x22FD JUMP JUMPDEST SWAP6 SWAP5 POP POP POP POP POP JUMP JUMPDEST PUSH1 0x1 PUSH1 0x1 PUSH1 0xA0 SHL SUB DUP8 DUP2 AND DUP3 MSTORE DUP7 AND PUSH1 0x20 DUP3 ADD MSTORE PUSH1 0x40 DUP2 ADD DUP6 SWAP1 MSTORE PUSH1 0x60 DUP2 ADD DUP5 SWAP1 MSTORE PUSH1 0xC0 PUSH1 0x80 DUP3 ADD DUP2 SWAP1 MSTORE PUSH0 SWAP1 PUSH2 0x2B4A SWAP1 DUP4 ADD DUP6 PUSH2 0x22FD JUMP JUMPDEST DUP3 DUP2 SUB PUSH1 0xA0 DUP5 ADD MSTORE PUSH2 0x2B5C DUP2 DUP6 PUSH2 0x22FD JUMP JUMPDEST SWAP10 SWAP9 POP POP POP POP POP POP POP POP POP JUMP JUMPDEST PUSH4 0x4E487B71 PUSH1 0xE0 SHL PUSH0 MSTORE PUSH1 0x21 PUSH1 0x4 MSTORE PUSH1 0x24 PUSH0 REVERT JUMPDEST PUSH0 PUSH1 0x40 PUSH1 0x1 PUSH1 0x1 PUSH1 0x40 SHL SUB DUP6 AND DUP4 MSTORE PUSH1 0x20 PUSH1 0x40 DUP2 DUP6 ADD MSTORE DUP5 MLOAD PUSH1 0xA0 PUSH1 0x40 DUP7 ADD MSTORE PUSH2 0x2BAA PUSH1 0xE0 DUP7 ADD DUP3 PUSH2 0x22FD JUMP JUMPDEST SWAP1 POP DUP2 DUP7 ADD MLOAD PUSH1 0x3F NOT DUP1 DUP8 DUP5 SUB ADD PUSH1 0x60 DUP9 ADD MSTORE PUSH2 0x2BC7 DUP4 DUP4 PUSH2 0x22FD JUMP JUMPDEST PUSH1 0x40 DUP10 ADD MLOAD DUP9 DUP3 SUB DUP4 ADD PUSH1 0x80 DUP11 ADD MSTORE DUP1 MLOAD DUP1 DUP4 MSTORE SWAP1 DUP7 ADD SWAP5 POP PUSH0 SWAP4 POP SWAP1 DUP6 ADD SWAP1 JUMPDEST DUP1 DUP5 LT ISZERO PUSH2 0x2C1A JUMPI DUP5 MLOAD DUP1 MLOAD PUSH1 0x1 PUSH1 0x1 PUSH1 0xA0 SHL SUB AND DUP4 MSTORE DUP7 ADD MLOAD DUP7 DUP4 ADD MSTORE SWAP4 DUP6 ADD SWAP4 PUSH1 0x1 SWAP4 SWAP1 SWAP4 ADD SWAP3 SWAP1 DUP7 ADD SWAP1 PUSH2 0x2BE8 JUMP JUMPDEST POP PUSH1 0x60 DUP10 ADD MLOAD PUSH1 0x1 PUSH1 0x1 PUSH1 0xA0 SHL SUB AND PUSH1 0xA0 DUP10 ADD MSTORE PUSH1 0x80 DUP10 ADD MLOAD DUP9 DUP3 SUB DUP4 ADD PUSH1 0xC0 DUP11 ADD MSTORE SWAP6 POP PUSH2 0x2C49 DUP2 DUP8 PUSH2 0x22FD JUMP JUMPDEST SWAP11 SWAP10 POP POP POP POP POP POP POP POP POP POP JUMP JUMPDEST PUSH0 PUSH1 0x20 DUP3 DUP5 SUB SLT ISZERO PUSH2 0x2C67 JUMPI PUSH0 DUP1 REVERT JUMPDEST POP MLOAD SWAP2 SWAP1 POP JUMP JUMPDEST PUSH0 PUSH1 0x20 DUP3 DUP5 SUB SLT ISZERO PUSH2 0x2C7E JUMPI PUSH0 DUP1 REVERT JUMPDEST DUP2 MLOAD PUSH2 0x5DD DUP2 PUSH2 0x2756 JUMP JUMPDEST PUSH1 0x1 PUSH1 0x1 PUSH1 0xA0 SHL SUB DUP9 DUP2 AND DUP3 MSTORE DUP8 AND PUSH1 0x20 DUP3 ADD MSTORE PUSH1 0x40 DUP2 ADD DUP7 SWAP1 MSTORE PUSH1 0x60 DUP2 ADD DUP6 SWAP1 MSTORE PUSH1 0xE0 PUSH1 0x80 DUP3 ADD DUP2 SWAP1 MSTORE PUSH0 SWAP1 PUSH2 0x2CC2 SWAP1 DUP4 ADD DUP7 PUSH2 0x22FD JUMP JUMPDEST PUSH1 0x1 PUSH1 0x1 PUSH1 0x40 SHL SUB SWAP5 DUP6 AND PUSH1 0xA0 DUP5 ADD MSTORE SWAP3 SWAP1 SWAP4 AND PUSH1 0xC0 SWAP1 SWAP2 ADD MSTORE SWAP7 SWAP6 POP POP POP POP POP POP JUMP JUMPDEST PUSH4 0x4E487B71 PUSH1 0xE0 SHL PUSH0 MSTORE PUSH1 0x32 PUSH1 0x4 MSTORE PUSH1 0x24 PUSH0 REVERT JUMPDEST PUSH0 DUP1 DUP4 CALLDATALOAD PUSH1 0x1E NOT DUP5 CALLDATASIZE SUB ADD DUP2 SLT PUSH2 0x2D0F JUMPI PUSH0 DUP1 REVERT JUMPDEST DUP4 ADD DUP1 CALLDATALOAD SWAP2 POP PUSH1 0x1 PUSH1 0x1 PUSH1 0x40 SHL SUB DUP3 GT ISZERO PUSH2 0x2D28 JUMPI PUSH0 DUP1 REVERT JUMPDEST PUSH1 0x20 ADD SWAP2 POP CALLDATASIZE DUP2 SWAP1 SUB DUP3 SGT ISZERO PUSH2 0x2D3C JUMPI PUSH0 DUP1 REVERT JUMPDEST SWAP3 POP SWAP3 SWAP1 POP JUMP JUMPDEST PUSH0 DUP1 PUSH0 DUP1 PUSH0 DUP1 PUSH1 0xC0 DUP8 DUP10 SUB SLT ISZERO PUSH2 0x2D58 JUMPI PUSH0 DUP1 REVERT JUMPDEST DUP7 CALLDATALOAD PUSH2 0x2D63 DUP2 PUSH2 0x2153 JUMP JUMPDEST SWAP6 POP PUSH1 0x20 DUP8 ADD CALLDATALOAD PUSH2 0x2D73 DUP2 PUSH2 0x2153 JUMP JUMPDEST SWAP5 POP PUSH1 0x40 DUP8 ADD CALLDATALOAD SWAP4 POP PUSH1 0x60 DUP8 ADD CALLDATALOAD SWAP3 POP PUSH1 0x80 DUP8 ADD CALLDATALOAD PUSH1 0x1 PUSH1 0x1 PUSH1 0x40 SHL SUB DUP1 DUP3 GT ISZERO PUSH2 0x2D9C JUMPI PUSH0 DUP1 REVERT JUMPDEST PUSH2 0x2DA8 DUP11 DUP4 DUP12 ADD PUSH2 0x2220 JUMP JUMPDEST SWAP4 POP PUSH1 0xA0 DUP10 ADD CALLDATALOAD SWAP2 POP DUP1 DUP3 GT ISZERO PUSH2 0x2DBD JUMPI PUSH0 DUP1 REVERT JUMPDEST POP PUSH2 0x2DCA DUP10 DUP3 DUP11 ADD PUSH2 0x2220 JUMP JUMPDEST SWAP2 POP POP SWAP3 SWAP6 POP SWAP3 SWAP6 POP SWAP3 SWAP6 JUMP JUMPDEST DUP1 DUP3 ADD DUP1 DUP3 GT ISZERO PUSH2 0x3F2 JUMPI PUSH4 0x4E487B71 PUSH1 0xE0 SHL PUSH0 MSTORE PUSH1 0x11 PUSH1 0x4 MSTORE PUSH1 0x24 PUSH0 REVERT JUMPDEST PUSH1 0x1 PUSH1 0x1 PUSH1 0xA0 SHL SUB DUP7 DUP2 AND DUP3 MSTORE DUP6 AND PUSH1 0x20 DUP3 ADD MSTORE PUSH1 0x40 DUP2 ADD DUP5 SWAP1 MSTORE PUSH1 0x60 DUP2 ADD DUP4 SWAP1 MSTORE PUSH1 0xA0 PUSH1 0x80 DUP3 ADD DUP2 SWAP1 MSTORE PUSH0 SWAP1 PUSH2 0xC68 SWAP1 DUP4 ADD DUP5 PUSH2 0x22FD JUMP JUMPDEST PUSH0 PUSH1 0x20 DUP3 DUP5 SUB SLT ISZERO PUSH2 0x2E3F JUMPI PUSH0 DUP1 REVERT JUMPDEST DUP2 MLOAD PUSH2 0x5DD DUP2 PUSH2 0x2191 JUMP JUMPDEST PUSH1 0x1 PUSH1 0x1 PUSH1 0xA0 SHL SUB DUP7 DUP2 AND DUP3 MSTORE DUP6 AND PUSH1 0x20 DUP3 ADD MSTORE PUSH1 0xA0 PUSH1 0x40 DUP3 ADD DUP2 SWAP1 MSTORE PUSH0 SWAP1 PUSH2 0x2E75 SWAP1 DUP4 ADD DUP7 PUSH2 0x2628 JUMP JUMPDEST DUP3 DUP2 SUB PUSH1 0x60 DUP5 ADD MSTORE PUSH2 0x2E87 DUP2 DUP7 PUSH2 0x2628 JUMP JUMPDEST SWAP1 POP DUP3 DUP2 SUB PUSH1 0x80 DUP5 ADD MSTORE PUSH2 0x2E9B DUP2 DUP6 PUSH2 0x22FD JUMP JUMPDEST SWAP9 SWAP8 POP POP POP POP POP POP POP POP JUMP JUMPDEST PUSH1 0x40 DUP2 MSTORE PUSH0 PUSH2 0x2EB9 PUSH1 0x40 DUP4 ADD DUP6 PUSH2 0x2628 JUMP JUMPDEST DUP3 DUP2 SUB PUSH1 0x20 DUP5 ADD MSTORE PUSH2 0x2B08 DUP2 DUP6 PUSH2 0x2628 JUMP INVALID LOG2 PUSH5 0x6970667358 0x22 SLT KECCAK256 SELFBALANCE SWAP14 PUSH15 0x1BFF6892CD120D95B231A63C097D46 0x4D CALLDATASIZE CALLDATACOPY 0x21 SWAP5 INVALID PUSH22 0xCC5BDDC11F44D64736F6C6343000818003300000000 "
		},
		"gasEstimates": {
			"creation": {
				"codeDepositCost": "2406600",
				"executionCost": "infinite",
				"totalCost": "infinite"
			},
			"external": {
				"acceptOwnership()": "52373",
				"balanceOf(address,uint256)": "2651",
				"balanceOfBatch(address[],uint256[])": "infinite",
				"burn(address,uint256,uint256)": "infinite",
				"burnBatch(address,uint256[],uint256[])": "infinite",
				"ccipReceive((bytes32,uint64,bytes,bytes,(address,uint256)[]))": "infinite",
				"crossChainTransferFrom(address,address,uint256,uint256,bytes,uint64,uint8)": "infinite",
				"disableChain(uint64)": "infinite",
				"enableChain(uint64,address,bytes)": "infinite",
				"exists(uint256)": "2514",
				"isApprovedForAll(address,address)": "infinite",
				"mint(address,uint256,uint256,bytes,string)": "infinite",
				"mintBatch(address,uint256[],uint256[],bytes,string[])": "infinite",
				"owner()": "2411",
				"s_chains(uint64)": "infinite",
				"safeBatchTransferFrom(address,address,uint256[],uint256[],bytes)": "infinite",
				"safeTransferFrom(address,address,uint256,uint256,bytes)": "infinite",
				"setApprovalForAll(address,bool)": "infinite",
				"setIssuer(address)": "27976",
				"supportsInterface(bytes4)": "infinite",
				"totalSupply()": "2392",
				"totalSupply(uint256)": "2491",
				"transferOwnership(address)": "infinite",
				"uri(uint256)": "infinite",
				"withdraw(address)": "infinite",
				"withdrawToken(address,address)": "infinite"
			}
		},
		"methodIdentifiers": {
			"acceptOwnership()": "79ba5097",
			"balanceOf(address,uint256)": "00fdd58e",
			"balanceOfBatch(address[],uint256[])": "4e1273f4",
			"burn(address,uint256,uint256)": "f5298aca",
			"burnBatch(address,uint256[],uint256[])": "6b20c454",
			"ccipReceive((bytes32,uint64,bytes,bytes,(address,uint256)[]))": "85572ffb",
			"crossChainTransferFrom(address,address,uint256,uint256,bytes,uint64,uint8)": "240b3b49",
			"disableChain(uint64)": "41eade46",
			"enableChain(uint64,address,bytes)": "0ce639c4",
			"exists(uint256)": "4f558e79",
			"isApprovedForAll(address,address)": "e985e9c5",
			"mint(address,uint256,uint256,bytes,string)": "c1341c4f",
			"mintBatch(address,uint256[],uint256[],bytes,string[])": "b942f8cb",
			"owner()": "8da5cb5b",
			"s_chains(uint64)": "5dc5ebdb",
			"safeBatchTransferFrom(address,address,uint256[],uint256[],bytes)": "2eb2c2d6",
			"safeTransferFrom(address,address,uint256,uint256,bytes)": "f242432a",
			"setApprovalForAll(address,bool)": "a22cb465",
			"setIssuer(address)": "55cc4e57",
			"supportsInterface(bytes4)": "01ffc9a7",
			"totalSupply()": "18160ddd",
			"totalSupply(uint256)": "bd85b039",
			"transferOwnership(address)": "f2fde38b",
			"uri(uint256)": "0e89341c",
			"withdraw(address)": "51cff8d9",
			"withdrawToken(address,address)": "3aeac4e1"
		}
	},
	"abi": [
		{
			"inputs": [
				{
					"internalType": "string",
					"name": "uri_",
					"type": "string"
				},
				{
					"internalType": "address",
					"name": "ccipRouterAddress",
					"type": "address"
				},
				{
					"internalType": "address",
					"name": "linkTokenAddress",
					"type": "address"
				},
				{
					"internalType": "uint64",
					"name": "currentChainSelector",
					"type": "uint64"
				}
			],
			"stateMutability": "nonpayable",
			"type": "constructor"
		},
		{
			"inputs": [
				{
					"internalType": "uint64",
					"name": "chainSelector",
					"type": "uint64"
				}
			],
			"name": "ChainNotEnabled",
			"type": "error"
		},
		{
			"inputs": [
				{
					"internalType": "address",
					"name": "msgSender",
					"type": "address"
				}
			],
			"name": "ERC1155Core_CallerIsNotIssuerOrItself",
			"type": "error"
		},
		{
			"inputs": [
				{
					"internalType": "address",
					"name": "sender",
					"type": "address"
				},
				{
					"internalType": "uint256",
					"name": "balance",
					"type": "uint256"
				},
				{
					"internalType": "uint256",
					"name": "needed",
					"type": "uint256"
				},
				{
					"internalType": "uint256",
					"name": "tokenId",
					"type": "uint256"
				}
			],
			"name": "ERC1155InsufficientBalance",
			"type": "error"
		},
		{
			"inputs": [
				{
					"internalType": "address",
					"name": "approver",
					"type": "address"
				}
			],
			"name": "ERC1155InvalidApprover",
			"type": "error"
		},
		{
			"inputs": [
				{
					"internalType": "uint256",
					"name": "idsLength",
					"type": "uint256"
				},
				{
					"internalType": "uint256",
					"name": "valuesLength",
					"type": "uint256"
				}
			],
			"name": "ERC1155InvalidArrayLength",
			"type": "error"
		},
		{
			"inputs": [
				{
					"internalType": "address",
					"name": "operator",
					"type": "address"
				}
			],
			"name": "ERC1155InvalidOperator",
			"type": "error"
		},
		{
			"inputs": [
				{
					"internalType": "address",
					"name": "receiver",
					"type": "address"
				}
			],
			"name": "ERC1155InvalidReceiver",
			"type": "error"
		},
		{
			"inputs": [
				{
					"internalType": "address",
					"name": "sender",
					"type": "address"
				}
			],
			"name": "ERC1155InvalidSender",
			"type": "error"
		},
		{
			"inputs": [
				{
					"internalType": "address",
					"name": "operator",
					"type": "address"
				},
				{
					"internalType": "address",
					"name": "owner",
					"type": "address"
				}
			],
			"name": "ERC1155MissingApprovalForAll",
			"type": "error"
		},
		{
			"inputs": [
				{
					"internalType": "address",
					"name": "owner",
					"type": "address"
				},
				{
					"internalType": "address",
					"name": "target",
					"type": "address"
				},
				{
					"internalType": "uint256",
					"name": "value",
					"type": "uint256"
				}
			],
			"name": "FailedToWithdrawEth",
			"type": "error"
		},
		{
			"inputs": [
				{
					"internalType": "address",
					"name": "router",
					"type": "address"
				}
			],
			"name": "InvalidRouter",
			"type": "error"
		},
		{
			"inputs": [
				{
					"internalType": "uint256",
					"name": "currentBalance",
					"type": "uint256"
				},
				{
					"internalType": "uint256",
					"name": "calculatedFees",
					"type": "uint256"
				}
			],
			"name": "NotEnoughBalanceForFees",
			"type": "error"
		},
		{
			"inputs": [],
			"name": "NothingToWithdraw",
			"type": "error"
		},
		{
			"inputs": [
				{
					"internalType": "uint64",
					"name": "chainSelector",
					"type": "uint64"
				}
			],
			"name": "OperationNotAllowedOnCurrentChain",
			"type": "error"
		},
		{
			"inputs": [],
			"name": "ReentrancyGuardReentrantCall",
			"type": "error"
		},
		{
			"inputs": [
				{
					"internalType": "address",
					"name": "token",
					"type": "address"
				}
			],
			"name": "SafeERC20FailedOperation",
			"type": "error"
		},
		{
			"inputs": [
				{
					"internalType": "address",
					"name": "sender",
					"type": "address"
				}
			],
			"name": "SenderNotEnabled",
			"type": "error"
		},
		{
			"anonymous": false,
			"inputs": [
				{
					"indexed": true,
					"internalType": "address",
					"name": "account",
					"type": "address"
				},
				{
					"indexed": true,
					"internalType": "address",
					"name": "operator",
					"type": "address"
				},
				{
					"indexed": false,
					"internalType": "bool",
					"name": "approved",
					"type": "bool"
				}
			],
			"name": "ApprovalForAll",
			"type": "event"
		},
		{
			"anonymous": false,
			"inputs": [
				{
					"indexed": false,
					"internalType": "uint64",
					"name": "chainSelector",
					"type": "uint64"
				}
			],
			"name": "ChainDisabled",
			"type": "event"
		},
		{
			"anonymous": false,
			"inputs": [
				{
					"indexed": false,
					"internalType": "uint64",
					"name": "chainSelector",
					"type": "uint64"
				},
				{
					"indexed": false,
					"internalType": "address",
					"name": "xNftAddress",
					"type": "address"
				},
				{
					"indexed": false,
					"internalType": "bytes",
					"name": "ccipExtraArgs",
					"type": "bytes"
				}
			],
			"name": "ChainEnabled",
			"type": "event"
		},
		{
			"anonymous": false,
			"inputs": [
				{
					"indexed": false,
					"internalType": "address",
					"name": "from",
					"type": "address"
				},
				{
					"indexed": false,
					"internalType": "address",
					"name": "to",
					"type": "address"
				},
				{
					"indexed": false,
					"internalType": "uint256",
					"name": "id",
					"type": "uint256"
				},
				{
					"indexed": false,
					"internalType": "uint256",
					"name": "amount",
					"type": "uint256"
				},
				{
					"indexed": false,
					"internalType": "bytes",
					"name": "data",
					"type": "bytes"
				},
				{
					"indexed": false,
					"internalType": "uint64",
					"name": "sourceChainSelector",
					"type": "uint64"
				},
				{
					"indexed": false,
					"internalType": "uint64",
					"name": "destinationChainSelector",
					"type": "uint64"
				}
			],
			"name": "CrossChainReceived",
			"type": "event"
		},
		{
			"anonymous": false,
			"inputs": [
				{
					"indexed": false,
					"internalType": "address",
					"name": "from",
					"type": "address"
				},
				{
					"indexed": false,
					"internalType": "address",
					"name": "to",
					"type": "address"
				},
				{
					"indexed": false,
					"internalType": "uint256",
					"name": "id",
					"type": "uint256"
				},
				{
					"indexed": false,
					"internalType": "uint256",
					"name": "amount",
					"type": "uint256"
				},
				{
					"indexed": false,
					"internalType": "bytes",
					"name": "data",
					"type": "bytes"
				},
				{
					"indexed": false,
					"internalType": "uint64",
					"name": "sourceChainSelector",
					"type": "uint64"
				},
				{
					"indexed": false,
					"internalType": "uint64",
					"name": "destinationChainSelector",
					"type": "uint64"
				}
			],
			"name": "CrossChainSent",
			"type": "event"
		},
		{
			"anonymous": false,
			"inputs": [
				{
					"indexed": true,
					"internalType": "address",
					"name": "from",
					"type": "address"
				},
				{
					"indexed": true,
					"internalType": "address",
					"name": "to",
					"type": "address"
				}
			],
			"name": "OwnershipTransferRequested",
			"type": "event"
		},
		{
			"anonymous": false,
			"inputs": [
				{
					"indexed": true,
					"internalType": "address",
					"name": "from",
					"type": "address"
				},
				{
					"indexed": true,
					"internalType": "address",
					"name": "to",
					"type": "address"
				}
			],
			"name": "OwnershipTransferred",
			"type": "event"
		},
		{
			"anonymous": false,
			"inputs": [
				{
					"indexed": true,
					"internalType": "address",
					"name": "issuer",
					"type": "address"
				}
			],
			"name": "SetIssuer",
			"type": "event"
		},
		{
			"anonymous": false,
			"inputs": [
				{
					"indexed": true,
					"internalType": "address",
					"name": "operator",
					"type": "address"
				},
				{
					"indexed": true,
					"internalType": "address",
					"name": "from",
					"type": "address"
				},
				{
					"indexed": true,
					"internalType": "address",
					"name": "to",
					"type": "address"
				},
				{
					"indexed": false,
					"internalType": "uint256[]",
					"name": "ids",
					"type": "uint256[]"
				},
				{
					"indexed": false,
					"internalType": "uint256[]",
					"name": "values",
					"type": "uint256[]"
				}
			],
			"name": "TransferBatch",
			"type": "event"
		},
		{
			"anonymous": false,
			"inputs": [
				{
					"indexed": true,
					"internalType": "address",
					"name": "operator",
					"type": "address"
				},
				{
					"indexed": true,
					"internalType": "address",
					"name": "from",
					"type": "address"
				},
				{
					"indexed": true,
					"internalType": "address",
					"name": "to",
					"type": "address"
				},
				{
					"indexed": false,
					"internalType": "uint256",
					"name": "id",
					"type": "uint256"
				},
				{
					"indexed": false,
					"internalType": "uint256",
					"name": "value",
					"type": "uint256"
				}
			],
			"name": "TransferSingle",
			"type": "event"
		},
		{
			"anonymous": false,
			"inputs": [
				{
					"indexed": false,
					"internalType": "string",
					"name": "value",
					"type": "string"
				},
				{
					"indexed": true,
					"internalType": "uint256",
					"name": "id",
					"type": "uint256"
				}
			],
			"name": "URI",
			"type": "event"
		},
		{
			"inputs": [],
			"name": "acceptOwnership",
			"outputs": [],
			"stateMutability": "nonpayable",
			"type": "function"
		},
		{
			"inputs": [
				{
					"internalType": "address",
					"name": "account",
					"type": "address"
				},
				{
					"internalType": "uint256",
					"name": "id",
					"type": "uint256"
				}
			],
			"name": "balanceOf",
			"outputs": [
				{
					"internalType": "uint256",
					"name": "",
					"type": "uint256"
				}
			],
			"stateMutability": "view",
			"type": "function"
		},
		{
			"inputs": [
				{
					"internalType": "address[]",
					"name": "accounts",
					"type": "address[]"
				},
				{
					"internalType": "uint256[]",
					"name": "ids",
					"type": "uint256[]"
				}
			],
			"name": "balanceOfBatch",
			"outputs": [
				{
					"internalType": "uint256[]",
					"name": "",
					"type": "uint256[]"
				}
			],
			"stateMutability": "view",
			"type": "function"
		},
		{
			"inputs": [
				{
					"internalType": "address",
					"name": "account",
					"type": "address"
				},
				{
					"internalType": "uint256",
					"name": "id",
					"type": "uint256"
				},
				{
					"internalType": "uint256",
					"name": "amount",
					"type": "uint256"
				}
			],
			"name": "burn",
			"outputs": [],
			"stateMutability": "nonpayable",
			"type": "function"
		},
		{
			"inputs": [
				{
					"internalType": "address",
					"name": "account",
					"type": "address"
				},
				{
					"internalType": "uint256[]",
					"name": "ids",
					"type": "uint256[]"
				},
				{
					"internalType": "uint256[]",
					"name": "amounts",
					"type": "uint256[]"
				}
			],
			"name": "burnBatch",
			"outputs": [],
			"stateMutability": "nonpayable",
			"type": "function"
		},
		{
			"inputs": [
				{
					"components": [
						{
							"internalType": "bytes32",
							"name": "messageId",
							"type": "bytes32"
						},
						{
							"internalType": "uint64",
							"name": "sourceChainSelector",
							"type": "uint64"
						},
						{
							"internalType": "bytes",
							"name": "sender",
							"type": "bytes"
						},
						{
							"internalType": "bytes",
							"name": "data",
							"type": "bytes"
						},
						{
							"components": [
								{
									"internalType": "address",
									"name": "token",
									"type": "address"
								},
								{
									"internalType": "uint256",
									"name": "amount",
									"type": "uint256"
								}
							],
							"internalType": "struct Client.EVMTokenAmount[]",
							"name": "destTokenAmounts",
							"type": "tuple[]"
						}
					],
					"internalType": "struct Client.Any2EVMMessage",
					"name": "message",
					"type": "tuple"
				}
			],
			"name": "ccipReceive",
			"outputs": [],
			"stateMutability": "nonpayable",
			"type": "function"
		},
		{
			"inputs": [
				{
					"internalType": "address",
					"name": "from",
					"type": "address"
				},
				{
					"internalType": "address",
					"name": "to",
					"type": "address"
				},
				{
					"internalType": "uint256",
					"name": "id",
					"type": "uint256"
				},
				{
					"internalType": "uint256",
					"name": "amount",
					"type": "uint256"
				},
				{
					"internalType": "bytes",
					"name": "data",
					"type": "bytes"
				},
				{
					"internalType": "uint64",
					"name": "destinationChainSelector",
					"type": "uint64"
				},
				{
					"internalType": "enum CrossChainBurnAndMintERC1155.PayFeesIn",
					"name": "payFeesIn",
					"type": "uint8"
				}
			],
			"name": "crossChainTransferFrom",
			"outputs": [
				{
					"internalType": "bytes32",
					"name": "messageId",
					"type": "bytes32"
				}
			],
			"stateMutability": "nonpayable",
			"type": "function"
		},
		{
			"inputs": [
				{
					"internalType": "uint64",
					"name": "chainSelector",
					"type": "uint64"
				}
			],
			"name": "disableChain",
			"outputs": [],
			"stateMutability": "nonpayable",
			"type": "function"
		},
		{
			"inputs": [
				{
					"internalType": "uint64",
					"name": "chainSelector",
					"type": "uint64"
				},
				{
					"internalType": "address",
					"name": "xNftAddress",
					"type": "address"
				},
				{
					"internalType": "bytes",
					"name": "ccipExtraArgs",
					"type": "bytes"
				}
			],
			"name": "enableChain",
			"outputs": [],
			"stateMutability": "nonpayable",
			"type": "function"
		},
		{
			"inputs": [
				{
					"internalType": "uint256",
					"name": "id",
					"type": "uint256"
				}
			],
			"name": "exists",
			"outputs": [
				{
					"internalType": "bool",
					"name": "",
					"type": "bool"
				}
			],
			"stateMutability": "view",
			"type": "function"
		},
		{
			"inputs": [
				{
					"internalType": "address",
					"name": "account",
					"type": "address"
				},
				{
					"internalType": "address",
					"name": "operator",
					"type": "address"
				}
			],
			"name": "isApprovedForAll",
			"outputs": [
				{
					"internalType": "bool",
					"name": "",
					"type": "bool"
				}
			],
			"stateMutability": "view",
			"type": "function"
		},
		{
			"inputs": [
				{
					"internalType": "address",
					"name": "_to",
					"type": "address"
				},
				{
					"internalType": "uint256",
					"name": "_id",
					"type": "uint256"
				},
				{
					"internalType": "uint256",
					"name": "_amount",
					"type": "uint256"
				},
				{
					"internalType": "bytes",
					"name": "_data",
					"type": "bytes"
				},
				{
					"internalType": "string",
					"name": "_tokenUri",
					"type": "string"
				}
			],
			"name": "mint",
			"outputs": [],
			"stateMutability": "nonpayable",
			"type": "function"
		},
		{
			"inputs": [
				{
					"internalType": "address",
					"name": "_to",
					"type": "address"
				},
				{
					"internalType": "uint256[]",
					"name": "_ids",
					"type": "uint256[]"
				},
				{
					"internalType": "uint256[]",
					"name": "_amounts",
					"type": "uint256[]"
				},
				{
					"internalType": "bytes",
					"name": "_data",
					"type": "bytes"
				},
				{
					"internalType": "string[]",
					"name": "_tokenUris",
					"type": "string[]"
				}
			],
			"name": "mintBatch",
			"outputs": [],
			"stateMutability": "nonpayable",
			"type": "function"
		},
		{
			"inputs": [],
			"name": "owner",
			"outputs": [
				{
					"internalType": "address",
					"name": "",
					"type": "address"
				}
			],
			"stateMutability": "view",
			"type": "function"
		},
		{
			"inputs": [
				{
					"internalType": "uint64",
					"name": "destChainSelector",
					"type": "uint64"
				}
			],
			"name": "s_chains",
			"outputs": [
				{
					"internalType": "address",
					"name": "xNftAddress",
					"type": "address"
				},
				{
					"internalType": "bytes",
					"name": "ccipExtraArgsBytes",
					"type": "bytes"
				}
			],
			"stateMutability": "view",
			"type": "function"
		},
		{
			"inputs": [
				{
					"internalType": "address",
					"name": "from",
					"type": "address"
				},
				{
					"internalType": "address",
					"name": "to",
					"type": "address"
				},
				{
					"internalType": "uint256[]",
					"name": "ids",
					"type": "uint256[]"
				},
				{
					"internalType": "uint256[]",
					"name": "values",
					"type": "uint256[]"
				},
				{
					"internalType": "bytes",
					"name": "data",
					"type": "bytes"
				}
			],
			"name": "safeBatchTransferFrom",
			"outputs": [],
			"stateMutability": "nonpayable",
			"type": "function"
		},
		{
			"inputs": [
				{
					"internalType": "address",
					"name": "from",
					"type": "address"
				},
				{
					"internalType": "address",
					"name": "to",
					"type": "address"
				},
				{
					"internalType": "uint256",
					"name": "id",
					"type": "uint256"
				},
				{
					"internalType": "uint256",
					"name": "value",
					"type": "uint256"
				},
				{
					"internalType": "bytes",
					"name": "data",
					"type": "bytes"
				}
			],
			"name": "safeTransferFrom",
			"outputs": [],
			"stateMutability": "nonpayable",
			"type": "function"
		},
		{
			"inputs": [
				{
					"internalType": "address",
					"name": "operator",
					"type": "address"
				},
				{
					"internalType": "bool",
					"name": "approved",
					"type": "bool"
				}
			],
			"name": "setApprovalForAll",
			"outputs": [],
			"stateMutability": "nonpayable",
			"type": "function"
		},
		{
			"inputs": [
				{
					"internalType": "address",
					"name": "_issuer",
					"type": "address"
				}
			],
			"name": "setIssuer",
			"outputs": [],
			"stateMutability": "nonpayable",
			"type": "function"
		},
		{
			"inputs": [
				{
					"internalType": "bytes4",
					"name": "interfaceId",
					"type": "bytes4"
				}
			],
			"name": "supportsInterface",
			"outputs": [
				{
					"internalType": "bool",
					"name": "",
					"type": "bool"
				}
			],
			"stateMutability": "view",
			"type": "function"
		},
		{
			"inputs": [],
			"name": "totalSupply",
			"outputs": [
				{
					"internalType": "uint256",
					"name": "",
					"type": "uint256"
				}
			],
			"stateMutability": "view",
			"type": "function"
		},
		{
			"inputs": [
				{
					"internalType": "uint256",
					"name": "id",
					"type": "uint256"
				}
			],
			"name": "totalSupply",
			"outputs": [
				{
					"internalType": "uint256",
					"name": "",
					"type": "uint256"
				}
			],
			"stateMutability": "view",
			"type": "function"
		},
		{
			"inputs": [
				{
					"internalType": "address",
					"name": "to",
					"type": "address"
				}
			],
			"name": "transferOwnership",
			"outputs": [],
			"stateMutability": "nonpayable",
			"type": "function"
		},
		{
			"inputs": [
				{
					"internalType": "uint256",
					"name": "tokenId",
					"type": "uint256"
				}
			],
			"name": "uri",
			"outputs": [
				{
					"internalType": "string",
					"name": "",
					"type": "string"
				}
			],
			"stateMutability": "view",
			"type": "function"
		},
		{
			"inputs": [
				{
					"internalType": "address",
					"name": "_beneficiary",
					"type": "address"
				}
			],
			"name": "withdraw",
			"outputs": [],
			"stateMutability": "nonpayable",
			"type": "function"
		},
		{
			"inputs": [
				{
					"internalType": "address",
					"name": "_beneficiary",
					"type": "address"
				},
				{
					"internalType": "address",
					"name": "_token",
					"type": "address"
				}
			],
			"name": "withdrawToken",
			"outputs": [],
			"stateMutability": "nonpayable",
			"type": "function"
		}
	]
}