{
	"data": {
		"bytecode": {
			"linkReferences": {},
			"object": "61050060405261043b60a081815290620018ab60c0395f9062000023908262000269565b50604051806102e001604052806102b1815260200162001ce66102b1913960019062000050908262000269565b503480156200005d575f80fd5b5060405162001f9738038062001f97833981016040819052620000809162000335565b6001600160a01b03811660805233805f81620000e35760405162461bcd60e51b815260206004820152601860248201527f43616e6e6f7420736574206f776e657220746f207a65726f000000000000000060448201526064015b60405180910390fd5b600280546001600160a01b0319166001600160a01b03848116919091179091558116156200011657620001168162000120565b5050505062000364565b336001600160a01b038216036200017a5760405162461bcd60e51b815260206004820152601760248201527f43616e6e6f74207472616e7366657220746f2073656c660000000000000000006044820152606401620000da565b600380546001600160a01b0319166001600160a01b03838116918217909255600254604051919216907fed8889f560326eb138920d842192f0eb3dd22b4f139c87a2c57538e05bae1278905f90a350565b634e487b7160e01b5f52604160045260245ffd5b600181811c90821680620001f457607f821691505b6020821081036200021357634e487b7160e01b5f52602260045260245ffd5b50919050565b601f8211156200026457805f5260205f20601f840160051c81016020851015620002405750805b601f840160051c820191505b8181101562000261575f81556001016200024c565b50505b505050565b81516001600160401b03811115620002855762000285620001cb565b6200029d81620002968454620001df565b8462000219565b602080601f831160018114620002d3575f8415620002bb5750858301515b5f19600386901b1c1916600185901b1785556200032d565b5f85815260208120601f198616915b828110156200030357888601518255948401946001909101908401620002e2565b50858210156200032157878501515f19600388901b60f8161c191681555b505060018460011b0185555b505050505050565b5f6020828403121562000346575f80fd5b81516001600160a01b03811681146200035d575f80fd5b9392505050565b608051611527620003845f395f81816101e2015261090601526115275ff3fe608060405234801561000f575f80fd5b5060043610610090575f3560e01c8063bd9a548b11610063578063bd9a548b146100f2578063d40d17bc14610107578063e6b46ff51461011a578063f0ed2e8014610122578063f2fde38b146101c4575f80fd5b80630ca761751461009457806379ba5097146100a95780638da5cb5b146100b1578063a843a0ab146100d1575b5f80fd5b6100a76100a23660046110a6565b6101d7565b005b6100a761025a565b6002546040516001600160a01b0390911681526020015b60405180910390f35b6100e46100df36600461110d565b61030c565b6040519081526020016100c8565b6100fa610470565b6040516100c891906111e4565b6100a76101153660046111f6565b6104fc565b6100fa610526565b61018f61013036600461121c565b60408051606080820183525f80835260208084018290529284018190529384526005825292829020825193840183525469ffffffffffffffffffff8082168552600160501b8204811692850192909252600160a01b9004169082015290565b60408051825169ffffffffffffffffffff908116825260208085015182169083015292820151909216908201526060016100c8565b6100a76101d23660046111f6565b610532565b336001600160a01b037f000000000000000000000000000000000000000000000000000000000000000016146102205760405163c6829f8360e01b815260040160405180910390fd5b61022b838383610546565b60405183907f85e1543bf2f84fe80c6badbce3648c8539ad1df4d2b3d822938ca0538be727e6905f90a2505050565b6003546001600160a01b031633146102b25760405162461bcd60e51b815260206004820152601660248201527526bab9ba10313290383937b837b9b2b21037bbb732b960511b60448201526064015b60405180910390fd5b600280546001600160a01b0319808216339081179093556003805490911690556040516001600160a01b03909116919082907f8be0079c531659141344cd1fd0a4f28419497f9722a3daafe3b4186f6b6457e0905f90a350565b6004545f906001600160a01b0316331480159061033457506002546001600160a01b03163314155b15610352576040516302dc7d2f60e21b815260040160405180910390fd5b6103906040805160e08101909152805f81526020015f81526020015f8152602001606081526020016060815260200160608152602001606081525090565b6103fc306001600160a01b031663bd9a548b6040518163ffffffff1660e01b81526004015f60405180830381865afa1580156103ce573d5f803e3d5ffd5b505050506040513d5f823e601f3d908101601f191682016040526103f59190810190611233565b8290610605565b6040805160018082528183019092525f91816020015b606081526020019060019003908161041257905050905086815f8151811061043c5761043c6112a4565b60209081029190910101526104518282610615565b61046561045d8361063e565b878787610902565b979650505050505050565b6001805461047d906112b8565b80601f01602080910402602001604051908101604052809291908181526020018280546104a9906112b8565b80156104f45780601f106104cb576101008083540402835291602001916104f4565b820191905f5260205f20905b8154815290600101906020018083116104d757829003601f168201915b505050505081565b6105046109cf565b600480546001600160a01b0319166001600160a01b0392909216919091179055565b5f805461047d906112b8565b61053a6109cf565b61054381610a24565b50565b805115610567578060405162461bcd60e51b81526004016102a991906111e4565b5f805f808580602001905181019061057f91906112f0565b6040805160608101825269ffffffffffffffffffff948516815292841660208085019182529285168483019081525f9687526005909352942091518254945191518416600160a01b0269ffffffffffffffffffff60a01b19928516600160501b026001600160a01b03199096169190941617939093179290921617905550505050505050565b610611825f8084610acd565b5050565b80515f036106365760405163fe936cb760e01b815260040160405180910390fd5b60a090910152565b60605f61064c610100610b4a565b90506106856040518060400160405280600c81526020016b31b7b232a637b1b0ba34b7b760a11b81525082610b6a90919063ffffffff16565b82516106a390600281111561069c5761069c611323565b8290610b88565b6040805180820190915260088152676c616e677561676560c01b60208201526106cd908290610b6a565b60408301516106e490801561069c5761069c611323565b604080518082019091526006815265736f7572636560d01b602082015261070c908290610b6a565b606083015161071c908290610b6a565b60a083015151156107a7576040805180820190915260048152636172677360e01b602082015261074d908290610b6a565b61075681610bc1565b5f5b8360a001515181101561079d576107958460a00151828151811061077e5761077e6112a4565b602002602001015183610b6a90919063ffffffff16565b600101610758565b506107a781610be5565b6080830151511561086a575f836020015160028111156107c9576107c9611323565b036107e75760405163a80d31f760e01b815260040160405180910390fd5b60408051808201909152600f81526e39b2b1b932ba39a637b1b0ba34b7b760891b6020820152610818908290610b6a565b6108318360200151600281111561069c5761069c611323565b6040805180820190915260078152667365637265747360c81b602082015261085a908290610b6a565b608083015161086a908290610c03565b60c083015151156108fa5760408051808201909152600981526862797465734172677360b81b60208201526108a0908290610b6a565b6108a981610bc1565b5f5b8360c00151518110156108f0576108e88460c0015182815181106108d1576108d16112a4565b602002602001015183610c0390919063ffffffff16565b6001016108ab565b506108fa81610be5565b515192915050565b5f807f00000000000000000000000000000000000000000000000000000000000000006001600160a01b031663461d27628688600188886040518663ffffffff1660e01b8152600401610959959493929190611337565b6020604051808303815f875af1158015610975573d5f803e3d5ffd5b505050506040513d601f19601f82011682018060405250810190610999919061137f565b60405190915081907f1131472297a800fee664d1d89cfa8f7676ff07189ecc53f80bbb5f4969099db8905f90a295945050505050565b6002546001600160a01b03163314610a225760405162461bcd60e51b815260206004820152601660248201527527b7363c9031b0b63630b1363290313c9037bbb732b960511b60448201526064016102a9565b565b336001600160a01b03821603610a7c5760405162461bcd60e51b815260206004820152601760248201527f43616e6e6f74207472616e7366657220746f2073656c6600000000000000000060448201526064016102a9565b600380546001600160a01b0319166001600160a01b03838116918217909255600254604051919216907fed8889f560326eb138920d842192f0eb3dd22b4f139c87a2c57538e05bae1278905f90a350565b80515f03610aee576040516322ce3edd60e01b815260040160405180910390fd5b83836002811115610b0157610b01611323565b90816002811115610b1457610b14611323565b90525060408401828015610b2a57610b2a611323565b90818015610b3a57610b3a611323565b9052506060909301929092525050565b610b52610fb0565b8051610b5e9083610c10565b505f6020820152919050565b610b778260038351610c87565b8151610b839082610da6565b505050565b8151610b959060c2610dcd565b506106118282604051602001610bad91815260200190565b604051602081830303815290604052610c03565b610bcc816004610e34565b600181602001818151610bdf91906113aa565b90525050565b610bf0816007610e34565b600181602001818151610bdf91906113bd565b610b778260028351610c87565b60408051808201909152606081525f6020820152610c2f6020836113d0565b15610c5757610c3f6020836113d0565b610c4a9060206113bd565b610c5490836113aa565b91505b60208084018390526040518085525f8152908184010181811015610c79575f80fd5b604052508290505b92915050565b6017816001600160401b031611610cb3578251610cad9060e0600585901b168317610dcd565b50505050565b60ff816001600160401b031611610cf3578251610cdb906018611fe0600586901b1617610dcd565b508251610cad906001600160401b0383166001610e4b565b61ffff816001600160401b031611610d34578251610d1c906019611fe0600586901b1617610dcd565b508251610cad906001600160401b0383166002610e4b565b63ffffffff816001600160401b031611610d77578251610d5f90601a611fe0600586901b1617610dcd565b508251610cad906001600160401b0383166004610e4b565b8251610d8e90601b611fe0600586901b1617610dcd565b508251610cad906001600160401b0383166008610e4b565b60408051808201909152606081525f6020820152610dc683838451610ecd565b9392505050565b60408051808201909152606081525f60208201528251515f610df08260016113aa565b905084602001518210610e1157610e1185610e0c8360026113ef565b610f99565b8451602083820101858153508051821115610e2a578181525b5093949350505050565b8151610b8390601f611fe0600585901b1617610dcd565b60408051808201909152606081525f60208201528351515f610e6d82856113aa565b90508560200151811115610e8a57610e8a86610e0c8360026113ef565b5f6001610e99866101006114e6565b610ea391906113bd565b90508651828101878319825116178152508051831115610ec1578281525b50959695505050505050565b60408051808201909152606081525f60208201528251821115610eee575f80fd5b8351515f610efc84836113aa565b90508560200151811115610f1957610f1986610e0c8360026113ef565b85518051838201602001915f9180851115610f32578482525b505050602086015b60208610610f725780518252610f516020836113aa565b9150610f5e6020826113aa565b9050610f6b6020876113bd565b9550610f3a565b5181515f1960208890036101000a0190811690199190911617905250849150509392505050565b8151610fa58383610c10565b50610cad8382610da6565b6040518060400160405280610fd76040518060400160405280606081526020015f81525090565b81526020015f81525090565b634e487b7160e01b5f52604160045260245ffd5b604051601f8201601f191681016001600160401b038111828210171561101f5761101f610fe3565b604052919050565b5f6001600160401b0382111561103f5761103f610fe3565b50601f01601f191660200190565b5f61105f61105a84611027565b610ff7565b9050828152838383011115611072575f80fd5b828260208301375f602084830101529392505050565b5f82601f830112611097575f80fd5b610dc68383356020850161104d565b5f805f606084860312156110b8575f80fd5b8335925060208401356001600160401b03808211156110d5575f80fd5b6110e187838801611088565b935060408601359150808211156110f6575f80fd5b5061110386828701611088565b9150509250925092565b5f805f8060808587031215611120575f80fd5b84356001600160401b0380821115611136575f80fd5b818701915087601f830112611149575f80fd5b6111588883356020850161104d565b955060208701359150808216821461116e575f80fd5b509250604085013563ffffffff81168114611187575f80fd5b9396929550929360600135925050565b5f5b838110156111b1578181015183820152602001611199565b50505f910152565b5f81518084526111d0816020860160208601611197565b601f01601f19169290920160200192915050565b602081525f610dc660208301846111b9565b5f60208284031215611206575f80fd5b81356001600160a01b0381168114610dc6575f80fd5b5f6020828403121561122c575f80fd5b5035919050565b5f60208284031215611243575f80fd5b81516001600160401b03811115611258575f80fd5b8201601f81018413611268575f80fd5b805161127661105a82611027565b81815285602083850101111561128a575f80fd5b61129b826020830160208601611197565b95945050505050565b634e487b7160e01b5f52603260045260245ffd5b600181811c908216806112cc57607f821691505b6020821081036112ea57634e487b7160e01b5f52602260045260245ffd5b50919050565b5f805f8060808587031215611303575f80fd5b505082516020840151604085015160609095015191969095509092509050565b634e487b7160e01b5f52602160045260245ffd5b6001600160401b038616815260a060208201525f61135860a08301876111b9565b61ffff9590951660408301525063ffffffff92909216606083015260809091015292915050565b5f6020828403121561138f575f80fd5b5051919050565b634e487b7160e01b5f52601160045260245ffd5b80820180821115610c8157610c81611396565b81810381811115610c8157610c81611396565b5f826113ea57634e487b7160e01b5f52601260045260245ffd5b500690565b8082028115828204841417610c8157610c81611396565b600181815b8085111561144057815f190482111561142657611426611396565b8085161561143357918102915b93841c939080029061140b565b509250929050565b5f8261145657506001610c81565b8161146257505f610c81565b816001811461147857600281146114825761149e565b6001915050610c81565b60ff84111561149357611493611396565b50506001821b610c81565b5060208310610133831016604e8410600b84101617156114c1575081810a610c81565b6114cb8383611406565b805f19048211156114de576114de611396565b029392505050565b5f610dc6838361144856fea26469706673582212206caf803d8962475d575b9dbc239a6270b6f4026f56cf5e25589ad2d86637cd5b64736f6c63430008180033636f6e7374207b20657468657273207d203d20617761697420696d706f727428276e706d3a65746865727340362e31302e3027293b636f6e73742048617368203d20617761697420696d706f727428276e706d3a697066732d6f6e6c792d6861736840342e302e3027293b636f6e737420617069526573706f6e7365203d2061776169742046756e6374696f6e732e6d616b654874747052657175657374287b2020202075726c3a206068747470733a2f2f6170692e627269646765646174616f75747075742e636f6d2f6170692f76322f4f446174612f746573742f50726f70657274792827505f35646261316662393461613430353562396632393639366627293f6163636573735f746f6b656e3d3662616361353437373432633666393661366666373162313338343234663231602c7d293b636f6e7374207265616c45737461746541646472657373203d20617069526573706f6e73652e646174612e556e706172736564416464726573733b636f6e737420796561724275696c74203d204e756d62657228617069526573706f6e73652e646174612e596561724275696c74293b636f6e7374206c6f7453697a6553717561726546656574203d204e756d62657228617069526573706f6e73652e646174612e4c6f7453697a6553717561726546656574293b636f6e7374206c6976696e6741726561203d204e756d62657228617069526573706f6e73652e646174612e4c6976696e6741726561293b636f6e737420626564726f6f6d73546f74616c203d204e756d62657228617069526573706f6e73652e646174612e426564726f6f6d73546f74616c293b636f6e7374206d65746164617461203d207b6e616d653a20605265616c2045737461746520546f6b656e602c617474726962757465733a205b7b2074726169745f747970653a20607265616c45737461746541646472657373602c2076616c75653a207265616c45737461746541646472657373207d2c7b2074726169745f747970653a2060796561724275696c74602c2076616c75653a20796561724275696c74207d2c7b2074726169745f747970653a20606c6f7453697a6553717561726546656574602c2076616c75653a206c6f7453697a6553717561726546656574207d2c7b2074726169745f747970653a20606c6976696e6741726561602c2076616c75653a206c6976696e6741726561207d2c7b2074726169745f747970653a2060626564726f6f6d73546f74616c602c2076616c75653a20626564726f6f6d73546f74616c207d5d7d3b636f6e7374206d65746164617461537472696e67203d204a534f4e2e737472696e67696679286d65746164617461293b636f6e73742069706673436964203d20617761697420486173682e6f66286d65746164617461537472696e67293b72657475726e2046756e6374696f6e732e656e636f6465537472696e672860697066733a2f2f247b697066734369647d60293b636f6e7374207b20657468657273207d203d20617761697420696d706f727428276e706d3a65746865727340362e31302e3027293b636f6e737420616269436f646572203d206574686572732e416269436f6465722e64656661756c74416269436f64657228293b636f6e737420746f6b656e4964203d20617267735b305d3b636f6e737420617069526573706f6e7365203d2061776169742046756e6374696f6e732e6d616b654874747052657175657374287b2020202075726c3a206068747470733a2f2f6170692e627269646765646174616f75747075742e636f6d2f6170692f76322f4f446174612f746573742f50726f70657274792827505f35646261316662393461613430353562396632393639366627293f6163636573735f746f6b656e3d3662616361353437373432633666393661366666373162313338343234663231602c7d293b636f6e7374206c6973745072696365203d204e756d62657228617069526573706f6e73652e646174612e4c6973745072696365293b636f6e7374206f726967696e616c4c6973745072696365203d204e756d62657228617069526573706f6e73652e646174612e4f726967696e616c4c6973745072696365293b636f6e737420746178417373657373656456616c7565203d204e756d62657228617069526573706f6e73652e646174612e546178417373657373656456616c7565293b636f6e737420656e636f646564203d20616269436f6465722e656e636f6465285b6075696e74323536602c206075696e74323536602c206075696e74323536602c206075696e74323536605d2c205b746f6b656e49642c206c69737450726963652c206f726967696e616c4c69737450726963652c20746178417373657373656456616c75655d293b72657475726e206574686572732e676574427974657328656e636f646564293b",
			"opcodes": "PUSH2 0x500 PUSH1 0x40 MSTORE PUSH2 0x43B PUSH1 0xA0 DUP2 DUP2 MSTORE SWAP1 PUSH3 0x18AB PUSH1 0xC0 CODECOPY PUSH0 SWAP1 PUSH3 0x23 SWAP1 DUP3 PUSH3 0x269 JUMP JUMPDEST POP PUSH1 0x40 MLOAD DUP1 PUSH2 0x2E0 ADD PUSH1 0x40 MSTORE DUP1 PUSH2 0x2B1 DUP2 MSTORE PUSH1 0x20 ADD PUSH3 0x1CE6 PUSH2 0x2B1 SWAP2 CODECOPY PUSH1 0x1 SWAP1 PUSH3 0x50 SWAP1 DUP3 PUSH3 0x269 JUMP JUMPDEST POP CALLVALUE DUP1 ISZERO PUSH3 0x5D JUMPI PUSH0 DUP1 REVERT JUMPDEST POP PUSH1 0x40 MLOAD PUSH3 0x1F97 CODESIZE SUB DUP1 PUSH3 0x1F97 DUP4 CODECOPY DUP2 ADD PUSH1 0x40 DUP2 SWAP1 MSTORE PUSH3 0x80 SWAP2 PUSH3 0x335 JUMP JUMPDEST PUSH1 0x1 PUSH1 0x1 PUSH1 0xA0 SHL SUB DUP2 AND PUSH1 0x80 MSTORE CALLER DUP1 PUSH0 DUP2 PUSH3 0xE3 JUMPI PUSH1 0x40 MLOAD PUSH3 0x461BCD PUSH1 0xE5 SHL DUP2 MSTORE PUSH1 0x20 PUSH1 0x4 DUP3 ADD MSTORE PUSH1 0x18 PUSH1 0x24 DUP3 ADD MSTORE PUSH32 0x43616E6E6F7420736574206F776E657220746F207A65726F0000000000000000 PUSH1 0x44 DUP3 ADD MSTORE PUSH1 0x64 ADD JUMPDEST PUSH1 0x40 MLOAD DUP1 SWAP2 SUB SWAP1 REVERT JUMPDEST PUSH1 0x2 DUP1 SLOAD PUSH1 0x1 PUSH1 0x1 PUSH1 0xA0 SHL SUB NOT AND PUSH1 0x1 PUSH1 0x1 PUSH1 0xA0 SHL SUB DUP5 DUP2 AND SWAP2 SWAP1 SWAP2 OR SWAP1 SWAP2 SSTORE DUP2 AND ISZERO PUSH3 0x116 JUMPI PUSH3 0x116 DUP2 PUSH3 0x120 JUMP JUMPDEST POP POP POP POP PUSH3 0x364 JUMP JUMPDEST CALLER PUSH1 0x1 PUSH1 0x1 PUSH1 0xA0 SHL SUB DUP3 AND SUB PUSH3 0x17A JUMPI PUSH1 0x40 MLOAD PUSH3 0x461BCD PUSH1 0xE5 SHL DUP2 MSTORE PUSH1 0x20 PUSH1 0x4 DUP3 ADD MSTORE PUSH1 0x17 PUSH1 0x24 DUP3 ADD MSTORE PUSH32 0x43616E6E6F74207472616E7366657220746F2073656C66000000000000000000 PUSH1 0x44 DUP3 ADD MSTORE PUSH1 0x64 ADD PUSH3 0xDA JUMP JUMPDEST PUSH1 0x3 DUP1 SLOAD PUSH1 0x1 PUSH1 0x1 PUSH1 0xA0 SHL SUB NOT AND PUSH1 0x1 PUSH1 0x1 PUSH1 0xA0 SHL SUB DUP4 DUP2 AND SWAP2 DUP3 OR SWAP1 SWAP3 SSTORE PUSH1 0x2 SLOAD PUSH1 0x40 MLOAD SWAP2 SWAP3 AND SWAP1 PUSH32 0xED8889F560326EB138920D842192F0EB3DD22B4F139C87A2C57538E05BAE1278 SWAP1 PUSH0 SWAP1 LOG3 POP JUMP JUMPDEST PUSH4 0x4E487B71 PUSH1 0xE0 SHL PUSH0 MSTORE PUSH1 0x41 PUSH1 0x4 MSTORE PUSH1 0x24 PUSH0 REVERT JUMPDEST PUSH1 0x1 DUP2 DUP2 SHR SWAP1 DUP3 AND DUP1 PUSH3 0x1F4 JUMPI PUSH1 0x7F DUP3 AND SWAP2 POP JUMPDEST PUSH1 0x20 DUP3 LT DUP2 SUB PUSH3 0x213 JUMPI PUSH4 0x4E487B71 PUSH1 0xE0 SHL PUSH0 MSTORE PUSH1 0x22 PUSH1 0x4 MSTORE PUSH1 0x24 PUSH0 REVERT JUMPDEST POP SWAP2 SWAP1 POP JUMP JUMPDEST PUSH1 0x1F DUP3 GT ISZERO PUSH3 0x264 JUMPI DUP1 PUSH0 MSTORE PUSH1 0x20 PUSH0 KECCAK256 PUSH1 0x1F DUP5 ADD PUSH1 0x5 SHR DUP2 ADD PUSH1 0x20 DUP6 LT ISZERO PUSH3 0x240 JUMPI POP DUP1 JUMPDEST PUSH1 0x1F DUP5 ADD PUSH1 0x5 SHR DUP3 ADD SWAP2 POP JUMPDEST DUP2 DUP2 LT ISZERO PUSH3 0x261 JUMPI PUSH0 DUP2 SSTORE PUSH1 0x1 ADD PUSH3 0x24C JUMP JUMPDEST POP POP JUMPDEST POP POP POP JUMP JUMPDEST DUP2 MLOAD PUSH1 0x1 PUSH1 0x1 PUSH1 0x40 SHL SUB DUP2 GT ISZERO PUSH3 0x285 JUMPI PUSH3 0x285 PUSH3 0x1CB JUMP JUMPDEST PUSH3 0x29D DUP2 PUSH3 0x296 DUP5 SLOAD PUSH3 0x1DF JUMP JUMPDEST DUP5 PUSH3 0x219 JUMP JUMPDEST PUSH1 0x20 DUP1 PUSH1 0x1F DUP4 GT PUSH1 0x1 DUP2 EQ PUSH3 0x2D3 JUMPI PUSH0 DUP5 ISZERO PUSH3 0x2BB JUMPI POP DUP6 DUP4 ADD MLOAD JUMPDEST PUSH0 NOT PUSH1 0x3 DUP7 SWAP1 SHL SHR NOT AND PUSH1 0x1 DUP6 SWAP1 SHL OR DUP6 SSTORE PUSH3 0x32D JUMP JUMPDEST PUSH0 DUP6 DUP2 MSTORE PUSH1 0x20 DUP2 KECCAK256 PUSH1 0x1F NOT DUP7 AND SWAP2 JUMPDEST DUP3 DUP2 LT ISZERO PUSH3 0x303 JUMPI DUP9 DUP7 ADD MLOAD DUP3 SSTORE SWAP5 DUP5 ADD SWAP5 PUSH1 0x1 SWAP1 SWAP2 ADD SWAP1 DUP5 ADD PUSH3 0x2E2 JUMP JUMPDEST POP DUP6 DUP3 LT ISZERO PUSH3 0x321 JUMPI DUP8 DUP6 ADD MLOAD PUSH0 NOT PUSH1 0x3 DUP9 SWAP1 SHL PUSH1 0xF8 AND SHR NOT AND DUP2 SSTORE JUMPDEST POP POP PUSH1 0x1 DUP5 PUSH1 0x1 SHL ADD DUP6 SSTORE JUMPDEST POP POP POP POP POP POP JUMP JUMPDEST PUSH0 PUSH1 0x20 DUP3 DUP5 SUB SLT ISZERO PUSH3 0x346 JUMPI PUSH0 DUP1 REVERT JUMPDEST DUP2 MLOAD PUSH1 0x1 PUSH1 0x1 PUSH1 0xA0 SHL SUB DUP2 AND DUP2 EQ PUSH3 0x35D JUMPI PUSH0 DUP1 REVERT JUMPDEST SWAP4 SWAP3 POP POP POP JUMP JUMPDEST PUSH1 0x80 MLOAD PUSH2 0x1527 PUSH3 0x384 PUSH0 CODECOPY PUSH0 DUP2 DUP2 PUSH2 0x1E2 ADD MSTORE PUSH2 0x906 ADD MSTORE PUSH2 0x1527 PUSH0 RETURN INVALID PUSH1 0x80 PUSH1 0x40 MSTORE CALLVALUE DUP1 ISZERO PUSH2 0xF JUMPI PUSH0 DUP1 REVERT JUMPDEST POP PUSH1 0x4 CALLDATASIZE LT PUSH2 0x90 JUMPI PUSH0 CALLDATALOAD PUSH1 0xE0 SHR DUP1 PUSH4 0xBD9A548B GT PUSH2 0x63 JUMPI DUP1 PUSH4 0xBD9A548B EQ PUSH2 0xF2 JUMPI DUP1 PUSH4 0xD40D17BC EQ PUSH2 0x107 JUMPI DUP1 PUSH4 0xE6B46FF5 EQ PUSH2 0x11A JUMPI DUP1 PUSH4 0xF0ED2E80 EQ PUSH2 0x122 JUMPI DUP1 PUSH4 0xF2FDE38B EQ PUSH2 0x1C4 JUMPI PUSH0 DUP1 REVERT JUMPDEST DUP1 PUSH4 0xCA76175 EQ PUSH2 0x94 JUMPI DUP1 PUSH4 0x79BA5097 EQ PUSH2 0xA9 JUMPI DUP1 PUSH4 0x8DA5CB5B EQ PUSH2 0xB1 JUMPI DUP1 PUSH4 0xA843A0AB EQ PUSH2 0xD1 JUMPI JUMPDEST PUSH0 DUP1 REVERT JUMPDEST PUSH2 0xA7 PUSH2 0xA2 CALLDATASIZE PUSH1 0x4 PUSH2 0x10A6 JUMP JUMPDEST PUSH2 0x1D7 JUMP JUMPDEST STOP JUMPDEST PUSH2 0xA7 PUSH2 0x25A JUMP JUMPDEST PUSH1 0x2 SLOAD PUSH1 0x40 MLOAD PUSH1 0x1 PUSH1 0x1 PUSH1 0xA0 SHL SUB SWAP1 SWAP2 AND DUP2 MSTORE PUSH1 0x20 ADD JUMPDEST PUSH1 0x40 MLOAD DUP1 SWAP2 SUB SWAP1 RETURN JUMPDEST PUSH2 0xE4 PUSH2 0xDF CALLDATASIZE PUSH1 0x4 PUSH2 0x110D JUMP JUMPDEST PUSH2 0x30C JUMP JUMPDEST PUSH1 0x40 MLOAD SWAP1 DUP2 MSTORE PUSH1 0x20 ADD PUSH2 0xC8 JUMP JUMPDEST PUSH2 0xFA PUSH2 0x470 JUMP JUMPDEST PUSH1 0x40 MLOAD PUSH2 0xC8 SWAP2 SWAP1 PUSH2 0x11E4 JUMP JUMPDEST PUSH2 0xA7 PUSH2 0x115 CALLDATASIZE PUSH1 0x4 PUSH2 0x11F6 JUMP JUMPDEST PUSH2 0x4FC JUMP JUMPDEST PUSH2 0xFA PUSH2 0x526 JUMP JUMPDEST PUSH2 0x18F PUSH2 0x130 CALLDATASIZE PUSH1 0x4 PUSH2 0x121C JUMP JUMPDEST PUSH1 0x40 DUP1 MLOAD PUSH1 0x60 DUP1 DUP3 ADD DUP4 MSTORE PUSH0 DUP1 DUP4 MSTORE PUSH1 0x20 DUP1 DUP5 ADD DUP3 SWAP1 MSTORE SWAP3 DUP5 ADD DUP2 SWAP1 MSTORE SWAP4 DUP5 MSTORE PUSH1 0x5 DUP3 MSTORE SWAP3 DUP3 SWAP1 KECCAK256 DUP3 MLOAD SWAP4 DUP5 ADD DUP4 MSTORE SLOAD PUSH10 0xFFFFFFFFFFFFFFFFFFFF DUP1 DUP3 AND DUP6 MSTORE PUSH1 0x1 PUSH1 0x50 SHL DUP3 DIV DUP2 AND SWAP3 DUP6 ADD SWAP3 SWAP1 SWAP3 MSTORE PUSH1 0x1 PUSH1 0xA0 SHL SWAP1 DIV AND SWAP1 DUP3 ADD MSTORE SWAP1 JUMP JUMPDEST PUSH1 0x40 DUP1 MLOAD DUP3 MLOAD PUSH10 0xFFFFFFFFFFFFFFFFFFFF SWAP1 DUP2 AND DUP3 MSTORE PUSH1 0x20 DUP1 DUP6 ADD MLOAD DUP3 AND SWAP1 DUP4 ADD MSTORE SWAP3 DUP3 ADD MLOAD SWAP1 SWAP3 AND SWAP1 DUP3 ADD MSTORE PUSH1 0x60 ADD PUSH2 0xC8 JUMP JUMPDEST PUSH2 0xA7 PUSH2 0x1D2 CALLDATASIZE PUSH1 0x4 PUSH2 0x11F6 JUMP JUMPDEST PUSH2 0x532 JUMP JUMPDEST CALLER PUSH1 0x1 PUSH1 0x1 PUSH1 0xA0 SHL SUB PUSH32 0x0 AND EQ PUSH2 0x220 JUMPI PUSH1 0x40 MLOAD PUSH4 0xC6829F83 PUSH1 0xE0 SHL DUP2 MSTORE PUSH1 0x4 ADD PUSH1 0x40 MLOAD DUP1 SWAP2 SUB SWAP1 REVERT JUMPDEST PUSH2 0x22B DUP4 DUP4 DUP4 PUSH2 0x546 JUMP JUMPDEST PUSH1 0x40 MLOAD DUP4 SWAP1 PUSH32 0x85E1543BF2F84FE80C6BADBCE3648C8539AD1DF4D2B3D822938CA0538BE727E6 SWAP1 PUSH0 SWAP1 LOG2 POP POP POP JUMP JUMPDEST PUSH1 0x3 SLOAD PUSH1 0x1 PUSH1 0x1 PUSH1 0xA0 SHL SUB AND CALLER EQ PUSH2 0x2B2 JUMPI PUSH1 0x40 MLOAD PUSH3 0x461BCD PUSH1 0xE5 SHL DUP2 MSTORE PUSH1 0x20 PUSH1 0x4 DUP3 ADD MSTORE PUSH1 0x16 PUSH1 0x24 DUP3 ADD MSTORE PUSH22 0x26BAB9BA10313290383937B837B9B2B21037BBB732B9 PUSH1 0x51 SHL PUSH1 0x44 DUP3 ADD MSTORE PUSH1 0x64 ADD JUMPDEST PUSH1 0x40 MLOAD DUP1 SWAP2 SUB SWAP1 REVERT JUMPDEST PUSH1 0x2 DUP1 SLOAD PUSH1 0x1 PUSH1 0x1 PUSH1 0xA0 SHL SUB NOT DUP1 DUP3 AND CALLER SWAP1 DUP2 OR SWAP1 SWAP4 SSTORE PUSH1 0x3 DUP1 SLOAD SWAP1 SWAP2 AND SWAP1 SSTORE PUSH1 0x40 MLOAD PUSH1 0x1 PUSH1 0x1 PUSH1 0xA0 SHL SUB SWAP1 SWAP2 AND SWAP2 SWAP1 DUP3 SWAP1 PUSH32 0x8BE0079C531659141344CD1FD0A4F28419497F9722A3DAAFE3B4186F6B6457E0 SWAP1 PUSH0 SWAP1 LOG3 POP JUMP JUMPDEST PUSH1 0x4 SLOAD PUSH0 SWAP1 PUSH1 0x1 PUSH1 0x1 PUSH1 0xA0 SHL SUB AND CALLER EQ DUP1 ISZERO SWAP1 PUSH2 0x334 JUMPI POP PUSH1 0x2 SLOAD PUSH1 0x1 PUSH1 0x1 PUSH1 0xA0 SHL SUB AND CALLER EQ ISZERO JUMPDEST ISZERO PUSH2 0x352 JUMPI PUSH1 0x40 MLOAD PUSH4 0x2DC7D2F PUSH1 0xE2 SHL DUP2 MSTORE PUSH1 0x4 ADD PUSH1 0x40 MLOAD DUP1 SWAP2 SUB SWAP1 REVERT JUMPDEST PUSH2 0x390 PUSH1 0x40 DUP1 MLOAD PUSH1 0xE0 DUP2 ADD SWAP1 SWAP2 MSTORE DUP1 PUSH0 DUP2 MSTORE PUSH1 0x20 ADD PUSH0 DUP2 MSTORE PUSH1 0x20 ADD PUSH0 DUP2 MSTORE PUSH1 0x20 ADD PUSH1 0x60 DUP2 MSTORE PUSH1 0x20 ADD PUSH1 0x60 DUP2 MSTORE PUSH1 0x20 ADD PUSH1 0x60 DUP2 MSTORE PUSH1 0x20 ADD PUSH1 0x60 DUP2 MSTORE POP SWAP1 JUMP JUMPDEST PUSH2 0x3FC ADDRESS PUSH1 0x1 PUSH1 0x1 PUSH1 0xA0 SHL SUB AND PUSH4 0xBD9A548B PUSH1 0x40 MLOAD DUP2 PUSH4 0xFFFFFFFF AND PUSH1 0xE0 SHL DUP2 MSTORE PUSH1 0x4 ADD PUSH0 PUSH1 0x40 MLOAD DUP1 DUP4 SUB DUP2 DUP7 GAS STATICCALL ISZERO DUP1 ISZERO PUSH2 0x3CE JUMPI RETURNDATASIZE PUSH0 DUP1 RETURNDATACOPY RETURNDATASIZE PUSH0 REVERT JUMPDEST POP POP POP POP PUSH1 0x40 MLOAD RETURNDATASIZE PUSH0 DUP3 RETURNDATACOPY PUSH1 0x1F RETURNDATASIZE SWAP1 DUP2 ADD PUSH1 0x1F NOT AND DUP3 ADD PUSH1 0x40 MSTORE PUSH2 0x3F5 SWAP2 SWAP1 DUP2 ADD SWAP1 PUSH2 0x1233 JUMP JUMPDEST DUP3 SWAP1 PUSH2 0x605 JUMP JUMPDEST PUSH1 0x40 DUP1 MLOAD PUSH1 0x1 DUP1 DUP3 MSTORE DUP2 DUP4 ADD SWAP1 SWAP3 MSTORE PUSH0 SWAP2 DUP2 PUSH1 0x20 ADD JUMPDEST PUSH1 0x60 DUP2 MSTORE PUSH1 0x20 ADD SWAP1 PUSH1 0x1 SWAP1 SUB SWAP1 DUP2 PUSH2 0x412 JUMPI SWAP1 POP POP SWAP1 POP DUP7 DUP2 PUSH0 DUP2 MLOAD DUP2 LT PUSH2 0x43C JUMPI PUSH2 0x43C PUSH2 0x12A4 JUMP JUMPDEST PUSH1 0x20 SWAP1 DUP2 MUL SWAP2 SWAP1 SWAP2 ADD ADD MSTORE PUSH2 0x451 DUP3 DUP3 PUSH2 0x615 JUMP JUMPDEST PUSH2 0x465 PUSH2 0x45D DUP4 PUSH2 0x63E JUMP JUMPDEST DUP8 DUP8 DUP8 PUSH2 0x902 JUMP JUMPDEST SWAP8 SWAP7 POP POP POP POP POP POP POP JUMP JUMPDEST PUSH1 0x1 DUP1 SLOAD PUSH2 0x47D SWAP1 PUSH2 0x12B8 JUMP JUMPDEST DUP1 PUSH1 0x1F ADD PUSH1 0x20 DUP1 SWAP2 DIV MUL PUSH1 0x20 ADD PUSH1 0x40 MLOAD SWAP1 DUP2 ADD PUSH1 0x40 MSTORE DUP1 SWAP3 SWAP2 SWAP1 DUP2 DUP2 MSTORE PUSH1 0x20 ADD DUP3 DUP1 SLOAD PUSH2 0x4A9 SWAP1 PUSH2 0x12B8 JUMP JUMPDEST DUP1 ISZERO PUSH2 0x4F4 JUMPI DUP1 PUSH1 0x1F LT PUSH2 0x4CB JUMPI PUSH2 0x100 DUP1 DUP4 SLOAD DIV MUL DUP4 MSTORE SWAP2 PUSH1 0x20 ADD SWAP2 PUSH2 0x4F4 JUMP JUMPDEST DUP3 ADD SWAP2 SWAP1 PUSH0 MSTORE PUSH1 0x20 PUSH0 KECCAK256 SWAP1 JUMPDEST DUP2 SLOAD DUP2 MSTORE SWAP1 PUSH1 0x1 ADD SWAP1 PUSH1 0x20 ADD DUP1 DUP4 GT PUSH2 0x4D7 JUMPI DUP3 SWAP1 SUB PUSH1 0x1F AND DUP3 ADD SWAP2 JUMPDEST POP POP POP POP POP DUP2 JUMP JUMPDEST PUSH2 0x504 PUSH2 0x9CF JUMP JUMPDEST PUSH1 0x4 DUP1 SLOAD PUSH1 0x1 PUSH1 0x1 PUSH1 0xA0 SHL SUB NOT AND PUSH1 0x1 PUSH1 0x1 PUSH1 0xA0 SHL SUB SWAP3 SWAP1 SWAP3 AND SWAP2 SWAP1 SWAP2 OR SWAP1 SSTORE JUMP JUMPDEST PUSH0 DUP1 SLOAD PUSH2 0x47D SWAP1 PUSH2 0x12B8 JUMP JUMPDEST PUSH2 0x53A PUSH2 0x9CF JUMP JUMPDEST PUSH2 0x543 DUP2 PUSH2 0xA24 JUMP JUMPDEST POP JUMP JUMPDEST DUP1 MLOAD ISZERO PUSH2 0x567 JUMPI DUP1 PUSH1 0x40 MLOAD PUSH3 0x461BCD PUSH1 0xE5 SHL DUP2 MSTORE PUSH1 0x4 ADD PUSH2 0x2A9 SWAP2 SWAP1 PUSH2 0x11E4 JUMP JUMPDEST PUSH0 DUP1 PUSH0 DUP1 DUP6 DUP1 PUSH1 0x20 ADD SWAP1 MLOAD DUP2 ADD SWAP1 PUSH2 0x57F SWAP2 SWAP1 PUSH2 0x12F0 JUMP JUMPDEST PUSH1 0x40 DUP1 MLOAD PUSH1 0x60 DUP2 ADD DUP3 MSTORE PUSH10 0xFFFFFFFFFFFFFFFFFFFF SWAP5 DUP6 AND DUP2 MSTORE SWAP3 DUP5 AND PUSH1 0x20 DUP1 DUP6 ADD SWAP2 DUP3 MSTORE SWAP3 DUP6 AND DUP5 DUP4 ADD SWAP1 DUP2 MSTORE PUSH0 SWAP7 DUP8 MSTORE PUSH1 0x5 SWAP1 SWAP4 MSTORE SWAP5 KECCAK256 SWAP2 MLOAD DUP3 SLOAD SWAP5 MLOAD SWAP2 MLOAD DUP5 AND PUSH1 0x1 PUSH1 0xA0 SHL MUL PUSH10 0xFFFFFFFFFFFFFFFFFFFF PUSH1 0xA0 SHL NOT SWAP3 DUP6 AND PUSH1 0x1 PUSH1 0x50 SHL MUL PUSH1 0x1 PUSH1 0x1 PUSH1 0xA0 SHL SUB NOT SWAP1 SWAP7 AND SWAP2 SWAP1 SWAP5 AND OR SWAP4 SWAP1 SWAP4 OR SWAP3 SWAP1 SWAP3 AND OR SWAP1 SSTORE POP POP POP POP POP POP POP JUMP JUMPDEST PUSH2 0x611 DUP3 PUSH0 DUP1 DUP5 PUSH2 0xACD JUMP JUMPDEST POP POP JUMP JUMPDEST DUP1 MLOAD PUSH0 SUB PUSH2 0x636 JUMPI PUSH1 0x40 MLOAD PUSH4 0xFE936CB7 PUSH1 0xE0 SHL DUP2 MSTORE PUSH1 0x4 ADD PUSH1 0x40 MLOAD DUP1 SWAP2 SUB SWAP1 REVERT JUMPDEST PUSH1 0xA0 SWAP1 SWAP2 ADD MSTORE JUMP JUMPDEST PUSH1 0x60 PUSH0 PUSH2 0x64C PUSH2 0x100 PUSH2 0xB4A JUMP JUMPDEST SWAP1 POP PUSH2 0x685 PUSH1 0x40 MLOAD DUP1 PUSH1 0x40 ADD PUSH1 0x40 MSTORE DUP1 PUSH1 0xC DUP2 MSTORE PUSH1 0x20 ADD PUSH12 0x31B7B232A637B1B0BA34B7B7 PUSH1 0xA1 SHL DUP2 MSTORE POP DUP3 PUSH2 0xB6A SWAP1 SWAP2 SWAP1 PUSH4 0xFFFFFFFF AND JUMP JUMPDEST DUP3 MLOAD PUSH2 0x6A3 SWAP1 PUSH1 0x2 DUP2 GT ISZERO PUSH2 0x69C JUMPI PUSH2 0x69C PUSH2 0x1323 JUMP JUMPDEST DUP3 SWAP1 PUSH2 0xB88 JUMP JUMPDEST PUSH1 0x40 DUP1 MLOAD DUP1 DUP3 ADD SWAP1 SWAP2 MSTORE PUSH1 0x8 DUP2 MSTORE PUSH8 0x6C616E6775616765 PUSH1 0xC0 SHL PUSH1 0x20 DUP3 ADD MSTORE PUSH2 0x6CD SWAP1 DUP3 SWAP1 PUSH2 0xB6A JUMP JUMPDEST PUSH1 0x40 DUP4 ADD MLOAD PUSH2 0x6E4 SWAP1 DUP1 ISZERO PUSH2 0x69C JUMPI PUSH2 0x69C PUSH2 0x1323 JUMP JUMPDEST PUSH1 0x40 DUP1 MLOAD DUP1 DUP3 ADD SWAP1 SWAP2 MSTORE PUSH1 0x6 DUP2 MSTORE PUSH6 0x736F75726365 PUSH1 0xD0 SHL PUSH1 0x20 DUP3 ADD MSTORE PUSH2 0x70C SWAP1 DUP3 SWAP1 PUSH2 0xB6A JUMP JUMPDEST PUSH1 0x60 DUP4 ADD MLOAD PUSH2 0x71C SWAP1 DUP3 SWAP1 PUSH2 0xB6A JUMP JUMPDEST PUSH1 0xA0 DUP4 ADD MLOAD MLOAD ISZERO PUSH2 0x7A7 JUMPI PUSH1 0x40 DUP1 MLOAD DUP1 DUP3 ADD SWAP1 SWAP2 MSTORE PUSH1 0x4 DUP2 MSTORE PUSH4 0x61726773 PUSH1 0xE0 SHL PUSH1 0x20 DUP3 ADD MSTORE PUSH2 0x74D SWAP1 DUP3 SWAP1 PUSH2 0xB6A JUMP JUMPDEST PUSH2 0x756 DUP2 PUSH2 0xBC1 JUMP JUMPDEST PUSH0 JUMPDEST DUP4 PUSH1 0xA0 ADD MLOAD MLOAD DUP2 LT ISZERO PUSH2 0x79D JUMPI PUSH2 0x795 DUP5 PUSH1 0xA0 ADD MLOAD DUP3 DUP2 MLOAD DUP2 LT PUSH2 0x77E JUMPI PUSH2 0x77E PUSH2 0x12A4 JUMP JUMPDEST PUSH1 0x20 MUL PUSH1 0x20 ADD ADD MLOAD DUP4 PUSH2 0xB6A SWAP1 SWAP2 SWAP1 PUSH4 0xFFFFFFFF AND JUMP JUMPDEST PUSH1 0x1 ADD PUSH2 0x758 JUMP JUMPDEST POP PUSH2 0x7A7 DUP2 PUSH2 0xBE5 JUMP JUMPDEST PUSH1 0x80 DUP4 ADD MLOAD MLOAD ISZERO PUSH2 0x86A JUMPI PUSH0 DUP4 PUSH1 0x20 ADD MLOAD PUSH1 0x2 DUP2 GT ISZERO PUSH2 0x7C9 JUMPI PUSH2 0x7C9 PUSH2 0x1323 JUMP JUMPDEST SUB PUSH2 0x7E7 JUMPI PUSH1 0x40 MLOAD PUSH4 0xA80D31F7 PUSH1 0xE0 SHL DUP2 MSTORE PUSH1 0x4 ADD PUSH1 0x40 MLOAD DUP1 SWAP2 SUB SWAP1 REVERT JUMPDEST PUSH1 0x40 DUP1 MLOAD DUP1 DUP3 ADD SWAP1 SWAP2 MSTORE PUSH1 0xF DUP2 MSTORE PUSH15 0x39B2B1B932BA39A637B1B0BA34B7B7 PUSH1 0x89 SHL PUSH1 0x20 DUP3 ADD MSTORE PUSH2 0x818 SWAP1 DUP3 SWAP1 PUSH2 0xB6A JUMP JUMPDEST PUSH2 0x831 DUP4 PUSH1 0x20 ADD MLOAD PUSH1 0x2 DUP2 GT ISZERO PUSH2 0x69C JUMPI PUSH2 0x69C PUSH2 0x1323 JUMP JUMPDEST PUSH1 0x40 DUP1 MLOAD DUP1 DUP3 ADD SWAP1 SWAP2 MSTORE PUSH1 0x7 DUP2 MSTORE PUSH7 0x73656372657473 PUSH1 0xC8 SHL PUSH1 0x20 DUP3 ADD MSTORE PUSH2 0x85A SWAP1 DUP3 SWAP1 PUSH2 0xB6A JUMP JUMPDEST PUSH1 0x80 DUP4 ADD MLOAD PUSH2 0x86A SWAP1 DUP3 SWAP1 PUSH2 0xC03 JUMP JUMPDEST PUSH1 0xC0 DUP4 ADD MLOAD MLOAD ISZERO PUSH2 0x8FA JUMPI PUSH1 0x40 DUP1 MLOAD DUP1 DUP3 ADD SWAP1 SWAP2 MSTORE PUSH1 0x9 DUP2 MSTORE PUSH9 0x627974657341726773 PUSH1 0xB8 SHL PUSH1 0x20 DUP3 ADD MSTORE PUSH2 0x8A0 SWAP1 DUP3 SWAP1 PUSH2 0xB6A JUMP JUMPDEST PUSH2 0x8A9 DUP2 PUSH2 0xBC1 JUMP JUMPDEST PUSH0 JUMPDEST DUP4 PUSH1 0xC0 ADD MLOAD MLOAD DUP2 LT ISZERO PUSH2 0x8F0 JUMPI PUSH2 0x8E8 DUP5 PUSH1 0xC0 ADD MLOAD DUP3 DUP2 MLOAD DUP2 LT PUSH2 0x8D1 JUMPI PUSH2 0x8D1 PUSH2 0x12A4 JUMP JUMPDEST PUSH1 0x20 MUL PUSH1 0x20 ADD ADD MLOAD DUP4 PUSH2 0xC03 SWAP1 SWAP2 SWAP1 PUSH4 0xFFFFFFFF AND JUMP JUMPDEST PUSH1 0x1 ADD PUSH2 0x8AB JUMP JUMPDEST POP PUSH2 0x8FA DUP2 PUSH2 0xBE5 JUMP JUMPDEST MLOAD MLOAD SWAP3 SWAP2 POP POP JUMP JUMPDEST PUSH0 DUP1 PUSH32 0x0 PUSH1 0x1 PUSH1 0x1 PUSH1 0xA0 SHL SUB AND PUSH4 0x461D2762 DUP7 DUP9 PUSH1 0x1 DUP9 DUP9 PUSH1 0x40 MLOAD DUP7 PUSH4 0xFFFFFFFF AND PUSH1 0xE0 SHL DUP2 MSTORE PUSH1 0x4 ADD PUSH2 0x959 SWAP6 SWAP5 SWAP4 SWAP3 SWAP2 SWAP1 PUSH2 0x1337 JUMP JUMPDEST PUSH1 0x20 PUSH1 0x40 MLOAD DUP1 DUP4 SUB DUP2 PUSH0 DUP8 GAS CALL ISZERO DUP1 ISZERO PUSH2 0x975 JUMPI RETURNDATASIZE PUSH0 DUP1 RETURNDATACOPY RETURNDATASIZE PUSH0 REVERT JUMPDEST POP POP POP POP PUSH1 0x40 MLOAD RETURNDATASIZE PUSH1 0x1F NOT PUSH1 0x1F DUP3 ADD AND DUP3 ADD DUP1 PUSH1 0x40 MSTORE POP DUP2 ADD SWAP1 PUSH2 0x999 SWAP2 SWAP1 PUSH2 0x137F JUMP JUMPDEST PUSH1 0x40 MLOAD SWAP1 SWAP2 POP DUP2 SWAP1 PUSH32 0x1131472297A800FEE664D1D89CFA8F7676FF07189ECC53F80BBB5F4969099DB8 SWAP1 PUSH0 SWAP1 LOG2 SWAP6 SWAP5 POP POP POP POP POP JUMP JUMPDEST PUSH1 0x2 SLOAD PUSH1 0x1 PUSH1 0x1 PUSH1 0xA0 SHL SUB AND CALLER EQ PUSH2 0xA22 JUMPI PUSH1 0x40 MLOAD PUSH3 0x461BCD PUSH1 0xE5 SHL DUP2 MSTORE PUSH1 0x20 PUSH1 0x4 DUP3 ADD MSTORE PUSH1 0x16 PUSH1 0x24 DUP3 ADD MSTORE PUSH22 0x27B7363C9031B0B63630B1363290313C9037BBB732B9 PUSH1 0x51 SHL PUSH1 0x44 DUP3 ADD MSTORE PUSH1 0x64 ADD PUSH2 0x2A9 JUMP JUMPDEST JUMP JUMPDEST CALLER PUSH1 0x1 PUSH1 0x1 PUSH1 0xA0 SHL SUB DUP3 AND SUB PUSH2 0xA7C JUMPI PUSH1 0x40 MLOAD PUSH3 0x461BCD PUSH1 0xE5 SHL DUP2 MSTORE PUSH1 0x20 PUSH1 0x4 DUP3 ADD MSTORE PUSH1 0x17 PUSH1 0x24 DUP3 ADD MSTORE PUSH32 0x43616E6E6F74207472616E7366657220746F2073656C66000000000000000000 PUSH1 0x44 DUP3 ADD MSTORE PUSH1 0x64 ADD PUSH2 0x2A9 JUMP JUMPDEST PUSH1 0x3 DUP1 SLOAD PUSH1 0x1 PUSH1 0x1 PUSH1 0xA0 SHL SUB NOT AND PUSH1 0x1 PUSH1 0x1 PUSH1 0xA0 SHL SUB DUP4 DUP2 AND SWAP2 DUP3 OR SWAP1 SWAP3 SSTORE PUSH1 0x2 SLOAD PUSH1 0x40 MLOAD SWAP2 SWAP3 AND SWAP1 PUSH32 0xED8889F560326EB138920D842192F0EB3DD22B4F139C87A2C57538E05BAE1278 SWAP1 PUSH0 SWAP1 LOG3 POP JUMP JUMPDEST DUP1 MLOAD PUSH0 SUB PUSH2 0xAEE JUMPI PUSH1 0x40 MLOAD PUSH4 0x22CE3EDD PUSH1 0xE0 SHL DUP2 MSTORE PUSH1 0x4 ADD PUSH1 0x40 MLOAD DUP1 SWAP2 SUB SWAP1 REVERT JUMPDEST DUP4 DUP4 PUSH1 0x2 DUP2 GT ISZERO PUSH2 0xB01 JUMPI PUSH2 0xB01 PUSH2 0x1323 JUMP JUMPDEST SWAP1 DUP2 PUSH1 0x2 DUP2 GT ISZERO PUSH2 0xB14 JUMPI PUSH2 0xB14 PUSH2 0x1323 JUMP JUMPDEST SWAP1 MSTORE POP PUSH1 0x40 DUP5 ADD DUP3 DUP1 ISZERO PUSH2 0xB2A JUMPI PUSH2 0xB2A PUSH2 0x1323 JUMP JUMPDEST SWAP1 DUP2 DUP1 ISZERO PUSH2 0xB3A JUMPI PUSH2 0xB3A PUSH2 0x1323 JUMP JUMPDEST SWAP1 MSTORE POP PUSH1 0x60 SWAP1 SWAP4 ADD SWAP3 SWAP1 SWAP3 MSTORE POP POP JUMP JUMPDEST PUSH2 0xB52 PUSH2 0xFB0 JUMP JUMPDEST DUP1 MLOAD PUSH2 0xB5E SWAP1 DUP4 PUSH2 0xC10 JUMP JUMPDEST POP PUSH0 PUSH1 0x20 DUP3 ADD MSTORE SWAP2 SWAP1 POP JUMP JUMPDEST PUSH2 0xB77 DUP3 PUSH1 0x3 DUP4 MLOAD PUSH2 0xC87 JUMP JUMPDEST DUP2 MLOAD PUSH2 0xB83 SWAP1 DUP3 PUSH2 0xDA6 JUMP JUMPDEST POP POP POP JUMP JUMPDEST DUP2 MLOAD PUSH2 0xB95 SWAP1 PUSH1 0xC2 PUSH2 0xDCD JUMP JUMPDEST POP PUSH2 0x611 DUP3 DUP3 PUSH1 0x40 MLOAD PUSH1 0x20 ADD PUSH2 0xBAD SWAP2 DUP2 MSTORE PUSH1 0x20 ADD SWAP1 JUMP JUMPDEST PUSH1 0x40 MLOAD PUSH1 0x20 DUP2 DUP4 SUB SUB DUP2 MSTORE SWAP1 PUSH1 0x40 MSTORE PUSH2 0xC03 JUMP JUMPDEST PUSH2 0xBCC DUP2 PUSH1 0x4 PUSH2 0xE34 JUMP JUMPDEST PUSH1 0x1 DUP2 PUSH1 0x20 ADD DUP2 DUP2 MLOAD PUSH2 0xBDF SWAP2 SWAP1 PUSH2 0x13AA JUMP JUMPDEST SWAP1 MSTORE POP POP JUMP JUMPDEST PUSH2 0xBF0 DUP2 PUSH1 0x7 PUSH2 0xE34 JUMP JUMPDEST PUSH1 0x1 DUP2 PUSH1 0x20 ADD DUP2 DUP2 MLOAD PUSH2 0xBDF SWAP2 SWAP1 PUSH2 0x13BD JUMP JUMPDEST PUSH2 0xB77 DUP3 PUSH1 0x2 DUP4 MLOAD PUSH2 0xC87 JUMP JUMPDEST PUSH1 0x40 DUP1 MLOAD DUP1 DUP3 ADD SWAP1 SWAP2 MSTORE PUSH1 0x60 DUP2 MSTORE PUSH0 PUSH1 0x20 DUP3 ADD MSTORE PUSH2 0xC2F PUSH1 0x20 DUP4 PUSH2 0x13D0 JUMP JUMPDEST ISZERO PUSH2 0xC57 JUMPI PUSH2 0xC3F PUSH1 0x20 DUP4 PUSH2 0x13D0 JUMP JUMPDEST PUSH2 0xC4A SWAP1 PUSH1 0x20 PUSH2 0x13BD JUMP JUMPDEST PUSH2 0xC54 SWAP1 DUP4 PUSH2 0x13AA JUMP JUMPDEST SWAP2 POP JUMPDEST PUSH1 0x20 DUP1 DUP5 ADD DUP4 SWAP1 MSTORE PUSH1 0x40 MLOAD DUP1 DUP6 MSTORE PUSH0 DUP2 MSTORE SWAP1 DUP2 DUP5 ADD ADD DUP2 DUP2 LT ISZERO PUSH2 0xC79 JUMPI PUSH0 DUP1 REVERT JUMPDEST PUSH1 0x40 MSTORE POP DUP3 SWAP1 POP JUMPDEST SWAP3 SWAP2 POP POP JUMP JUMPDEST PUSH1 0x17 DUP2 PUSH1 0x1 PUSH1 0x1 PUSH1 0x40 SHL SUB AND GT PUSH2 0xCB3 JUMPI DUP3 MLOAD PUSH2 0xCAD SWAP1 PUSH1 0xE0 PUSH1 0x5 DUP6 SWAP1 SHL AND DUP4 OR PUSH2 0xDCD JUMP JUMPDEST POP POP POP POP JUMP JUMPDEST PUSH1 0xFF DUP2 PUSH1 0x1 PUSH1 0x1 PUSH1 0x40 SHL SUB AND GT PUSH2 0xCF3 JUMPI DUP3 MLOAD PUSH2 0xCDB SWAP1 PUSH1 0x18 PUSH2 0x1FE0 PUSH1 0x5 DUP7 SWAP1 SHL AND OR PUSH2 0xDCD JUMP JUMPDEST POP DUP3 MLOAD PUSH2 0xCAD SWAP1 PUSH1 0x1 PUSH1 0x1 PUSH1 0x40 SHL SUB DUP4 AND PUSH1 0x1 PUSH2 0xE4B JUMP JUMPDEST PUSH2 0xFFFF DUP2 PUSH1 0x1 PUSH1 0x1 PUSH1 0x40 SHL SUB AND GT PUSH2 0xD34 JUMPI DUP3 MLOAD PUSH2 0xD1C SWAP1 PUSH1 0x19 PUSH2 0x1FE0 PUSH1 0x5 DUP7 SWAP1 SHL AND OR PUSH2 0xDCD JUMP JUMPDEST POP DUP3 MLOAD PUSH2 0xCAD SWAP1 PUSH1 0x1 PUSH1 0x1 PUSH1 0x40 SHL SUB DUP4 AND PUSH1 0x2 PUSH2 0xE4B JUMP JUMPDEST PUSH4 0xFFFFFFFF DUP2 PUSH1 0x1 PUSH1 0x1 PUSH1 0x40 SHL SUB AND GT PUSH2 0xD77 JUMPI DUP3 MLOAD PUSH2 0xD5F SWAP1 PUSH1 0x1A PUSH2 0x1FE0 PUSH1 0x5 DUP7 SWAP1 SHL AND OR PUSH2 0xDCD JUMP JUMPDEST POP DUP3 MLOAD PUSH2 0xCAD SWAP1 PUSH1 0x1 PUSH1 0x1 PUSH1 0x40 SHL SUB DUP4 AND PUSH1 0x4 PUSH2 0xE4B JUMP JUMPDEST DUP3 MLOAD PUSH2 0xD8E SWAP1 PUSH1 0x1B PUSH2 0x1FE0 PUSH1 0x5 DUP7 SWAP1 SHL AND OR PUSH2 0xDCD JUMP JUMPDEST POP DUP3 MLOAD PUSH2 0xCAD SWAP1 PUSH1 0x1 PUSH1 0x1 PUSH1 0x40 SHL SUB DUP4 AND PUSH1 0x8 PUSH2 0xE4B JUMP JUMPDEST PUSH1 0x40 DUP1 MLOAD DUP1 DUP3 ADD SWAP1 SWAP2 MSTORE PUSH1 0x60 DUP2 MSTORE PUSH0 PUSH1 0x20 DUP3 ADD MSTORE PUSH2 0xDC6 DUP4 DUP4 DUP5 MLOAD PUSH2 0xECD JUMP JUMPDEST SWAP4 SWAP3 POP POP POP JUMP JUMPDEST PUSH1 0x40 DUP1 MLOAD DUP1 DUP3 ADD SWAP1 SWAP2 MSTORE PUSH1 0x60 DUP2 MSTORE PUSH0 PUSH1 0x20 DUP3 ADD MSTORE DUP3 MLOAD MLOAD PUSH0 PUSH2 0xDF0 DUP3 PUSH1 0x1 PUSH2 0x13AA JUMP JUMPDEST SWAP1 POP DUP5 PUSH1 0x20 ADD MLOAD DUP3 LT PUSH2 0xE11 JUMPI PUSH2 0xE11 DUP6 PUSH2 0xE0C DUP4 PUSH1 0x2 PUSH2 0x13EF JUMP JUMPDEST PUSH2 0xF99 JUMP JUMPDEST DUP5 MLOAD PUSH1 0x20 DUP4 DUP3 ADD ADD DUP6 DUP2 MSTORE8 POP DUP1 MLOAD DUP3 GT ISZERO PUSH2 0xE2A JUMPI DUP2 DUP2 MSTORE JUMPDEST POP SWAP4 SWAP5 SWAP4 POP POP POP POP JUMP JUMPDEST DUP2 MLOAD PUSH2 0xB83 SWAP1 PUSH1 0x1F PUSH2 0x1FE0 PUSH1 0x5 DUP6 SWAP1 SHL AND OR PUSH2 0xDCD JUMP JUMPDEST PUSH1 0x40 DUP1 MLOAD DUP1 DUP3 ADD SWAP1 SWAP2 MSTORE PUSH1 0x60 DUP2 MSTORE PUSH0 PUSH1 0x20 DUP3 ADD MSTORE DUP4 MLOAD MLOAD PUSH0 PUSH2 0xE6D DUP3 DUP6 PUSH2 0x13AA JUMP JUMPDEST SWAP1 POP DUP6 PUSH1 0x20 ADD MLOAD DUP2 GT ISZERO PUSH2 0xE8A JUMPI PUSH2 0xE8A DUP7 PUSH2 0xE0C DUP4 PUSH1 0x2 PUSH2 0x13EF JUMP JUMPDEST PUSH0 PUSH1 0x1 PUSH2 0xE99 DUP7 PUSH2 0x100 PUSH2 0x14E6 JUMP JUMPDEST PUSH2 0xEA3 SWAP2 SWAP1 PUSH2 0x13BD JUMP JUMPDEST SWAP1 POP DUP7 MLOAD DUP3 DUP2 ADD DUP8 DUP4 NOT DUP3 MLOAD AND OR DUP2 MSTORE POP DUP1 MLOAD DUP4 GT ISZERO PUSH2 0xEC1 JUMPI DUP3 DUP2 MSTORE JUMPDEST POP SWAP6 SWAP7 SWAP6 POP POP POP POP POP POP JUMP JUMPDEST PUSH1 0x40 DUP1 MLOAD DUP1 DUP3 ADD SWAP1 SWAP2 MSTORE PUSH1 0x60 DUP2 MSTORE PUSH0 PUSH1 0x20 DUP3 ADD MSTORE DUP3 MLOAD DUP3 GT ISZERO PUSH2 0xEEE JUMPI PUSH0 DUP1 REVERT JUMPDEST DUP4 MLOAD MLOAD PUSH0 PUSH2 0xEFC DUP5 DUP4 PUSH2 0x13AA JUMP JUMPDEST SWAP1 POP DUP6 PUSH1 0x20 ADD MLOAD DUP2 GT ISZERO PUSH2 0xF19 JUMPI PUSH2 0xF19 DUP7 PUSH2 0xE0C DUP4 PUSH1 0x2 PUSH2 0x13EF JUMP JUMPDEST DUP6 MLOAD DUP1 MLOAD DUP4 DUP3 ADD PUSH1 0x20 ADD SWAP2 PUSH0 SWAP2 DUP1 DUP6 GT ISZERO PUSH2 0xF32 JUMPI DUP5 DUP3 MSTORE JUMPDEST POP POP POP PUSH1 0x20 DUP7 ADD JUMPDEST PUSH1 0x20 DUP7 LT PUSH2 0xF72 JUMPI DUP1 MLOAD DUP3 MSTORE PUSH2 0xF51 PUSH1 0x20 DUP4 PUSH2 0x13AA JUMP JUMPDEST SWAP2 POP PUSH2 0xF5E PUSH1 0x20 DUP3 PUSH2 0x13AA JUMP JUMPDEST SWAP1 POP PUSH2 0xF6B PUSH1 0x20 DUP8 PUSH2 0x13BD JUMP JUMPDEST SWAP6 POP PUSH2 0xF3A JUMP JUMPDEST MLOAD DUP2 MLOAD PUSH0 NOT PUSH1 0x20 DUP9 SWAP1 SUB PUSH2 0x100 EXP ADD SWAP1 DUP2 AND SWAP1 NOT SWAP2 SWAP1 SWAP2 AND OR SWAP1 MSTORE POP DUP5 SWAP2 POP POP SWAP4 SWAP3 POP POP POP JUMP JUMPDEST DUP2 MLOAD PUSH2 0xFA5 DUP4 DUP4 PUSH2 0xC10 JUMP JUMPDEST POP PUSH2 0xCAD DUP4 DUP3 PUSH2 0xDA6 JUMP JUMPDEST PUSH1 0x40 MLOAD DUP1 PUSH1 0x40 ADD PUSH1 0x40 MSTORE DUP1 PUSH2 0xFD7 PUSH1 0x40 MLOAD DUP1 PUSH1 0x40 ADD PUSH1 0x40 MSTORE DUP1 PUSH1 0x60 DUP2 MSTORE PUSH1 0x20 ADD PUSH0 DUP2 MSTORE POP SWAP1 JUMP JUMPDEST DUP2 MSTORE PUSH1 0x20 ADD PUSH0 DUP2 MSTORE POP SWAP1 JUMP JUMPDEST PUSH4 0x4E487B71 PUSH1 0xE0 SHL PUSH0 MSTORE PUSH1 0x41 PUSH1 0x4 MSTORE PUSH1 0x24 PUSH0 REVERT JUMPDEST PUSH1 0x40 MLOAD PUSH1 0x1F DUP3 ADD PUSH1 0x1F NOT AND DUP2 ADD PUSH1 0x1 PUSH1 0x1 PUSH1 0x40 SHL SUB DUP2 GT DUP3 DUP3 LT OR ISZERO PUSH2 0x101F JUMPI PUSH2 0x101F PUSH2 0xFE3 JUMP JUMPDEST PUSH1 0x40 MSTORE SWAP2 SWAP1 POP JUMP JUMPDEST PUSH0 PUSH1 0x1 PUSH1 0x1 PUSH1 0x40 SHL SUB DUP3 GT ISZERO PUSH2 0x103F JUMPI PUSH2 0x103F PUSH2 0xFE3 JUMP JUMPDEST POP PUSH1 0x1F ADD PUSH1 0x1F NOT AND PUSH1 0x20 ADD SWAP1 JUMP JUMPDEST PUSH0 PUSH2 0x105F PUSH2 0x105A DUP5 PUSH2 0x1027 JUMP JUMPDEST PUSH2 0xFF7 JUMP JUMPDEST SWAP1 POP DUP3 DUP2 MSTORE DUP4 DUP4 DUP4 ADD GT ISZERO PUSH2 0x1072 JUMPI PUSH0 DUP1 REVERT JUMPDEST DUP3 DUP3 PUSH1 0x20 DUP4 ADD CALLDATACOPY PUSH0 PUSH1 0x20 DUP5 DUP4 ADD ADD MSTORE SWAP4 SWAP3 POP POP POP JUMP JUMPDEST PUSH0 DUP3 PUSH1 0x1F DUP4 ADD SLT PUSH2 0x1097 JUMPI PUSH0 DUP1 REVERT JUMPDEST PUSH2 0xDC6 DUP4 DUP4 CALLDATALOAD PUSH1 0x20 DUP6 ADD PUSH2 0x104D JUMP JUMPDEST PUSH0 DUP1 PUSH0 PUSH1 0x60 DUP5 DUP7 SUB SLT ISZERO PUSH2 0x10B8 JUMPI PUSH0 DUP1 REVERT JUMPDEST DUP4 CALLDATALOAD SWAP3 POP PUSH1 0x20 DUP5 ADD CALLDATALOAD PUSH1 0x1 PUSH1 0x1 PUSH1 0x40 SHL SUB DUP1 DUP3 GT ISZERO PUSH2 0x10D5 JUMPI PUSH0 DUP1 REVERT JUMPDEST PUSH2 0x10E1 DUP8 DUP4 DUP9 ADD PUSH2 0x1088 JUMP JUMPDEST SWAP4 POP PUSH1 0x40 DUP7 ADD CALLDATALOAD SWAP2 POP DUP1 DUP3 GT ISZERO PUSH2 0x10F6 JUMPI PUSH0 DUP1 REVERT JUMPDEST POP PUSH2 0x1103 DUP7 DUP3 DUP8 ADD PUSH2 0x1088 JUMP JUMPDEST SWAP2 POP POP SWAP3 POP SWAP3 POP SWAP3 JUMP JUMPDEST PUSH0 DUP1 PUSH0 DUP1 PUSH1 0x80 DUP6 DUP8 SUB SLT ISZERO PUSH2 0x1120 JUMPI PUSH0 DUP1 REVERT JUMPDEST DUP5 CALLDATALOAD PUSH1 0x1 PUSH1 0x1 PUSH1 0x40 SHL SUB DUP1 DUP3 GT ISZERO PUSH2 0x1136 JUMPI PUSH0 DUP1 REVERT JUMPDEST DUP2 DUP8 ADD SWAP2 POP DUP8 PUSH1 0x1F DUP4 ADD SLT PUSH2 0x1149 JUMPI PUSH0 DUP1 REVERT JUMPDEST PUSH2 0x1158 DUP9 DUP4 CALLDATALOAD PUSH1 0x20 DUP6 ADD PUSH2 0x104D JUMP JUMPDEST SWAP6 POP PUSH1 0x20 DUP8 ADD CALLDATALOAD SWAP2 POP DUP1 DUP3 AND DUP3 EQ PUSH2 0x116E JUMPI PUSH0 DUP1 REVERT JUMPDEST POP SWAP3 POP PUSH1 0x40 DUP6 ADD CALLDATALOAD PUSH4 0xFFFFFFFF DUP2 AND DUP2 EQ PUSH2 0x1187 JUMPI PUSH0 DUP1 REVERT JUMPDEST SWAP4 SWAP7 SWAP3 SWAP6 POP SWAP3 SWAP4 PUSH1 0x60 ADD CALLDATALOAD SWAP3 POP POP JUMP JUMPDEST PUSH0 JUMPDEST DUP4 DUP2 LT ISZERO PUSH2 0x11B1 JUMPI DUP2 DUP2 ADD MLOAD DUP4 DUP3 ADD MSTORE PUSH1 0x20 ADD PUSH2 0x1199 JUMP JUMPDEST POP POP PUSH0 SWAP2 ADD MSTORE JUMP JUMPDEST PUSH0 DUP2 MLOAD DUP1 DUP5 MSTORE PUSH2 0x11D0 DUP2 PUSH1 0x20 DUP7 ADD PUSH1 0x20 DUP7 ADD PUSH2 0x1197 JUMP JUMPDEST PUSH1 0x1F ADD PUSH1 0x1F NOT AND SWAP3 SWAP1 SWAP3 ADD PUSH1 0x20 ADD SWAP3 SWAP2 POP POP JUMP JUMPDEST PUSH1 0x20 DUP2 MSTORE PUSH0 PUSH2 0xDC6 PUSH1 0x20 DUP4 ADD DUP5 PUSH2 0x11B9 JUMP JUMPDEST PUSH0 PUSH1 0x20 DUP3 DUP5 SUB SLT ISZERO PUSH2 0x1206 JUMPI PUSH0 DUP1 REVERT JUMPDEST DUP2 CALLDATALOAD PUSH1 0x1 PUSH1 0x1 PUSH1 0xA0 SHL SUB DUP2 AND DUP2 EQ PUSH2 0xDC6 JUMPI PUSH0 DUP1 REVERT JUMPDEST PUSH0 PUSH1 0x20 DUP3 DUP5 SUB SLT ISZERO PUSH2 0x122C JUMPI PUSH0 DUP1 REVERT JUMPDEST POP CALLDATALOAD SWAP2 SWAP1 POP JUMP JUMPDEST PUSH0 PUSH1 0x20 DUP3 DUP5 SUB SLT ISZERO PUSH2 0x1243 JUMPI PUSH0 DUP1 REVERT JUMPDEST DUP2 MLOAD PUSH1 0x1 PUSH1 0x1 PUSH1 0x40 SHL SUB DUP2 GT ISZERO PUSH2 0x1258 JUMPI PUSH0 DUP1 REVERT JUMPDEST DUP3 ADD PUSH1 0x1F DUP2 ADD DUP5 SGT PUSH2 0x1268 JUMPI PUSH0 DUP1 REVERT JUMPDEST DUP1 MLOAD PUSH2 0x1276 PUSH2 0x105A DUP3 PUSH2 0x1027 JUMP JUMPDEST DUP2 DUP2 MSTORE DUP6 PUSH1 0x20 DUP4 DUP6 ADD ADD GT ISZERO PUSH2 0x128A JUMPI PUSH0 DUP1 REVERT JUMPDEST PUSH2 0x129B DUP3 PUSH1 0x20 DUP4 ADD PUSH1 0x20 DUP7 ADD PUSH2 0x1197 JUMP JUMPDEST SWAP6 SWAP5 POP POP POP POP POP JUMP JUMPDEST PUSH4 0x4E487B71 PUSH1 0xE0 SHL PUSH0 MSTORE PUSH1 0x32 PUSH1 0x4 MSTORE PUSH1 0x24 PUSH0 REVERT JUMPDEST PUSH1 0x1 DUP2 DUP2 SHR SWAP1 DUP3 AND DUP1 PUSH2 0x12CC JUMPI PUSH1 0x7F DUP3 AND SWAP2 POP JUMPDEST PUSH1 0x20 DUP3 LT DUP2 SUB PUSH2 0x12EA JUMPI PUSH4 0x4E487B71 PUSH1 0xE0 SHL PUSH0 MSTORE PUSH1 0x22 PUSH1 0x4 MSTORE PUSH1 0x24 PUSH0 REVERT JUMPDEST POP SWAP2 SWAP1 POP JUMP JUMPDEST PUSH0 DUP1 PUSH0 DUP1 PUSH1 0x80 DUP6 DUP8 SUB SLT ISZERO PUSH2 0x1303 JUMPI PUSH0 DUP1 REVERT JUMPDEST POP POP DUP3 MLOAD PUSH1 0x20 DUP5 ADD MLOAD PUSH1 0x40 DUP6 ADD MLOAD PUSH1 0x60 SWAP1 SWAP6 ADD MLOAD SWAP2 SWAP7 SWAP1 SWAP6 POP SWAP1 SWAP3 POP SWAP1 POP JUMP JUMPDEST PUSH4 0x4E487B71 PUSH1 0xE0 SHL PUSH0 MSTORE PUSH1 0x21 PUSH1 0x4 MSTORE PUSH1 0x24 PUSH0 REVERT JUMPDEST PUSH1 0x1 PUSH1 0x1 PUSH1 0x40 SHL SUB DUP7 AND DUP2 MSTORE PUSH1 0xA0 PUSH1 0x20 DUP3 ADD MSTORE PUSH0 PUSH2 0x1358 PUSH1 0xA0 DUP4 ADD DUP8 PUSH2 0x11B9 JUMP JUMPDEST PUSH2 0xFFFF SWAP6 SWAP1 SWAP6 AND PUSH1 0x40 DUP4 ADD MSTORE POP PUSH4 0xFFFFFFFF SWAP3 SWAP1 SWAP3 AND PUSH1 0x60 DUP4 ADD MSTORE PUSH1 0x80 SWAP1 SWAP2 ADD MSTORE SWAP3 SWAP2 POP POP JUMP JUMPDEST PUSH0 PUSH1 0x20 DUP3 DUP5 SUB SLT ISZERO PUSH2 0x138F JUMPI PUSH0 DUP1 REVERT JUMPDEST POP MLOAD SWAP2 SWAP1 POP JUMP JUMPDEST PUSH4 0x4E487B71 PUSH1 0xE0 SHL PUSH0 MSTORE PUSH1 0x11 PUSH1 0x4 MSTORE PUSH1 0x24 PUSH0 REVERT JUMPDEST DUP1 DUP3 ADD DUP1 DUP3 GT ISZERO PUSH2 0xC81 JUMPI PUSH2 0xC81 PUSH2 0x1396 JUMP JUMPDEST DUP2 DUP2 SUB DUP2 DUP2 GT ISZERO PUSH2 0xC81 JUMPI PUSH2 0xC81 PUSH2 0x1396 JUMP JUMPDEST PUSH0 DUP3 PUSH2 0x13EA JUMPI PUSH4 0x4E487B71 PUSH1 0xE0 SHL PUSH0 MSTORE PUSH1 0x12 PUSH1 0x4 MSTORE PUSH1 0x24 PUSH0 REVERT JUMPDEST POP MOD SWAP1 JUMP JUMPDEST DUP1 DUP3 MUL DUP2 ISZERO DUP3 DUP3 DIV DUP5 EQ OR PUSH2 0xC81 JUMPI PUSH2 0xC81 PUSH2 0x1396 JUMP JUMPDEST PUSH1 0x1 DUP2 DUP2 JUMPDEST DUP1 DUP6 GT ISZERO PUSH2 0x1440 JUMPI DUP2 PUSH0 NOT DIV DUP3 GT ISZERO PUSH2 0x1426 JUMPI PUSH2 0x1426 PUSH2 0x1396 JUMP JUMPDEST DUP1 DUP6 AND ISZERO PUSH2 0x1433 JUMPI SWAP2 DUP2 MUL SWAP2 JUMPDEST SWAP4 DUP5 SHR SWAP4 SWAP1 DUP1 MUL SWAP1 PUSH2 0x140B JUMP JUMPDEST POP SWAP3 POP SWAP3 SWAP1 POP JUMP JUMPDEST PUSH0 DUP3 PUSH2 0x1456 JUMPI POP PUSH1 0x1 PUSH2 0xC81 JUMP JUMPDEST DUP2 PUSH2 0x1462 JUMPI POP PUSH0 PUSH2 0xC81 JUMP JUMPDEST DUP2 PUSH1 0x1 DUP2 EQ PUSH2 0x1478 JUMPI PUSH1 0x2 DUP2 EQ PUSH2 0x1482 JUMPI PUSH2 0x149E JUMP JUMPDEST PUSH1 0x1 SWAP2 POP POP PUSH2 0xC81 JUMP JUMPDEST PUSH1 0xFF DUP5 GT ISZERO PUSH2 0x1493 JUMPI PUSH2 0x1493 PUSH2 0x1396 JUMP JUMPDEST POP POP PUSH1 0x1 DUP3 SHL PUSH2 0xC81 JUMP JUMPDEST POP PUSH1 0x20 DUP4 LT PUSH2 0x133 DUP4 LT AND PUSH1 0x4E DUP5 LT PUSH1 0xB DUP5 LT AND OR ISZERO PUSH2 0x14C1 JUMPI POP DUP2 DUP2 EXP PUSH2 0xC81 JUMP JUMPDEST PUSH2 0x14CB DUP4 DUP4 PUSH2 0x1406 JUMP JUMPDEST DUP1 PUSH0 NOT DIV DUP3 GT ISZERO PUSH2 0x14DE JUMPI PUSH2 0x14DE PUSH2 0x1396 JUMP JUMPDEST MUL SWAP4 SWAP3 POP POP POP JUMP JUMPDEST PUSH0 PUSH2 0xDC6 DUP4 DUP4 PUSH2 0x1448 JUMP INVALID LOG2 PUSH5 0x6970667358 0x22 SLT KECCAK256 PUSH13 0xAF803D8962475D575B9DBC239A PUSH3 0x70B6F4 MUL PUSH16 0x56CF5E25589AD2D86637CD5B64736F6C PUSH4 0x43000818 STOP CALLER PUSH4 0x6F6E7374 KECCAK256 PUSH28 0x20657468657273207D203D20617761697420696D706F727428276E70 PUSH14 0x3A65746865727340362E31302E30 0x27 0x29 EXTCODESIZE PUSH4 0x6F6E7374 KECCAK256 BASEFEE PUSH2 0x7368 KECCAK256 RETURNDATASIZE KECCAK256 PUSH2 0x7761 PUSH10 0x7420696D706F72742827 PUSH15 0x706D3A697066732D6F6E6C792D6861 PUSH20 0x6840342E302E3027293B636F6E73742061706952 PUSH6 0x73706F6E7365 KECCAK256 RETURNDATASIZE KECCAK256 PUSH2 0x7761 PUSH10 0x742046756E6374696F6E PUSH20 0x2E6D616B654874747052657175657374287B2020 KECCAK256 KECCAK256 PUSH22 0x726C3A206068747470733A2F2F6170692E6272696467 PUSH6 0x646174616F75 PUSH21 0x7075742E636F6D2F6170692F76322F4F446174612F PUSH21 0x6573742F50726F70657274792827505F3564626131 PUSH7 0x62393461613430 CALLDATALOAD CALLDATALOAD PUSH3 0x396632 CODECOPY CALLDATASIZE CODECOPY CALLDATASIZE PUSH7 0x27293F61636365 PUSH20 0x735F746F6B656E3D366261636135343737343263 CALLDATASIZE PUSH7 0x39366136666637 BALANCE PUSH3 0x313338 CALLVALUE ORIGIN CALLVALUE PUSH7 0x3231602C7D293B PUSH4 0x6F6E7374 KECCAK256 PUSH19 0x65616C45737461746541646472657373203D20 PUSH2 0x7069 MSTORE PUSH6 0x73706F6E7365 0x2E PUSH5 0x6174612E55 PUSH15 0x706172736564416464726573733B63 PUSH16 0x6E737420796561724275696C74203D20 0x4E PUSH22 0x6D62657228617069526573706F6E73652E646174612E MSIZE PUSH6 0x61724275696C PUSH21 0x293B636F6E7374206C6F7453697A65537175617265 CHAINID PUSH6 0x6574203D204E PUSH22 0x6D62657228617069526573706F6E73652E646174612E 0x4C PUSH16 0x7453697A655371756172654665657429 EXTCODESIZE PUSH4 0x6F6E7374 KECCAK256 PUSH13 0x6976696E6741726561203D204E PUSH22 0x6D62657228617069526573706F6E73652E646174612E 0x4C PUSH10 0x76696E6741726561293B PUSH4 0x6F6E7374 KECCAK256 PUSH3 0x656472 PUSH16 0x6F6D73546F74616C203D204E756D6265 PUSH19 0x28617069526573706F6E73652E646174612E42 PUSH6 0x64726F6F6D73 SLOAD PUSH16 0x74616C293B636F6E7374206D65746164 PUSH2 0x7461 KECCAK256 RETURNDATASIZE KECCAK256 PUSH28 0x6E616D653A20605265616C2045737461746520546F6B656E602C6174 PUSH21 0x726962757465733A205B7B2074726169745F747970 PUSH6 0x3A2060726561 PUSH13 0x45737461746541646472657373 PUSH1 0x2C KECCAK256 PUSH23 0x616C75653A207265616C45737461746541646472657373 KECCAK256 PUSH30 0x2C7B2074726169745F747970653A2060796561724275696C74602C207661 PUSH13 0x75653A20796561724275696C74 KECCAK256 PUSH30 0x2C7B2074726169745F747970653A20606C6F7453697A6553717561726546 PUSH6 0x6574602C2076 PUSH2 0x6C75 PUSH6 0x3A206C6F7453 PUSH10 0x7A655371756172654665 PUSH6 0x74207D2C7B20 PUSH21 0x726169745F747970653A20606C6976696E67417265 PUSH2 0x602C KECCAK256 PUSH23 0x616C75653A206C6976696E6741726561207D2C7B207472 PUSH2 0x6974 PUSH0 PUSH21 0x7970653A2060626564726F6F6D73546F74616C602C KECCAK256 PUSH23 0x616C75653A20626564726F6F6D73546F74616C207D5D7D EXTCODESIZE PUSH4 0x6F6E7374 KECCAK256 PUSH14 0x65746164617461537472696E6720 RETURNDATASIZE KECCAK256 BLOBBASEFEE MSTORE8 0x4F 0x4E 0x2E PUSH20 0x7472696E67696679286D65746164617461293B63 PUSH16 0x6E73742069706673436964203D206177 PUSH2 0x6974 KECCAK256 BASEFEE PUSH2 0x7368 0x2E PUSH16 0x66286D65746164617461537472696E67 0x29 EXTCODESIZE PUSH19 0x657475726E2046756E6374696F6E732E656E63 PUSH16 0x6465537472696E672860697066733A2F 0x2F 0x24 PUSH28 0x697066734369647D60293B636F6E7374207B20657468657273207D20 RETURNDATASIZE KECCAK256 PUSH2 0x7761 PUSH10 0x7420696D706F72742827 PUSH15 0x706D3A65746865727340362E31302E ADDRESS 0x27 0x29 EXTCODESIZE PUSH4 0x6F6E7374 KECCAK256 PUSH2 0x6269 NUMBER PUSH16 0x646572203D206574686572732E416269 NUMBER PUSH16 0x6465722E64656661756C74416269436F PUSH5 0x657228293B PUSH4 0x6F6E7374 KECCAK256 PUSH21 0x6F6B656E4964203D20617267735B305D3B636F6E73 PUSH21 0x20617069526573706F6E7365203D20617761697420 CHAINID PUSH22 0x6E6374696F6E732E6D616B6548747470526571756573 PUSH21 0x287B2020202075726C3A206068747470733A2F2F61 PUSH17 0x692E627269646765646174616F75747075 PUSH21 0x2E636F6D2F6170692F76322F4F446174612F746573 PUSH21 0x2F50726F70657274792827505F3564626131666239 CALLVALUE PUSH2 0x6134 ADDRESS CALLDATALOAD CALLDATALOAD PUSH3 0x396632 CODECOPY CALLDATASIZE CODECOPY CALLDATASIZE PUSH7 0x27293F61636365 PUSH20 0x735F746F6B656E3D366261636135343737343263 CALLDATASIZE PUSH7 0x39366136666637 BALANCE PUSH3 0x313338 CALLVALUE ORIGIN CALLVALUE PUSH7 0x3231602C7D293B PUSH4 0x6F6E7374 KECCAK256 PUSH13 0x6973745072696365203D204E75 PUSH14 0x62657228617069526573706F6E73 PUSH6 0x2E646174612E 0x4C PUSH10 0x73745072696365293B63 PUSH16 0x6E7374206F726967696E616C4C697374 POP PUSH19 0x696365203D204E756D62657228617069526573 PUSH17 0x6F6E73652E646174612E4F726967696E61 PUSH13 0x4C6973745072696365293B636F PUSH15 0x737420746178417373657373656456 PUSH2 0x6C75 PUSH6 0x203D204E756D PUSH3 0x657228 PUSH2 0x7069 MSTORE PUSH6 0x73706F6E7365 0x2E PUSH5 0x6174612E54 PUSH2 0x7841 PUSH20 0x73657373656456616C7565293B636F6E73742065 PUSH15 0x636F646564203D20616269436F6465 PUSH19 0x2E656E636F6465285B6075696E74323536602C KECCAK256 PUSH1 0x75 PUSH10 0x6E74323536602C206075 PUSH10 0x6E74323536602C206075 PUSH10 0x6E74323536605D2C205B PUSH21 0x6F6B656E49642C206C69737450726963652C206F72 PUSH10 0x67696E616C4C69737450 PUSH19 0x6963652C20746178417373657373656456616C PUSH22 0x655D293B72657475726E206574686572732E67657442 PUSH26 0x74657328656E636F646564293B00000000000000000000000000 "
		},
		"gasEstimates": {
			"creation": {
				"codeDepositCost": "1083000",
				"executionCost": "infinite",
				"totalCost": "infinite"
			},
			"external": {
				"acceptOwnership()": "52329",
				"getNftMetadata()": "infinite",
				"getPriceDetails(uint256)": "2802",
				"getPrices()": "infinite",
				"handleOracleFulfillment(bytes32,bytes,bytes)": "infinite",
				"owner()": "2334",
				"setAutomationForwarder(address)": "26720",
				"transferOwnership(address)": "30486",
				"updatePriceDetails(string,uint64,uint32,bytes32)": "infinite"
			},
			"internal": {
				"fulfillRequest(bytes32,bytes memory,bytes memory)": "infinite"
			}
		},
		"methodIdentifiers": {
			"acceptOwnership()": "79ba5097",
			"getNftMetadata()": "e6b46ff5",
			"getPriceDetails(uint256)": "f0ed2e80",
			"getPrices()": "bd9a548b",
			"handleOracleFulfillment(bytes32,bytes,bytes)": "0ca76175",
			"owner()": "8da5cb5b",
			"setAutomationForwarder(address)": "d40d17bc",
			"transferOwnership(address)": "f2fde38b",
			"updatePriceDetails(string,uint64,uint32,bytes32)": "a843a0ab"
		}
	},
	"abi": [
		{
			"inputs": [
				{
					"internalType": "address",
					"name": "functionsRouterAddress",
					"type": "address"
				}
			],
			"stateMutability": "nonpayable",
			"type": "constructor"
		},
		{
			"inputs": [],
			"name": "EmptyArgs",
			"type": "error"
		},
		{
			"inputs": [],
			"name": "EmptySource",
			"type": "error"
		},
		{
			"inputs": [],
			"name": "NoInlineSecrets",
			"type": "error"
		},
		{
			"inputs": [],
			"name": "OnlyAutomationForwarderOrOwnerCanCall",
			"type": "error"
		},
		{
			"inputs": [],
			"name": "OnlyRouterCanFulfill",
			"type": "error"
		},
		{
			"anonymous": false,
			"inputs": [
				{
					"indexed": true,
					"internalType": "address",
					"name": "from",
					"type": "address"
				},
				{
					"indexed": true,
					"internalType": "address",
					"name": "to",
					"type": "address"
				}
			],
			"name": "OwnershipTransferRequested",
			"type": "event"
		},
		{
			"anonymous": false,
			"inputs": [
				{
					"indexed": true,
					"internalType": "address",
					"name": "from",
					"type": "address"
				},
				{
					"indexed": true,
					"internalType": "address",
					"name": "to",
					"type": "address"
				}
			],
			"name": "OwnershipTransferred",
			"type": "event"
		},
		{
			"anonymous": false,
			"inputs": [
				{
					"indexed": true,
					"internalType": "bytes32",
					"name": "id",
					"type": "bytes32"
				}
			],
			"name": "RequestFulfilled",
			"type": "event"
		},
		{
			"anonymous": false,
			"inputs": [
				{
					"indexed": true,
					"internalType": "bytes32",
					"name": "id",
					"type": "bytes32"
				}
			],
			"name": "RequestSent",
			"type": "event"
		},
		{
			"inputs": [],
			"name": "acceptOwnership",
			"outputs": [],
			"stateMutability": "nonpayable",
			"type": "function"
		},
		{
			"inputs": [],
			"name": "getNftMetadata",
			"outputs": [
				{
					"internalType": "string",
					"name": "",
					"type": "string"
				}
			],
			"stateMutability": "view",
			"type": "function"
		},
		{
			"inputs": [
				{
					"internalType": "uint256",
					"name": "tokenId",
					"type": "uint256"
				}
			],
			"name": "getPriceDetails",
			"outputs": [
				{
					"components": [
						{
							"internalType": "uint80",
							"name": "listPrice",
							"type": "uint80"
						},
						{
							"internalType": "uint80",
							"name": "originalListPrice",
							"type": "uint80"
						},
						{
							"internalType": "uint80",
							"name": "taxAssessedValue",
							"type": "uint80"
						}
					],
					"internalType": "struct RealEstatePriceDetails.PriceDetails",
					"name": "",
					"type": "tuple"
				}
			],
			"stateMutability": "view",
			"type": "function"
		},
		{
			"inputs": [],
			"name": "getPrices",
			"outputs": [
				{
					"internalType": "string",
					"name": "",
					"type": "string"
				}
			],
			"stateMutability": "view",
			"type": "function"
		},
		{
			"inputs": [
				{
					"internalType": "bytes32",
					"name": "requestId",
					"type": "bytes32"
				},
				{
					"internalType": "bytes",
					"name": "response",
					"type": "bytes"
				},
				{
					"internalType": "bytes",
					"name": "err",
					"type": "bytes"
				}
			],
			"name": "handleOracleFulfillment",
			"outputs": [],
			"stateMutability": "nonpayable",
			"type": "function"
		},
		{
			"inputs": [],
			"name": "owner",
			"outputs": [
				{
					"internalType": "address",
					"name": "",
					"type": "address"
				}
			],
			"stateMutability": "view",
			"type": "function"
		},
		{
			"inputs": [
				{
					"internalType": "address",
					"name": "automationForwarderAddress",
					"type": "address"
				}
			],
			"name": "setAutomationForwarder",
			"outputs": [],
			"stateMutability": "nonpayable",
			"type": "function"
		},
		{
			"inputs": [
				{
					"internalType": "address",
					"name": "to",
					"type": "address"
				}
			],
			"name": "transferOwnership",
			"outputs": [],
			"stateMutability": "nonpayable",
			"type": "function"
		},
		{
			"inputs": [
				{
					"internalType": "string",
					"name": "tokenId",
					"type": "string"
				},
				{
					"internalType": "uint64",
					"name": "subscriptionId",
					"type": "uint64"
				},
				{
					"internalType": "uint32",
					"name": "gasLimit",
					"type": "uint32"
				},
				{
					"internalType": "bytes32",
					"name": "donID",
					"type": "bytes32"
				}
			],
			"name": "updatePriceDetails",
			"outputs": [
				{
					"internalType": "bytes32",
					"name": "requestId",
					"type": "bytes32"
				}
			],
			"stateMutability": "nonpayable",
			"type": "function"
		}
	]
}