{
	"data": {
		"bytecode": {
			"linkReferences": {},
			"object": "61056060405261043b61010081815290620044c661012039600590620000269082620002c0565b50604051806102e001604052806102b18152602001620049016102b19139600690620000539082620002c0565b5034801562000060575f80fd5b5060405162004bb238038062004bb28339810160408190526200008391620003bf565b80858585858333805f8884620000998162000165565b506001600160a01b039081166080528216620000fc5760405162461bcd60e51b815260206004820152601860248201527f43616e6e6f7420736574206f776e657220746f207a65726f000000000000000060448201526064015b60405180910390fd5b600780546001600160a01b0319166001600160a01b03848116919091179091558116156200012f576200012f8162000177565b50506001600b5550506001600160a01b0392831660a052911660c0526001600160401b031660e05250620004d695505050505050565b6002620001738282620002c0565b5050565b336001600160a01b03821603620001d15760405162461bcd60e51b815260206004820152601760248201527f43616e6e6f74207472616e7366657220746f2073656c660000000000000000006044820152606401620000f3565b600880546001600160a01b0319166001600160a01b03838116918217909255600754604051919216907fed8889f560326eb138920d842192f0eb3dd22b4f139c87a2c57538e05bae1278905f90a350565b634e487b7160e01b5f52604160045260245ffd5b600181811c908216806200024b57607f821691505b6020821081036200026a57634e487b7160e01b5f52602260045260245ffd5b50919050565b601f821115620002bb57805f5260205f20601f840160051c81016020851015620002975750805b601f840160051c820191505b81811015620002b8575f8155600101620002a3565b50505b505050565b81516001600160401b03811115620002dc57620002dc62000222565b620002f481620002ed845462000236565b8462000270565b602080601f8311600181146200032a575f8415620003125750858301515b5f19600386901b1c1916600185901b17855562000384565b5f85815260208120601f198616915b828110156200035a5788860151825594840194600190910190840162000339565b50858210156200037857878501515f19600388901b60f8161c191681555b505060018460011b0185555b505050505050565b80516001600160a01b0381168114620003a3575f80fd5b919050565b80516001600160401b0381168114620003a3575f80fd5b5f805f805f60a08688031215620003d4575f80fd5b85516001600160401b0380821115620003eb575f80fd5b818801915088601f830112620003ff575f80fd5b81518181111562000414576200041462000222565b604051601f8201601f19908116603f011681019083821181831017156200043f576200043f62000222565b81604052828152602093508b848487010111156200045b575f80fd5b5f91505b828210156200047e57848201840151818301850152908301906200045f565b5f848483010152809950505050620004988189016200038c565b95505050620004aa604087016200038c565b9250620004ba60608701620003a8565b9150620004ca608087016200038c565b90509295509295909350565b60805160a05160c05160e051613f6f620005575f395f81816105f501528181610ded01528181610f5e015261158701525f818161090101528181610a9f01528181610b2c0152610c0701525f81816109e401528181610bd801528181610c8901528181610d4801526113f901525f818161057201526120c40152613f6f5ff3fe608060405234801561000f575f80fd5b50600436106101e6575f3560e01c806379ba509711610109578063c1341c4f1161009e578063f0ed2e801161006e578063f0ed2e8014610441578063f242432a146104e3578063f2fde38b146104f6578063f5298aca14610509575f80fd5b8063c1341c4f14610400578063d40d17bc14610413578063e6b46ff514610426578063e985e9c51461042e575f80fd5b8063a843a0ab116100d9578063a843a0ab146103b3578063b942f8cb146103c6578063bd85b039146103d9578063bd9a548b146103f8575f80fd5b806379ba50971461036a57806385572ffb146103725780638da5cb5b14610385578063a22cb465146103a0575f80fd5b80633aeac4e11161017f57806351cff8d91161014f57806351cff8d91461031057806355cc4e57146103235780635dc5ebdb146103365780636b20c45414610357575f80fd5b80633aeac4e1146102a957806341eade46146102bc5780634e1273f4146102cf5780634f558e79146102ef575f80fd5b80630e89341c116101ba5780630e89341c1461025b57806318160ddd1461027b578063240b3b49146102835780632eb2c2d614610296575f80fd5b8062fdd58e146101ea57806301ffc9a7146102105780630ca76175146102335780630ce639c414610248575b5f80fd5b6101fd6101f8366004612edc565b61051c565b6040519081526020015b60405180910390f35b61022361021e366004612f1b565b610543565b6040519015158152602001610207565b610246610241366004612ff2565b610567565b005b610246610256366004613074565b6105ea565b61026e6102693660046130c5565b6106f8565b6040516102079190613129565b6004546101fd565b6101fd61029136600461313b565b6107b2565b6102466102a436600461325b565b610e41565b6102466102b7366004613301565b610ea8565b6102466102ca366004613338565b610f53565b6102e26102dd366004613351565b61102e565b6040516102079190613446565b6102236102fd3660046130c5565b5f90815260036020526040902054151590565b61024661031e366004613458565b6110f8565b610246610331366004613458565b6111aa565b610349610344366004613338565b6111fb565b604051610207929190613473565b61024661036536600461349e565b6112a7565b610246611341565b610246610380366004613504565b6113ee565b6007546040516001600160a01b039091168152602001610207565b6102466103ae366004613547565b6115d8565b6101fd6103c1366004613573565b6115e7565b6102466103d43660046135de565b611740565b6101fd6103e73660046130c5565b5f9081526003602052604090205490565b61026e6117eb565b61024661040e366004613705565b611877565b610246610421366004613458565b6118d5565b61026e6118ff565b61022361043c366004613301565b61190c565b6104ae61044f3660046130c5565b60408051606080820183525f8083526020808401829052928401819052938452600e825292829020825193840183525469ffffffffffffffffffff8082168552600160501b8204811692850192909252600160a01b9004169082015290565b60408051825169ffffffffffffffffffff90811682526020808501518216908301529282015190921690820152606001610207565b6102466104f1366004613759565b611939565b610246610504366004613458565b611998565b6102466105173660046137bc565b6119a9565b5f818152602081815260408083206001600160a01b03861684529091529020545b92915050565b5f6001600160e01b031982166385572ffb60e01b148061053d575061053d82611a1a565b336001600160a01b037f000000000000000000000000000000000000000000000000000000000000000016146105b05760405163c6829f8360e01b815260040160405180910390fd5b6105bb838383611a69565b60405183907f85e1543bf2f84fe80c6badbce3648c8539ad1df4d2b3d822938ca0538be727e6905f90a2505050565b6105f2611b28565b827f00000000000000000000000000000000000000000000000000000000000000006001600160401b0316816001600160401b031603610655576040516340d8e3a160e01b81526001600160401b03821660048201526024015b60405180910390fd5b6040805180820182526001600160a01b03858116825260208083018681526001600160401b0389165f908152600c909252939020825181546001600160a01b0319169216919091178155915190919060018201906106b3908261386a565b509050507f59cc0b49d3359ac35e3872e99199469b6a1025c9a945cd9b6a411bffe337272d8484846040516106ea93929190613925565b60405180910390a150505050565b5f818152600a6020526040812080546060929190610715906137ee565b80601f0160208091040260200160405190810160405280929190818152602001828054610741906137ee565b801561078c5780601f106107635761010080835404028352916020019161078c565b820191905f5260205f20905b81548152906001019060200180831161076f57829003601f168201915b505050505090505f8151116107a9576107a483611b7d565b6107ab565b805b9392505050565b5f6107bb611c0f565b6001600160401b0383165f908152600c602052604090205483906001600160a01b031661080657604051630e19fdf760e11b81526001600160401b038216600482015260240161064c565b5f610810886106f8565b905061081d8a89896119a9565b6040805160a0810182526001600160401b0387165f908152600c602052918220546001600160a01b031660c08201528060e0810160405160208183030381529060405281526020018c8c8c8c8c8860405160200161088096959493929190613960565b60408051601f1981840301815291905281526020015f6040519080825280602002602001820160405280156108da57816020015b604080518082019091525f80825260208201528152602001906001900390816108b45790505b50815260200160018760018111156108f4576108f46139b8565b146108ff575f610921565b7f00000000000000000000000000000000000000000000000000000000000000005b6001600160a01b03168152602001600c5f896001600160401b03166001600160401b031681526020019081526020015f206001018054610960906137ee565b80601f016020809104026020016040519081016040528092919081815260200182805461098c906137ee565b80156109d75780601f106109ae576101008083540402835291602001916109d7565b820191905f5260205f20905b8154815290600101906020018083116109ba57829003601f168201915b505050505081525090505f7f00000000000000000000000000000000000000000000000000000000000000006001600160a01b03166320487ded88846040518363ffffffff1660e01b8152600401610a309291906139cc565b602060405180830381865afa158015610a4b573d5f803e3d5ffd5b505050506040513d601f19601f82011682018060405250810190610a6f9190613aa6565b90506001866001811115610a8557610a856139b8565b03610d07576040516370a0823160e01b81523060048201527f00000000000000000000000000000000000000000000000000000000000000006001600160a01b0316906370a0823190602401602060405180830381865afa158015610aec573d5f803e3d5ffd5b505050506040513d601f19601f82011682018060405250810190610b109190613aa6565b811115610bc1576040516370a0823160e01b81523060048201527f00000000000000000000000000000000000000000000000000000000000000006001600160a01b0316906370a0823190602401602060405180830381865afa158015610b79573d5f803e3d5ffd5b505050506040513d601f19601f82011682018060405250810190610b9d9190613aa6565b6040516328fdcaa160e01b815260048101919091526024810182905260440161064c565b60405163095ea7b360e01b81526001600160a01b037f000000000000000000000000000000000000000000000000000000000000000081166004830152602482018390527f0000000000000000000000000000000000000000000000000000000000000000169063095ea7b3906044016020604051808303815f875af1158015610c4d573d5f803e3d5ffd5b505050506040513d601f19601f82011682018060405250810190610c719190613abd565b506040516396f4e9f960e01b81526001600160a01b037f000000000000000000000000000000000000000000000000000000000000000016906396f4e9f990610cc0908a9086906004016139cc565b6020604051808303815f875af1158015610cdc573d5f803e3d5ffd5b505050506040513d601f19601f82011682018060405250810190610d009190613aa6565b9450610dc5565b47811115610d31576040516328fdcaa160e01b81524760048201526024810182905260440161064c565b6040516396f4e9f960e01b81526001600160a01b037f000000000000000000000000000000000000000000000000000000000000000016906396f4e9f9908390610d81908b9087906004016139cc565b60206040518083038185885af1158015610d9d573d5f803e3d5ffd5b50505050506040513d601f19601f82011682018060405250810190610dc29190613aa6565b94505b7f300e6c20d2e9d8db9b2df40ebce943d9dae3fa3a8eaec841a3d1cb9a1e8b6ad78c8c8c8c8c7f00000000000000000000000000000000000000000000000000000000000000008d604051610e209796959493929190613ad8565b60405180910390a150505050610e366001600b55565b979650505050505050565b336001600160a01b0386168114801590610e625750610e60868261190c565b155b15610e935760405163711bec9160e11b81526001600160a01b0380831660048301528716602482015260440161064c565b610ea08686868686611c39565b505050505050565b610eb0611b28565b6040516370a0823160e01b81523060048201525f906001600160a01b038316906370a0823190602401602060405180830381865afa158015610ef4573d5f803e3d5ffd5b505050506040513d601f19601f82011682018060405250810190610f189190613aa6565b9050805f03610f3a57604051630686827b60e51b815260040160405180910390fd5b610f4e6001600160a01b0383168483611c9e565b505050565b610f5b611b28565b807f00000000000000000000000000000000000000000000000000000000000000006001600160401b0316816001600160401b031603610fb9576040516340d8e3a160e01b81526001600160401b038216600482015260240161064c565b6001600160401b0382165f908152600c6020526040812080546001600160a01b031916815590610fec6001830182612e46565b50506040516001600160401b03831681527f67e02000179a6045f4db8fb1b09f01e170b0347e0b698fc5112ce4d798ef19f69060200160405180910390a15050565b6060815183511461105f5781518351604051635b05999160e01b81526004810192909252602482015260440161064c565b5f83516001600160401b0381111561107957611079612f36565b6040519080825280602002602001820160405280156110a2578160200160208202803683370190505b5090505f5b84518110156110f0576020808202860101516110cb9060208084028701015161051c565b8282815181106110dd576110dd613b35565b60209081029190910101526001016110a7565b509392505050565b611100611b28565b475f81900361112257604051630686827b60e51b815260040160405180910390fd5b5f826001600160a01b0316826040515f6040518083038185875af1925050503d805f811461116b576040519150601f19603f3d011682016040523d82523d5f602084013e611170565b606091505b5050905080610f4e57604051639d11f56360e01b81523360048201526001600160a01b03841660248201526044810183905260640161064c565b6111b2611b28565b600980546001600160a01b0319166001600160a01b0383169081179091556040517fd56ed7b1c1110348b1fbf418469f6fc4acc32d9b675e9e1e448cc19169a64ca0905f90a250565b600c6020525f9081526040902080546001820180546001600160a01b039092169291611226906137ee565b80601f0160208091040260200160405190810160405280929190818152602001828054611252906137ee565b801561129d5780601f106112745761010080835404028352916020019161129d565b820191905f5260205f20905b81548152906001019060200180831161128057829003601f168201915b5050505050905082565b3330148015906112c257506009546001600160a01b03163314155b156112e257604051637725137960e11b815233600482015260240161064c565b6001600160a01b03831633148015906113025750611300833361190c565b155b1561133657335b60405163711bec9160e11b81526001600160a01b039182166004820152908416602482015260440161064c565b610f4e838383611cf0565b6008546001600160a01b031633146113945760405162461bcd60e51b815260206004820152601660248201527526bab9ba10313290383937b837b9b2b21037bbb732b960511b604482015260640161064c565b600780546001600160a01b0319808216339081179093556008805490911690556040516001600160a01b03909116919082907f8be0079c531659141344cd1fd0a4f28419497f9722a3daafe3b4186f6b6457e0905f90a350565b336001600160a01b037f00000000000000000000000000000000000000000000000000000000000000001614611439576040516335fdcccd60e21b815233600482015260240161064c565b611441611c0f565b6114516040820160208301613338565b6001600160401b0381165f908152600c60205260409020546001600160a01b031661149a57604051630e19fdf760e11b81526001600160401b038216600482015260240161064c565b6114aa6040830160208401613338565b6114b76040840184613b49565b8101906114c49190613458565b6001600160401b0382165f908152600c60205260409020546001600160a01b038281169116146115125760405163baf46cd160e01b81526001600160a01b038216600482015260240161064c565b5f6115236040860160208701613338565b90505f808080808061153860608c018c613b49565b8101906115459190613b92565b95509550955095509550955061155e8585858585611877565b7f8a69e2b5fbcc69a1f5d6326fb26db5bc43cd18d09d2e79a48a50b77da16432f986868686868c7f00000000000000000000000000000000000000000000000000000000000000006040516115b99796959493929190613ad8565b60405180910390a1505050505050505050506115d56001600b55565b50565b6115e3338383611d33565b5050565b600d545f906001600160a01b0316331480159061160f57506007546001600160a01b03163314155b1561162d576040516302dc7d2f60e21b815260040160405180910390fd5b61166b6040805160e08101909152805f81526020015f81526020015f8152602001606081526020016060815260200160608152602001606081525090565b6116d7306001600160a01b031663bd9a548b6040518163ffffffff1660e01b81526004015f60405180830381865afa1580156116a9573d5f803e3d5ffd5b505050506040513d5f823e601f3d908101601f191682016040526116d09190810190613c26565b8290611dc7565b6040805160018082528183019092525f91816020015b60608152602001906001900390816116ed57905050905086815f8151811061171757611717613b35565b602090810291909101015261172c8282611dd3565b610e3661173883611dfc565b8787876120c0565b33301480159061175b57506009546001600160a01b03163314155b1561177b57604051637725137960e11b815233600482015260240161064c565b6117878585858561218d565b5f5b8451811015610ea0578181815181106117a4576117a4613b35565b6020026020010151600a5f8784815181106117c1576117c1613b35565b602002602001015181526020019081526020015f2090816117e2919061386a565b50600101611789565b600680546117f8906137ee565b80601f0160208091040260200160405190810160405280929190818152602001828054611824906137ee565b801561186f5780601f106118465761010080835404028352916020019161186f565b820191905f5260205f20905b81548152906001019060200180831161185257829003601f168201915b505050505081565b33301480159061189257506009546001600160a01b03163314155b156118b257604051637725137960e11b815233600482015260240161064c565b6118be858585856121c9565b5f848152600a60205260409020610ea0828261386a565b6118dd611b28565b600d80546001600160a01b0319166001600160a01b0392909216919091179055565b600580546117f8906137ee565b6001600160a01b039182165f90815260016020908152604080832093909416825291909152205460ff1690565b336001600160a01b038616811480159061195a5750611958868261190c565b155b1561198b5760405163711bec9160e11b81526001600160a01b0380831660048301528716602482015260440161064c565b610ea08686868686612224565b6119a0611b28565b6115d5816122b0565b3330148015906119c457506009546001600160a01b03163314155b156119e457604051637725137960e11b815233600482015260240161064c565b6001600160a01b0383163314801590611a045750611a02833361190c565b155b15611a0f5733611309565b610f4e838383612359565b5f6001600160e01b03198216636cdb3d1360e11b1480611a4a57506001600160e01b031982166303a24d0760e21b145b8061053d57506301ffc9a760e01b6001600160e01b031983161461053d565b805115611a8a578060405162461bcd60e51b815260040161064c9190613129565b5f805f8085806020019051810190611aa29190613c8e565b6040805160608101825269ffffffffffffffffffff948516815292841660208085019182529285168483019081525f968752600e909352942091518254945191518416600160a01b0269ffffffffffffffffffff60a01b19928516600160501b026001600160a01b03199096169190941617939093179290921617905550505050505050565b6007546001600160a01b03163314611b7b5760405162461bcd60e51b815260206004820152601660248201527527b7363c9031b0b63630b1363290313c9037bbb732b960511b604482015260640161064c565b565b606060028054611b8c906137ee565b80601f0160208091040260200160405190810160405280929190818152602001828054611bb8906137ee565b8015611c035780601f10611bda57610100808354040283529160200191611c03565b820191905f5260205f20905b815481529060010190602001808311611be657829003601f168201915b50505050509050919050565b6002600b5403611c3257604051633ee5aeb560e01b815260040160405180910390fd5b6002600b55565b6001600160a01b038416611c6257604051632bfa23e760e11b81525f600482015260240161064c565b6001600160a01b038516611c8a57604051626a0d4560e21b81525f600482015260240161064c565b611c9785858585856123bb565b5050505050565b604080516001600160a01b038416602482015260448082018490528251808303909101815260649091019091526020810180516001600160e01b031663a9059cbb60e01b179052610f4e90849061240e565b6001600160a01b038316611d1857604051626a0d4560e21b81525f600482015260240161064c565b610f4e835f848460405180602001604052805f8152506123bb565b6001600160a01b038216611d5b5760405162ced3e160e81b81525f600482015260240161064c565b6001600160a01b038381165f81815260016020908152604080832094871680845294825291829020805460ff191686151590811790915591519182527f17307eab39ab6107e8899845ad3d59bd9653f200f220920489ca2b5937696c31910160405180910390a3505050565b6115e3825f808461247a565b80515f03611df45760405163fe936cb760e01b815260040160405180910390fd5b60a090910152565b60605f611e0a6101006124f7565b9050611e436040518060400160405280600c81526020016b31b7b232a637b1b0ba34b7b760a11b8152508261251790919063ffffffff16565b8251611e61906002811115611e5a57611e5a6139b8565b8290612530565b6040805180820190915260088152676c616e677561676560c01b6020820152611e8b908290612517565b6040830151611ea2908015611e5a57611e5a6139b8565b604080518082019091526006815265736f7572636560d01b6020820152611eca908290612517565b6060830151611eda908290612517565b60a08301515115611f65576040805180820190915260048152636172677360e01b6020820152611f0b908290612517565b611f1481612569565b5f5b8360a0015151811015611f5b57611f538460a001518281518110611f3c57611f3c613b35565b60200260200101518361251790919063ffffffff16565b600101611f16565b50611f658161258d565b60808301515115612028575f83602001516002811115611f8757611f876139b8565b03611fa55760405163a80d31f760e01b815260040160405180910390fd5b60408051808201909152600f81526e39b2b1b932ba39a637b1b0ba34b7b760891b6020820152611fd6908290612517565b611fef83602001516002811115611e5a57611e5a6139b8565b6040805180820190915260078152667365637265747360c81b6020820152612018908290612517565b60808301516120289082906125ab565b60c083015151156120b85760408051808201909152600981526862797465734172677360b81b602082015261205e908290612517565b61206781612569565b5f5b8360c00151518110156120ae576120a68460c00151828151811061208f5761208f613b35565b6020026020010151836125ab90919063ffffffff16565b600101612069565b506120b88161258d565b515192915050565b5f807f00000000000000000000000000000000000000000000000000000000000000006001600160a01b031663461d27628688600188886040518663ffffffff1660e01b8152600401612117959493929190613cc1565b6020604051808303815f875af1158015612133573d5f803e3d5ffd5b505050506040513d601f19601f820116820180604052508101906121579190613aa6565b60405190915081907f1131472297a800fee664d1d89cfa8f7676ff07189ecc53f80bbb5f4969099db8905f90a295945050505050565b6001600160a01b0384166121b657604051632bfa23e760e11b81525f600482015260240161064c565b6121c35f858585856123bb565b50505050565b6001600160a01b0384166121f257604051632bfa23e760e11b81525f600482015260240161064c565b60408051600180825260208201869052818301908152606082018590526080820190925290610ea05f878484876123bb565b6001600160a01b03841661224d57604051632bfa23e760e11b81525f600482015260240161064c565b6001600160a01b03851661227557604051626a0d4560e21b81525f600482015260240161064c565b604080516001808252602082018690528183019081526060820185905260808201909252906122a787878484876123bb565b50505050505050565b336001600160a01b038216036123085760405162461bcd60e51b815260206004820152601760248201527f43616e6e6f74207472616e7366657220746f2073656c66000000000000000000604482015260640161064c565b600880546001600160a01b0319166001600160a01b03838116918217909255600754604051919216907fed8889f560326eb138920d842192f0eb3dd22b4f139c87a2c57538e05bae1278905f90a350565b6001600160a01b03831661238157604051626a0d4560e21b81525f600482015260240161064c565b604080516001808252602082018590528183019081526060820184905260a082019092525f60808201818152919291611c97918791859085905b6123c7858585856125b8565b6001600160a01b03841615611c97578251339060010361240057602084810151908401516123f983898985858961269f565b5050610ea0565b610ea08187878787876127c0565b5f8060205f8451602086015f885af18061242d576040513d5f823e3d81fd5b50505f513d91508115612444578060011415612451565b6001600160a01b0384163b155b156121c357604051635274afe760e01b81526001600160a01b038516600482015260240161064c565b80515f0361249b576040516322ce3edd60e01b815260040160405180910390fd5b838360028111156124ae576124ae6139b8565b908160028111156124c1576124c16139b8565b905250604084018280156124d7576124d76139b8565b908180156124e7576124e76139b8565b9052506060909301929092525050565b6124ff612e7d565b805161250b90836128a7565b505f6020820152919050565b612524826003835161291b565b8151610f4e9082612a34565b815161253d9060c2612a54565b506115e3828260405160200161255591815260200190565b6040516020818303038152906040526125ab565b612574816004612abb565b6001816020018181516125879190613d1d565b90525050565b612598816007612abb565b6001816020018181516125879190613d30565b612524826002835161291b565b6125c484848484612ad2565b6001600160a01b038416612641575f805b83518110156126285760208181028481018201519086018201515f90815260039092526040822080549192839261260d908490613d1d565b9091555061261d90508184613d1d565b9250506001016125d5565b508060045f82825461263a9190613d1d565b9091555050505b6001600160a01b0383166121c3575f805b835181101561268e5760208181028481018201519086018201515f90815260039092526040909120805482900390559190910190600101612652565b506004805491909103905550505050565b6001600160a01b0384163b15610ea05760405163f23a6e6160e01b81526001600160a01b0385169063f23a6e61906126e39089908990889088908890600401613d43565b6020604051808303815f875af192505050801561271d575060408051601f3d908101601f1916820190925261271a91810190613d7c565b60015b612784573d80801561274a576040519150601f19603f3d011682016040523d82523d5f602084013e61274f565b606091505b5080515f0361277c57604051632bfa23e760e11b81526001600160a01b038616600482015260240161064c565b805181602001fd5b6001600160e01b0319811663f23a6e6160e01b146122a757604051632bfa23e760e11b81526001600160a01b038616600482015260240161064c565b6001600160a01b0384163b15610ea05760405163bc197c8160e01b81526001600160a01b0385169063bc197c81906128049089908990889088908890600401613d97565b6020604051808303815f875af192505050801561283e575060408051601f3d908101601f1916820190925261283b91810190613d7c565b60015b61286b573d80801561274a576040519150601f19603f3d011682016040523d82523d5f602084013e61274f565b6001600160e01b0319811663bc197c8160e01b146122a757604051632bfa23e760e11b81526001600160a01b038616600482015260240161064c565b60408051808201909152606081525f60208201526128c6602083613df4565b156128ee576128d6602083613df4565b6128e1906020613d30565b6128eb9083613d1d565b91505b60208084018390526040518085525f8152908184010181811015612910575f80fd5b604052509192915050565b6017816001600160401b0316116129415782516121c39060e0600585901b168317612a54565b60ff816001600160401b031611612981578251612969906018611fe0600586901b1617612a54565b5082516121c3906001600160401b0383166001612ce1565b61ffff816001600160401b0316116129c25782516129aa906019611fe0600586901b1617612a54565b5082516121c3906001600160401b0383166002612ce1565b63ffffffff816001600160401b031611612a055782516129ed90601a611fe0600586901b1617612a54565b5082516121c3906001600160401b0383166004612ce1565b8251612a1c90601b611fe0600586901b1617612a54565b5082516121c3906001600160401b0383166008612ce1565b60408051808201909152606081525f60208201526107ab83838451612d63565b60408051808201909152606081525f60208201528251515f612a77826001613d1d565b905084602001518210612a9857612a9885612a93836002613e13565b612e2f565b8451602083820101858153508051821115612ab1578181525b5093949350505050565b8151610f4e90601f611fe0600585901b1617612a54565b8051825114612b015781518151604051635b05999160e01b81526004810192909252602482015260440161064c565b335f5b8351811015612c03576020818102858101820151908501909101516001600160a01b03881615612bb5575f828152602081815260408083206001600160a01b038c16845290915290205481811015612b8f576040516303dee4c560e01b81526001600160a01b038a16600482015260248101829052604481018390526064810184905260840161064c565b5f838152602081815260408083206001600160a01b038d16845290915290209082900390555b6001600160a01b03871615612bf9575f828152602081815260408083206001600160a01b038b16845290915281208054839290612bf3908490613d1d565b90915550505b5050600101612b04565b508251600103612c835760208301515f906020840151909150856001600160a01b0316876001600160a01b0316846001600160a01b03167fc3d58168c5ae7397731d063d5bbf3d657854427343f4c083240f7aacaa2d0f628585604051612c74929190918252602082015260400190565b60405180910390a45050611c97565b836001600160a01b0316856001600160a01b0316826001600160a01b03167f4a39dc06d4c0dbc64b70af90fd698a233a518aa5d07e595d983b8c0526c8f7fb8686604051612cd2929190613e2a565b60405180910390a45050505050565b60408051808201909152606081525f60208201528351515f612d038285613d1d565b90508560200151811115612d2057612d2086612a93836002613e13565b5f6001612d2f86610100613f2e565b612d399190613d30565b90508651828101878319825116178152508051831115612d57578281525b50959695505050505050565b60408051808201909152606081525f60208201528251821115612d84575f80fd5b8351515f612d928483613d1d565b90508560200151811115612daf57612daf86612a93836002613e13565b85518051838201602001915f9180851115612dc8578482525b505050602086015b60208610612e085780518252612de7602083613d1d565b9150612df4602082613d1d565b9050612e01602087613d30565b9550612dd0565b5181515f1960208890036101000a0190811690199190911617905250849150509392505050565b8151612e3b83836128a7565b506121c38382612a34565b508054612e52906137ee565b5f825580601f10612e61575050565b601f0160209004905f5260205f20908101906115d59190612eb0565b6040518060400160405280612ea46040518060400160405280606081526020015f81525090565b81526020015f81525090565b5b80821115612ec4575f8155600101612eb1565b5090565b6001600160a01b03811681146115d5575f80fd5b5f8060408385031215612eed575f80fd5b8235612ef881612ec8565b946020939093013593505050565b6001600160e01b0319811681146115d5575f80fd5b5f60208284031215612f2b575f80fd5b81356107ab81612f06565b634e487b7160e01b5f52604160045260245ffd5b604051601f8201601f191681016001600160401b0381118282101715612f7257612f72612f36565b604052919050565b5f6001600160401b03821115612f9257612f92612f36565b50601f01601f191660200190565b5f82601f830112612faf575f80fd5b8135612fc2612fbd82612f7a565b612f4a565b818152846020838601011115612fd6575f80fd5b816020850160208301375f918101602001919091529392505050565b5f805f60608486031215613004575f80fd5b8335925060208401356001600160401b0380821115613021575f80fd5b61302d87838801612fa0565b93506040860135915080821115613042575f80fd5b5061304f86828701612fa0565b9150509250925092565b80356001600160401b038116811461306f575f80fd5b919050565b5f805f60608486031215613086575f80fd5b61308f84613059565b9250602084013561309f81612ec8565b915060408401356001600160401b038111156130b9575f80fd5b61304f86828701612fa0565b5f602082840312156130d5575f80fd5b5035919050565b5f5b838110156130f65781810151838201526020016130de565b50505f910152565b5f81518084526131158160208601602086016130dc565b601f01601f19169290920160200192915050565b602081525f6107ab60208301846130fe565b5f805f805f805f60e0888a031215613151575f80fd5b873561315c81612ec8565b9650602088013561316c81612ec8565b9550604088013594506060880135935060808801356001600160401b03811115613194575f80fd5b6131a08a828b01612fa0565b9350506131af60a08901613059565b915060c0880135600281106131c2575f80fd5b8091505092959891949750929550565b5f6001600160401b038211156131ea576131ea612f36565b5060051b60200190565b5f82601f830112613203575f80fd5b81356020613213612fbd836131d2565b8083825260208201915060208460051b870101935086841115613234575f80fd5b602086015b848110156132505780358352918301918301613239565b509695505050505050565b5f805f805f60a0868803121561326f575f80fd5b853561327a81612ec8565b9450602086013561328a81612ec8565b935060408601356001600160401b03808211156132a5575f80fd5b6132b189838a016131f4565b945060608801359150808211156132c6575f80fd5b6132d289838a016131f4565b935060808801359150808211156132e7575f80fd5b506132f488828901612fa0565b9150509295509295909350565b5f8060408385031215613312575f80fd5b823561331d81612ec8565b9150602083013561332d81612ec8565b809150509250929050565b5f60208284031215613348575f80fd5b6107ab82613059565b5f8060408385031215613362575f80fd5b82356001600160401b0380821115613378575f80fd5b818501915085601f83011261338b575f80fd5b8135602061339b612fbd836131d2565b82815260059290921b840181019181810190898411156133b9575f80fd5b948201945b838610156133e05785356133d181612ec8565b825294820194908201906133be565b965050860135925050808211156133f5575f80fd5b50613402858286016131f4565b9150509250929050565b5f815180845260208085019450602084015f5b8381101561343b5781518752958201959082019060010161341f565b509495945050505050565b602081525f6107ab602083018461340c565b5f60208284031215613468575f80fd5b81356107ab81612ec8565b6001600160a01b03831681526040602082018190525f90613496908301846130fe565b949350505050565b5f805f606084860312156134b0575f80fd5b83356134bb81612ec8565b925060208401356001600160401b03808211156134d6575f80fd5b6134e2878388016131f4565b935060408601359150808211156134f7575f80fd5b5061304f868287016131f4565b5f60208284031215613514575f80fd5b81356001600160401b03811115613529575f80fd5b820160a081850312156107ab575f80fd5b80151581146115d5575f80fd5b5f8060408385031215613558575f80fd5b823561356381612ec8565b9150602083013561332d8161353a565b5f805f8060808587031215613586575f80fd5b84356001600160401b0381111561359b575f80fd5b6135a787828801612fa0565b9450506135b660208601613059565b9250604085013563ffffffff811681146135ce575f80fd5b9396929550929360600135925050565b5f805f805f60a086880312156135f2575f80fd5b85356135fd81612ec8565b94506020868101356001600160401b0380821115613619575f80fd5b6136258a838b016131f4565b9650604089013591508082111561363a575f80fd5b6136468a838b016131f4565b9550606089013591508082111561365b575f80fd5b6136678a838b01612fa0565b9450608089013591508082111561367c575f80fd5b818901915089601f83011261368f575f80fd5b813561369d612fbd826131d2565b81815260059190911b8301840190848101908c8311156136bb575f80fd5b8585015b838110156136f1578035858111156136d5575f80fd5b6136e38f89838a0101612fa0565b8452509186019186016136bf565b508096505050505050509295509295909350565b5f805f805f60a08688031215613719575f80fd5b853561372481612ec8565b9450602086013593506040860135925060608601356001600160401b038082111561374d575f80fd5b6132d289838a01612fa0565b5f805f805f60a0868803121561376d575f80fd5b853561377881612ec8565b9450602086013561378881612ec8565b9350604086013592506060860135915060808601356001600160401b038111156137b0575f80fd5b6132f488828901612fa0565b5f805f606084860312156137ce575f80fd5b83356137d981612ec8565b95602085013595506040909401359392505050565b600181811c9082168061380257607f821691505b60208210810361382057634e487b7160e01b5f52602260045260245ffd5b50919050565b601f821115610f4e57805f5260205f20601f840160051c8101602085101561384b5750805b601f840160051c820191505b81811015611c97575f8155600101613857565b81516001600160401b0381111561388357613883612f36565b6138978161389184546137ee565b84613826565b602080601f8311600181146138ca575f84156138b35750858301515b5f19600386901b1c1916600185901b178555610ea0565b5f85815260208120601f198616915b828110156138f8578886015182559484019460019091019084016138d9565b508582101561391557878501515f19600388901b60f8161c191681555b5050505050600190811b01905550565b6001600160401b03841681526001600160a01b03831660208201526060604082018190525f90613957908301846130fe565b95945050505050565b6001600160a01b03878116825286166020820152604081018590526060810184905260c0608082018190525f90613999908301856130fe565b82810360a08401526139ab81856130fe565b9998505050505050505050565b634e487b7160e01b5f52602160045260245ffd5b5f60406001600160401b03851683526020604081850152845160a060408601526139f960e08601826130fe565b905081860151603f1980878403016060880152613a1683836130fe565b6040890151888203830160808a0152805180835290860194505f9350908501905b80841015613a6957845180516001600160a01b0316835286015186830152938501936001939093019290860190613a37565b5060608901516001600160a01b031660a08901526080890151888203830160c08a01529550613a9881876130fe565b9a9950505050505050505050565b5f60208284031215613ab6575f80fd5b5051919050565b5f60208284031215613acd575f80fd5b81516107ab8161353a565b6001600160a01b03888116825287166020820152604081018690526060810185905260e0608082018190525f90613b11908301866130fe565b6001600160401b0394851660a08401529290931660c0909101529695505050505050565b634e487b7160e01b5f52603260045260245ffd5b5f808335601e19843603018112613b5e575f80fd5b8301803591506001600160401b03821115613b77575f80fd5b602001915036819003821315613b8b575f80fd5b9250929050565b5f805f805f8060c08789031215613ba7575f80fd5b8635613bb281612ec8565b95506020870135613bc281612ec8565b9450604087013593506060870135925060808701356001600160401b0380821115613beb575f80fd5b613bf78a838b01612fa0565b935060a0890135915080821115613c0c575f80fd5b50613c1989828a01612fa0565b9150509295509295509295565b5f60208284031215613c36575f80fd5b81516001600160401b03811115613c4b575f80fd5b8201601f81018413613c5b575f80fd5b8051613c69612fbd82612f7a565b818152856020838501011115613c7d575f80fd5b6139578260208301602086016130dc565b5f805f8060808587031215613ca1575f80fd5b505082516020840151604085015160609095015191969095509092509050565b6001600160401b038616815260a060208201525f613ce260a08301876130fe565b61ffff9590951660408301525063ffffffff92909216606083015260809091015292915050565b634e487b7160e01b5f52601160045260245ffd5b8082018082111561053d5761053d613d09565b8181038181111561053d5761053d613d09565b6001600160a01b03868116825285166020820152604081018490526060810183905260a0608082018190525f90610e36908301846130fe565b5f60208284031215613d8c575f80fd5b81516107ab81612f06565b6001600160a01b0386811682528516602082015260a0604082018190525f90613dc29083018661340c565b8281036060840152613dd4818661340c565b90508281036080840152613de881856130fe565b98975050505050505050565b5f82613e0e57634e487b7160e01b5f52601260045260245ffd5b500690565b808202811582820484141761053d5761053d613d09565b604081525f613e3c604083018561340c565b8281036020840152613957818561340c565b600181815b80851115613e8857815f1904821115613e6e57613e6e613d09565b80851615613e7b57918102915b93841c9390800290613e53565b509250929050565b5f82613e9e5750600161053d565b81613eaa57505f61053d565b8160018114613ec05760028114613eca57613ee6565b600191505061053d565b60ff841115613edb57613edb613d09565b50506001821b61053d565b5060208310610133831016604e8410600b8410161715613f09575081810a61053d565b613f138383613e4e565b805f1904821115613f2657613f26613d09565b029392505050565b5f6107ab8383613e9056fea264697066735822122079b487556571fe7dfea77e474a5a6b8167d46415c690ddceeeac7bb64b28bf9364736f6c63430008180033636f6e7374207b20657468657273207d203d20617761697420696d706f727428276e706d3a65746865727340362e31302e3027293b636f6e73742048617368203d20617761697420696d706f727428276e706d3a697066732d6f6e6c792d6861736840342e302e3027293b636f6e737420617069526573706f6e7365203d2061776169742046756e6374696f6e732e6d616b654874747052657175657374287b2020202075726c3a206068747470733a2f2f6170692e627269646765646174616f75747075742e636f6d2f6170692f76322f4f446174612f746573742f50726f70657274792827505f35646261316662393461613430353562396632393639366627293f6163636573735f746f6b656e3d3662616361353437373432633666393661366666373162313338343234663231602c7d293b636f6e7374207265616c45737461746541646472657373203d20617069526573706f6e73652e646174612e556e706172736564416464726573733b636f6e737420796561724275696c74203d204e756d62657228617069526573706f6e73652e646174612e596561724275696c74293b636f6e7374206c6f7453697a6553717561726546656574203d204e756d62657228617069526573706f6e73652e646174612e4c6f7453697a6553717561726546656574293b636f6e7374206c6976696e6741726561203d204e756d62657228617069526573706f6e73652e646174612e4c6976696e6741726561293b636f6e737420626564726f6f6d73546f74616c203d204e756d62657228617069526573706f6e73652e646174612e426564726f6f6d73546f74616c293b636f6e7374206d65746164617461203d207b6e616d653a20605265616c2045737461746520546f6b656e602c617474726962757465733a205b7b2074726169745f747970653a20607265616c45737461746541646472657373602c2076616c75653a207265616c45737461746541646472657373207d2c7b2074726169745f747970653a2060796561724275696c74602c2076616c75653a20796561724275696c74207d2c7b2074726169745f747970653a20606c6f7453697a6553717561726546656574602c2076616c75653a206c6f7453697a6553717561726546656574207d2c7b2074726169745f747970653a20606c6976696e6741726561602c2076616c75653a206c6976696e6741726561207d2c7b2074726169745f747970653a2060626564726f6f6d73546f74616c602c2076616c75653a20626564726f6f6d73546f74616c207d5d7d3b636f6e7374206d65746164617461537472696e67203d204a534f4e2e737472696e67696679286d65746164617461293b636f6e73742069706673436964203d20617761697420486173682e6f66286d65746164617461537472696e67293b72657475726e2046756e6374696f6e732e656e636f6465537472696e672860697066733a2f2f247b697066734369647d60293b636f6e7374207b20657468657273207d203d20617761697420696d706f727428276e706d3a65746865727340362e31302e3027293b636f6e737420616269436f646572203d206574686572732e416269436f6465722e64656661756c74416269436f64657228293b636f6e737420746f6b656e4964203d20617267735b305d3b636f6e737420617069526573706f6e7365203d2061776169742046756e6374696f6e732e6d616b654874747052657175657374287b2020202075726c3a206068747470733a2f2f6170692e627269646765646174616f75747075742e636f6d2f6170692f76322f4f446174612f746573742f50726f70657274792827505f35646261316662393461613430353562396632393639366627293f6163636573735f746f6b656e3d3662616361353437373432633666393661366666373162313338343234663231602c7d293b636f6e7374206c6973745072696365203d204e756d62657228617069526573706f6e73652e646174612e4c6973745072696365293b636f6e7374206f726967696e616c4c6973745072696365203d204e756d62657228617069526573706f6e73652e646174612e4f726967696e616c4c6973745072696365293b636f6e737420746178417373657373656456616c7565203d204e756d62657228617069526573706f6e73652e646174612e546178417373657373656456616c7565293b636f6e737420656e636f646564203d20616269436f6465722e656e636f6465285b6075696e74323536602c206075696e74323536602c206075696e74323536602c206075696e74323536605d2c205b746f6b656e49642c206c69737450726963652c206f726967696e616c4c69737450726963652c20746178417373657373656456616c75655d293b72657475726e206574686572732e676574427974657328656e636f646564293b",
			"opcodes": "PUSH2 0x560 PUSH1 0x40 MSTORE PUSH2 0x43B PUSH2 0x100 DUP2 DUP2 MSTORE SWAP1 PUSH3 0x44C6 PUSH2 0x120 CODECOPY PUSH1 0x5 SWAP1 PUSH3 0x26 SWAP1 DUP3 PUSH3 0x2C0 JUMP JUMPDEST POP PUSH1 0x40 MLOAD DUP1 PUSH2 0x2E0 ADD PUSH1 0x40 MSTORE DUP1 PUSH2 0x2B1 DUP2 MSTORE PUSH1 0x20 ADD PUSH3 0x4901 PUSH2 0x2B1 SWAP2 CODECOPY PUSH1 0x6 SWAP1 PUSH3 0x53 SWAP1 DUP3 PUSH3 0x2C0 JUMP JUMPDEST POP CALLVALUE DUP1 ISZERO PUSH3 0x60 JUMPI PUSH0 DUP1 REVERT JUMPDEST POP PUSH1 0x40 MLOAD PUSH3 0x4BB2 CODESIZE SUB DUP1 PUSH3 0x4BB2 DUP4 CODECOPY DUP2 ADD PUSH1 0x40 DUP2 SWAP1 MSTORE PUSH3 0x83 SWAP2 PUSH3 0x3BF JUMP JUMPDEST DUP1 DUP6 DUP6 DUP6 DUP6 DUP4 CALLER DUP1 PUSH0 DUP9 DUP5 PUSH3 0x99 DUP2 PUSH3 0x165 JUMP JUMPDEST POP PUSH1 0x1 PUSH1 0x1 PUSH1 0xA0 SHL SUB SWAP1 DUP2 AND PUSH1 0x80 MSTORE DUP3 AND PUSH3 0xFC JUMPI PUSH1 0x40 MLOAD PUSH3 0x461BCD PUSH1 0xE5 SHL DUP2 MSTORE PUSH1 0x20 PUSH1 0x4 DUP3 ADD MSTORE PUSH1 0x18 PUSH1 0x24 DUP3 ADD MSTORE PUSH32 0x43616E6E6F7420736574206F776E657220746F207A65726F0000000000000000 PUSH1 0x44 DUP3 ADD MSTORE PUSH1 0x64 ADD JUMPDEST PUSH1 0x40 MLOAD DUP1 SWAP2 SUB SWAP1 REVERT JUMPDEST PUSH1 0x7 DUP1 SLOAD PUSH1 0x1 PUSH1 0x1 PUSH1 0xA0 SHL SUB NOT AND PUSH1 0x1 PUSH1 0x1 PUSH1 0xA0 SHL SUB DUP5 DUP2 AND SWAP2 SWAP1 SWAP2 OR SWAP1 SWAP2 SSTORE DUP2 AND ISZERO PUSH3 0x12F JUMPI PUSH3 0x12F DUP2 PUSH3 0x177 JUMP JUMPDEST POP POP PUSH1 0x1 PUSH1 0xB SSTORE POP POP PUSH1 0x1 PUSH1 0x1 PUSH1 0xA0 SHL SUB SWAP3 DUP4 AND PUSH1 0xA0 MSTORE SWAP2 AND PUSH1 0xC0 MSTORE PUSH1 0x1 PUSH1 0x1 PUSH1 0x40 SHL SUB AND PUSH1 0xE0 MSTORE POP PUSH3 0x4D6 SWAP6 POP POP POP POP POP POP JUMP JUMPDEST PUSH1 0x2 PUSH3 0x173 DUP3 DUP3 PUSH3 0x2C0 JUMP JUMPDEST POP POP JUMP JUMPDEST CALLER PUSH1 0x1 PUSH1 0x1 PUSH1 0xA0 SHL SUB DUP3 AND SUB PUSH3 0x1D1 JUMPI PUSH1 0x40 MLOAD PUSH3 0x461BCD PUSH1 0xE5 SHL DUP2 MSTORE PUSH1 0x20 PUSH1 0x4 DUP3 ADD MSTORE PUSH1 0x17 PUSH1 0x24 DUP3 ADD MSTORE PUSH32 0x43616E6E6F74207472616E7366657220746F2073656C66000000000000000000 PUSH1 0x44 DUP3 ADD MSTORE PUSH1 0x64 ADD PUSH3 0xF3 JUMP JUMPDEST PUSH1 0x8 DUP1 SLOAD PUSH1 0x1 PUSH1 0x1 PUSH1 0xA0 SHL SUB NOT AND PUSH1 0x1 PUSH1 0x1 PUSH1 0xA0 SHL SUB DUP4 DUP2 AND SWAP2 DUP3 OR SWAP1 SWAP3 SSTORE PUSH1 0x7 SLOAD PUSH1 0x40 MLOAD SWAP2 SWAP3 AND SWAP1 PUSH32 0xED8889F560326EB138920D842192F0EB3DD22B4F139C87A2C57538E05BAE1278 SWAP1 PUSH0 SWAP1 LOG3 POP JUMP JUMPDEST PUSH4 0x4E487B71 PUSH1 0xE0 SHL PUSH0 MSTORE PUSH1 0x41 PUSH1 0x4 MSTORE PUSH1 0x24 PUSH0 REVERT JUMPDEST PUSH1 0x1 DUP2 DUP2 SHR SWAP1 DUP3 AND DUP1 PUSH3 0x24B JUMPI PUSH1 0x7F DUP3 AND SWAP2 POP JUMPDEST PUSH1 0x20 DUP3 LT DUP2 SUB PUSH3 0x26A JUMPI PUSH4 0x4E487B71 PUSH1 0xE0 SHL PUSH0 MSTORE PUSH1 0x22 PUSH1 0x4 MSTORE PUSH1 0x24 PUSH0 REVERT JUMPDEST POP SWAP2 SWAP1 POP JUMP JUMPDEST PUSH1 0x1F DUP3 GT ISZERO PUSH3 0x2BB JUMPI DUP1 PUSH0 MSTORE PUSH1 0x20 PUSH0 KECCAK256 PUSH1 0x1F DUP5 ADD PUSH1 0x5 SHR DUP2 ADD PUSH1 0x20 DUP6 LT ISZERO PUSH3 0x297 JUMPI POP DUP1 JUMPDEST PUSH1 0x1F DUP5 ADD PUSH1 0x5 SHR DUP3 ADD SWAP2 POP JUMPDEST DUP2 DUP2 LT ISZERO PUSH3 0x2B8 JUMPI PUSH0 DUP2 SSTORE PUSH1 0x1 ADD PUSH3 0x2A3 JUMP JUMPDEST POP POP JUMPDEST POP POP POP JUMP JUMPDEST DUP2 MLOAD PUSH1 0x1 PUSH1 0x1 PUSH1 0x40 SHL SUB DUP2 GT ISZERO PUSH3 0x2DC JUMPI PUSH3 0x2DC PUSH3 0x222 JUMP JUMPDEST PUSH3 0x2F4 DUP2 PUSH3 0x2ED DUP5 SLOAD PUSH3 0x236 JUMP JUMPDEST DUP5 PUSH3 0x270 JUMP JUMPDEST PUSH1 0x20 DUP1 PUSH1 0x1F DUP4 GT PUSH1 0x1 DUP2 EQ PUSH3 0x32A JUMPI PUSH0 DUP5 ISZERO PUSH3 0x312 JUMPI POP DUP6 DUP4 ADD MLOAD JUMPDEST PUSH0 NOT PUSH1 0x3 DUP7 SWAP1 SHL SHR NOT AND PUSH1 0x1 DUP6 SWAP1 SHL OR DUP6 SSTORE PUSH3 0x384 JUMP JUMPDEST PUSH0 DUP6 DUP2 MSTORE PUSH1 0x20 DUP2 KECCAK256 PUSH1 0x1F NOT DUP7 AND SWAP2 JUMPDEST DUP3 DUP2 LT ISZERO PUSH3 0x35A JUMPI DUP9 DUP7 ADD MLOAD DUP3 SSTORE SWAP5 DUP5 ADD SWAP5 PUSH1 0x1 SWAP1 SWAP2 ADD SWAP1 DUP5 ADD PUSH3 0x339 JUMP JUMPDEST POP DUP6 DUP3 LT ISZERO PUSH3 0x378 JUMPI DUP8 DUP6 ADD MLOAD PUSH0 NOT PUSH1 0x3 DUP9 SWAP1 SHL PUSH1 0xF8 AND SHR NOT AND DUP2 SSTORE JUMPDEST POP POP PUSH1 0x1 DUP5 PUSH1 0x1 SHL ADD DUP6 SSTORE JUMPDEST POP POP POP POP POP POP JUMP JUMPDEST DUP1 MLOAD PUSH1 0x1 PUSH1 0x1 PUSH1 0xA0 SHL SUB DUP2 AND DUP2 EQ PUSH3 0x3A3 JUMPI PUSH0 DUP1 REVERT JUMPDEST SWAP2 SWAP1 POP JUMP JUMPDEST DUP1 MLOAD PUSH1 0x1 PUSH1 0x1 PUSH1 0x40 SHL SUB DUP2 AND DUP2 EQ PUSH3 0x3A3 JUMPI PUSH0 DUP1 REVERT JUMPDEST PUSH0 DUP1 PUSH0 DUP1 PUSH0 PUSH1 0xA0 DUP7 DUP9 SUB SLT ISZERO PUSH3 0x3D4 JUMPI PUSH0 DUP1 REVERT JUMPDEST DUP6 MLOAD PUSH1 0x1 PUSH1 0x1 PUSH1 0x40 SHL SUB DUP1 DUP3 GT ISZERO PUSH3 0x3EB JUMPI PUSH0 DUP1 REVERT JUMPDEST DUP2 DUP9 ADD SWAP2 POP DUP9 PUSH1 0x1F DUP4 ADD SLT PUSH3 0x3FF JUMPI PUSH0 DUP1 REVERT JUMPDEST DUP2 MLOAD DUP2 DUP2 GT ISZERO PUSH3 0x414 JUMPI PUSH3 0x414 PUSH3 0x222 JUMP JUMPDEST PUSH1 0x40 MLOAD PUSH1 0x1F DUP3 ADD PUSH1 0x1F NOT SWAP1 DUP2 AND PUSH1 0x3F ADD AND DUP2 ADD SWAP1 DUP4 DUP3 GT DUP2 DUP4 LT OR ISZERO PUSH3 0x43F JUMPI PUSH3 0x43F PUSH3 0x222 JUMP JUMPDEST DUP2 PUSH1 0x40 MSTORE DUP3 DUP2 MSTORE PUSH1 0x20 SWAP4 POP DUP12 DUP5 DUP5 DUP8 ADD ADD GT ISZERO PUSH3 0x45B JUMPI PUSH0 DUP1 REVERT JUMPDEST PUSH0 SWAP2 POP JUMPDEST DUP3 DUP3 LT ISZERO PUSH3 0x47E JUMPI DUP5 DUP3 ADD DUP5 ADD MLOAD DUP2 DUP4 ADD DUP6 ADD MSTORE SWAP1 DUP4 ADD SWAP1 PUSH3 0x45F JUMP JUMPDEST PUSH0 DUP5 DUP5 DUP4 ADD ADD MSTORE DUP1 SWAP10 POP POP POP POP PUSH3 0x498 DUP2 DUP10 ADD PUSH3 0x38C JUMP JUMPDEST SWAP6 POP POP POP PUSH3 0x4AA PUSH1 0x40 DUP8 ADD PUSH3 0x38C JUMP JUMPDEST SWAP3 POP PUSH3 0x4BA PUSH1 0x60 DUP8 ADD PUSH3 0x3A8 JUMP JUMPDEST SWAP2 POP PUSH3 0x4CA PUSH1 0x80 DUP8 ADD PUSH3 0x38C JUMP JUMPDEST SWAP1 POP SWAP3 SWAP6 POP SWAP3 SWAP6 SWAP1 SWAP4 POP JUMP JUMPDEST PUSH1 0x80 MLOAD PUSH1 0xA0 MLOAD PUSH1 0xC0 MLOAD PUSH1 0xE0 MLOAD PUSH2 0x3F6F PUSH3 0x557 PUSH0 CODECOPY PUSH0 DUP2 DUP2 PUSH2 0x5F5 ADD MSTORE DUP2 DUP2 PUSH2 0xDED ADD MSTORE DUP2 DUP2 PUSH2 0xF5E ADD MSTORE PUSH2 0x1587 ADD MSTORE PUSH0 DUP2 DUP2 PUSH2 0x901 ADD MSTORE DUP2 DUP2 PUSH2 0xA9F ADD MSTORE DUP2 DUP2 PUSH2 0xB2C ADD MSTORE PUSH2 0xC07 ADD MSTORE PUSH0 DUP2 DUP2 PUSH2 0x9E4 ADD MSTORE DUP2 DUP2 PUSH2 0xBD8 ADD MSTORE DUP2 DUP2 PUSH2 0xC89 ADD MSTORE DUP2 DUP2 PUSH2 0xD48 ADD MSTORE PUSH2 0x13F9 ADD MSTORE PUSH0 DUP2 DUP2 PUSH2 0x572 ADD MSTORE PUSH2 0x20C4 ADD MSTORE PUSH2 0x3F6F PUSH0 RETURN INVALID PUSH1 0x80 PUSH1 0x40 MSTORE CALLVALUE DUP1 ISZERO PUSH2 0xF JUMPI PUSH0 DUP1 REVERT JUMPDEST POP PUSH1 0x4 CALLDATASIZE LT PUSH2 0x1E6 JUMPI PUSH0 CALLDATALOAD PUSH1 0xE0 SHR DUP1 PUSH4 0x79BA5097 GT PUSH2 0x109 JUMPI DUP1 PUSH4 0xC1341C4F GT PUSH2 0x9E JUMPI DUP1 PUSH4 0xF0ED2E80 GT PUSH2 0x6E JUMPI DUP1 PUSH4 0xF0ED2E80 EQ PUSH2 0x441 JUMPI DUP1 PUSH4 0xF242432A EQ PUSH2 0x4E3 JUMPI DUP1 PUSH4 0xF2FDE38B EQ PUSH2 0x4F6 JUMPI DUP1 PUSH4 0xF5298ACA EQ PUSH2 0x509 JUMPI PUSH0 DUP1 REVERT JUMPDEST DUP1 PUSH4 0xC1341C4F EQ PUSH2 0x400 JUMPI DUP1 PUSH4 0xD40D17BC EQ PUSH2 0x413 JUMPI DUP1 PUSH4 0xE6B46FF5 EQ PUSH2 0x426 JUMPI DUP1 PUSH4 0xE985E9C5 EQ PUSH2 0x42E JUMPI PUSH0 DUP1 REVERT JUMPDEST DUP1 PUSH4 0xA843A0AB GT PUSH2 0xD9 JUMPI DUP1 PUSH4 0xA843A0AB EQ PUSH2 0x3B3 JUMPI DUP1 PUSH4 0xB942F8CB EQ PUSH2 0x3C6 JUMPI DUP1 PUSH4 0xBD85B039 EQ PUSH2 0x3D9 JUMPI DUP1 PUSH4 0xBD9A548B EQ PUSH2 0x3F8 JUMPI PUSH0 DUP1 REVERT JUMPDEST DUP1 PUSH4 0x79BA5097 EQ PUSH2 0x36A JUMPI DUP1 PUSH4 0x85572FFB EQ PUSH2 0x372 JUMPI DUP1 PUSH4 0x8DA5CB5B EQ PUSH2 0x385 JUMPI DUP1 PUSH4 0xA22CB465 EQ PUSH2 0x3A0 JUMPI PUSH0 DUP1 REVERT JUMPDEST DUP1 PUSH4 0x3AEAC4E1 GT PUSH2 0x17F JUMPI DUP1 PUSH4 0x51CFF8D9 GT PUSH2 0x14F JUMPI DUP1 PUSH4 0x51CFF8D9 EQ PUSH2 0x310 JUMPI DUP1 PUSH4 0x55CC4E57 EQ PUSH2 0x323 JUMPI DUP1 PUSH4 0x5DC5EBDB EQ PUSH2 0x336 JUMPI DUP1 PUSH4 0x6B20C454 EQ PUSH2 0x357 JUMPI PUSH0 DUP1 REVERT JUMPDEST DUP1 PUSH4 0x3AEAC4E1 EQ PUSH2 0x2A9 JUMPI DUP1 PUSH4 0x41EADE46 EQ PUSH2 0x2BC JUMPI DUP1 PUSH4 0x4E1273F4 EQ PUSH2 0x2CF JUMPI DUP1 PUSH4 0x4F558E79 EQ PUSH2 0x2EF JUMPI PUSH0 DUP1 REVERT JUMPDEST DUP1 PUSH4 0xE89341C GT PUSH2 0x1BA JUMPI DUP1 PUSH4 0xE89341C EQ PUSH2 0x25B JUMPI DUP1 PUSH4 0x18160DDD EQ PUSH2 0x27B JUMPI DUP1 PUSH4 0x240B3B49 EQ PUSH2 0x283 JUMPI DUP1 PUSH4 0x2EB2C2D6 EQ PUSH2 0x296 JUMPI PUSH0 DUP1 REVERT JUMPDEST DUP1 PUSH3 0xFDD58E EQ PUSH2 0x1EA JUMPI DUP1 PUSH4 0x1FFC9A7 EQ PUSH2 0x210 JUMPI DUP1 PUSH4 0xCA76175 EQ PUSH2 0x233 JUMPI DUP1 PUSH4 0xCE639C4 EQ PUSH2 0x248 JUMPI JUMPDEST PUSH0 DUP1 REVERT JUMPDEST PUSH2 0x1FD PUSH2 0x1F8 CALLDATASIZE PUSH1 0x4 PUSH2 0x2EDC JUMP JUMPDEST PUSH2 0x51C JUMP JUMPDEST PUSH1 0x40 MLOAD SWAP1 DUP2 MSTORE PUSH1 0x20 ADD JUMPDEST PUSH1 0x40 MLOAD DUP1 SWAP2 SUB SWAP1 RETURN JUMPDEST PUSH2 0x223 PUSH2 0x21E CALLDATASIZE PUSH1 0x4 PUSH2 0x2F1B JUMP JUMPDEST PUSH2 0x543 JUMP JUMPDEST PUSH1 0x40 MLOAD SWAP1 ISZERO ISZERO DUP2 MSTORE PUSH1 0x20 ADD PUSH2 0x207 JUMP JUMPDEST PUSH2 0x246 PUSH2 0x241 CALLDATASIZE PUSH1 0x4 PUSH2 0x2FF2 JUMP JUMPDEST PUSH2 0x567 JUMP JUMPDEST STOP JUMPDEST PUSH2 0x246 PUSH2 0x256 CALLDATASIZE PUSH1 0x4 PUSH2 0x3074 JUMP JUMPDEST PUSH2 0x5EA JUMP JUMPDEST PUSH2 0x26E PUSH2 0x269 CALLDATASIZE PUSH1 0x4 PUSH2 0x30C5 JUMP JUMPDEST PUSH2 0x6F8 JUMP JUMPDEST PUSH1 0x40 MLOAD PUSH2 0x207 SWAP2 SWAP1 PUSH2 0x3129 JUMP JUMPDEST PUSH1 0x4 SLOAD PUSH2 0x1FD JUMP JUMPDEST PUSH2 0x1FD PUSH2 0x291 CALLDATASIZE PUSH1 0x4 PUSH2 0x313B JUMP JUMPDEST PUSH2 0x7B2 JUMP JUMPDEST PUSH2 0x246 PUSH2 0x2A4 CALLDATASIZE PUSH1 0x4 PUSH2 0x325B JUMP JUMPDEST PUSH2 0xE41 JUMP JUMPDEST PUSH2 0x246 PUSH2 0x2B7 CALLDATASIZE PUSH1 0x4 PUSH2 0x3301 JUMP JUMPDEST PUSH2 0xEA8 JUMP JUMPDEST PUSH2 0x246 PUSH2 0x2CA CALLDATASIZE PUSH1 0x4 PUSH2 0x3338 JUMP JUMPDEST PUSH2 0xF53 JUMP JUMPDEST PUSH2 0x2E2 PUSH2 0x2DD CALLDATASIZE PUSH1 0x4 PUSH2 0x3351 JUMP JUMPDEST PUSH2 0x102E JUMP JUMPDEST PUSH1 0x40 MLOAD PUSH2 0x207 SWAP2 SWAP1 PUSH2 0x3446 JUMP JUMPDEST PUSH2 0x223 PUSH2 0x2FD CALLDATASIZE PUSH1 0x4 PUSH2 0x30C5 JUMP JUMPDEST PUSH0 SWAP1 DUP2 MSTORE PUSH1 0x3 PUSH1 0x20 MSTORE PUSH1 0x40 SWAP1 KECCAK256 SLOAD ISZERO ISZERO SWAP1 JUMP JUMPDEST PUSH2 0x246 PUSH2 0x31E CALLDATASIZE PUSH1 0x4 PUSH2 0x3458 JUMP JUMPDEST PUSH2 0x10F8 JUMP JUMPDEST PUSH2 0x246 PUSH2 0x331 CALLDATASIZE PUSH1 0x4 PUSH2 0x3458 JUMP JUMPDEST PUSH2 0x11AA JUMP JUMPDEST PUSH2 0x349 PUSH2 0x344 CALLDATASIZE PUSH1 0x4 PUSH2 0x3338 JUMP JUMPDEST PUSH2 0x11FB JUMP JUMPDEST PUSH1 0x40 MLOAD PUSH2 0x207 SWAP3 SWAP2 SWAP1 PUSH2 0x3473 JUMP JUMPDEST PUSH2 0x246 PUSH2 0x365 CALLDATASIZE PUSH1 0x4 PUSH2 0x349E JUMP JUMPDEST PUSH2 0x12A7 JUMP JUMPDEST PUSH2 0x246 PUSH2 0x1341 JUMP JUMPDEST PUSH2 0x246 PUSH2 0x380 CALLDATASIZE PUSH1 0x4 PUSH2 0x3504 JUMP JUMPDEST PUSH2 0x13EE JUMP JUMPDEST PUSH1 0x7 SLOAD PUSH1 0x40 MLOAD PUSH1 0x1 PUSH1 0x1 PUSH1 0xA0 SHL SUB SWAP1 SWAP2 AND DUP2 MSTORE PUSH1 0x20 ADD PUSH2 0x207 JUMP JUMPDEST PUSH2 0x246 PUSH2 0x3AE CALLDATASIZE PUSH1 0x4 PUSH2 0x3547 JUMP JUMPDEST PUSH2 0x15D8 JUMP JUMPDEST PUSH2 0x1FD PUSH2 0x3C1 CALLDATASIZE PUSH1 0x4 PUSH2 0x3573 JUMP JUMPDEST PUSH2 0x15E7 JUMP JUMPDEST PUSH2 0x246 PUSH2 0x3D4 CALLDATASIZE PUSH1 0x4 PUSH2 0x35DE JUMP JUMPDEST PUSH2 0x1740 JUMP JUMPDEST PUSH2 0x1FD PUSH2 0x3E7 CALLDATASIZE PUSH1 0x4 PUSH2 0x30C5 JUMP JUMPDEST PUSH0 SWAP1 DUP2 MSTORE PUSH1 0x3 PUSH1 0x20 MSTORE PUSH1 0x40 SWAP1 KECCAK256 SLOAD SWAP1 JUMP JUMPDEST PUSH2 0x26E PUSH2 0x17EB JUMP JUMPDEST PUSH2 0x246 PUSH2 0x40E CALLDATASIZE PUSH1 0x4 PUSH2 0x3705 JUMP JUMPDEST PUSH2 0x1877 JUMP JUMPDEST PUSH2 0x246 PUSH2 0x421 CALLDATASIZE PUSH1 0x4 PUSH2 0x3458 JUMP JUMPDEST PUSH2 0x18D5 JUMP JUMPDEST PUSH2 0x26E PUSH2 0x18FF JUMP JUMPDEST PUSH2 0x223 PUSH2 0x43C CALLDATASIZE PUSH1 0x4 PUSH2 0x3301 JUMP JUMPDEST PUSH2 0x190C JUMP JUMPDEST PUSH2 0x4AE PUSH2 0x44F CALLDATASIZE PUSH1 0x4 PUSH2 0x30C5 JUMP JUMPDEST PUSH1 0x40 DUP1 MLOAD PUSH1 0x60 DUP1 DUP3 ADD DUP4 MSTORE PUSH0 DUP1 DUP4 MSTORE PUSH1 0x20 DUP1 DUP5 ADD DUP3 SWAP1 MSTORE SWAP3 DUP5 ADD DUP2 SWAP1 MSTORE SWAP4 DUP5 MSTORE PUSH1 0xE DUP3 MSTORE SWAP3 DUP3 SWAP1 KECCAK256 DUP3 MLOAD SWAP4 DUP5 ADD DUP4 MSTORE SLOAD PUSH10 0xFFFFFFFFFFFFFFFFFFFF DUP1 DUP3 AND DUP6 MSTORE PUSH1 0x1 PUSH1 0x50 SHL DUP3 DIV DUP2 AND SWAP3 DUP6 ADD SWAP3 SWAP1 SWAP3 MSTORE PUSH1 0x1 PUSH1 0xA0 SHL SWAP1 DIV AND SWAP1 DUP3 ADD MSTORE SWAP1 JUMP JUMPDEST PUSH1 0x40 DUP1 MLOAD DUP3 MLOAD PUSH10 0xFFFFFFFFFFFFFFFFFFFF SWAP1 DUP2 AND DUP3 MSTORE PUSH1 0x20 DUP1 DUP6 ADD MLOAD DUP3 AND SWAP1 DUP4 ADD MSTORE SWAP3 DUP3 ADD MLOAD SWAP1 SWAP3 AND SWAP1 DUP3 ADD MSTORE PUSH1 0x60 ADD PUSH2 0x207 JUMP JUMPDEST PUSH2 0x246 PUSH2 0x4F1 CALLDATASIZE PUSH1 0x4 PUSH2 0x3759 JUMP JUMPDEST PUSH2 0x1939 JUMP JUMPDEST PUSH2 0x246 PUSH2 0x504 CALLDATASIZE PUSH1 0x4 PUSH2 0x3458 JUMP JUMPDEST PUSH2 0x1998 JUMP JUMPDEST PUSH2 0x246 PUSH2 0x517 CALLDATASIZE PUSH1 0x4 PUSH2 0x37BC JUMP JUMPDEST PUSH2 0x19A9 JUMP JUMPDEST PUSH0 DUP2 DUP2 MSTORE PUSH1 0x20 DUP2 DUP2 MSTORE PUSH1 0x40 DUP1 DUP4 KECCAK256 PUSH1 0x1 PUSH1 0x1 PUSH1 0xA0 SHL SUB DUP7 AND DUP5 MSTORE SWAP1 SWAP2 MSTORE SWAP1 KECCAK256 SLOAD JUMPDEST SWAP3 SWAP2 POP POP JUMP JUMPDEST PUSH0 PUSH1 0x1 PUSH1 0x1 PUSH1 0xE0 SHL SUB NOT DUP3 AND PUSH4 0x85572FFB PUSH1 0xE0 SHL EQ DUP1 PUSH2 0x53D JUMPI POP PUSH2 0x53D DUP3 PUSH2 0x1A1A JUMP JUMPDEST CALLER PUSH1 0x1 PUSH1 0x1 PUSH1 0xA0 SHL SUB PUSH32 0x0 AND EQ PUSH2 0x5B0 JUMPI PUSH1 0x40 MLOAD PUSH4 0xC6829F83 PUSH1 0xE0 SHL DUP2 MSTORE PUSH1 0x4 ADD PUSH1 0x40 MLOAD DUP1 SWAP2 SUB SWAP1 REVERT JUMPDEST PUSH2 0x5BB DUP4 DUP4 DUP4 PUSH2 0x1A69 JUMP JUMPDEST PUSH1 0x40 MLOAD DUP4 SWAP1 PUSH32 0x85E1543BF2F84FE80C6BADBCE3648C8539AD1DF4D2B3D822938CA0538BE727E6 SWAP1 PUSH0 SWAP1 LOG2 POP POP POP JUMP JUMPDEST PUSH2 0x5F2 PUSH2 0x1B28 JUMP JUMPDEST DUP3 PUSH32 0x0 PUSH1 0x1 PUSH1 0x1 PUSH1 0x40 SHL SUB AND DUP2 PUSH1 0x1 PUSH1 0x1 PUSH1 0x40 SHL SUB AND SUB PUSH2 0x655 JUMPI PUSH1 0x40 MLOAD PUSH4 0x40D8E3A1 PUSH1 0xE0 SHL DUP2 MSTORE PUSH1 0x1 PUSH1 0x1 PUSH1 0x40 SHL SUB DUP3 AND PUSH1 0x4 DUP3 ADD MSTORE PUSH1 0x24 ADD JUMPDEST PUSH1 0x40 MLOAD DUP1 SWAP2 SUB SWAP1 REVERT JUMPDEST PUSH1 0x40 DUP1 MLOAD DUP1 DUP3 ADD DUP3 MSTORE PUSH1 0x1 PUSH1 0x1 PUSH1 0xA0 SHL SUB DUP6 DUP2 AND DUP3 MSTORE PUSH1 0x20 DUP1 DUP4 ADD DUP7 DUP2 MSTORE PUSH1 0x1 PUSH1 0x1 PUSH1 0x40 SHL SUB DUP10 AND PUSH0 SWAP1 DUP2 MSTORE PUSH1 0xC SWAP1 SWAP3 MSTORE SWAP4 SWAP1 KECCAK256 DUP3 MLOAD DUP2 SLOAD PUSH1 0x1 PUSH1 0x1 PUSH1 0xA0 SHL SUB NOT AND SWAP3 AND SWAP2 SWAP1 SWAP2 OR DUP2 SSTORE SWAP2 MLOAD SWAP1 SWAP2 SWAP1 PUSH1 0x1 DUP3 ADD SWAP1 PUSH2 0x6B3 SWAP1 DUP3 PUSH2 0x386A JUMP JUMPDEST POP SWAP1 POP POP PUSH32 0x59CC0B49D3359AC35E3872E99199469B6A1025C9A945CD9B6A411BFFE337272D DUP5 DUP5 DUP5 PUSH1 0x40 MLOAD PUSH2 0x6EA SWAP4 SWAP3 SWAP2 SWAP1 PUSH2 0x3925 JUMP JUMPDEST PUSH1 0x40 MLOAD DUP1 SWAP2 SUB SWAP1 LOG1 POP POP POP POP JUMP JUMPDEST PUSH0 DUP2 DUP2 MSTORE PUSH1 0xA PUSH1 0x20 MSTORE PUSH1 0x40 DUP2 KECCAK256 DUP1 SLOAD PUSH1 0x60 SWAP3 SWAP2 SWAP1 PUSH2 0x715 SWAP1 PUSH2 0x37EE JUMP JUMPDEST DUP1 PUSH1 0x1F ADD PUSH1 0x20 DUP1 SWAP2 DIV MUL PUSH1 0x20 ADD PUSH1 0x40 MLOAD SWAP1 DUP2 ADD PUSH1 0x40 MSTORE DUP1 SWAP3 SWAP2 SWAP1 DUP2 DUP2 MSTORE PUSH1 0x20 ADD DUP3 DUP1 SLOAD PUSH2 0x741 SWAP1 PUSH2 0x37EE JUMP JUMPDEST DUP1 ISZERO PUSH2 0x78C JUMPI DUP1 PUSH1 0x1F LT PUSH2 0x763 JUMPI PUSH2 0x100 DUP1 DUP4 SLOAD DIV MUL DUP4 MSTORE SWAP2 PUSH1 0x20 ADD SWAP2 PUSH2 0x78C JUMP JUMPDEST DUP3 ADD SWAP2 SWAP1 PUSH0 MSTORE PUSH1 0x20 PUSH0 KECCAK256 SWAP1 JUMPDEST DUP2 SLOAD DUP2 MSTORE SWAP1 PUSH1 0x1 ADD SWAP1 PUSH1 0x20 ADD DUP1 DUP4 GT PUSH2 0x76F JUMPI DUP3 SWAP1 SUB PUSH1 0x1F AND DUP3 ADD SWAP2 JUMPDEST POP POP POP POP POP SWAP1 POP PUSH0 DUP2 MLOAD GT PUSH2 0x7A9 JUMPI PUSH2 0x7A4 DUP4 PUSH2 0x1B7D JUMP JUMPDEST PUSH2 0x7AB JUMP JUMPDEST DUP1 JUMPDEST SWAP4 SWAP3 POP POP POP JUMP JUMPDEST PUSH0 PUSH2 0x7BB PUSH2 0x1C0F JUMP JUMPDEST PUSH1 0x1 PUSH1 0x1 PUSH1 0x40 SHL SUB DUP4 AND PUSH0 SWAP1 DUP2 MSTORE PUSH1 0xC PUSH1 0x20 MSTORE PUSH1 0x40 SWAP1 KECCAK256 SLOAD DUP4 SWAP1 PUSH1 0x1 PUSH1 0x1 PUSH1 0xA0 SHL SUB AND PUSH2 0x806 JUMPI PUSH1 0x40 MLOAD PUSH4 0xE19FDF7 PUSH1 0xE1 SHL DUP2 MSTORE PUSH1 0x1 PUSH1 0x1 PUSH1 0x40 SHL SUB DUP3 AND PUSH1 0x4 DUP3 ADD MSTORE PUSH1 0x24 ADD PUSH2 0x64C JUMP JUMPDEST PUSH0 PUSH2 0x810 DUP9 PUSH2 0x6F8 JUMP JUMPDEST SWAP1 POP PUSH2 0x81D DUP11 DUP10 DUP10 PUSH2 0x19A9 JUMP JUMPDEST PUSH1 0x40 DUP1 MLOAD PUSH1 0xA0 DUP2 ADD DUP3 MSTORE PUSH1 0x1 PUSH1 0x1 PUSH1 0x40 SHL SUB DUP8 AND PUSH0 SWAP1 DUP2 MSTORE PUSH1 0xC PUSH1 0x20 MSTORE SWAP2 DUP3 KECCAK256 SLOAD PUSH1 0x1 PUSH1 0x1 PUSH1 0xA0 SHL SUB AND PUSH1 0xC0 DUP3 ADD MSTORE DUP1 PUSH1 0xE0 DUP2 ADD PUSH1 0x40 MLOAD PUSH1 0x20 DUP2 DUP4 SUB SUB DUP2 MSTORE SWAP1 PUSH1 0x40 MSTORE DUP2 MSTORE PUSH1 0x20 ADD DUP13 DUP13 DUP13 DUP13 DUP13 DUP9 PUSH1 0x40 MLOAD PUSH1 0x20 ADD PUSH2 0x880 SWAP7 SWAP6 SWAP5 SWAP4 SWAP3 SWAP2 SWAP1 PUSH2 0x3960 JUMP JUMPDEST PUSH1 0x40 DUP1 MLOAD PUSH1 0x1F NOT DUP2 DUP5 SUB ADD DUP2 MSTORE SWAP2 SWAP1 MSTORE DUP2 MSTORE PUSH1 0x20 ADD PUSH0 PUSH1 0x40 MLOAD SWAP1 DUP1 DUP3 MSTORE DUP1 PUSH1 0x20 MUL PUSH1 0x20 ADD DUP3 ADD PUSH1 0x40 MSTORE DUP1 ISZERO PUSH2 0x8DA JUMPI DUP2 PUSH1 0x20 ADD JUMPDEST PUSH1 0x40 DUP1 MLOAD DUP1 DUP3 ADD SWAP1 SWAP2 MSTORE PUSH0 DUP1 DUP3 MSTORE PUSH1 0x20 DUP3 ADD MSTORE DUP2 MSTORE PUSH1 0x20 ADD SWAP1 PUSH1 0x1 SWAP1 SUB SWAP1 DUP2 PUSH2 0x8B4 JUMPI SWAP1 POP JUMPDEST POP DUP2 MSTORE PUSH1 0x20 ADD PUSH1 0x1 DUP8 PUSH1 0x1 DUP2 GT ISZERO PUSH2 0x8F4 JUMPI PUSH2 0x8F4 PUSH2 0x39B8 JUMP JUMPDEST EQ PUSH2 0x8FF JUMPI PUSH0 PUSH2 0x921 JUMP JUMPDEST PUSH32 0x0 JUMPDEST PUSH1 0x1 PUSH1 0x1 PUSH1 0xA0 SHL SUB AND DUP2 MSTORE PUSH1 0x20 ADD PUSH1 0xC PUSH0 DUP10 PUSH1 0x1 PUSH1 0x1 PUSH1 0x40 SHL SUB AND PUSH1 0x1 PUSH1 0x1 PUSH1 0x40 SHL SUB AND DUP2 MSTORE PUSH1 0x20 ADD SWAP1 DUP2 MSTORE PUSH1 0x20 ADD PUSH0 KECCAK256 PUSH1 0x1 ADD DUP1 SLOAD PUSH2 0x960 SWAP1 PUSH2 0x37EE JUMP JUMPDEST DUP1 PUSH1 0x1F ADD PUSH1 0x20 DUP1 SWAP2 DIV MUL PUSH1 0x20 ADD PUSH1 0x40 MLOAD SWAP1 DUP2 ADD PUSH1 0x40 MSTORE DUP1 SWAP3 SWAP2 SWAP1 DUP2 DUP2 MSTORE PUSH1 0x20 ADD DUP3 DUP1 SLOAD PUSH2 0x98C SWAP1 PUSH2 0x37EE JUMP JUMPDEST DUP1 ISZERO PUSH2 0x9D7 JUMPI DUP1 PUSH1 0x1F LT PUSH2 0x9AE JUMPI PUSH2 0x100 DUP1 DUP4 SLOAD DIV MUL DUP4 MSTORE SWAP2 PUSH1 0x20 ADD SWAP2 PUSH2 0x9D7 JUMP JUMPDEST DUP3 ADD SWAP2 SWAP1 PUSH0 MSTORE PUSH1 0x20 PUSH0 KECCAK256 SWAP1 JUMPDEST DUP2 SLOAD DUP2 MSTORE SWAP1 PUSH1 0x1 ADD SWAP1 PUSH1 0x20 ADD DUP1 DUP4 GT PUSH2 0x9BA JUMPI DUP3 SWAP1 SUB PUSH1 0x1F AND DUP3 ADD SWAP2 JUMPDEST POP POP POP POP POP DUP2 MSTORE POP SWAP1 POP PUSH0 PUSH32 0x0 PUSH1 0x1 PUSH1 0x1 PUSH1 0xA0 SHL SUB AND PUSH4 0x20487DED DUP9 DUP5 PUSH1 0x40 MLOAD DUP4 PUSH4 0xFFFFFFFF AND PUSH1 0xE0 SHL DUP2 MSTORE PUSH1 0x4 ADD PUSH2 0xA30 SWAP3 SWAP2 SWAP1 PUSH2 0x39CC JUMP JUMPDEST PUSH1 0x20 PUSH1 0x40 MLOAD DUP1 DUP4 SUB DUP2 DUP7 GAS STATICCALL ISZERO DUP1 ISZERO PUSH2 0xA4B JUMPI RETURNDATASIZE PUSH0 DUP1 RETURNDATACOPY RETURNDATASIZE PUSH0 REVERT JUMPDEST POP POP POP POP PUSH1 0x40 MLOAD RETURNDATASIZE PUSH1 0x1F NOT PUSH1 0x1F DUP3 ADD AND DUP3 ADD DUP1 PUSH1 0x40 MSTORE POP DUP2 ADD SWAP1 PUSH2 0xA6F SWAP2 SWAP1 PUSH2 0x3AA6 JUMP JUMPDEST SWAP1 POP PUSH1 0x1 DUP7 PUSH1 0x1 DUP2 GT ISZERO PUSH2 0xA85 JUMPI PUSH2 0xA85 PUSH2 0x39B8 JUMP JUMPDEST SUB PUSH2 0xD07 JUMPI PUSH1 0x40 MLOAD PUSH4 0x70A08231 PUSH1 0xE0 SHL DUP2 MSTORE ADDRESS PUSH1 0x4 DUP3 ADD MSTORE PUSH32 0x0 PUSH1 0x1 PUSH1 0x1 PUSH1 0xA0 SHL SUB AND SWAP1 PUSH4 0x70A08231 SWAP1 PUSH1 0x24 ADD PUSH1 0x20 PUSH1 0x40 MLOAD DUP1 DUP4 SUB DUP2 DUP7 GAS STATICCALL ISZERO DUP1 ISZERO PUSH2 0xAEC JUMPI RETURNDATASIZE PUSH0 DUP1 RETURNDATACOPY RETURNDATASIZE PUSH0 REVERT JUMPDEST POP POP POP POP PUSH1 0x40 MLOAD RETURNDATASIZE PUSH1 0x1F NOT PUSH1 0x1F DUP3 ADD AND DUP3 ADD DUP1 PUSH1 0x40 MSTORE POP DUP2 ADD SWAP1 PUSH2 0xB10 SWAP2 SWAP1 PUSH2 0x3AA6 JUMP JUMPDEST DUP2 GT ISZERO PUSH2 0xBC1 JUMPI PUSH1 0x40 MLOAD PUSH4 0x70A08231 PUSH1 0xE0 SHL DUP2 MSTORE ADDRESS PUSH1 0x4 DUP3 ADD MSTORE PUSH32 0x0 PUSH1 0x1 PUSH1 0x1 PUSH1 0xA0 SHL SUB AND SWAP1 PUSH4 0x70A08231 SWAP1 PUSH1 0x24 ADD PUSH1 0x20 PUSH1 0x40 MLOAD DUP1 DUP4 SUB DUP2 DUP7 GAS STATICCALL ISZERO DUP1 ISZERO PUSH2 0xB79 JUMPI RETURNDATASIZE PUSH0 DUP1 RETURNDATACOPY RETURNDATASIZE PUSH0 REVERT JUMPDEST POP POP POP POP PUSH1 0x40 MLOAD RETURNDATASIZE PUSH1 0x1F NOT PUSH1 0x1F DUP3 ADD AND DUP3 ADD DUP1 PUSH1 0x40 MSTORE POP DUP2 ADD SWAP1 PUSH2 0xB9D SWAP2 SWAP1 PUSH2 0x3AA6 JUMP JUMPDEST PUSH1 0x40 MLOAD PUSH4 0x28FDCAA1 PUSH1 0xE0 SHL DUP2 MSTORE PUSH1 0x4 DUP2 ADD SWAP2 SWAP1 SWAP2 MSTORE PUSH1 0x24 DUP2 ADD DUP3 SWAP1 MSTORE PUSH1 0x44 ADD PUSH2 0x64C JUMP JUMPDEST PUSH1 0x40 MLOAD PUSH4 0x95EA7B3 PUSH1 0xE0 SHL DUP2 MSTORE PUSH1 0x1 PUSH1 0x1 PUSH1 0xA0 SHL SUB PUSH32 0x0 DUP2 AND PUSH1 0x4 DUP4 ADD MSTORE PUSH1 0x24 DUP3 ADD DUP4 SWAP1 MSTORE PUSH32 0x0 AND SWAP1 PUSH4 0x95EA7B3 SWAP1 PUSH1 0x44 ADD PUSH1 0x20 PUSH1 0x40 MLOAD DUP1 DUP4 SUB DUP2 PUSH0 DUP8 GAS CALL ISZERO DUP1 ISZERO PUSH2 0xC4D JUMPI RETURNDATASIZE PUSH0 DUP1 RETURNDATACOPY RETURNDATASIZE PUSH0 REVERT JUMPDEST POP POP POP POP PUSH1 0x40 MLOAD RETURNDATASIZE PUSH1 0x1F NOT PUSH1 0x1F DUP3 ADD AND DUP3 ADD DUP1 PUSH1 0x40 MSTORE POP DUP2 ADD SWAP1 PUSH2 0xC71 SWAP2 SWAP1 PUSH2 0x3ABD JUMP JUMPDEST POP PUSH1 0x40 MLOAD PUSH4 0x96F4E9F9 PUSH1 0xE0 SHL DUP2 MSTORE PUSH1 0x1 PUSH1 0x1 PUSH1 0xA0 SHL SUB PUSH32 0x0 AND SWAP1 PUSH4 0x96F4E9F9 SWAP1 PUSH2 0xCC0 SWAP1 DUP11 SWAP1 DUP7 SWAP1 PUSH1 0x4 ADD PUSH2 0x39CC JUMP JUMPDEST PUSH1 0x20 PUSH1 0x40 MLOAD DUP1 DUP4 SUB DUP2 PUSH0 DUP8 GAS CALL ISZERO DUP1 ISZERO PUSH2 0xCDC JUMPI RETURNDATASIZE PUSH0 DUP1 RETURNDATACOPY RETURNDATASIZE PUSH0 REVERT JUMPDEST POP POP POP POP PUSH1 0x40 MLOAD RETURNDATASIZE PUSH1 0x1F NOT PUSH1 0x1F DUP3 ADD AND DUP3 ADD DUP1 PUSH1 0x40 MSTORE POP DUP2 ADD SWAP1 PUSH2 0xD00 SWAP2 SWAP1 PUSH2 0x3AA6 JUMP JUMPDEST SWAP5 POP PUSH2 0xDC5 JUMP JUMPDEST SELFBALANCE DUP2 GT ISZERO PUSH2 0xD31 JUMPI PUSH1 0x40 MLOAD PUSH4 0x28FDCAA1 PUSH1 0xE0 SHL DUP2 MSTORE SELFBALANCE PUSH1 0x4 DUP3 ADD MSTORE PUSH1 0x24 DUP2 ADD DUP3 SWAP1 MSTORE PUSH1 0x44 ADD PUSH2 0x64C JUMP JUMPDEST PUSH1 0x40 MLOAD PUSH4 0x96F4E9F9 PUSH1 0xE0 SHL DUP2 MSTORE PUSH1 0x1 PUSH1 0x1 PUSH1 0xA0 SHL SUB PUSH32 0x0 AND SWAP1 PUSH4 0x96F4E9F9 SWAP1 DUP4 SWAP1 PUSH2 0xD81 SWAP1 DUP12 SWAP1 DUP8 SWAP1 PUSH1 0x4 ADD PUSH2 0x39CC JUMP JUMPDEST PUSH1 0x20 PUSH1 0x40 MLOAD DUP1 DUP4 SUB DUP2 DUP6 DUP9 GAS CALL ISZERO DUP1 ISZERO PUSH2 0xD9D JUMPI RETURNDATASIZE PUSH0 DUP1 RETURNDATACOPY RETURNDATASIZE PUSH0 REVERT JUMPDEST POP POP POP POP POP PUSH1 0x40 MLOAD RETURNDATASIZE PUSH1 0x1F NOT PUSH1 0x1F DUP3 ADD AND DUP3 ADD DUP1 PUSH1 0x40 MSTORE POP DUP2 ADD SWAP1 PUSH2 0xDC2 SWAP2 SWAP1 PUSH2 0x3AA6 JUMP JUMPDEST SWAP5 POP JUMPDEST PUSH32 0x300E6C20D2E9D8DB9B2DF40EBCE943D9DAE3FA3A8EAEC841A3D1CB9A1E8B6AD7 DUP13 DUP13 DUP13 DUP13 DUP13 PUSH32 0x0 DUP14 PUSH1 0x40 MLOAD PUSH2 0xE20 SWAP8 SWAP7 SWAP6 SWAP5 SWAP4 SWAP3 SWAP2 SWAP1 PUSH2 0x3AD8 JUMP JUMPDEST PUSH1 0x40 MLOAD DUP1 SWAP2 SUB SWAP1 LOG1 POP POP POP POP PUSH2 0xE36 PUSH1 0x1 PUSH1 0xB SSTORE JUMP JUMPDEST SWAP8 SWAP7 POP POP POP POP POP POP POP JUMP JUMPDEST CALLER PUSH1 0x1 PUSH1 0x1 PUSH1 0xA0 SHL SUB DUP7 AND DUP2 EQ DUP1 ISZERO SWAP1 PUSH2 0xE62 JUMPI POP PUSH2 0xE60 DUP7 DUP3 PUSH2 0x190C JUMP JUMPDEST ISZERO JUMPDEST ISZERO PUSH2 0xE93 JUMPI PUSH1 0x40 MLOAD PUSH4 0x711BEC91 PUSH1 0xE1 SHL DUP2 MSTORE PUSH1 0x1 PUSH1 0x1 PUSH1 0xA0 SHL SUB DUP1 DUP4 AND PUSH1 0x4 DUP4 ADD MSTORE DUP8 AND PUSH1 0x24 DUP3 ADD MSTORE PUSH1 0x44 ADD PUSH2 0x64C JUMP JUMPDEST PUSH2 0xEA0 DUP7 DUP7 DUP7 DUP7 DUP7 PUSH2 0x1C39 JUMP JUMPDEST POP POP POP POP POP POP JUMP JUMPDEST PUSH2 0xEB0 PUSH2 0x1B28 JUMP JUMPDEST PUSH1 0x40 MLOAD PUSH4 0x70A08231 PUSH1 0xE0 SHL DUP2 MSTORE ADDRESS PUSH1 0x4 DUP3 ADD MSTORE PUSH0 SWAP1 PUSH1 0x1 PUSH1 0x1 PUSH1 0xA0 SHL SUB DUP4 AND SWAP1 PUSH4 0x70A08231 SWAP1 PUSH1 0x24 ADD PUSH1 0x20 PUSH1 0x40 MLOAD DUP1 DUP4 SUB DUP2 DUP7 GAS STATICCALL ISZERO DUP1 ISZERO PUSH2 0xEF4 JUMPI RETURNDATASIZE PUSH0 DUP1 RETURNDATACOPY RETURNDATASIZE PUSH0 REVERT JUMPDEST POP POP POP POP PUSH1 0x40 MLOAD RETURNDATASIZE PUSH1 0x1F NOT PUSH1 0x1F DUP3 ADD AND DUP3 ADD DUP1 PUSH1 0x40 MSTORE POP DUP2 ADD SWAP1 PUSH2 0xF18 SWAP2 SWAP1 PUSH2 0x3AA6 JUMP JUMPDEST SWAP1 POP DUP1 PUSH0 SUB PUSH2 0xF3A JUMPI PUSH1 0x40 MLOAD PUSH4 0x686827B PUSH1 0xE5 SHL DUP2 MSTORE PUSH1 0x4 ADD PUSH1 0x40 MLOAD DUP1 SWAP2 SUB SWAP1 REVERT JUMPDEST PUSH2 0xF4E PUSH1 0x1 PUSH1 0x1 PUSH1 0xA0 SHL SUB DUP4 AND DUP5 DUP4 PUSH2 0x1C9E JUMP JUMPDEST POP POP POP JUMP JUMPDEST PUSH2 0xF5B PUSH2 0x1B28 JUMP JUMPDEST DUP1 PUSH32 0x0 PUSH1 0x1 PUSH1 0x1 PUSH1 0x40 SHL SUB AND DUP2 PUSH1 0x1 PUSH1 0x1 PUSH1 0x40 SHL SUB AND SUB PUSH2 0xFB9 JUMPI PUSH1 0x40 MLOAD PUSH4 0x40D8E3A1 PUSH1 0xE0 SHL DUP2 MSTORE PUSH1 0x1 PUSH1 0x1 PUSH1 0x40 SHL SUB DUP3 AND PUSH1 0x4 DUP3 ADD MSTORE PUSH1 0x24 ADD PUSH2 0x64C JUMP JUMPDEST PUSH1 0x1 PUSH1 0x1 PUSH1 0x40 SHL SUB DUP3 AND PUSH0 SWAP1 DUP2 MSTORE PUSH1 0xC PUSH1 0x20 MSTORE PUSH1 0x40 DUP2 KECCAK256 DUP1 SLOAD PUSH1 0x1 PUSH1 0x1 PUSH1 0xA0 SHL SUB NOT AND DUP2 SSTORE SWAP1 PUSH2 0xFEC PUSH1 0x1 DUP4 ADD DUP3 PUSH2 0x2E46 JUMP JUMPDEST POP POP PUSH1 0x40 MLOAD PUSH1 0x1 PUSH1 0x1 PUSH1 0x40 SHL SUB DUP4 AND DUP2 MSTORE PUSH32 0x67E02000179A6045F4DB8FB1B09F01E170B0347E0B698FC5112CE4D798EF19F6 SWAP1 PUSH1 0x20 ADD PUSH1 0x40 MLOAD DUP1 SWAP2 SUB SWAP1 LOG1 POP POP JUMP JUMPDEST PUSH1 0x60 DUP2 MLOAD DUP4 MLOAD EQ PUSH2 0x105F JUMPI DUP2 MLOAD DUP4 MLOAD PUSH1 0x40 MLOAD PUSH4 0x5B059991 PUSH1 0xE0 SHL DUP2 MSTORE PUSH1 0x4 DUP2 ADD SWAP3 SWAP1 SWAP3 MSTORE PUSH1 0x24 DUP3 ADD MSTORE PUSH1 0x44 ADD PUSH2 0x64C JUMP JUMPDEST PUSH0 DUP4 MLOAD PUSH1 0x1 PUSH1 0x1 PUSH1 0x40 SHL SUB DUP2 GT ISZERO PUSH2 0x1079 JUMPI PUSH2 0x1079 PUSH2 0x2F36 JUMP JUMPDEST PUSH1 0x40 MLOAD SWAP1 DUP1 DUP3 MSTORE DUP1 PUSH1 0x20 MUL PUSH1 0x20 ADD DUP3 ADD PUSH1 0x40 MSTORE DUP1 ISZERO PUSH2 0x10A2 JUMPI DUP2 PUSH1 0x20 ADD PUSH1 0x20 DUP3 MUL DUP1 CALLDATASIZE DUP4 CALLDATACOPY ADD SWAP1 POP JUMPDEST POP SWAP1 POP PUSH0 JUMPDEST DUP5 MLOAD DUP2 LT ISZERO PUSH2 0x10F0 JUMPI PUSH1 0x20 DUP1 DUP3 MUL DUP7 ADD ADD MLOAD PUSH2 0x10CB SWAP1 PUSH1 0x20 DUP1 DUP5 MUL DUP8 ADD ADD MLOAD PUSH2 0x51C JUMP JUMPDEST DUP3 DUP3 DUP2 MLOAD DUP2 LT PUSH2 0x10DD JUMPI PUSH2 0x10DD PUSH2 0x3B35 JUMP JUMPDEST PUSH1 0x20 SWAP1 DUP2 MUL SWAP2 SWAP1 SWAP2 ADD ADD MSTORE PUSH1 0x1 ADD PUSH2 0x10A7 JUMP JUMPDEST POP SWAP4 SWAP3 POP POP POP JUMP JUMPDEST PUSH2 0x1100 PUSH2 0x1B28 JUMP JUMPDEST SELFBALANCE PUSH0 DUP2 SWAP1 SUB PUSH2 0x1122 JUMPI PUSH1 0x40 MLOAD PUSH4 0x686827B PUSH1 0xE5 SHL DUP2 MSTORE PUSH1 0x4 ADD PUSH1 0x40 MLOAD DUP1 SWAP2 SUB SWAP1 REVERT JUMPDEST PUSH0 DUP3 PUSH1 0x1 PUSH1 0x1 PUSH1 0xA0 SHL SUB AND DUP3 PUSH1 0x40 MLOAD PUSH0 PUSH1 0x40 MLOAD DUP1 DUP4 SUB DUP2 DUP6 DUP8 GAS CALL SWAP3 POP POP POP RETURNDATASIZE DUP1 PUSH0 DUP2 EQ PUSH2 0x116B JUMPI PUSH1 0x40 MLOAD SWAP2 POP PUSH1 0x1F NOT PUSH1 0x3F RETURNDATASIZE ADD AND DUP3 ADD PUSH1 0x40 MSTORE RETURNDATASIZE DUP3 MSTORE RETURNDATASIZE PUSH0 PUSH1 0x20 DUP5 ADD RETURNDATACOPY PUSH2 0x1170 JUMP JUMPDEST PUSH1 0x60 SWAP2 POP JUMPDEST POP POP SWAP1 POP DUP1 PUSH2 0xF4E JUMPI PUSH1 0x40 MLOAD PUSH4 0x9D11F563 PUSH1 0xE0 SHL DUP2 MSTORE CALLER PUSH1 0x4 DUP3 ADD MSTORE PUSH1 0x1 PUSH1 0x1 PUSH1 0xA0 SHL SUB DUP5 AND PUSH1 0x24 DUP3 ADD MSTORE PUSH1 0x44 DUP2 ADD DUP4 SWAP1 MSTORE PUSH1 0x64 ADD PUSH2 0x64C JUMP JUMPDEST PUSH2 0x11B2 PUSH2 0x1B28 JUMP JUMPDEST PUSH1 0x9 DUP1 SLOAD PUSH1 0x1 PUSH1 0x1 PUSH1 0xA0 SHL SUB NOT AND PUSH1 0x1 PUSH1 0x1 PUSH1 0xA0 SHL SUB DUP4 AND SWAP1 DUP2 OR SWAP1 SWAP2 SSTORE PUSH1 0x40 MLOAD PUSH32 0xD56ED7B1C1110348B1FBF418469F6FC4ACC32D9B675E9E1E448CC19169A64CA0 SWAP1 PUSH0 SWAP1 LOG2 POP JUMP JUMPDEST PUSH1 0xC PUSH1 0x20 MSTORE PUSH0 SWAP1 DUP2 MSTORE PUSH1 0x40 SWAP1 KECCAK256 DUP1 SLOAD PUSH1 0x1 DUP3 ADD DUP1 SLOAD PUSH1 0x1 PUSH1 0x1 PUSH1 0xA0 SHL SUB SWAP1 SWAP3 AND SWAP3 SWAP2 PUSH2 0x1226 SWAP1 PUSH2 0x37EE JUMP JUMPDEST DUP1 PUSH1 0x1F ADD PUSH1 0x20 DUP1 SWAP2 DIV MUL PUSH1 0x20 ADD PUSH1 0x40 MLOAD SWAP1 DUP2 ADD PUSH1 0x40 MSTORE DUP1 SWAP3 SWAP2 SWAP1 DUP2 DUP2 MSTORE PUSH1 0x20 ADD DUP3 DUP1 SLOAD PUSH2 0x1252 SWAP1 PUSH2 0x37EE JUMP JUMPDEST DUP1 ISZERO PUSH2 0x129D JUMPI DUP1 PUSH1 0x1F LT PUSH2 0x1274 JUMPI PUSH2 0x100 DUP1 DUP4 SLOAD DIV MUL DUP4 MSTORE SWAP2 PUSH1 0x20 ADD SWAP2 PUSH2 0x129D JUMP JUMPDEST DUP3 ADD SWAP2 SWAP1 PUSH0 MSTORE PUSH1 0x20 PUSH0 KECCAK256 SWAP1 JUMPDEST DUP2 SLOAD DUP2 MSTORE SWAP1 PUSH1 0x1 ADD SWAP1 PUSH1 0x20 ADD DUP1 DUP4 GT PUSH2 0x1280 JUMPI DUP3 SWAP1 SUB PUSH1 0x1F AND DUP3 ADD SWAP2 JUMPDEST POP POP POP POP POP SWAP1 POP DUP3 JUMP JUMPDEST CALLER ADDRESS EQ DUP1 ISZERO SWAP1 PUSH2 0x12C2 JUMPI POP PUSH1 0x9 SLOAD PUSH1 0x1 PUSH1 0x1 PUSH1 0xA0 SHL SUB AND CALLER EQ ISZERO JUMPDEST ISZERO PUSH2 0x12E2 JUMPI PUSH1 0x40 MLOAD PUSH4 0x77251379 PUSH1 0xE1 SHL DUP2 MSTORE CALLER PUSH1 0x4 DUP3 ADD MSTORE PUSH1 0x24 ADD PUSH2 0x64C JUMP JUMPDEST PUSH1 0x1 PUSH1 0x1 PUSH1 0xA0 SHL SUB DUP4 AND CALLER EQ DUP1 ISZERO SWAP1 PUSH2 0x1302 JUMPI POP PUSH2 0x1300 DUP4 CALLER PUSH2 0x190C JUMP JUMPDEST ISZERO JUMPDEST ISZERO PUSH2 0x1336 JUMPI CALLER JUMPDEST PUSH1 0x40 MLOAD PUSH4 0x711BEC91 PUSH1 0xE1 SHL DUP2 MSTORE PUSH1 0x1 PUSH1 0x1 PUSH1 0xA0 SHL SUB SWAP2 DUP3 AND PUSH1 0x4 DUP3 ADD MSTORE SWAP1 DUP5 AND PUSH1 0x24 DUP3 ADD MSTORE PUSH1 0x44 ADD PUSH2 0x64C JUMP JUMPDEST PUSH2 0xF4E DUP4 DUP4 DUP4 PUSH2 0x1CF0 JUMP JUMPDEST PUSH1 0x8 SLOAD PUSH1 0x1 PUSH1 0x1 PUSH1 0xA0 SHL SUB AND CALLER EQ PUSH2 0x1394 JUMPI PUSH1 0x40 MLOAD PUSH3 0x461BCD PUSH1 0xE5 SHL DUP2 MSTORE PUSH1 0x20 PUSH1 0x4 DUP3 ADD MSTORE PUSH1 0x16 PUSH1 0x24 DUP3 ADD MSTORE PUSH22 0x26BAB9BA10313290383937B837B9B2B21037BBB732B9 PUSH1 0x51 SHL PUSH1 0x44 DUP3 ADD MSTORE PUSH1 0x64 ADD PUSH2 0x64C JUMP JUMPDEST PUSH1 0x7 DUP1 SLOAD PUSH1 0x1 PUSH1 0x1 PUSH1 0xA0 SHL SUB NOT DUP1 DUP3 AND CALLER SWAP1 DUP2 OR SWAP1 SWAP4 SSTORE PUSH1 0x8 DUP1 SLOAD SWAP1 SWAP2 AND SWAP1 SSTORE PUSH1 0x40 MLOAD PUSH1 0x1 PUSH1 0x1 PUSH1 0xA0 SHL SUB SWAP1 SWAP2 AND SWAP2 SWAP1 DUP3 SWAP1 PUSH32 0x8BE0079C531659141344CD1FD0A4F28419497F9722A3DAAFE3B4186F6B6457E0 SWAP1 PUSH0 SWAP1 LOG3 POP JUMP JUMPDEST CALLER PUSH1 0x1 PUSH1 0x1 PUSH1 0xA0 SHL SUB PUSH32 0x0 AND EQ PUSH2 0x1439 JUMPI PUSH1 0x40 MLOAD PUSH4 0x35FDCCCD PUSH1 0xE2 SHL DUP2 MSTORE CALLER PUSH1 0x4 DUP3 ADD MSTORE PUSH1 0x24 ADD PUSH2 0x64C JUMP JUMPDEST PUSH2 0x1441 PUSH2 0x1C0F JUMP JUMPDEST PUSH2 0x1451 PUSH1 0x40 DUP3 ADD PUSH1 0x20 DUP4 ADD PUSH2 0x3338 JUMP JUMPDEST PUSH1 0x1 PUSH1 0x1 PUSH1 0x40 SHL SUB DUP2 AND PUSH0 SWAP1 DUP2 MSTORE PUSH1 0xC PUSH1 0x20 MSTORE PUSH1 0x40 SWAP1 KECCAK256 SLOAD PUSH1 0x1 PUSH1 0x1 PUSH1 0xA0 SHL SUB AND PUSH2 0x149A JUMPI PUSH1 0x40 MLOAD PUSH4 0xE19FDF7 PUSH1 0xE1 SHL DUP2 MSTORE PUSH1 0x1 PUSH1 0x1 PUSH1 0x40 SHL SUB DUP3 AND PUSH1 0x4 DUP3 ADD MSTORE PUSH1 0x24 ADD PUSH2 0x64C JUMP JUMPDEST PUSH2 0x14AA PUSH1 0x40 DUP4 ADD PUSH1 0x20 DUP5 ADD PUSH2 0x3338 JUMP JUMPDEST PUSH2 0x14B7 PUSH1 0x40 DUP5 ADD DUP5 PUSH2 0x3B49 JUMP JUMPDEST DUP2 ADD SWAP1 PUSH2 0x14C4 SWAP2 SWAP1 PUSH2 0x3458 JUMP JUMPDEST PUSH1 0x1 PUSH1 0x1 PUSH1 0x40 SHL SUB DUP3 AND PUSH0 SWAP1 DUP2 MSTORE PUSH1 0xC PUSH1 0x20 MSTORE PUSH1 0x40 SWAP1 KECCAK256 SLOAD PUSH1 0x1 PUSH1 0x1 PUSH1 0xA0 SHL SUB DUP3 DUP2 AND SWAP2 AND EQ PUSH2 0x1512 JUMPI PUSH1 0x40 MLOAD PUSH4 0xBAF46CD1 PUSH1 0xE0 SHL DUP2 MSTORE PUSH1 0x1 PUSH1 0x1 PUSH1 0xA0 SHL SUB DUP3 AND PUSH1 0x4 DUP3 ADD MSTORE PUSH1 0x24 ADD PUSH2 0x64C JUMP JUMPDEST PUSH0 PUSH2 0x1523 PUSH1 0x40 DUP7 ADD PUSH1 0x20 DUP8 ADD PUSH2 0x3338 JUMP JUMPDEST SWAP1 POP PUSH0 DUP1 DUP1 DUP1 DUP1 DUP1 PUSH2 0x1538 PUSH1 0x60 DUP13 ADD DUP13 PUSH2 0x3B49 JUMP JUMPDEST DUP2 ADD SWAP1 PUSH2 0x1545 SWAP2 SWAP1 PUSH2 0x3B92 JUMP JUMPDEST SWAP6 POP SWAP6 POP SWAP6 POP SWAP6 POP SWAP6 POP SWAP6 POP PUSH2 0x155E DUP6 DUP6 DUP6 DUP6 DUP6 PUSH2 0x1877 JUMP JUMPDEST PUSH32 0x8A69E2B5FBCC69A1F5D6326FB26DB5BC43CD18D09D2E79A48A50B77DA16432F9 DUP7 DUP7 DUP7 DUP7 DUP7 DUP13 PUSH32 0x0 PUSH1 0x40 MLOAD PUSH2 0x15B9 SWAP8 SWAP7 SWAP6 SWAP5 SWAP4 SWAP3 SWAP2 SWAP1 PUSH2 0x3AD8 JUMP JUMPDEST PUSH1 0x40 MLOAD DUP1 SWAP2 SUB SWAP1 LOG1 POP POP POP POP POP POP POP POP POP POP PUSH2 0x15D5 PUSH1 0x1 PUSH1 0xB SSTORE JUMP JUMPDEST POP JUMP JUMPDEST PUSH2 0x15E3 CALLER DUP4 DUP4 PUSH2 0x1D33 JUMP JUMPDEST POP POP JUMP JUMPDEST PUSH1 0xD SLOAD PUSH0 SWAP1 PUSH1 0x1 PUSH1 0x1 PUSH1 0xA0 SHL SUB AND CALLER EQ DUP1 ISZERO SWAP1 PUSH2 0x160F JUMPI POP PUSH1 0x7 SLOAD PUSH1 0x1 PUSH1 0x1 PUSH1 0xA0 SHL SUB AND CALLER EQ ISZERO JUMPDEST ISZERO PUSH2 0x162D JUMPI PUSH1 0x40 MLOAD PUSH4 0x2DC7D2F PUSH1 0xE2 SHL DUP2 MSTORE PUSH1 0x4 ADD PUSH1 0x40 MLOAD DUP1 SWAP2 SUB SWAP1 REVERT JUMPDEST PUSH2 0x166B PUSH1 0x40 DUP1 MLOAD PUSH1 0xE0 DUP2 ADD SWAP1 SWAP2 MSTORE DUP1 PUSH0 DUP2 MSTORE PUSH1 0x20 ADD PUSH0 DUP2 MSTORE PUSH1 0x20 ADD PUSH0 DUP2 MSTORE PUSH1 0x20 ADD PUSH1 0x60 DUP2 MSTORE PUSH1 0x20 ADD PUSH1 0x60 DUP2 MSTORE PUSH1 0x20 ADD PUSH1 0x60 DUP2 MSTORE PUSH1 0x20 ADD PUSH1 0x60 DUP2 MSTORE POP SWAP1 JUMP JUMPDEST PUSH2 0x16D7 ADDRESS PUSH1 0x1 PUSH1 0x1 PUSH1 0xA0 SHL SUB AND PUSH4 0xBD9A548B PUSH1 0x40 MLOAD DUP2 PUSH4 0xFFFFFFFF AND PUSH1 0xE0 SHL DUP2 MSTORE PUSH1 0x4 ADD PUSH0 PUSH1 0x40 MLOAD DUP1 DUP4 SUB DUP2 DUP7 GAS STATICCALL ISZERO DUP1 ISZERO PUSH2 0x16A9 JUMPI RETURNDATASIZE PUSH0 DUP1 RETURNDATACOPY RETURNDATASIZE PUSH0 REVERT JUMPDEST POP POP POP POP PUSH1 0x40 MLOAD RETURNDATASIZE PUSH0 DUP3 RETURNDATACOPY PUSH1 0x1F RETURNDATASIZE SWAP1 DUP2 ADD PUSH1 0x1F NOT AND DUP3 ADD PUSH1 0x40 MSTORE PUSH2 0x16D0 SWAP2 SWAP1 DUP2 ADD SWAP1 PUSH2 0x3C26 JUMP JUMPDEST DUP3 SWAP1 PUSH2 0x1DC7 JUMP JUMPDEST PUSH1 0x40 DUP1 MLOAD PUSH1 0x1 DUP1 DUP3 MSTORE DUP2 DUP4 ADD SWAP1 SWAP3 MSTORE PUSH0 SWAP2 DUP2 PUSH1 0x20 ADD JUMPDEST PUSH1 0x60 DUP2 MSTORE PUSH1 0x20 ADD SWAP1 PUSH1 0x1 SWAP1 SUB SWAP1 DUP2 PUSH2 0x16ED JUMPI SWAP1 POP POP SWAP1 POP DUP7 DUP2 PUSH0 DUP2 MLOAD DUP2 LT PUSH2 0x1717 JUMPI PUSH2 0x1717 PUSH2 0x3B35 JUMP JUMPDEST PUSH1 0x20 SWAP1 DUP2 MUL SWAP2 SWAP1 SWAP2 ADD ADD MSTORE PUSH2 0x172C DUP3 DUP3 PUSH2 0x1DD3 JUMP JUMPDEST PUSH2 0xE36 PUSH2 0x1738 DUP4 PUSH2 0x1DFC JUMP JUMPDEST DUP8 DUP8 DUP8 PUSH2 0x20C0 JUMP JUMPDEST CALLER ADDRESS EQ DUP1 ISZERO SWAP1 PUSH2 0x175B JUMPI POP PUSH1 0x9 SLOAD PUSH1 0x1 PUSH1 0x1 PUSH1 0xA0 SHL SUB AND CALLER EQ ISZERO JUMPDEST ISZERO PUSH2 0x177B JUMPI PUSH1 0x40 MLOAD PUSH4 0x77251379 PUSH1 0xE1 SHL DUP2 MSTORE CALLER PUSH1 0x4 DUP3 ADD MSTORE PUSH1 0x24 ADD PUSH2 0x64C JUMP JUMPDEST PUSH2 0x1787 DUP6 DUP6 DUP6 DUP6 PUSH2 0x218D JUMP JUMPDEST PUSH0 JUMPDEST DUP5 MLOAD DUP2 LT ISZERO PUSH2 0xEA0 JUMPI DUP2 DUP2 DUP2 MLOAD DUP2 LT PUSH2 0x17A4 JUMPI PUSH2 0x17A4 PUSH2 0x3B35 JUMP JUMPDEST PUSH1 0x20 MUL PUSH1 0x20 ADD ADD MLOAD PUSH1 0xA PUSH0 DUP8 DUP5 DUP2 MLOAD DUP2 LT PUSH2 0x17C1 JUMPI PUSH2 0x17C1 PUSH2 0x3B35 JUMP JUMPDEST PUSH1 0x20 MUL PUSH1 0x20 ADD ADD MLOAD DUP2 MSTORE PUSH1 0x20 ADD SWAP1 DUP2 MSTORE PUSH1 0x20 ADD PUSH0 KECCAK256 SWAP1 DUP2 PUSH2 0x17E2 SWAP2 SWAP1 PUSH2 0x386A JUMP JUMPDEST POP PUSH1 0x1 ADD PUSH2 0x1789 JUMP JUMPDEST PUSH1 0x6 DUP1 SLOAD PUSH2 0x17F8 SWAP1 PUSH2 0x37EE JUMP JUMPDEST DUP1 PUSH1 0x1F ADD PUSH1 0x20 DUP1 SWAP2 DIV MUL PUSH1 0x20 ADD PUSH1 0x40 MLOAD SWAP1 DUP2 ADD PUSH1 0x40 MSTORE DUP1 SWAP3 SWAP2 SWAP1 DUP2 DUP2 MSTORE PUSH1 0x20 ADD DUP3 DUP1 SLOAD PUSH2 0x1824 SWAP1 PUSH2 0x37EE JUMP JUMPDEST DUP1 ISZERO PUSH2 0x186F JUMPI DUP1 PUSH1 0x1F LT PUSH2 0x1846 JUMPI PUSH2 0x100 DUP1 DUP4 SLOAD DIV MUL DUP4 MSTORE SWAP2 PUSH1 0x20 ADD SWAP2 PUSH2 0x186F JUMP JUMPDEST DUP3 ADD SWAP2 SWAP1 PUSH0 MSTORE PUSH1 0x20 PUSH0 KECCAK256 SWAP1 JUMPDEST DUP2 SLOAD DUP2 MSTORE SWAP1 PUSH1 0x1 ADD SWAP1 PUSH1 0x20 ADD DUP1 DUP4 GT PUSH2 0x1852 JUMPI DUP3 SWAP1 SUB PUSH1 0x1F AND DUP3 ADD SWAP2 JUMPDEST POP POP POP POP POP DUP2 JUMP JUMPDEST CALLER ADDRESS EQ DUP1 ISZERO SWAP1 PUSH2 0x1892 JUMPI POP PUSH1 0x9 SLOAD PUSH1 0x1 PUSH1 0x1 PUSH1 0xA0 SHL SUB AND CALLER EQ ISZERO JUMPDEST ISZERO PUSH2 0x18B2 JUMPI PUSH1 0x40 MLOAD PUSH4 0x77251379 PUSH1 0xE1 SHL DUP2 MSTORE CALLER PUSH1 0x4 DUP3 ADD MSTORE PUSH1 0x24 ADD PUSH2 0x64C JUMP JUMPDEST PUSH2 0x18BE DUP6 DUP6 DUP6 DUP6 PUSH2 0x21C9 JUMP JUMPDEST PUSH0 DUP5 DUP2 MSTORE PUSH1 0xA PUSH1 0x20 MSTORE PUSH1 0x40 SWAP1 KECCAK256 PUSH2 0xEA0 DUP3 DUP3 PUSH2 0x386A JUMP JUMPDEST PUSH2 0x18DD PUSH2 0x1B28 JUMP JUMPDEST PUSH1 0xD DUP1 SLOAD PUSH1 0x1 PUSH1 0x1 PUSH1 0xA0 SHL SUB NOT AND PUSH1 0x1 PUSH1 0x1 PUSH1 0xA0 SHL SUB SWAP3 SWAP1 SWAP3 AND SWAP2 SWAP1 SWAP2 OR SWAP1 SSTORE JUMP JUMPDEST PUSH1 0x5 DUP1 SLOAD PUSH2 0x17F8 SWAP1 PUSH2 0x37EE JUMP JUMPDEST PUSH1 0x1 PUSH1 0x1 PUSH1 0xA0 SHL SUB SWAP2 DUP3 AND PUSH0 SWAP1 DUP2 MSTORE PUSH1 0x1 PUSH1 0x20 SWAP1 DUP2 MSTORE PUSH1 0x40 DUP1 DUP4 KECCAK256 SWAP4 SWAP1 SWAP5 AND DUP3 MSTORE SWAP2 SWAP1 SWAP2 MSTORE KECCAK256 SLOAD PUSH1 0xFF AND SWAP1 JUMP JUMPDEST CALLER PUSH1 0x1 PUSH1 0x1 PUSH1 0xA0 SHL SUB DUP7 AND DUP2 EQ DUP1 ISZERO SWAP1 PUSH2 0x195A JUMPI POP PUSH2 0x1958 DUP7 DUP3 PUSH2 0x190C JUMP JUMPDEST ISZERO JUMPDEST ISZERO PUSH2 0x198B JUMPI PUSH1 0x40 MLOAD PUSH4 0x711BEC91 PUSH1 0xE1 SHL DUP2 MSTORE PUSH1 0x1 PUSH1 0x1 PUSH1 0xA0 SHL SUB DUP1 DUP4 AND PUSH1 0x4 DUP4 ADD MSTORE DUP8 AND PUSH1 0x24 DUP3 ADD MSTORE PUSH1 0x44 ADD PUSH2 0x64C JUMP JUMPDEST PUSH2 0xEA0 DUP7 DUP7 DUP7 DUP7 DUP7 PUSH2 0x2224 JUMP JUMPDEST PUSH2 0x19A0 PUSH2 0x1B28 JUMP JUMPDEST PUSH2 0x15D5 DUP2 PUSH2 0x22B0 JUMP JUMPDEST CALLER ADDRESS EQ DUP1 ISZERO SWAP1 PUSH2 0x19C4 JUMPI POP PUSH1 0x9 SLOAD PUSH1 0x1 PUSH1 0x1 PUSH1 0xA0 SHL SUB AND CALLER EQ ISZERO JUMPDEST ISZERO PUSH2 0x19E4 JUMPI PUSH1 0x40 MLOAD PUSH4 0x77251379 PUSH1 0xE1 SHL DUP2 MSTORE CALLER PUSH1 0x4 DUP3 ADD MSTORE PUSH1 0x24 ADD PUSH2 0x64C JUMP JUMPDEST PUSH1 0x1 PUSH1 0x1 PUSH1 0xA0 SHL SUB DUP4 AND CALLER EQ DUP1 ISZERO SWAP1 PUSH2 0x1A04 JUMPI POP PUSH2 0x1A02 DUP4 CALLER PUSH2 0x190C JUMP JUMPDEST ISZERO JUMPDEST ISZERO PUSH2 0x1A0F JUMPI CALLER PUSH2 0x1309 JUMP JUMPDEST PUSH2 0xF4E DUP4 DUP4 DUP4 PUSH2 0x2359 JUMP JUMPDEST PUSH0 PUSH1 0x1 PUSH1 0x1 PUSH1 0xE0 SHL SUB NOT DUP3 AND PUSH4 0x6CDB3D13 PUSH1 0xE1 SHL EQ DUP1 PUSH2 0x1A4A JUMPI POP PUSH1 0x1 PUSH1 0x1 PUSH1 0xE0 SHL SUB NOT DUP3 AND PUSH4 0x3A24D07 PUSH1 0xE2 SHL EQ JUMPDEST DUP1 PUSH2 0x53D JUMPI POP PUSH4 0x1FFC9A7 PUSH1 0xE0 SHL PUSH1 0x1 PUSH1 0x1 PUSH1 0xE0 SHL SUB NOT DUP4 AND EQ PUSH2 0x53D JUMP JUMPDEST DUP1 MLOAD ISZERO PUSH2 0x1A8A JUMPI DUP1 PUSH1 0x40 MLOAD PUSH3 0x461BCD PUSH1 0xE5 SHL DUP2 MSTORE PUSH1 0x4 ADD PUSH2 0x64C SWAP2 SWAP1 PUSH2 0x3129 JUMP JUMPDEST PUSH0 DUP1 PUSH0 DUP1 DUP6 DUP1 PUSH1 0x20 ADD SWAP1 MLOAD DUP2 ADD SWAP1 PUSH2 0x1AA2 SWAP2 SWAP1 PUSH2 0x3C8E JUMP JUMPDEST PUSH1 0x40 DUP1 MLOAD PUSH1 0x60 DUP2 ADD DUP3 MSTORE PUSH10 0xFFFFFFFFFFFFFFFFFFFF SWAP5 DUP6 AND DUP2 MSTORE SWAP3 DUP5 AND PUSH1 0x20 DUP1 DUP6 ADD SWAP2 DUP3 MSTORE SWAP3 DUP6 AND DUP5 DUP4 ADD SWAP1 DUP2 MSTORE PUSH0 SWAP7 DUP8 MSTORE PUSH1 0xE SWAP1 SWAP4 MSTORE SWAP5 KECCAK256 SWAP2 MLOAD DUP3 SLOAD SWAP5 MLOAD SWAP2 MLOAD DUP5 AND PUSH1 0x1 PUSH1 0xA0 SHL MUL PUSH10 0xFFFFFFFFFFFFFFFFFFFF PUSH1 0xA0 SHL NOT SWAP3 DUP6 AND PUSH1 0x1 PUSH1 0x50 SHL MUL PUSH1 0x1 PUSH1 0x1 PUSH1 0xA0 SHL SUB NOT SWAP1 SWAP7 AND SWAP2 SWAP1 SWAP5 AND OR SWAP4 SWAP1 SWAP4 OR SWAP3 SWAP1 SWAP3 AND OR SWAP1 SSTORE POP POP POP POP POP POP POP JUMP JUMPDEST PUSH1 0x7 SLOAD PUSH1 0x1 PUSH1 0x1 PUSH1 0xA0 SHL SUB AND CALLER EQ PUSH2 0x1B7B JUMPI PUSH1 0x40 MLOAD PUSH3 0x461BCD PUSH1 0xE5 SHL DUP2 MSTORE PUSH1 0x20 PUSH1 0x4 DUP3 ADD MSTORE PUSH1 0x16 PUSH1 0x24 DUP3 ADD MSTORE PUSH22 0x27B7363C9031B0B63630B1363290313C9037BBB732B9 PUSH1 0x51 SHL PUSH1 0x44 DUP3 ADD MSTORE PUSH1 0x64 ADD PUSH2 0x64C JUMP JUMPDEST JUMP JUMPDEST PUSH1 0x60 PUSH1 0x2 DUP1 SLOAD PUSH2 0x1B8C SWAP1 PUSH2 0x37EE JUMP JUMPDEST DUP1 PUSH1 0x1F ADD PUSH1 0x20 DUP1 SWAP2 DIV MUL PUSH1 0x20 ADD PUSH1 0x40 MLOAD SWAP1 DUP2 ADD PUSH1 0x40 MSTORE DUP1 SWAP3 SWAP2 SWAP1 DUP2 DUP2 MSTORE PUSH1 0x20 ADD DUP3 DUP1 SLOAD PUSH2 0x1BB8 SWAP1 PUSH2 0x37EE JUMP JUMPDEST DUP1 ISZERO PUSH2 0x1C03 JUMPI DUP1 PUSH1 0x1F LT PUSH2 0x1BDA JUMPI PUSH2 0x100 DUP1 DUP4 SLOAD DIV MUL DUP4 MSTORE SWAP2 PUSH1 0x20 ADD SWAP2 PUSH2 0x1C03 JUMP JUMPDEST DUP3 ADD SWAP2 SWAP1 PUSH0 MSTORE PUSH1 0x20 PUSH0 KECCAK256 SWAP1 JUMPDEST DUP2 SLOAD DUP2 MSTORE SWAP1 PUSH1 0x1 ADD SWAP1 PUSH1 0x20 ADD DUP1 DUP4 GT PUSH2 0x1BE6 JUMPI DUP3 SWAP1 SUB PUSH1 0x1F AND DUP3 ADD SWAP2 JUMPDEST POP POP POP POP POP SWAP1 POP SWAP2 SWAP1 POP JUMP JUMPDEST PUSH1 0x2 PUSH1 0xB SLOAD SUB PUSH2 0x1C32 JUMPI PUSH1 0x40 MLOAD PUSH4 0x3EE5AEB5 PUSH1 0xE0 SHL DUP2 MSTORE PUSH1 0x4 ADD PUSH1 0x40 MLOAD DUP1 SWAP2 SUB SWAP1 REVERT JUMPDEST PUSH1 0x2 PUSH1 0xB SSTORE JUMP JUMPDEST PUSH1 0x1 PUSH1 0x1 PUSH1 0xA0 SHL SUB DUP5 AND PUSH2 0x1C62 JUMPI PUSH1 0x40 MLOAD PUSH4 0x2BFA23E7 PUSH1 0xE1 SHL DUP2 MSTORE PUSH0 PUSH1 0x4 DUP3 ADD MSTORE PUSH1 0x24 ADD PUSH2 0x64C JUMP JUMPDEST PUSH1 0x1 PUSH1 0x1 PUSH1 0xA0 SHL SUB DUP6 AND PUSH2 0x1C8A JUMPI PUSH1 0x40 MLOAD PUSH3 0x6A0D45 PUSH1 0xE2 SHL DUP2 MSTORE PUSH0 PUSH1 0x4 DUP3 ADD MSTORE PUSH1 0x24 ADD PUSH2 0x64C JUMP JUMPDEST PUSH2 0x1C97 DUP6 DUP6 DUP6 DUP6 DUP6 PUSH2 0x23BB JUMP JUMPDEST POP POP POP POP POP JUMP JUMPDEST PUSH1 0x40 DUP1 MLOAD PUSH1 0x1 PUSH1 0x1 PUSH1 0xA0 SHL SUB DUP5 AND PUSH1 0x24 DUP3 ADD MSTORE PUSH1 0x44 DUP1 DUP3 ADD DUP5 SWAP1 MSTORE DUP3 MLOAD DUP1 DUP4 SUB SWAP1 SWAP2 ADD DUP2 MSTORE PUSH1 0x64 SWAP1 SWAP2 ADD SWAP1 SWAP2 MSTORE PUSH1 0x20 DUP2 ADD DUP1 MLOAD PUSH1 0x1 PUSH1 0x1 PUSH1 0xE0 SHL SUB AND PUSH4 0xA9059CBB PUSH1 0xE0 SHL OR SWAP1 MSTORE PUSH2 0xF4E SWAP1 DUP5 SWAP1 PUSH2 0x240E JUMP JUMPDEST PUSH1 0x1 PUSH1 0x1 PUSH1 0xA0 SHL SUB DUP4 AND PUSH2 0x1D18 JUMPI PUSH1 0x40 MLOAD PUSH3 0x6A0D45 PUSH1 0xE2 SHL DUP2 MSTORE PUSH0 PUSH1 0x4 DUP3 ADD MSTORE PUSH1 0x24 ADD PUSH2 0x64C JUMP JUMPDEST PUSH2 0xF4E DUP4 PUSH0 DUP5 DUP5 PUSH1 0x40 MLOAD DUP1 PUSH1 0x20 ADD PUSH1 0x40 MSTORE DUP1 PUSH0 DUP2 MSTORE POP PUSH2 0x23BB JUMP JUMPDEST PUSH1 0x1 PUSH1 0x1 PUSH1 0xA0 SHL SUB DUP3 AND PUSH2 0x1D5B JUMPI PUSH1 0x40 MLOAD PUSH3 0xCED3E1 PUSH1 0xE8 SHL DUP2 MSTORE PUSH0 PUSH1 0x4 DUP3 ADD MSTORE PUSH1 0x24 ADD PUSH2 0x64C JUMP JUMPDEST PUSH1 0x1 PUSH1 0x1 PUSH1 0xA0 SHL SUB DUP4 DUP2 AND PUSH0 DUP2 DUP2 MSTORE PUSH1 0x1 PUSH1 0x20 SWAP1 DUP2 MSTORE PUSH1 0x40 DUP1 DUP4 KECCAK256 SWAP5 DUP8 AND DUP1 DUP5 MSTORE SWAP5 DUP3 MSTORE SWAP2 DUP3 SWAP1 KECCAK256 DUP1 SLOAD PUSH1 0xFF NOT AND DUP7 ISZERO ISZERO SWAP1 DUP2 OR SWAP1 SWAP2 SSTORE SWAP2 MLOAD SWAP2 DUP3 MSTORE PUSH32 0x17307EAB39AB6107E8899845AD3D59BD9653F200F220920489CA2B5937696C31 SWAP2 ADD PUSH1 0x40 MLOAD DUP1 SWAP2 SUB SWAP1 LOG3 POP POP POP JUMP JUMPDEST PUSH2 0x15E3 DUP3 PUSH0 DUP1 DUP5 PUSH2 0x247A JUMP JUMPDEST DUP1 MLOAD PUSH0 SUB PUSH2 0x1DF4 JUMPI PUSH1 0x40 MLOAD PUSH4 0xFE936CB7 PUSH1 0xE0 SHL DUP2 MSTORE PUSH1 0x4 ADD PUSH1 0x40 MLOAD DUP1 SWAP2 SUB SWAP1 REVERT JUMPDEST PUSH1 0xA0 SWAP1 SWAP2 ADD MSTORE JUMP JUMPDEST PUSH1 0x60 PUSH0 PUSH2 0x1E0A PUSH2 0x100 PUSH2 0x24F7 JUMP JUMPDEST SWAP1 POP PUSH2 0x1E43 PUSH1 0x40 MLOAD DUP1 PUSH1 0x40 ADD PUSH1 0x40 MSTORE DUP1 PUSH1 0xC DUP2 MSTORE PUSH1 0x20 ADD PUSH12 0x31B7B232A637B1B0BA34B7B7 PUSH1 0xA1 SHL DUP2 MSTORE POP DUP3 PUSH2 0x2517 SWAP1 SWAP2 SWAP1 PUSH4 0xFFFFFFFF AND JUMP JUMPDEST DUP3 MLOAD PUSH2 0x1E61 SWAP1 PUSH1 0x2 DUP2 GT ISZERO PUSH2 0x1E5A JUMPI PUSH2 0x1E5A PUSH2 0x39B8 JUMP JUMPDEST DUP3 SWAP1 PUSH2 0x2530 JUMP JUMPDEST PUSH1 0x40 DUP1 MLOAD DUP1 DUP3 ADD SWAP1 SWAP2 MSTORE PUSH1 0x8 DUP2 MSTORE PUSH8 0x6C616E6775616765 PUSH1 0xC0 SHL PUSH1 0x20 DUP3 ADD MSTORE PUSH2 0x1E8B SWAP1 DUP3 SWAP1 PUSH2 0x2517 JUMP JUMPDEST PUSH1 0x40 DUP4 ADD MLOAD PUSH2 0x1EA2 SWAP1 DUP1 ISZERO PUSH2 0x1E5A JUMPI PUSH2 0x1E5A PUSH2 0x39B8 JUMP JUMPDEST PUSH1 0x40 DUP1 MLOAD DUP1 DUP3 ADD SWAP1 SWAP2 MSTORE PUSH1 0x6 DUP2 MSTORE PUSH6 0x736F75726365 PUSH1 0xD0 SHL PUSH1 0x20 DUP3 ADD MSTORE PUSH2 0x1ECA SWAP1 DUP3 SWAP1 PUSH2 0x2517 JUMP JUMPDEST PUSH1 0x60 DUP4 ADD MLOAD PUSH2 0x1EDA SWAP1 DUP3 SWAP1 PUSH2 0x2517 JUMP JUMPDEST PUSH1 0xA0 DUP4 ADD MLOAD MLOAD ISZERO PUSH2 0x1F65 JUMPI PUSH1 0x40 DUP1 MLOAD DUP1 DUP3 ADD SWAP1 SWAP2 MSTORE PUSH1 0x4 DUP2 MSTORE PUSH4 0x61726773 PUSH1 0xE0 SHL PUSH1 0x20 DUP3 ADD MSTORE PUSH2 0x1F0B SWAP1 DUP3 SWAP1 PUSH2 0x2517 JUMP JUMPDEST PUSH2 0x1F14 DUP2 PUSH2 0x2569 JUMP JUMPDEST PUSH0 JUMPDEST DUP4 PUSH1 0xA0 ADD MLOAD MLOAD DUP2 LT ISZERO PUSH2 0x1F5B JUMPI PUSH2 0x1F53 DUP5 PUSH1 0xA0 ADD MLOAD DUP3 DUP2 MLOAD DUP2 LT PUSH2 0x1F3C JUMPI PUSH2 0x1F3C PUSH2 0x3B35 JUMP JUMPDEST PUSH1 0x20 MUL PUSH1 0x20 ADD ADD MLOAD DUP4 PUSH2 0x2517 SWAP1 SWAP2 SWAP1 PUSH4 0xFFFFFFFF AND JUMP JUMPDEST PUSH1 0x1 ADD PUSH2 0x1F16 JUMP JUMPDEST POP PUSH2 0x1F65 DUP2 PUSH2 0x258D JUMP JUMPDEST PUSH1 0x80 DUP4 ADD MLOAD MLOAD ISZERO PUSH2 0x2028 JUMPI PUSH0 DUP4 PUSH1 0x20 ADD MLOAD PUSH1 0x2 DUP2 GT ISZERO PUSH2 0x1F87 JUMPI PUSH2 0x1F87 PUSH2 0x39B8 JUMP JUMPDEST SUB PUSH2 0x1FA5 JUMPI PUSH1 0x40 MLOAD PUSH4 0xA80D31F7 PUSH1 0xE0 SHL DUP2 MSTORE PUSH1 0x4 ADD PUSH1 0x40 MLOAD DUP1 SWAP2 SUB SWAP1 REVERT JUMPDEST PUSH1 0x40 DUP1 MLOAD DUP1 DUP3 ADD SWAP1 SWAP2 MSTORE PUSH1 0xF DUP2 MSTORE PUSH15 0x39B2B1B932BA39A637B1B0BA34B7B7 PUSH1 0x89 SHL PUSH1 0x20 DUP3 ADD MSTORE PUSH2 0x1FD6 SWAP1 DUP3 SWAP1 PUSH2 0x2517 JUMP JUMPDEST PUSH2 0x1FEF DUP4 PUSH1 0x20 ADD MLOAD PUSH1 0x2 DUP2 GT ISZERO PUSH2 0x1E5A JUMPI PUSH2 0x1E5A PUSH2 0x39B8 JUMP JUMPDEST PUSH1 0x40 DUP1 MLOAD DUP1 DUP3 ADD SWAP1 SWAP2 MSTORE PUSH1 0x7 DUP2 MSTORE PUSH7 0x73656372657473 PUSH1 0xC8 SHL PUSH1 0x20 DUP3 ADD MSTORE PUSH2 0x2018 SWAP1 DUP3 SWAP1 PUSH2 0x2517 JUMP JUMPDEST PUSH1 0x80 DUP4 ADD MLOAD PUSH2 0x2028 SWAP1 DUP3 SWAP1 PUSH2 0x25AB JUMP JUMPDEST PUSH1 0xC0 DUP4 ADD MLOAD MLOAD ISZERO PUSH2 0x20B8 JUMPI PUSH1 0x40 DUP1 MLOAD DUP1 DUP3 ADD SWAP1 SWAP2 MSTORE PUSH1 0x9 DUP2 MSTORE PUSH9 0x627974657341726773 PUSH1 0xB8 SHL PUSH1 0x20 DUP3 ADD MSTORE PUSH2 0x205E SWAP1 DUP3 SWAP1 PUSH2 0x2517 JUMP JUMPDEST PUSH2 0x2067 DUP2 PUSH2 0x2569 JUMP JUMPDEST PUSH0 JUMPDEST DUP4 PUSH1 0xC0 ADD MLOAD MLOAD DUP2 LT ISZERO PUSH2 0x20AE JUMPI PUSH2 0x20A6 DUP5 PUSH1 0xC0 ADD MLOAD DUP3 DUP2 MLOAD DUP2 LT PUSH2 0x208F JUMPI PUSH2 0x208F PUSH2 0x3B35 JUMP JUMPDEST PUSH1 0x20 MUL PUSH1 0x20 ADD ADD MLOAD DUP4 PUSH2 0x25AB SWAP1 SWAP2 SWAP1 PUSH4 0xFFFFFFFF AND JUMP JUMPDEST PUSH1 0x1 ADD PUSH2 0x2069 JUMP JUMPDEST POP PUSH2 0x20B8 DUP2 PUSH2 0x258D JUMP JUMPDEST MLOAD MLOAD SWAP3 SWAP2 POP POP JUMP JUMPDEST PUSH0 DUP1 PUSH32 0x0 PUSH1 0x1 PUSH1 0x1 PUSH1 0xA0 SHL SUB AND PUSH4 0x461D2762 DUP7 DUP9 PUSH1 0x1 DUP9 DUP9 PUSH1 0x40 MLOAD DUP7 PUSH4 0xFFFFFFFF AND PUSH1 0xE0 SHL DUP2 MSTORE PUSH1 0x4 ADD PUSH2 0x2117 SWAP6 SWAP5 SWAP4 SWAP3 SWAP2 SWAP1 PUSH2 0x3CC1 JUMP JUMPDEST PUSH1 0x20 PUSH1 0x40 MLOAD DUP1 DUP4 SUB DUP2 PUSH0 DUP8 GAS CALL ISZERO DUP1 ISZERO PUSH2 0x2133 JUMPI RETURNDATASIZE PUSH0 DUP1 RETURNDATACOPY RETURNDATASIZE PUSH0 REVERT JUMPDEST POP POP POP POP PUSH1 0x40 MLOAD RETURNDATASIZE PUSH1 0x1F NOT PUSH1 0x1F DUP3 ADD AND DUP3 ADD DUP1 PUSH1 0x40 MSTORE POP DUP2 ADD SWAP1 PUSH2 0x2157 SWAP2 SWAP1 PUSH2 0x3AA6 JUMP JUMPDEST PUSH1 0x40 MLOAD SWAP1 SWAP2 POP DUP2 SWAP1 PUSH32 0x1131472297A800FEE664D1D89CFA8F7676FF07189ECC53F80BBB5F4969099DB8 SWAP1 PUSH0 SWAP1 LOG2 SWAP6 SWAP5 POP POP POP POP POP JUMP JUMPDEST PUSH1 0x1 PUSH1 0x1 PUSH1 0xA0 SHL SUB DUP5 AND PUSH2 0x21B6 JUMPI PUSH1 0x40 MLOAD PUSH4 0x2BFA23E7 PUSH1 0xE1 SHL DUP2 MSTORE PUSH0 PUSH1 0x4 DUP3 ADD MSTORE PUSH1 0x24 ADD PUSH2 0x64C JUMP JUMPDEST PUSH2 0x21C3 PUSH0 DUP6 DUP6 DUP6 DUP6 PUSH2 0x23BB JUMP JUMPDEST POP POP POP POP JUMP JUMPDEST PUSH1 0x1 PUSH1 0x1 PUSH1 0xA0 SHL SUB DUP5 AND PUSH2 0x21F2 JUMPI PUSH1 0x40 MLOAD PUSH4 0x2BFA23E7 PUSH1 0xE1 SHL DUP2 MSTORE PUSH0 PUSH1 0x4 DUP3 ADD MSTORE PUSH1 0x24 ADD PUSH2 0x64C JUMP JUMPDEST PUSH1 0x40 DUP1 MLOAD PUSH1 0x1 DUP1 DUP3 MSTORE PUSH1 0x20 DUP3 ADD DUP7 SWAP1 MSTORE DUP2 DUP4 ADD SWAP1 DUP2 MSTORE PUSH1 0x60 DUP3 ADD DUP6 SWAP1 MSTORE PUSH1 0x80 DUP3 ADD SWAP1 SWAP3 MSTORE SWAP1 PUSH2 0xEA0 PUSH0 DUP8 DUP5 DUP5 DUP8 PUSH2 0x23BB JUMP JUMPDEST PUSH1 0x1 PUSH1 0x1 PUSH1 0xA0 SHL SUB DUP5 AND PUSH2 0x224D JUMPI PUSH1 0x40 MLOAD PUSH4 0x2BFA23E7 PUSH1 0xE1 SHL DUP2 MSTORE PUSH0 PUSH1 0x4 DUP3 ADD MSTORE PUSH1 0x24 ADD PUSH2 0x64C JUMP JUMPDEST PUSH1 0x1 PUSH1 0x1 PUSH1 0xA0 SHL SUB DUP6 AND PUSH2 0x2275 JUMPI PUSH1 0x40 MLOAD PUSH3 0x6A0D45 PUSH1 0xE2 SHL DUP2 MSTORE PUSH0 PUSH1 0x4 DUP3 ADD MSTORE PUSH1 0x24 ADD PUSH2 0x64C JUMP JUMPDEST PUSH1 0x40 DUP1 MLOAD PUSH1 0x1 DUP1 DUP3 MSTORE PUSH1 0x20 DUP3 ADD DUP7 SWAP1 MSTORE DUP2 DUP4 ADD SWAP1 DUP2 MSTORE PUSH1 0x60 DUP3 ADD DUP6 SWAP1 MSTORE PUSH1 0x80 DUP3 ADD SWAP1 SWAP3 MSTORE SWAP1 PUSH2 0x22A7 DUP8 DUP8 DUP5 DUP5 DUP8 PUSH2 0x23BB JUMP JUMPDEST POP POP POP POP POP POP POP JUMP JUMPDEST CALLER PUSH1 0x1 PUSH1 0x1 PUSH1 0xA0 SHL SUB DUP3 AND SUB PUSH2 0x2308 JUMPI PUSH1 0x40 MLOAD PUSH3 0x461BCD PUSH1 0xE5 SHL DUP2 MSTORE PUSH1 0x20 PUSH1 0x4 DUP3 ADD MSTORE PUSH1 0x17 PUSH1 0x24 DUP3 ADD MSTORE PUSH32 0x43616E6E6F74207472616E7366657220746F2073656C66000000000000000000 PUSH1 0x44 DUP3 ADD MSTORE PUSH1 0x64 ADD PUSH2 0x64C JUMP JUMPDEST PUSH1 0x8 DUP1 SLOAD PUSH1 0x1 PUSH1 0x1 PUSH1 0xA0 SHL SUB NOT AND PUSH1 0x1 PUSH1 0x1 PUSH1 0xA0 SHL SUB DUP4 DUP2 AND SWAP2 DUP3 OR SWAP1 SWAP3 SSTORE PUSH1 0x7 SLOAD PUSH1 0x40 MLOAD SWAP2 SWAP3 AND SWAP1 PUSH32 0xED8889F560326EB138920D842192F0EB3DD22B4F139C87A2C57538E05BAE1278 SWAP1 PUSH0 SWAP1 LOG3 POP JUMP JUMPDEST PUSH1 0x1 PUSH1 0x1 PUSH1 0xA0 SHL SUB DUP4 AND PUSH2 0x2381 JUMPI PUSH1 0x40 MLOAD PUSH3 0x6A0D45 PUSH1 0xE2 SHL DUP2 MSTORE PUSH0 PUSH1 0x4 DUP3 ADD MSTORE PUSH1 0x24 ADD PUSH2 0x64C JUMP JUMPDEST PUSH1 0x40 DUP1 MLOAD PUSH1 0x1 DUP1 DUP3 MSTORE PUSH1 0x20 DUP3 ADD DUP6 SWAP1 MSTORE DUP2 DUP4 ADD SWAP1 DUP2 MSTORE PUSH1 0x60 DUP3 ADD DUP5 SWAP1 MSTORE PUSH1 0xA0 DUP3 ADD SWAP1 SWAP3 MSTORE PUSH0 PUSH1 0x80 DUP3 ADD DUP2 DUP2 MSTORE SWAP2 SWAP3 SWAP2 PUSH2 0x1C97 SWAP2 DUP8 SWAP2 DUP6 SWAP1 DUP6 SWAP1 JUMPDEST PUSH2 0x23C7 DUP6 DUP6 DUP6 DUP6 PUSH2 0x25B8 JUMP JUMPDEST PUSH1 0x1 PUSH1 0x1 PUSH1 0xA0 SHL SUB DUP5 AND ISZERO PUSH2 0x1C97 JUMPI DUP3 MLOAD CALLER SWAP1 PUSH1 0x1 SUB PUSH2 0x2400 JUMPI PUSH1 0x20 DUP5 DUP2 ADD MLOAD SWAP1 DUP5 ADD MLOAD PUSH2 0x23F9 DUP4 DUP10 DUP10 DUP6 DUP6 DUP10 PUSH2 0x269F JUMP JUMPDEST POP POP PUSH2 0xEA0 JUMP JUMPDEST PUSH2 0xEA0 DUP2 DUP8 DUP8 DUP8 DUP8 DUP8 PUSH2 0x27C0 JUMP JUMPDEST PUSH0 DUP1 PUSH1 0x20 PUSH0 DUP5 MLOAD PUSH1 0x20 DUP7 ADD PUSH0 DUP9 GAS CALL DUP1 PUSH2 0x242D JUMPI PUSH1 0x40 MLOAD RETURNDATASIZE PUSH0 DUP3 RETURNDATACOPY RETURNDATASIZE DUP2 REVERT JUMPDEST POP POP PUSH0 MLOAD RETURNDATASIZE SWAP2 POP DUP2 ISZERO PUSH2 0x2444 JUMPI DUP1 PUSH1 0x1 EQ ISZERO PUSH2 0x2451 JUMP JUMPDEST PUSH1 0x1 PUSH1 0x1 PUSH1 0xA0 SHL SUB DUP5 AND EXTCODESIZE ISZERO JUMPDEST ISZERO PUSH2 0x21C3 JUMPI PUSH1 0x40 MLOAD PUSH4 0x5274AFE7 PUSH1 0xE0 SHL DUP2 MSTORE PUSH1 0x1 PUSH1 0x1 PUSH1 0xA0 SHL SUB DUP6 AND PUSH1 0x4 DUP3 ADD MSTORE PUSH1 0x24 ADD PUSH2 0x64C JUMP JUMPDEST DUP1 MLOAD PUSH0 SUB PUSH2 0x249B JUMPI PUSH1 0x40 MLOAD PUSH4 0x22CE3EDD PUSH1 0xE0 SHL DUP2 MSTORE PUSH1 0x4 ADD PUSH1 0x40 MLOAD DUP1 SWAP2 SUB SWAP1 REVERT JUMPDEST DUP4 DUP4 PUSH1 0x2 DUP2 GT ISZERO PUSH2 0x24AE JUMPI PUSH2 0x24AE PUSH2 0x39B8 JUMP JUMPDEST SWAP1 DUP2 PUSH1 0x2 DUP2 GT ISZERO PUSH2 0x24C1 JUMPI PUSH2 0x24C1 PUSH2 0x39B8 JUMP JUMPDEST SWAP1 MSTORE POP PUSH1 0x40 DUP5 ADD DUP3 DUP1 ISZERO PUSH2 0x24D7 JUMPI PUSH2 0x24D7 PUSH2 0x39B8 JUMP JUMPDEST SWAP1 DUP2 DUP1 ISZERO PUSH2 0x24E7 JUMPI PUSH2 0x24E7 PUSH2 0x39B8 JUMP JUMPDEST SWAP1 MSTORE POP PUSH1 0x60 SWAP1 SWAP4 ADD SWAP3 SWAP1 SWAP3 MSTORE POP POP JUMP JUMPDEST PUSH2 0x24FF PUSH2 0x2E7D JUMP JUMPDEST DUP1 MLOAD PUSH2 0x250B SWAP1 DUP4 PUSH2 0x28A7 JUMP JUMPDEST POP PUSH0 PUSH1 0x20 DUP3 ADD MSTORE SWAP2 SWAP1 POP JUMP JUMPDEST PUSH2 0x2524 DUP3 PUSH1 0x3 DUP4 MLOAD PUSH2 0x291B JUMP JUMPDEST DUP2 MLOAD PUSH2 0xF4E SWAP1 DUP3 PUSH2 0x2A34 JUMP JUMPDEST DUP2 MLOAD PUSH2 0x253D SWAP1 PUSH1 0xC2 PUSH2 0x2A54 JUMP JUMPDEST POP PUSH2 0x15E3 DUP3 DUP3 PUSH1 0x40 MLOAD PUSH1 0x20 ADD PUSH2 0x2555 SWAP2 DUP2 MSTORE PUSH1 0x20 ADD SWAP1 JUMP JUMPDEST PUSH1 0x40 MLOAD PUSH1 0x20 DUP2 DUP4 SUB SUB DUP2 MSTORE SWAP1 PUSH1 0x40 MSTORE PUSH2 0x25AB JUMP JUMPDEST PUSH2 0x2574 DUP2 PUSH1 0x4 PUSH2 0x2ABB JUMP JUMPDEST PUSH1 0x1 DUP2 PUSH1 0x20 ADD DUP2 DUP2 MLOAD PUSH2 0x2587 SWAP2 SWAP1 PUSH2 0x3D1D JUMP JUMPDEST SWAP1 MSTORE POP POP JUMP JUMPDEST PUSH2 0x2598 DUP2 PUSH1 0x7 PUSH2 0x2ABB JUMP JUMPDEST PUSH1 0x1 DUP2 PUSH1 0x20 ADD DUP2 DUP2 MLOAD PUSH2 0x2587 SWAP2 SWAP1 PUSH2 0x3D30 JUMP JUMPDEST PUSH2 0x2524 DUP3 PUSH1 0x2 DUP4 MLOAD PUSH2 0x291B JUMP JUMPDEST PUSH2 0x25C4 DUP5 DUP5 DUP5 DUP5 PUSH2 0x2AD2 JUMP JUMPDEST PUSH1 0x1 PUSH1 0x1 PUSH1 0xA0 SHL SUB DUP5 AND PUSH2 0x2641 JUMPI PUSH0 DUP1 JUMPDEST DUP4 MLOAD DUP2 LT ISZERO PUSH2 0x2628 JUMPI PUSH1 0x20 DUP2 DUP2 MUL DUP5 DUP2 ADD DUP3 ADD MLOAD SWAP1 DUP7 ADD DUP3 ADD MLOAD PUSH0 SWAP1 DUP2 MSTORE PUSH1 0x3 SWAP1 SWAP3 MSTORE PUSH1 0x40 DUP3 KECCAK256 DUP1 SLOAD SWAP2 SWAP3 DUP4 SWAP3 PUSH2 0x260D SWAP1 DUP5 SWAP1 PUSH2 0x3D1D JUMP JUMPDEST SWAP1 SWAP2 SSTORE POP PUSH2 0x261D SWAP1 POP DUP2 DUP5 PUSH2 0x3D1D JUMP JUMPDEST SWAP3 POP POP PUSH1 0x1 ADD PUSH2 0x25D5 JUMP JUMPDEST POP DUP1 PUSH1 0x4 PUSH0 DUP3 DUP3 SLOAD PUSH2 0x263A SWAP2 SWAP1 PUSH2 0x3D1D JUMP JUMPDEST SWAP1 SWAP2 SSTORE POP POP POP JUMPDEST PUSH1 0x1 PUSH1 0x1 PUSH1 0xA0 SHL SUB DUP4 AND PUSH2 0x21C3 JUMPI PUSH0 DUP1 JUMPDEST DUP4 MLOAD DUP2 LT ISZERO PUSH2 0x268E JUMPI PUSH1 0x20 DUP2 DUP2 MUL DUP5 DUP2 ADD DUP3 ADD MLOAD SWAP1 DUP7 ADD DUP3 ADD MLOAD PUSH0 SWAP1 DUP2 MSTORE PUSH1 0x3 SWAP1 SWAP3 MSTORE PUSH1 0x40 SWAP1 SWAP2 KECCAK256 DUP1 SLOAD DUP3 SWAP1 SUB SWAP1 SSTORE SWAP2 SWAP1 SWAP2 ADD SWAP1 PUSH1 0x1 ADD PUSH2 0x2652 JUMP JUMPDEST POP PUSH1 0x4 DUP1 SLOAD SWAP2 SWAP1 SWAP2 SUB SWAP1 SSTORE POP POP POP POP JUMP JUMPDEST PUSH1 0x1 PUSH1 0x1 PUSH1 0xA0 SHL SUB DUP5 AND EXTCODESIZE ISZERO PUSH2 0xEA0 JUMPI PUSH1 0x40 MLOAD PUSH4 0xF23A6E61 PUSH1 0xE0 SHL DUP2 MSTORE PUSH1 0x1 PUSH1 0x1 PUSH1 0xA0 SHL SUB DUP6 AND SWAP1 PUSH4 0xF23A6E61 SWAP1 PUSH2 0x26E3 SWAP1 DUP10 SWAP1 DUP10 SWAP1 DUP9 SWAP1 DUP9 SWAP1 DUP9 SWAP1 PUSH1 0x4 ADD PUSH2 0x3D43 JUMP JUMPDEST PUSH1 0x20 PUSH1 0x40 MLOAD DUP1 DUP4 SUB DUP2 PUSH0 DUP8 GAS CALL SWAP3 POP POP POP DUP1 ISZERO PUSH2 0x271D JUMPI POP PUSH1 0x40 DUP1 MLOAD PUSH1 0x1F RETURNDATASIZE SWAP1 DUP2 ADD PUSH1 0x1F NOT AND DUP3 ADD SWAP1 SWAP3 MSTORE PUSH2 0x271A SWAP2 DUP2 ADD SWAP1 PUSH2 0x3D7C JUMP JUMPDEST PUSH1 0x1 JUMPDEST PUSH2 0x2784 JUMPI RETURNDATASIZE DUP1 DUP1 ISZERO PUSH2 0x274A JUMPI PUSH1 0x40 MLOAD SWAP2 POP PUSH1 0x1F NOT PUSH1 0x3F RETURNDATASIZE ADD AND DUP3 ADD PUSH1 0x40 MSTORE RETURNDATASIZE DUP3 MSTORE RETURNDATASIZE PUSH0 PUSH1 0x20 DUP5 ADD RETURNDATACOPY PUSH2 0x274F JUMP JUMPDEST PUSH1 0x60 SWAP2 POP JUMPDEST POP DUP1 MLOAD PUSH0 SUB PUSH2 0x277C JUMPI PUSH1 0x40 MLOAD PUSH4 0x2BFA23E7 PUSH1 0xE1 SHL DUP2 MSTORE PUSH1 0x1 PUSH1 0x1 PUSH1 0xA0 SHL SUB DUP7 AND PUSH1 0x4 DUP3 ADD MSTORE PUSH1 0x24 ADD PUSH2 0x64C JUMP JUMPDEST DUP1 MLOAD DUP2 PUSH1 0x20 ADD REVERT JUMPDEST PUSH1 0x1 PUSH1 0x1 PUSH1 0xE0 SHL SUB NOT DUP2 AND PUSH4 0xF23A6E61 PUSH1 0xE0 SHL EQ PUSH2 0x22A7 JUMPI PUSH1 0x40 MLOAD PUSH4 0x2BFA23E7 PUSH1 0xE1 SHL DUP2 MSTORE PUSH1 0x1 PUSH1 0x1 PUSH1 0xA0 SHL SUB DUP7 AND PUSH1 0x4 DUP3 ADD MSTORE PUSH1 0x24 ADD PUSH2 0x64C JUMP JUMPDEST PUSH1 0x1 PUSH1 0x1 PUSH1 0xA0 SHL SUB DUP5 AND EXTCODESIZE ISZERO PUSH2 0xEA0 JUMPI PUSH1 0x40 MLOAD PUSH4 0xBC197C81 PUSH1 0xE0 SHL DUP2 MSTORE PUSH1 0x1 PUSH1 0x1 PUSH1 0xA0 SHL SUB DUP6 AND SWAP1 PUSH4 0xBC197C81 SWAP1 PUSH2 0x2804 SWAP1 DUP10 SWAP1 DUP10 SWAP1 DUP9 SWAP1 DUP9 SWAP1 DUP9 SWAP1 PUSH1 0x4 ADD PUSH2 0x3D97 JUMP JUMPDEST PUSH1 0x20 PUSH1 0x40 MLOAD DUP1 DUP4 SUB DUP2 PUSH0 DUP8 GAS CALL SWAP3 POP POP POP DUP1 ISZERO PUSH2 0x283E JUMPI POP PUSH1 0x40 DUP1 MLOAD PUSH1 0x1F RETURNDATASIZE SWAP1 DUP2 ADD PUSH1 0x1F NOT AND DUP3 ADD SWAP1 SWAP3 MSTORE PUSH2 0x283B SWAP2 DUP2 ADD SWAP1 PUSH2 0x3D7C JUMP JUMPDEST PUSH1 0x1 JUMPDEST PUSH2 0x286B JUMPI RETURNDATASIZE DUP1 DUP1 ISZERO PUSH2 0x274A JUMPI PUSH1 0x40 MLOAD SWAP2 POP PUSH1 0x1F NOT PUSH1 0x3F RETURNDATASIZE ADD AND DUP3 ADD PUSH1 0x40 MSTORE RETURNDATASIZE DUP3 MSTORE RETURNDATASIZE PUSH0 PUSH1 0x20 DUP5 ADD RETURNDATACOPY PUSH2 0x274F JUMP JUMPDEST PUSH1 0x1 PUSH1 0x1 PUSH1 0xE0 SHL SUB NOT DUP2 AND PUSH4 0xBC197C81 PUSH1 0xE0 SHL EQ PUSH2 0x22A7 JUMPI PUSH1 0x40 MLOAD PUSH4 0x2BFA23E7 PUSH1 0xE1 SHL DUP2 MSTORE PUSH1 0x1 PUSH1 0x1 PUSH1 0xA0 SHL SUB DUP7 AND PUSH1 0x4 DUP3 ADD MSTORE PUSH1 0x24 ADD PUSH2 0x64C JUMP JUMPDEST PUSH1 0x40 DUP1 MLOAD DUP1 DUP3 ADD SWAP1 SWAP2 MSTORE PUSH1 0x60 DUP2 MSTORE PUSH0 PUSH1 0x20 DUP3 ADD MSTORE PUSH2 0x28C6 PUSH1 0x20 DUP4 PUSH2 0x3DF4 JUMP JUMPDEST ISZERO PUSH2 0x28EE JUMPI PUSH2 0x28D6 PUSH1 0x20 DUP4 PUSH2 0x3DF4 JUMP JUMPDEST PUSH2 0x28E1 SWAP1 PUSH1 0x20 PUSH2 0x3D30 JUMP JUMPDEST PUSH2 0x28EB SWAP1 DUP4 PUSH2 0x3D1D JUMP JUMPDEST SWAP2 POP JUMPDEST PUSH1 0x20 DUP1 DUP5 ADD DUP4 SWAP1 MSTORE PUSH1 0x40 MLOAD DUP1 DUP6 MSTORE PUSH0 DUP2 MSTORE SWAP1 DUP2 DUP5 ADD ADD DUP2 DUP2 LT ISZERO PUSH2 0x2910 JUMPI PUSH0 DUP1 REVERT JUMPDEST PUSH1 0x40 MSTORE POP SWAP2 SWAP3 SWAP2 POP POP JUMP JUMPDEST PUSH1 0x17 DUP2 PUSH1 0x1 PUSH1 0x1 PUSH1 0x40 SHL SUB AND GT PUSH2 0x2941 JUMPI DUP3 MLOAD PUSH2 0x21C3 SWAP1 PUSH1 0xE0 PUSH1 0x5 DUP6 SWAP1 SHL AND DUP4 OR PUSH2 0x2A54 JUMP JUMPDEST PUSH1 0xFF DUP2 PUSH1 0x1 PUSH1 0x1 PUSH1 0x40 SHL SUB AND GT PUSH2 0x2981 JUMPI DUP3 MLOAD PUSH2 0x2969 SWAP1 PUSH1 0x18 PUSH2 0x1FE0 PUSH1 0x5 DUP7 SWAP1 SHL AND OR PUSH2 0x2A54 JUMP JUMPDEST POP DUP3 MLOAD PUSH2 0x21C3 SWAP1 PUSH1 0x1 PUSH1 0x1 PUSH1 0x40 SHL SUB DUP4 AND PUSH1 0x1 PUSH2 0x2CE1 JUMP JUMPDEST PUSH2 0xFFFF DUP2 PUSH1 0x1 PUSH1 0x1 PUSH1 0x40 SHL SUB AND GT PUSH2 0x29C2 JUMPI DUP3 MLOAD PUSH2 0x29AA SWAP1 PUSH1 0x19 PUSH2 0x1FE0 PUSH1 0x5 DUP7 SWAP1 SHL AND OR PUSH2 0x2A54 JUMP JUMPDEST POP DUP3 MLOAD PUSH2 0x21C3 SWAP1 PUSH1 0x1 PUSH1 0x1 PUSH1 0x40 SHL SUB DUP4 AND PUSH1 0x2 PUSH2 0x2CE1 JUMP JUMPDEST PUSH4 0xFFFFFFFF DUP2 PUSH1 0x1 PUSH1 0x1 PUSH1 0x40 SHL SUB AND GT PUSH2 0x2A05 JUMPI DUP3 MLOAD PUSH2 0x29ED SWAP1 PUSH1 0x1A PUSH2 0x1FE0 PUSH1 0x5 DUP7 SWAP1 SHL AND OR PUSH2 0x2A54 JUMP JUMPDEST POP DUP3 MLOAD PUSH2 0x21C3 SWAP1 PUSH1 0x1 PUSH1 0x1 PUSH1 0x40 SHL SUB DUP4 AND PUSH1 0x4 PUSH2 0x2CE1 JUMP JUMPDEST DUP3 MLOAD PUSH2 0x2A1C SWAP1 PUSH1 0x1B PUSH2 0x1FE0 PUSH1 0x5 DUP7 SWAP1 SHL AND OR PUSH2 0x2A54 JUMP JUMPDEST POP DUP3 MLOAD PUSH2 0x21C3 SWAP1 PUSH1 0x1 PUSH1 0x1 PUSH1 0x40 SHL SUB DUP4 AND PUSH1 0x8 PUSH2 0x2CE1 JUMP JUMPDEST PUSH1 0x40 DUP1 MLOAD DUP1 DUP3 ADD SWAP1 SWAP2 MSTORE PUSH1 0x60 DUP2 MSTORE PUSH0 PUSH1 0x20 DUP3 ADD MSTORE PUSH2 0x7AB DUP4 DUP4 DUP5 MLOAD PUSH2 0x2D63 JUMP JUMPDEST PUSH1 0x40 DUP1 MLOAD DUP1 DUP3 ADD SWAP1 SWAP2 MSTORE PUSH1 0x60 DUP2 MSTORE PUSH0 PUSH1 0x20 DUP3 ADD MSTORE DUP3 MLOAD MLOAD PUSH0 PUSH2 0x2A77 DUP3 PUSH1 0x1 PUSH2 0x3D1D JUMP JUMPDEST SWAP1 POP DUP5 PUSH1 0x20 ADD MLOAD DUP3 LT PUSH2 0x2A98 JUMPI PUSH2 0x2A98 DUP6 PUSH2 0x2A93 DUP4 PUSH1 0x2 PUSH2 0x3E13 JUMP JUMPDEST PUSH2 0x2E2F JUMP JUMPDEST DUP5 MLOAD PUSH1 0x20 DUP4 DUP3 ADD ADD DUP6 DUP2 MSTORE8 POP DUP1 MLOAD DUP3 GT ISZERO PUSH2 0x2AB1 JUMPI DUP2 DUP2 MSTORE JUMPDEST POP SWAP4 SWAP5 SWAP4 POP POP POP POP JUMP JUMPDEST DUP2 MLOAD PUSH2 0xF4E SWAP1 PUSH1 0x1F PUSH2 0x1FE0 PUSH1 0x5 DUP6 SWAP1 SHL AND OR PUSH2 0x2A54 JUMP JUMPDEST DUP1 MLOAD DUP3 MLOAD EQ PUSH2 0x2B01 JUMPI DUP2 MLOAD DUP2 MLOAD PUSH1 0x40 MLOAD PUSH4 0x5B059991 PUSH1 0xE0 SHL DUP2 MSTORE PUSH1 0x4 DUP2 ADD SWAP3 SWAP1 SWAP3 MSTORE PUSH1 0x24 DUP3 ADD MSTORE PUSH1 0x44 ADD PUSH2 0x64C JUMP JUMPDEST CALLER PUSH0 JUMPDEST DUP4 MLOAD DUP2 LT ISZERO PUSH2 0x2C03 JUMPI PUSH1 0x20 DUP2 DUP2 MUL DUP6 DUP2 ADD DUP3 ADD MLOAD SWAP1 DUP6 ADD SWAP1 SWAP2 ADD MLOAD PUSH1 0x1 PUSH1 0x1 PUSH1 0xA0 SHL SUB DUP9 AND ISZERO PUSH2 0x2BB5 JUMPI PUSH0 DUP3 DUP2 MSTORE PUSH1 0x20 DUP2 DUP2 MSTORE PUSH1 0x40 DUP1 DUP4 KECCAK256 PUSH1 0x1 PUSH1 0x1 PUSH1 0xA0 SHL SUB DUP13 AND DUP5 MSTORE SWAP1 SWAP2 MSTORE SWAP1 KECCAK256 SLOAD DUP2 DUP2 LT ISZERO PUSH2 0x2B8F JUMPI PUSH1 0x40 MLOAD PUSH4 0x3DEE4C5 PUSH1 0xE0 SHL DUP2 MSTORE PUSH1 0x1 PUSH1 0x1 PUSH1 0xA0 SHL SUB DUP11 AND PUSH1 0x4 DUP3 ADD MSTORE PUSH1 0x24 DUP2 ADD DUP3 SWAP1 MSTORE PUSH1 0x44 DUP2 ADD DUP4 SWAP1 MSTORE PUSH1 0x64 DUP2 ADD DUP5 SWAP1 MSTORE PUSH1 0x84 ADD PUSH2 0x64C JUMP JUMPDEST PUSH0 DUP4 DUP2 MSTORE PUSH1 0x20 DUP2 DUP2 MSTORE PUSH1 0x40 DUP1 DUP4 KECCAK256 PUSH1 0x1 PUSH1 0x1 PUSH1 0xA0 SHL SUB DUP14 AND DUP5 MSTORE SWAP1 SWAP2 MSTORE SWAP1 KECCAK256 SWAP1 DUP3 SWAP1 SUB SWAP1 SSTORE JUMPDEST PUSH1 0x1 PUSH1 0x1 PUSH1 0xA0 SHL SUB DUP8 AND ISZERO PUSH2 0x2BF9 JUMPI PUSH0 DUP3 DUP2 MSTORE PUSH1 0x20 DUP2 DUP2 MSTORE PUSH1 0x40 DUP1 DUP4 KECCAK256 PUSH1 0x1 PUSH1 0x1 PUSH1 0xA0 SHL SUB DUP12 AND DUP5 MSTORE SWAP1 SWAP2 MSTORE DUP2 KECCAK256 DUP1 SLOAD DUP4 SWAP3 SWAP1 PUSH2 0x2BF3 SWAP1 DUP5 SWAP1 PUSH2 0x3D1D JUMP JUMPDEST SWAP1 SWAP2 SSTORE POP POP JUMPDEST POP POP PUSH1 0x1 ADD PUSH2 0x2B04 JUMP JUMPDEST POP DUP3 MLOAD PUSH1 0x1 SUB PUSH2 0x2C83 JUMPI PUSH1 0x20 DUP4 ADD MLOAD PUSH0 SWAP1 PUSH1 0x20 DUP5 ADD MLOAD SWAP1 SWAP2 POP DUP6 PUSH1 0x1 PUSH1 0x1 PUSH1 0xA0 SHL SUB AND DUP8 PUSH1 0x1 PUSH1 0x1 PUSH1 0xA0 SHL SUB AND DUP5 PUSH1 0x1 PUSH1 0x1 PUSH1 0xA0 SHL SUB AND PUSH32 0xC3D58168C5AE7397731D063D5BBF3D657854427343F4C083240F7AACAA2D0F62 DUP6 DUP6 PUSH1 0x40 MLOAD PUSH2 0x2C74 SWAP3 SWAP2 SWAP1 SWAP2 DUP3 MSTORE PUSH1 0x20 DUP3 ADD MSTORE PUSH1 0x40 ADD SWAP1 JUMP JUMPDEST PUSH1 0x40 MLOAD DUP1 SWAP2 SUB SWAP1 LOG4 POP POP PUSH2 0x1C97 JUMP JUMPDEST DUP4 PUSH1 0x1 PUSH1 0x1 PUSH1 0xA0 SHL SUB AND DUP6 PUSH1 0x1 PUSH1 0x1 PUSH1 0xA0 SHL SUB AND DUP3 PUSH1 0x1 PUSH1 0x1 PUSH1 0xA0 SHL SUB AND PUSH32 0x4A39DC06D4C0DBC64B70AF90FD698A233A518AA5D07E595D983B8C0526C8F7FB DUP7 DUP7 PUSH1 0x40 MLOAD PUSH2 0x2CD2 SWAP3 SWAP2 SWAP1 PUSH2 0x3E2A JUMP JUMPDEST PUSH1 0x40 MLOAD DUP1 SWAP2 SUB SWAP1 LOG4 POP POP POP POP POP JUMP JUMPDEST PUSH1 0x40 DUP1 MLOAD DUP1 DUP3 ADD SWAP1 SWAP2 MSTORE PUSH1 0x60 DUP2 MSTORE PUSH0 PUSH1 0x20 DUP3 ADD MSTORE DUP4 MLOAD MLOAD PUSH0 PUSH2 0x2D03 DUP3 DUP6 PUSH2 0x3D1D JUMP JUMPDEST SWAP1 POP DUP6 PUSH1 0x20 ADD MLOAD DUP2 GT ISZERO PUSH2 0x2D20 JUMPI PUSH2 0x2D20 DUP7 PUSH2 0x2A93 DUP4 PUSH1 0x2 PUSH2 0x3E13 JUMP JUMPDEST PUSH0 PUSH1 0x1 PUSH2 0x2D2F DUP7 PUSH2 0x100 PUSH2 0x3F2E JUMP JUMPDEST PUSH2 0x2D39 SWAP2 SWAP1 PUSH2 0x3D30 JUMP JUMPDEST SWAP1 POP DUP7 MLOAD DUP3 DUP2 ADD DUP8 DUP4 NOT DUP3 MLOAD AND OR DUP2 MSTORE POP DUP1 MLOAD DUP4 GT ISZERO PUSH2 0x2D57 JUMPI DUP3 DUP2 MSTORE JUMPDEST POP SWAP6 SWAP7 SWAP6 POP POP POP POP POP POP JUMP JUMPDEST PUSH1 0x40 DUP1 MLOAD DUP1 DUP3 ADD SWAP1 SWAP2 MSTORE PUSH1 0x60 DUP2 MSTORE PUSH0 PUSH1 0x20 DUP3 ADD MSTORE DUP3 MLOAD DUP3 GT ISZERO PUSH2 0x2D84 JUMPI PUSH0 DUP1 REVERT JUMPDEST DUP4 MLOAD MLOAD PUSH0 PUSH2 0x2D92 DUP5 DUP4 PUSH2 0x3D1D JUMP JUMPDEST SWAP1 POP DUP6 PUSH1 0x20 ADD MLOAD DUP2 GT ISZERO PUSH2 0x2DAF JUMPI PUSH2 0x2DAF DUP7 PUSH2 0x2A93 DUP4 PUSH1 0x2 PUSH2 0x3E13 JUMP JUMPDEST DUP6 MLOAD DUP1 MLOAD DUP4 DUP3 ADD PUSH1 0x20 ADD SWAP2 PUSH0 SWAP2 DUP1 DUP6 GT ISZERO PUSH2 0x2DC8 JUMPI DUP5 DUP3 MSTORE JUMPDEST POP POP POP PUSH1 0x20 DUP7 ADD JUMPDEST PUSH1 0x20 DUP7 LT PUSH2 0x2E08 JUMPI DUP1 MLOAD DUP3 MSTORE PUSH2 0x2DE7 PUSH1 0x20 DUP4 PUSH2 0x3D1D JUMP JUMPDEST SWAP2 POP PUSH2 0x2DF4 PUSH1 0x20 DUP3 PUSH2 0x3D1D JUMP JUMPDEST SWAP1 POP PUSH2 0x2E01 PUSH1 0x20 DUP8 PUSH2 0x3D30 JUMP JUMPDEST SWAP6 POP PUSH2 0x2DD0 JUMP JUMPDEST MLOAD DUP2 MLOAD PUSH0 NOT PUSH1 0x20 DUP9 SWAP1 SUB PUSH2 0x100 EXP ADD SWAP1 DUP2 AND SWAP1 NOT SWAP2 SWAP1 SWAP2 AND OR SWAP1 MSTORE POP DUP5 SWAP2 POP POP SWAP4 SWAP3 POP POP POP JUMP JUMPDEST DUP2 MLOAD PUSH2 0x2E3B DUP4 DUP4 PUSH2 0x28A7 JUMP JUMPDEST POP PUSH2 0x21C3 DUP4 DUP3 PUSH2 0x2A34 JUMP JUMPDEST POP DUP1 SLOAD PUSH2 0x2E52 SWAP1 PUSH2 0x37EE JUMP JUMPDEST PUSH0 DUP3 SSTORE DUP1 PUSH1 0x1F LT PUSH2 0x2E61 JUMPI POP POP JUMP JUMPDEST PUSH1 0x1F ADD PUSH1 0x20 SWAP1 DIV SWAP1 PUSH0 MSTORE PUSH1 0x20 PUSH0 KECCAK256 SWAP1 DUP2 ADD SWAP1 PUSH2 0x15D5 SWAP2 SWAP1 PUSH2 0x2EB0 JUMP JUMPDEST PUSH1 0x40 MLOAD DUP1 PUSH1 0x40 ADD PUSH1 0x40 MSTORE DUP1 PUSH2 0x2EA4 PUSH1 0x40 MLOAD DUP1 PUSH1 0x40 ADD PUSH1 0x40 MSTORE DUP1 PUSH1 0x60 DUP2 MSTORE PUSH1 0x20 ADD PUSH0 DUP2 MSTORE POP SWAP1 JUMP JUMPDEST DUP2 MSTORE PUSH1 0x20 ADD PUSH0 DUP2 MSTORE POP SWAP1 JUMP JUMPDEST JUMPDEST DUP1 DUP3 GT ISZERO PUSH2 0x2EC4 JUMPI PUSH0 DUP2 SSTORE PUSH1 0x1 ADD PUSH2 0x2EB1 JUMP JUMPDEST POP SWAP1 JUMP JUMPDEST PUSH1 0x1 PUSH1 0x1 PUSH1 0xA0 SHL SUB DUP2 AND DUP2 EQ PUSH2 0x15D5 JUMPI PUSH0 DUP1 REVERT JUMPDEST PUSH0 DUP1 PUSH1 0x40 DUP4 DUP6 SUB SLT ISZERO PUSH2 0x2EED JUMPI PUSH0 DUP1 REVERT JUMPDEST DUP3 CALLDATALOAD PUSH2 0x2EF8 DUP2 PUSH2 0x2EC8 JUMP JUMPDEST SWAP5 PUSH1 0x20 SWAP4 SWAP1 SWAP4 ADD CALLDATALOAD SWAP4 POP POP POP JUMP JUMPDEST PUSH1 0x1 PUSH1 0x1 PUSH1 0xE0 SHL SUB NOT DUP2 AND DUP2 EQ PUSH2 0x15D5 JUMPI PUSH0 DUP1 REVERT JUMPDEST PUSH0 PUSH1 0x20 DUP3 DUP5 SUB SLT ISZERO PUSH2 0x2F2B JUMPI PUSH0 DUP1 REVERT JUMPDEST DUP2 CALLDATALOAD PUSH2 0x7AB DUP2 PUSH2 0x2F06 JUMP JUMPDEST PUSH4 0x4E487B71 PUSH1 0xE0 SHL PUSH0 MSTORE PUSH1 0x41 PUSH1 0x4 MSTORE PUSH1 0x24 PUSH0 REVERT JUMPDEST PUSH1 0x40 MLOAD PUSH1 0x1F DUP3 ADD PUSH1 0x1F NOT AND DUP2 ADD PUSH1 0x1 PUSH1 0x1 PUSH1 0x40 SHL SUB DUP2 GT DUP3 DUP3 LT OR ISZERO PUSH2 0x2F72 JUMPI PUSH2 0x2F72 PUSH2 0x2F36 JUMP JUMPDEST PUSH1 0x40 MSTORE SWAP2 SWAP1 POP JUMP JUMPDEST PUSH0 PUSH1 0x1 PUSH1 0x1 PUSH1 0x40 SHL SUB DUP3 GT ISZERO PUSH2 0x2F92 JUMPI PUSH2 0x2F92 PUSH2 0x2F36 JUMP JUMPDEST POP PUSH1 0x1F ADD PUSH1 0x1F NOT AND PUSH1 0x20 ADD SWAP1 JUMP JUMPDEST PUSH0 DUP3 PUSH1 0x1F DUP4 ADD SLT PUSH2 0x2FAF JUMPI PUSH0 DUP1 REVERT JUMPDEST DUP2 CALLDATALOAD PUSH2 0x2FC2 PUSH2 0x2FBD DUP3 PUSH2 0x2F7A JUMP JUMPDEST PUSH2 0x2F4A JUMP JUMPDEST DUP2 DUP2 MSTORE DUP5 PUSH1 0x20 DUP4 DUP7 ADD ADD GT ISZERO PUSH2 0x2FD6 JUMPI PUSH0 DUP1 REVERT JUMPDEST DUP2 PUSH1 0x20 DUP6 ADD PUSH1 0x20 DUP4 ADD CALLDATACOPY PUSH0 SWAP2 DUP2 ADD PUSH1 0x20 ADD SWAP2 SWAP1 SWAP2 MSTORE SWAP4 SWAP3 POP POP POP JUMP JUMPDEST PUSH0 DUP1 PUSH0 PUSH1 0x60 DUP5 DUP7 SUB SLT ISZERO PUSH2 0x3004 JUMPI PUSH0 DUP1 REVERT JUMPDEST DUP4 CALLDATALOAD SWAP3 POP PUSH1 0x20 DUP5 ADD CALLDATALOAD PUSH1 0x1 PUSH1 0x1 PUSH1 0x40 SHL SUB DUP1 DUP3 GT ISZERO PUSH2 0x3021 JUMPI PUSH0 DUP1 REVERT JUMPDEST PUSH2 0x302D DUP8 DUP4 DUP9 ADD PUSH2 0x2FA0 JUMP JUMPDEST SWAP4 POP PUSH1 0x40 DUP7 ADD CALLDATALOAD SWAP2 POP DUP1 DUP3 GT ISZERO PUSH2 0x3042 JUMPI PUSH0 DUP1 REVERT JUMPDEST POP PUSH2 0x304F DUP7 DUP3 DUP8 ADD PUSH2 0x2FA0 JUMP JUMPDEST SWAP2 POP POP SWAP3 POP SWAP3 POP SWAP3 JUMP JUMPDEST DUP1 CALLDATALOAD PUSH1 0x1 PUSH1 0x1 PUSH1 0x40 SHL SUB DUP2 AND DUP2 EQ PUSH2 0x306F JUMPI PUSH0 DUP1 REVERT JUMPDEST SWAP2 SWAP1 POP JUMP JUMPDEST PUSH0 DUP1 PUSH0 PUSH1 0x60 DUP5 DUP7 SUB SLT ISZERO PUSH2 0x3086 JUMPI PUSH0 DUP1 REVERT JUMPDEST PUSH2 0x308F DUP5 PUSH2 0x3059 JUMP JUMPDEST SWAP3 POP PUSH1 0x20 DUP5 ADD CALLDATALOAD PUSH2 0x309F DUP2 PUSH2 0x2EC8 JUMP JUMPDEST SWAP2 POP PUSH1 0x40 DUP5 ADD CALLDATALOAD PUSH1 0x1 PUSH1 0x1 PUSH1 0x40 SHL SUB DUP2 GT ISZERO PUSH2 0x30B9 JUMPI PUSH0 DUP1 REVERT JUMPDEST PUSH2 0x304F DUP7 DUP3 DUP8 ADD PUSH2 0x2FA0 JUMP JUMPDEST PUSH0 PUSH1 0x20 DUP3 DUP5 SUB SLT ISZERO PUSH2 0x30D5 JUMPI PUSH0 DUP1 REVERT JUMPDEST POP CALLDATALOAD SWAP2 SWAP1 POP JUMP JUMPDEST PUSH0 JUMPDEST DUP4 DUP2 LT ISZERO PUSH2 0x30F6 JUMPI DUP2 DUP2 ADD MLOAD DUP4 DUP3 ADD MSTORE PUSH1 0x20 ADD PUSH2 0x30DE JUMP JUMPDEST POP POP PUSH0 SWAP2 ADD MSTORE JUMP JUMPDEST PUSH0 DUP2 MLOAD DUP1 DUP5 MSTORE PUSH2 0x3115 DUP2 PUSH1 0x20 DUP7 ADD PUSH1 0x20 DUP7 ADD PUSH2 0x30DC JUMP JUMPDEST PUSH1 0x1F ADD PUSH1 0x1F NOT AND SWAP3 SWAP1 SWAP3 ADD PUSH1 0x20 ADD SWAP3 SWAP2 POP POP JUMP JUMPDEST PUSH1 0x20 DUP2 MSTORE PUSH0 PUSH2 0x7AB PUSH1 0x20 DUP4 ADD DUP5 PUSH2 0x30FE JUMP JUMPDEST PUSH0 DUP1 PUSH0 DUP1 PUSH0 DUP1 PUSH0 PUSH1 0xE0 DUP9 DUP11 SUB SLT ISZERO PUSH2 0x3151 JUMPI PUSH0 DUP1 REVERT JUMPDEST DUP8 CALLDATALOAD PUSH2 0x315C DUP2 PUSH2 0x2EC8 JUMP JUMPDEST SWAP7 POP PUSH1 0x20 DUP9 ADD CALLDATALOAD PUSH2 0x316C DUP2 PUSH2 0x2EC8 JUMP JUMPDEST SWAP6 POP PUSH1 0x40 DUP9 ADD CALLDATALOAD SWAP5 POP PUSH1 0x60 DUP9 ADD CALLDATALOAD SWAP4 POP PUSH1 0x80 DUP9 ADD CALLDATALOAD PUSH1 0x1 PUSH1 0x1 PUSH1 0x40 SHL SUB DUP2 GT ISZERO PUSH2 0x3194 JUMPI PUSH0 DUP1 REVERT JUMPDEST PUSH2 0x31A0 DUP11 DUP3 DUP12 ADD PUSH2 0x2FA0 JUMP JUMPDEST SWAP4 POP POP PUSH2 0x31AF PUSH1 0xA0 DUP10 ADD PUSH2 0x3059 JUMP JUMPDEST SWAP2 POP PUSH1 0xC0 DUP9 ADD CALLDATALOAD PUSH1 0x2 DUP2 LT PUSH2 0x31C2 JUMPI PUSH0 DUP1 REVERT JUMPDEST DUP1 SWAP2 POP POP SWAP3 SWAP6 SWAP9 SWAP2 SWAP5 SWAP8 POP SWAP3 SWAP6 POP JUMP JUMPDEST PUSH0 PUSH1 0x1 PUSH1 0x1 PUSH1 0x40 SHL SUB DUP3 GT ISZERO PUSH2 0x31EA JUMPI PUSH2 0x31EA PUSH2 0x2F36 JUMP JUMPDEST POP PUSH1 0x5 SHL PUSH1 0x20 ADD SWAP1 JUMP JUMPDEST PUSH0 DUP3 PUSH1 0x1F DUP4 ADD SLT PUSH2 0x3203 JUMPI PUSH0 DUP1 REVERT JUMPDEST DUP2 CALLDATALOAD PUSH1 0x20 PUSH2 0x3213 PUSH2 0x2FBD DUP4 PUSH2 0x31D2 JUMP JUMPDEST DUP1 DUP4 DUP3 MSTORE PUSH1 0x20 DUP3 ADD SWAP2 POP PUSH1 0x20 DUP5 PUSH1 0x5 SHL DUP8 ADD ADD SWAP4 POP DUP7 DUP5 GT ISZERO PUSH2 0x3234 JUMPI PUSH0 DUP1 REVERT JUMPDEST PUSH1 0x20 DUP7 ADD JUMPDEST DUP5 DUP2 LT ISZERO PUSH2 0x3250 JUMPI DUP1 CALLDATALOAD DUP4 MSTORE SWAP2 DUP4 ADD SWAP2 DUP4 ADD PUSH2 0x3239 JUMP JUMPDEST POP SWAP7 SWAP6 POP POP POP POP POP POP JUMP JUMPDEST PUSH0 DUP1 PUSH0 DUP1 PUSH0 PUSH1 0xA0 DUP7 DUP9 SUB SLT ISZERO PUSH2 0x326F JUMPI PUSH0 DUP1 REVERT JUMPDEST DUP6 CALLDATALOAD PUSH2 0x327A DUP2 PUSH2 0x2EC8 JUMP JUMPDEST SWAP5 POP PUSH1 0x20 DUP7 ADD CALLDATALOAD PUSH2 0x328A DUP2 PUSH2 0x2EC8 JUMP JUMPDEST SWAP4 POP PUSH1 0x40 DUP7 ADD CALLDATALOAD PUSH1 0x1 PUSH1 0x1 PUSH1 0x40 SHL SUB DUP1 DUP3 GT ISZERO PUSH2 0x32A5 JUMPI PUSH0 DUP1 REVERT JUMPDEST PUSH2 0x32B1 DUP10 DUP4 DUP11 ADD PUSH2 0x31F4 JUMP JUMPDEST SWAP5 POP PUSH1 0x60 DUP9 ADD CALLDATALOAD SWAP2 POP DUP1 DUP3 GT ISZERO PUSH2 0x32C6 JUMPI PUSH0 DUP1 REVERT JUMPDEST PUSH2 0x32D2 DUP10 DUP4 DUP11 ADD PUSH2 0x31F4 JUMP JUMPDEST SWAP4 POP PUSH1 0x80 DUP9 ADD CALLDATALOAD SWAP2 POP DUP1 DUP3 GT ISZERO PUSH2 0x32E7 JUMPI PUSH0 DUP1 REVERT JUMPDEST POP PUSH2 0x32F4 DUP9 DUP3 DUP10 ADD PUSH2 0x2FA0 JUMP JUMPDEST SWAP2 POP POP SWAP3 SWAP6 POP SWAP3 SWAP6 SWAP1 SWAP4 POP JUMP JUMPDEST PUSH0 DUP1 PUSH1 0x40 DUP4 DUP6 SUB SLT ISZERO PUSH2 0x3312 JUMPI PUSH0 DUP1 REVERT JUMPDEST DUP3 CALLDATALOAD PUSH2 0x331D DUP2 PUSH2 0x2EC8 JUMP JUMPDEST SWAP2 POP PUSH1 0x20 DUP4 ADD CALLDATALOAD PUSH2 0x332D DUP2 PUSH2 0x2EC8 JUMP JUMPDEST DUP1 SWAP2 POP POP SWAP3 POP SWAP3 SWAP1 POP JUMP JUMPDEST PUSH0 PUSH1 0x20 DUP3 DUP5 SUB SLT ISZERO PUSH2 0x3348 JUMPI PUSH0 DUP1 REVERT JUMPDEST PUSH2 0x7AB DUP3 PUSH2 0x3059 JUMP JUMPDEST PUSH0 DUP1 PUSH1 0x40 DUP4 DUP6 SUB SLT ISZERO PUSH2 0x3362 JUMPI PUSH0 DUP1 REVERT JUMPDEST DUP3 CALLDATALOAD PUSH1 0x1 PUSH1 0x1 PUSH1 0x40 SHL SUB DUP1 DUP3 GT ISZERO PUSH2 0x3378 JUMPI PUSH0 DUP1 REVERT JUMPDEST DUP2 DUP6 ADD SWAP2 POP DUP6 PUSH1 0x1F DUP4 ADD SLT PUSH2 0x338B JUMPI PUSH0 DUP1 REVERT JUMPDEST DUP2 CALLDATALOAD PUSH1 0x20 PUSH2 0x339B PUSH2 0x2FBD DUP4 PUSH2 0x31D2 JUMP JUMPDEST DUP3 DUP2 MSTORE PUSH1 0x5 SWAP3 SWAP1 SWAP3 SHL DUP5 ADD DUP2 ADD SWAP2 DUP2 DUP2 ADD SWAP1 DUP10 DUP5 GT ISZERO PUSH2 0x33B9 JUMPI PUSH0 DUP1 REVERT JUMPDEST SWAP5 DUP3 ADD SWAP5 JUMPDEST DUP4 DUP7 LT ISZERO PUSH2 0x33E0 JUMPI DUP6 CALLDATALOAD PUSH2 0x33D1 DUP2 PUSH2 0x2EC8 JUMP JUMPDEST DUP3 MSTORE SWAP5 DUP3 ADD SWAP5 SWAP1 DUP3 ADD SWAP1 PUSH2 0x33BE JUMP JUMPDEST SWAP7 POP POP DUP7 ADD CALLDATALOAD SWAP3 POP POP DUP1 DUP3 GT ISZERO PUSH2 0x33F5 JUMPI PUSH0 DUP1 REVERT JUMPDEST POP PUSH2 0x3402 DUP6 DUP3 DUP7 ADD PUSH2 0x31F4 JUMP JUMPDEST SWAP2 POP POP SWAP3 POP SWAP3 SWAP1 POP JUMP JUMPDEST PUSH0 DUP2 MLOAD DUP1 DUP5 MSTORE PUSH1 0x20 DUP1 DUP6 ADD SWAP5 POP PUSH1 0x20 DUP5 ADD PUSH0 JUMPDEST DUP4 DUP2 LT ISZERO PUSH2 0x343B JUMPI DUP2 MLOAD DUP8 MSTORE SWAP6 DUP3 ADD SWAP6 SWAP1 DUP3 ADD SWAP1 PUSH1 0x1 ADD PUSH2 0x341F JUMP JUMPDEST POP SWAP5 SWAP6 SWAP5 POP POP POP POP POP JUMP JUMPDEST PUSH1 0x20 DUP2 MSTORE PUSH0 PUSH2 0x7AB PUSH1 0x20 DUP4 ADD DUP5 PUSH2 0x340C JUMP JUMPDEST PUSH0 PUSH1 0x20 DUP3 DUP5 SUB SLT ISZERO PUSH2 0x3468 JUMPI PUSH0 DUP1 REVERT JUMPDEST DUP2 CALLDATALOAD PUSH2 0x7AB DUP2 PUSH2 0x2EC8 JUMP JUMPDEST PUSH1 0x1 PUSH1 0x1 PUSH1 0xA0 SHL SUB DUP4 AND DUP2 MSTORE PUSH1 0x40 PUSH1 0x20 DUP3 ADD DUP2 SWAP1 MSTORE PUSH0 SWAP1 PUSH2 0x3496 SWAP1 DUP4 ADD DUP5 PUSH2 0x30FE JUMP JUMPDEST SWAP5 SWAP4 POP POP POP POP JUMP JUMPDEST PUSH0 DUP1 PUSH0 PUSH1 0x60 DUP5 DUP7 SUB SLT ISZERO PUSH2 0x34B0 JUMPI PUSH0 DUP1 REVERT JUMPDEST DUP4 CALLDATALOAD PUSH2 0x34BB DUP2 PUSH2 0x2EC8 JUMP JUMPDEST SWAP3 POP PUSH1 0x20 DUP5 ADD CALLDATALOAD PUSH1 0x1 PUSH1 0x1 PUSH1 0x40 SHL SUB DUP1 DUP3 GT ISZERO PUSH2 0x34D6 JUMPI PUSH0 DUP1 REVERT JUMPDEST PUSH2 0x34E2 DUP8 DUP4 DUP9 ADD PUSH2 0x31F4 JUMP JUMPDEST SWAP4 POP PUSH1 0x40 DUP7 ADD CALLDATALOAD SWAP2 POP DUP1 DUP3 GT ISZERO PUSH2 0x34F7 JUMPI PUSH0 DUP1 REVERT JUMPDEST POP PUSH2 0x304F DUP7 DUP3 DUP8 ADD PUSH2 0x31F4 JUMP JUMPDEST PUSH0 PUSH1 0x20 DUP3 DUP5 SUB SLT ISZERO PUSH2 0x3514 JUMPI PUSH0 DUP1 REVERT JUMPDEST DUP2 CALLDATALOAD PUSH1 0x1 PUSH1 0x1 PUSH1 0x40 SHL SUB DUP2 GT ISZERO PUSH2 0x3529 JUMPI PUSH0 DUP1 REVERT JUMPDEST DUP3 ADD PUSH1 0xA0 DUP2 DUP6 SUB SLT ISZERO PUSH2 0x7AB JUMPI PUSH0 DUP1 REVERT JUMPDEST DUP1 ISZERO ISZERO DUP2 EQ PUSH2 0x15D5 JUMPI PUSH0 DUP1 REVERT JUMPDEST PUSH0 DUP1 PUSH1 0x40 DUP4 DUP6 SUB SLT ISZERO PUSH2 0x3558 JUMPI PUSH0 DUP1 REVERT JUMPDEST DUP3 CALLDATALOAD PUSH2 0x3563 DUP2 PUSH2 0x2EC8 JUMP JUMPDEST SWAP2 POP PUSH1 0x20 DUP4 ADD CALLDATALOAD PUSH2 0x332D DUP2 PUSH2 0x353A JUMP JUMPDEST PUSH0 DUP1 PUSH0 DUP1 PUSH1 0x80 DUP6 DUP8 SUB SLT ISZERO PUSH2 0x3586 JUMPI PUSH0 DUP1 REVERT JUMPDEST DUP5 CALLDATALOAD PUSH1 0x1 PUSH1 0x1 PUSH1 0x40 SHL SUB DUP2 GT ISZERO PUSH2 0x359B JUMPI PUSH0 DUP1 REVERT JUMPDEST PUSH2 0x35A7 DUP8 DUP3 DUP9 ADD PUSH2 0x2FA0 JUMP JUMPDEST SWAP5 POP POP PUSH2 0x35B6 PUSH1 0x20 DUP7 ADD PUSH2 0x3059 JUMP JUMPDEST SWAP3 POP PUSH1 0x40 DUP6 ADD CALLDATALOAD PUSH4 0xFFFFFFFF DUP2 AND DUP2 EQ PUSH2 0x35CE JUMPI PUSH0 DUP1 REVERT JUMPDEST SWAP4 SWAP7 SWAP3 SWAP6 POP SWAP3 SWAP4 PUSH1 0x60 ADD CALLDATALOAD SWAP3 POP POP JUMP JUMPDEST PUSH0 DUP1 PUSH0 DUP1 PUSH0 PUSH1 0xA0 DUP7 DUP9 SUB SLT ISZERO PUSH2 0x35F2 JUMPI PUSH0 DUP1 REVERT JUMPDEST DUP6 CALLDATALOAD PUSH2 0x35FD DUP2 PUSH2 0x2EC8 JUMP JUMPDEST SWAP5 POP PUSH1 0x20 DUP7 DUP2 ADD CALLDATALOAD PUSH1 0x1 PUSH1 0x1 PUSH1 0x40 SHL SUB DUP1 DUP3 GT ISZERO PUSH2 0x3619 JUMPI PUSH0 DUP1 REVERT JUMPDEST PUSH2 0x3625 DUP11 DUP4 DUP12 ADD PUSH2 0x31F4 JUMP JUMPDEST SWAP7 POP PUSH1 0x40 DUP10 ADD CALLDATALOAD SWAP2 POP DUP1 DUP3 GT ISZERO PUSH2 0x363A JUMPI PUSH0 DUP1 REVERT JUMPDEST PUSH2 0x3646 DUP11 DUP4 DUP12 ADD PUSH2 0x31F4 JUMP JUMPDEST SWAP6 POP PUSH1 0x60 DUP10 ADD CALLDATALOAD SWAP2 POP DUP1 DUP3 GT ISZERO PUSH2 0x365B JUMPI PUSH0 DUP1 REVERT JUMPDEST PUSH2 0x3667 DUP11 DUP4 DUP12 ADD PUSH2 0x2FA0 JUMP JUMPDEST SWAP5 POP PUSH1 0x80 DUP10 ADD CALLDATALOAD SWAP2 POP DUP1 DUP3 GT ISZERO PUSH2 0x367C JUMPI PUSH0 DUP1 REVERT JUMPDEST DUP2 DUP10 ADD SWAP2 POP DUP10 PUSH1 0x1F DUP4 ADD SLT PUSH2 0x368F JUMPI PUSH0 DUP1 REVERT JUMPDEST DUP2 CALLDATALOAD PUSH2 0x369D PUSH2 0x2FBD DUP3 PUSH2 0x31D2 JUMP JUMPDEST DUP2 DUP2 MSTORE PUSH1 0x5 SWAP2 SWAP1 SWAP2 SHL DUP4 ADD DUP5 ADD SWAP1 DUP5 DUP2 ADD SWAP1 DUP13 DUP4 GT ISZERO PUSH2 0x36BB JUMPI PUSH0 DUP1 REVERT JUMPDEST DUP6 DUP6 ADD JUMPDEST DUP4 DUP2 LT ISZERO PUSH2 0x36F1 JUMPI DUP1 CALLDATALOAD DUP6 DUP2 GT ISZERO PUSH2 0x36D5 JUMPI PUSH0 DUP1 REVERT JUMPDEST PUSH2 0x36E3 DUP16 DUP10 DUP4 DUP11 ADD ADD PUSH2 0x2FA0 JUMP JUMPDEST DUP5 MSTORE POP SWAP2 DUP7 ADD SWAP2 DUP7 ADD PUSH2 0x36BF JUMP JUMPDEST POP DUP1 SWAP7 POP POP POP POP POP POP POP SWAP3 SWAP6 POP SWAP3 SWAP6 SWAP1 SWAP4 POP JUMP JUMPDEST PUSH0 DUP1 PUSH0 DUP1 PUSH0 PUSH1 0xA0 DUP7 DUP9 SUB SLT ISZERO PUSH2 0x3719 JUMPI PUSH0 DUP1 REVERT JUMPDEST DUP6 CALLDATALOAD PUSH2 0x3724 DUP2 PUSH2 0x2EC8 JUMP JUMPDEST SWAP5 POP PUSH1 0x20 DUP7 ADD CALLDATALOAD SWAP4 POP PUSH1 0x40 DUP7 ADD CALLDATALOAD SWAP3 POP PUSH1 0x60 DUP7 ADD CALLDATALOAD PUSH1 0x1 PUSH1 0x1 PUSH1 0x40 SHL SUB DUP1 DUP3 GT ISZERO PUSH2 0x374D JUMPI PUSH0 DUP1 REVERT JUMPDEST PUSH2 0x32D2 DUP10 DUP4 DUP11 ADD PUSH2 0x2FA0 JUMP JUMPDEST PUSH0 DUP1 PUSH0 DUP1 PUSH0 PUSH1 0xA0 DUP7 DUP9 SUB SLT ISZERO PUSH2 0x376D JUMPI PUSH0 DUP1 REVERT JUMPDEST DUP6 CALLDATALOAD PUSH2 0x3778 DUP2 PUSH2 0x2EC8 JUMP JUMPDEST SWAP5 POP PUSH1 0x20 DUP7 ADD CALLDATALOAD PUSH2 0x3788 DUP2 PUSH2 0x2EC8 JUMP JUMPDEST SWAP4 POP PUSH1 0x40 DUP7 ADD CALLDATALOAD SWAP3 POP PUSH1 0x60 DUP7 ADD CALLDATALOAD SWAP2 POP PUSH1 0x80 DUP7 ADD CALLDATALOAD PUSH1 0x1 PUSH1 0x1 PUSH1 0x40 SHL SUB DUP2 GT ISZERO PUSH2 0x37B0 JUMPI PUSH0 DUP1 REVERT JUMPDEST PUSH2 0x32F4 DUP9 DUP3 DUP10 ADD PUSH2 0x2FA0 JUMP JUMPDEST PUSH0 DUP1 PUSH0 PUSH1 0x60 DUP5 DUP7 SUB SLT ISZERO PUSH2 0x37CE JUMPI PUSH0 DUP1 REVERT JUMPDEST DUP4 CALLDATALOAD PUSH2 0x37D9 DUP2 PUSH2 0x2EC8 JUMP JUMPDEST SWAP6 PUSH1 0x20 DUP6 ADD CALLDATALOAD SWAP6 POP PUSH1 0x40 SWAP1 SWAP5 ADD CALLDATALOAD SWAP4 SWAP3 POP POP POP JUMP JUMPDEST PUSH1 0x1 DUP2 DUP2 SHR SWAP1 DUP3 AND DUP1 PUSH2 0x3802 JUMPI PUSH1 0x7F DUP3 AND SWAP2 POP JUMPDEST PUSH1 0x20 DUP3 LT DUP2 SUB PUSH2 0x3820 JUMPI PUSH4 0x4E487B71 PUSH1 0xE0 SHL PUSH0 MSTORE PUSH1 0x22 PUSH1 0x4 MSTORE PUSH1 0x24 PUSH0 REVERT JUMPDEST POP SWAP2 SWAP1 POP JUMP JUMPDEST PUSH1 0x1F DUP3 GT ISZERO PUSH2 0xF4E JUMPI DUP1 PUSH0 MSTORE PUSH1 0x20 PUSH0 KECCAK256 PUSH1 0x1F DUP5 ADD PUSH1 0x5 SHR DUP2 ADD PUSH1 0x20 DUP6 LT ISZERO PUSH2 0x384B JUMPI POP DUP1 JUMPDEST PUSH1 0x1F DUP5 ADD PUSH1 0x5 SHR DUP3 ADD SWAP2 POP JUMPDEST DUP2 DUP2 LT ISZERO PUSH2 0x1C97 JUMPI PUSH0 DUP2 SSTORE PUSH1 0x1 ADD PUSH2 0x3857 JUMP JUMPDEST DUP2 MLOAD PUSH1 0x1 PUSH1 0x1 PUSH1 0x40 SHL SUB DUP2 GT ISZERO PUSH2 0x3883 JUMPI PUSH2 0x3883 PUSH2 0x2F36 JUMP JUMPDEST PUSH2 0x3897 DUP2 PUSH2 0x3891 DUP5 SLOAD PUSH2 0x37EE JUMP JUMPDEST DUP5 PUSH2 0x3826 JUMP JUMPDEST PUSH1 0x20 DUP1 PUSH1 0x1F DUP4 GT PUSH1 0x1 DUP2 EQ PUSH2 0x38CA JUMPI PUSH0 DUP5 ISZERO PUSH2 0x38B3 JUMPI POP DUP6 DUP4 ADD MLOAD JUMPDEST PUSH0 NOT PUSH1 0x3 DUP7 SWAP1 SHL SHR NOT AND PUSH1 0x1 DUP6 SWAP1 SHL OR DUP6 SSTORE PUSH2 0xEA0 JUMP JUMPDEST PUSH0 DUP6 DUP2 MSTORE PUSH1 0x20 DUP2 KECCAK256 PUSH1 0x1F NOT DUP7 AND SWAP2 JUMPDEST DUP3 DUP2 LT ISZERO PUSH2 0x38F8 JUMPI DUP9 DUP7 ADD MLOAD DUP3 SSTORE SWAP5 DUP5 ADD SWAP5 PUSH1 0x1 SWAP1 SWAP2 ADD SWAP1 DUP5 ADD PUSH2 0x38D9 JUMP JUMPDEST POP DUP6 DUP3 LT ISZERO PUSH2 0x3915 JUMPI DUP8 DUP6 ADD MLOAD PUSH0 NOT PUSH1 0x3 DUP9 SWAP1 SHL PUSH1 0xF8 AND SHR NOT AND DUP2 SSTORE JUMPDEST POP POP POP POP POP PUSH1 0x1 SWAP1 DUP2 SHL ADD SWAP1 SSTORE POP JUMP JUMPDEST PUSH1 0x1 PUSH1 0x1 PUSH1 0x40 SHL SUB DUP5 AND DUP2 MSTORE PUSH1 0x1 PUSH1 0x1 PUSH1 0xA0 SHL SUB DUP4 AND PUSH1 0x20 DUP3 ADD MSTORE PUSH1 0x60 PUSH1 0x40 DUP3 ADD DUP2 SWAP1 MSTORE PUSH0 SWAP1 PUSH2 0x3957 SWAP1 DUP4 ADD DUP5 PUSH2 0x30FE JUMP JUMPDEST SWAP6 SWAP5 POP POP POP POP POP JUMP JUMPDEST PUSH1 0x1 PUSH1 0x1 PUSH1 0xA0 SHL SUB DUP8 DUP2 AND DUP3 MSTORE DUP7 AND PUSH1 0x20 DUP3 ADD MSTORE PUSH1 0x40 DUP2 ADD DUP6 SWAP1 MSTORE PUSH1 0x60 DUP2 ADD DUP5 SWAP1 MSTORE PUSH1 0xC0 PUSH1 0x80 DUP3 ADD DUP2 SWAP1 MSTORE PUSH0 SWAP1 PUSH2 0x3999 SWAP1 DUP4 ADD DUP6 PUSH2 0x30FE JUMP JUMPDEST DUP3 DUP2 SUB PUSH1 0xA0 DUP5 ADD MSTORE PUSH2 0x39AB DUP2 DUP6 PUSH2 0x30FE JUMP JUMPDEST SWAP10 SWAP9 POP POP POP POP POP POP POP POP POP JUMP JUMPDEST PUSH4 0x4E487B71 PUSH1 0xE0 SHL PUSH0 MSTORE PUSH1 0x21 PUSH1 0x4 MSTORE PUSH1 0x24 PUSH0 REVERT JUMPDEST PUSH0 PUSH1 0x40 PUSH1 0x1 PUSH1 0x1 PUSH1 0x40 SHL SUB DUP6 AND DUP4 MSTORE PUSH1 0x20 PUSH1 0x40 DUP2 DUP6 ADD MSTORE DUP5 MLOAD PUSH1 0xA0 PUSH1 0x40 DUP7 ADD MSTORE PUSH2 0x39F9 PUSH1 0xE0 DUP7 ADD DUP3 PUSH2 0x30FE JUMP JUMPDEST SWAP1 POP DUP2 DUP7 ADD MLOAD PUSH1 0x3F NOT DUP1 DUP8 DUP5 SUB ADD PUSH1 0x60 DUP9 ADD MSTORE PUSH2 0x3A16 DUP4 DUP4 PUSH2 0x30FE JUMP JUMPDEST PUSH1 0x40 DUP10 ADD MLOAD DUP9 DUP3 SUB DUP4 ADD PUSH1 0x80 DUP11 ADD MSTORE DUP1 MLOAD DUP1 DUP4 MSTORE SWAP1 DUP7 ADD SWAP5 POP PUSH0 SWAP4 POP SWAP1 DUP6 ADD SWAP1 JUMPDEST DUP1 DUP5 LT ISZERO PUSH2 0x3A69 JUMPI DUP5 MLOAD DUP1 MLOAD PUSH1 0x1 PUSH1 0x1 PUSH1 0xA0 SHL SUB AND DUP4 MSTORE DUP7 ADD MLOAD DUP7 DUP4 ADD MSTORE SWAP4 DUP6 ADD SWAP4 PUSH1 0x1 SWAP4 SWAP1 SWAP4 ADD SWAP3 SWAP1 DUP7 ADD SWAP1 PUSH2 0x3A37 JUMP JUMPDEST POP PUSH1 0x60 DUP10 ADD MLOAD PUSH1 0x1 PUSH1 0x1 PUSH1 0xA0 SHL SUB AND PUSH1 0xA0 DUP10 ADD MSTORE PUSH1 0x80 DUP10 ADD MLOAD DUP9 DUP3 SUB DUP4 ADD PUSH1 0xC0 DUP11 ADD MSTORE SWAP6 POP PUSH2 0x3A98 DUP2 DUP8 PUSH2 0x30FE JUMP JUMPDEST SWAP11 SWAP10 POP POP POP POP POP POP POP POP POP POP JUMP JUMPDEST PUSH0 PUSH1 0x20 DUP3 DUP5 SUB SLT ISZERO PUSH2 0x3AB6 JUMPI PUSH0 DUP1 REVERT JUMPDEST POP MLOAD SWAP2 SWAP1 POP JUMP JUMPDEST PUSH0 PUSH1 0x20 DUP3 DUP5 SUB SLT ISZERO PUSH2 0x3ACD JUMPI PUSH0 DUP1 REVERT JUMPDEST DUP2 MLOAD PUSH2 0x7AB DUP2 PUSH2 0x353A JUMP JUMPDEST PUSH1 0x1 PUSH1 0x1 PUSH1 0xA0 SHL SUB DUP9 DUP2 AND DUP3 MSTORE DUP8 AND PUSH1 0x20 DUP3 ADD MSTORE PUSH1 0x40 DUP2 ADD DUP7 SWAP1 MSTORE PUSH1 0x60 DUP2 ADD DUP6 SWAP1 MSTORE PUSH1 0xE0 PUSH1 0x80 DUP3 ADD DUP2 SWAP1 MSTORE PUSH0 SWAP1 PUSH2 0x3B11 SWAP1 DUP4 ADD DUP7 PUSH2 0x30FE JUMP JUMPDEST PUSH1 0x1 PUSH1 0x1 PUSH1 0x40 SHL SUB SWAP5 DUP6 AND PUSH1 0xA0 DUP5 ADD MSTORE SWAP3 SWAP1 SWAP4 AND PUSH1 0xC0 SWAP1 SWAP2 ADD MSTORE SWAP7 SWAP6 POP POP POP POP POP POP JUMP JUMPDEST PUSH4 0x4E487B71 PUSH1 0xE0 SHL PUSH0 MSTORE PUSH1 0x32 PUSH1 0x4 MSTORE PUSH1 0x24 PUSH0 REVERT JUMPDEST PUSH0 DUP1 DUP4 CALLDATALOAD PUSH1 0x1E NOT DUP5 CALLDATASIZE SUB ADD DUP2 SLT PUSH2 0x3B5E JUMPI PUSH0 DUP1 REVERT JUMPDEST DUP4 ADD DUP1 CALLDATALOAD SWAP2 POP PUSH1 0x1 PUSH1 0x1 PUSH1 0x40 SHL SUB DUP3 GT ISZERO PUSH2 0x3B77 JUMPI PUSH0 DUP1 REVERT JUMPDEST PUSH1 0x20 ADD SWAP2 POP CALLDATASIZE DUP2 SWAP1 SUB DUP3 SGT ISZERO PUSH2 0x3B8B JUMPI PUSH0 DUP1 REVERT JUMPDEST SWAP3 POP SWAP3 SWAP1 POP JUMP JUMPDEST PUSH0 DUP1 PUSH0 DUP1 PUSH0 DUP1 PUSH1 0xC0 DUP8 DUP10 SUB SLT ISZERO PUSH2 0x3BA7 JUMPI PUSH0 DUP1 REVERT JUMPDEST DUP7 CALLDATALOAD PUSH2 0x3BB2 DUP2 PUSH2 0x2EC8 JUMP JUMPDEST SWAP6 POP PUSH1 0x20 DUP8 ADD CALLDATALOAD PUSH2 0x3BC2 DUP2 PUSH2 0x2EC8 JUMP JUMPDEST SWAP5 POP PUSH1 0x40 DUP8 ADD CALLDATALOAD SWAP4 POP PUSH1 0x60 DUP8 ADD CALLDATALOAD SWAP3 POP PUSH1 0x80 DUP8 ADD CALLDATALOAD PUSH1 0x1 PUSH1 0x1 PUSH1 0x40 SHL SUB DUP1 DUP3 GT ISZERO PUSH2 0x3BEB JUMPI PUSH0 DUP1 REVERT JUMPDEST PUSH2 0x3BF7 DUP11 DUP4 DUP12 ADD PUSH2 0x2FA0 JUMP JUMPDEST SWAP4 POP PUSH1 0xA0 DUP10 ADD CALLDATALOAD SWAP2 POP DUP1 DUP3 GT ISZERO PUSH2 0x3C0C JUMPI PUSH0 DUP1 REVERT JUMPDEST POP PUSH2 0x3C19 DUP10 DUP3 DUP11 ADD PUSH2 0x2FA0 JUMP JUMPDEST SWAP2 POP POP SWAP3 SWAP6 POP SWAP3 SWAP6 POP SWAP3 SWAP6 JUMP JUMPDEST PUSH0 PUSH1 0x20 DUP3 DUP5 SUB SLT ISZERO PUSH2 0x3C36 JUMPI PUSH0 DUP1 REVERT JUMPDEST DUP2 MLOAD PUSH1 0x1 PUSH1 0x1 PUSH1 0x40 SHL SUB DUP2 GT ISZERO PUSH2 0x3C4B JUMPI PUSH0 DUP1 REVERT JUMPDEST DUP3 ADD PUSH1 0x1F DUP2 ADD DUP5 SGT PUSH2 0x3C5B JUMPI PUSH0 DUP1 REVERT JUMPDEST DUP1 MLOAD PUSH2 0x3C69 PUSH2 0x2FBD DUP3 PUSH2 0x2F7A JUMP JUMPDEST DUP2 DUP2 MSTORE DUP6 PUSH1 0x20 DUP4 DUP6 ADD ADD GT ISZERO PUSH2 0x3C7D JUMPI PUSH0 DUP1 REVERT JUMPDEST PUSH2 0x3957 DUP3 PUSH1 0x20 DUP4 ADD PUSH1 0x20 DUP7 ADD PUSH2 0x30DC JUMP JUMPDEST PUSH0 DUP1 PUSH0 DUP1 PUSH1 0x80 DUP6 DUP8 SUB SLT ISZERO PUSH2 0x3CA1 JUMPI PUSH0 DUP1 REVERT JUMPDEST POP POP DUP3 MLOAD PUSH1 0x20 DUP5 ADD MLOAD PUSH1 0x40 DUP6 ADD MLOAD PUSH1 0x60 SWAP1 SWAP6 ADD MLOAD SWAP2 SWAP7 SWAP1 SWAP6 POP SWAP1 SWAP3 POP SWAP1 POP JUMP JUMPDEST PUSH1 0x1 PUSH1 0x1 PUSH1 0x40 SHL SUB DUP7 AND DUP2 MSTORE PUSH1 0xA0 PUSH1 0x20 DUP3 ADD MSTORE PUSH0 PUSH2 0x3CE2 PUSH1 0xA0 DUP4 ADD DUP8 PUSH2 0x30FE JUMP JUMPDEST PUSH2 0xFFFF SWAP6 SWAP1 SWAP6 AND PUSH1 0x40 DUP4 ADD MSTORE POP PUSH4 0xFFFFFFFF SWAP3 SWAP1 SWAP3 AND PUSH1 0x60 DUP4 ADD MSTORE PUSH1 0x80 SWAP1 SWAP2 ADD MSTORE SWAP3 SWAP2 POP POP JUMP JUMPDEST PUSH4 0x4E487B71 PUSH1 0xE0 SHL PUSH0 MSTORE PUSH1 0x11 PUSH1 0x4 MSTORE PUSH1 0x24 PUSH0 REVERT JUMPDEST DUP1 DUP3 ADD DUP1 DUP3 GT ISZERO PUSH2 0x53D JUMPI PUSH2 0x53D PUSH2 0x3D09 JUMP JUMPDEST DUP2 DUP2 SUB DUP2 DUP2 GT ISZERO PUSH2 0x53D JUMPI PUSH2 0x53D PUSH2 0x3D09 JUMP JUMPDEST PUSH1 0x1 PUSH1 0x1 PUSH1 0xA0 SHL SUB DUP7 DUP2 AND DUP3 MSTORE DUP6 AND PUSH1 0x20 DUP3 ADD MSTORE PUSH1 0x40 DUP2 ADD DUP5 SWAP1 MSTORE PUSH1 0x60 DUP2 ADD DUP4 SWAP1 MSTORE PUSH1 0xA0 PUSH1 0x80 DUP3 ADD DUP2 SWAP1 MSTORE PUSH0 SWAP1 PUSH2 0xE36 SWAP1 DUP4 ADD DUP5 PUSH2 0x30FE JUMP JUMPDEST PUSH0 PUSH1 0x20 DUP3 DUP5 SUB SLT ISZERO PUSH2 0x3D8C JUMPI PUSH0 DUP1 REVERT JUMPDEST DUP2 MLOAD PUSH2 0x7AB DUP2 PUSH2 0x2F06 JUMP JUMPDEST PUSH1 0x1 PUSH1 0x1 PUSH1 0xA0 SHL SUB DUP7 DUP2 AND DUP3 MSTORE DUP6 AND PUSH1 0x20 DUP3 ADD MSTORE PUSH1 0xA0 PUSH1 0x40 DUP3 ADD DUP2 SWAP1 MSTORE PUSH0 SWAP1 PUSH2 0x3DC2 SWAP1 DUP4 ADD DUP7 PUSH2 0x340C JUMP JUMPDEST DUP3 DUP2 SUB PUSH1 0x60 DUP5 ADD MSTORE PUSH2 0x3DD4 DUP2 DUP7 PUSH2 0x340C JUMP JUMPDEST SWAP1 POP DUP3 DUP2 SUB PUSH1 0x80 DUP5 ADD MSTORE PUSH2 0x3DE8 DUP2 DUP6 PUSH2 0x30FE JUMP JUMPDEST SWAP9 SWAP8 POP POP POP POP POP POP POP POP JUMP JUMPDEST PUSH0 DUP3 PUSH2 0x3E0E JUMPI PUSH4 0x4E487B71 PUSH1 0xE0 SHL PUSH0 MSTORE PUSH1 0x12 PUSH1 0x4 MSTORE PUSH1 0x24 PUSH0 REVERT JUMPDEST POP MOD SWAP1 JUMP JUMPDEST DUP1 DUP3 MUL DUP2 ISZERO DUP3 DUP3 DIV DUP5 EQ OR PUSH2 0x53D JUMPI PUSH2 0x53D PUSH2 0x3D09 JUMP JUMPDEST PUSH1 0x40 DUP2 MSTORE PUSH0 PUSH2 0x3E3C PUSH1 0x40 DUP4 ADD DUP6 PUSH2 0x340C JUMP JUMPDEST DUP3 DUP2 SUB PUSH1 0x20 DUP5 ADD MSTORE PUSH2 0x3957 DUP2 DUP6 PUSH2 0x340C JUMP JUMPDEST PUSH1 0x1 DUP2 DUP2 JUMPDEST DUP1 DUP6 GT ISZERO PUSH2 0x3E88 JUMPI DUP2 PUSH0 NOT DIV DUP3 GT ISZERO PUSH2 0x3E6E JUMPI PUSH2 0x3E6E PUSH2 0x3D09 JUMP JUMPDEST DUP1 DUP6 AND ISZERO PUSH2 0x3E7B JUMPI SWAP2 DUP2 MUL SWAP2 JUMPDEST SWAP4 DUP5 SHR SWAP4 SWAP1 DUP1 MUL SWAP1 PUSH2 0x3E53 JUMP JUMPDEST POP SWAP3 POP SWAP3 SWAP1 POP JUMP JUMPDEST PUSH0 DUP3 PUSH2 0x3E9E JUMPI POP PUSH1 0x1 PUSH2 0x53D JUMP JUMPDEST DUP2 PUSH2 0x3EAA JUMPI POP PUSH0 PUSH2 0x53D JUMP JUMPDEST DUP2 PUSH1 0x1 DUP2 EQ PUSH2 0x3EC0 JUMPI PUSH1 0x2 DUP2 EQ PUSH2 0x3ECA JUMPI PUSH2 0x3EE6 JUMP JUMPDEST PUSH1 0x1 SWAP2 POP POP PUSH2 0x53D JUMP JUMPDEST PUSH1 0xFF DUP5 GT ISZERO PUSH2 0x3EDB JUMPI PUSH2 0x3EDB PUSH2 0x3D09 JUMP JUMPDEST POP POP PUSH1 0x1 DUP3 SHL PUSH2 0x53D JUMP JUMPDEST POP PUSH1 0x20 DUP4 LT PUSH2 0x133 DUP4 LT AND PUSH1 0x4E DUP5 LT PUSH1 0xB DUP5 LT AND OR ISZERO PUSH2 0x3F09 JUMPI POP DUP2 DUP2 EXP PUSH2 0x53D JUMP JUMPDEST PUSH2 0x3F13 DUP4 DUP4 PUSH2 0x3E4E JUMP JUMPDEST DUP1 PUSH0 NOT DIV DUP3 GT ISZERO PUSH2 0x3F26 JUMPI PUSH2 0x3F26 PUSH2 0x3D09 JUMP JUMPDEST MUL SWAP4 SWAP3 POP POP POP JUMP JUMPDEST PUSH0 PUSH2 0x7AB DUP4 DUP4 PUSH2 0x3E90 JUMP INVALID LOG2 PUSH5 0x6970667358 0x22 SLT KECCAK256 PUSH26 0xB487556571FE7DFEA77E474A5A6B8167D46415C690DDCEEEAC7B 0xB6 0x4B 0x28 0xBF SWAP4 PUSH5 0x736F6C6343 STOP ADDMOD XOR STOP CALLER PUSH4 0x6F6E7374 KECCAK256 PUSH28 0x20657468657273207D203D20617761697420696D706F727428276E70 PUSH14 0x3A65746865727340362E31302E30 0x27 0x29 EXTCODESIZE PUSH4 0x6F6E7374 KECCAK256 BASEFEE PUSH2 0x7368 KECCAK256 RETURNDATASIZE KECCAK256 PUSH2 0x7761 PUSH10 0x7420696D706F72742827 PUSH15 0x706D3A697066732D6F6E6C792D6861 PUSH20 0x6840342E302E3027293B636F6E73742061706952 PUSH6 0x73706F6E7365 KECCAK256 RETURNDATASIZE KECCAK256 PUSH2 0x7761 PUSH10 0x742046756E6374696F6E PUSH20 0x2E6D616B654874747052657175657374287B2020 KECCAK256 KECCAK256 PUSH22 0x726C3A206068747470733A2F2F6170692E6272696467 PUSH6 0x646174616F75 PUSH21 0x7075742E636F6D2F6170692F76322F4F446174612F PUSH21 0x6573742F50726F70657274792827505F3564626131 PUSH7 0x62393461613430 CALLDATALOAD CALLDATALOAD PUSH3 0x396632 CODECOPY CALLDATASIZE CODECOPY CALLDATASIZE PUSH7 0x27293F61636365 PUSH20 0x735F746F6B656E3D366261636135343737343263 CALLDATASIZE PUSH7 0x39366136666637 BALANCE PUSH3 0x313338 CALLVALUE ORIGIN CALLVALUE PUSH7 0x3231602C7D293B PUSH4 0x6F6E7374 KECCAK256 PUSH19 0x65616C45737461746541646472657373203D20 PUSH2 0x7069 MSTORE PUSH6 0x73706F6E7365 0x2E PUSH5 0x6174612E55 PUSH15 0x706172736564416464726573733B63 PUSH16 0x6E737420796561724275696C74203D20 0x4E PUSH22 0x6D62657228617069526573706F6E73652E646174612E MSIZE PUSH6 0x61724275696C PUSH21 0x293B636F6E7374206C6F7453697A65537175617265 CHAINID PUSH6 0x6574203D204E PUSH22 0x6D62657228617069526573706F6E73652E646174612E 0x4C PUSH16 0x7453697A655371756172654665657429 EXTCODESIZE PUSH4 0x6F6E7374 KECCAK256 PUSH13 0x6976696E6741726561203D204E PUSH22 0x6D62657228617069526573706F6E73652E646174612E 0x4C PUSH10 0x76696E6741726561293B PUSH4 0x6F6E7374 KECCAK256 PUSH3 0x656472 PUSH16 0x6F6D73546F74616C203D204E756D6265 PUSH19 0x28617069526573706F6E73652E646174612E42 PUSH6 0x64726F6F6D73 SLOAD PUSH16 0x74616C293B636F6E7374206D65746164 PUSH2 0x7461 KECCAK256 RETURNDATASIZE KECCAK256 PUSH28 0x6E616D653A20605265616C2045737461746520546F6B656E602C6174 PUSH21 0x726962757465733A205B7B2074726169745F747970 PUSH6 0x3A2060726561 PUSH13 0x45737461746541646472657373 PUSH1 0x2C KECCAK256 PUSH23 0x616C75653A207265616C45737461746541646472657373 KECCAK256 PUSH30 0x2C7B2074726169745F747970653A2060796561724275696C74602C207661 PUSH13 0x75653A20796561724275696C74 KECCAK256 PUSH30 0x2C7B2074726169745F747970653A20606C6F7453697A6553717561726546 PUSH6 0x6574602C2076 PUSH2 0x6C75 PUSH6 0x3A206C6F7453 PUSH10 0x7A655371756172654665 PUSH6 0x74207D2C7B20 PUSH21 0x726169745F747970653A20606C6976696E67417265 PUSH2 0x602C KECCAK256 PUSH23 0x616C75653A206C6976696E6741726561207D2C7B207472 PUSH2 0x6974 PUSH0 PUSH21 0x7970653A2060626564726F6F6D73546F74616C602C KECCAK256 PUSH23 0x616C75653A20626564726F6F6D73546F74616C207D5D7D EXTCODESIZE PUSH4 0x6F6E7374 KECCAK256 PUSH14 0x65746164617461537472696E6720 RETURNDATASIZE KECCAK256 BLOBBASEFEE MSTORE8 0x4F 0x4E 0x2E PUSH20 0x7472696E67696679286D65746164617461293B63 PUSH16 0x6E73742069706673436964203D206177 PUSH2 0x6974 KECCAK256 BASEFEE PUSH2 0x7368 0x2E PUSH16 0x66286D65746164617461537472696E67 0x29 EXTCODESIZE PUSH19 0x657475726E2046756E6374696F6E732E656E63 PUSH16 0x6465537472696E672860697066733A2F 0x2F 0x24 PUSH28 0x697066734369647D60293B636F6E7374207B20657468657273207D20 RETURNDATASIZE KECCAK256 PUSH2 0x7761 PUSH10 0x7420696D706F72742827 PUSH15 0x706D3A65746865727340362E31302E ADDRESS 0x27 0x29 EXTCODESIZE PUSH4 0x6F6E7374 KECCAK256 PUSH2 0x6269 NUMBER PUSH16 0x646572203D206574686572732E416269 NUMBER PUSH16 0x6465722E64656661756C74416269436F PUSH5 0x657228293B PUSH4 0x6F6E7374 KECCAK256 PUSH21 0x6F6B656E4964203D20617267735B305D3B636F6E73 PUSH21 0x20617069526573706F6E7365203D20617761697420 CHAINID PUSH22 0x6E6374696F6E732E6D616B6548747470526571756573 PUSH21 0x287B2020202075726C3A206068747470733A2F2F61 PUSH17 0x692E627269646765646174616F75747075 PUSH21 0x2E636F6D2F6170692F76322F4F446174612F746573 PUSH21 0x2F50726F70657274792827505F3564626131666239 CALLVALUE PUSH2 0x6134 ADDRESS CALLDATALOAD CALLDATALOAD PUSH3 0x396632 CODECOPY CALLDATASIZE CODECOPY CALLDATASIZE PUSH7 0x27293F61636365 PUSH20 0x735F746F6B656E3D366261636135343737343263 CALLDATASIZE PUSH7 0x39366136666637 BALANCE PUSH3 0x313338 CALLVALUE ORIGIN CALLVALUE PUSH7 0x3231602C7D293B PUSH4 0x6F6E7374 KECCAK256 PUSH13 0x6973745072696365203D204E75 PUSH14 0x62657228617069526573706F6E73 PUSH6 0x2E646174612E 0x4C PUSH10 0x73745072696365293B63 PUSH16 0x6E7374206F726967696E616C4C697374 POP PUSH19 0x696365203D204E756D62657228617069526573 PUSH17 0x6F6E73652E646174612E4F726967696E61 PUSH13 0x4C6973745072696365293B636F PUSH15 0x737420746178417373657373656456 PUSH2 0x6C75 PUSH6 0x203D204E756D PUSH3 0x657228 PUSH2 0x7069 MSTORE PUSH6 0x73706F6E7365 0x2E PUSH5 0x6174612E54 PUSH2 0x7841 PUSH20 0x73657373656456616C7565293B636F6E73742065 PUSH15 0x636F646564203D20616269436F6465 PUSH19 0x2E656E636F6465285B6075696E74323536602C KECCAK256 PUSH1 0x75 PUSH10 0x6E74323536602C206075 PUSH10 0x6E74323536602C206075 PUSH10 0x6E74323536605D2C205B PUSH21 0x6F6B656E49642C206C69737450726963652C206F72 PUSH10 0x67696E616C4C69737450 PUSH19 0x6963652C20746178417373657373656456616C PUSH22 0x655D293B72657475726E206574686572732E67657442 PUSH26 0x74657328656E636F646564293B00000000000000000000000000 "
		},
		"gasEstimates": {
			"creation": {
				"codeDepositCost": "3247800",
				"executionCost": "infinite",
				"totalCost": "infinite"
			},
			"external": {
				"acceptOwnership()": "52352",
				"balanceOf(address,uint256)": "2674",
				"balanceOfBatch(address[],uint256[])": "infinite",
				"burn(address,uint256,uint256)": "infinite",
				"burnBatch(address,uint256[],uint256[])": "infinite",
				"ccipReceive((bytes32,uint64,bytes,bytes,(address,uint256)[]))": "infinite",
				"crossChainTransferFrom(address,address,uint256,uint256,bytes,uint64,uint8)": "infinite",
				"disableChain(uint64)": "infinite",
				"enableChain(uint64,address,bytes)": "infinite",
				"exists(uint256)": "2559",
				"getNftMetadata()": "infinite",
				"getPriceDetails(uint256)": "2780",
				"getPrices()": "infinite",
				"handleOracleFulfillment(bytes32,bytes,bytes)": "infinite",
				"isApprovedForAll(address,address)": "infinite",
				"mint(address,uint256,uint256,bytes,string)": "infinite",
				"mintBatch(address,uint256[],uint256[],bytes,string[])": "infinite",
				"owner()": "2390",
				"s_chains(uint64)": "infinite",
				"safeBatchTransferFrom(address,address,uint256[],uint256[],bytes)": "infinite",
				"safeTransferFrom(address,address,uint256,uint256,bytes)": "infinite",
				"setApprovalForAll(address,bool)": "infinite",
				"setAutomationForwarder(address)": "26794",
				"setIssuer(address)": "27932",
				"supportsInterface(bytes4)": "infinite",
				"totalSupply()": "2348",
				"totalSupply(uint256)": "2513",
				"transferOwnership(address)": "infinite",
				"updatePriceDetails(string,uint64,uint32,bytes32)": "infinite",
				"uri(uint256)": "infinite",
				"withdraw(address)": "infinite",
				"withdrawToken(address,address)": "infinite"
			}
		},
		"methodIdentifiers": {
			"acceptOwnership()": "79ba5097",
			"balanceOf(address,uint256)": "00fdd58e",
			"balanceOfBatch(address[],uint256[])": "4e1273f4",
			"burn(address,uint256,uint256)": "f5298aca",
			"burnBatch(address,uint256[],uint256[])": "6b20c454",
			"ccipReceive((bytes32,uint64,bytes,bytes,(address,uint256)[]))": "85572ffb",
			"crossChainTransferFrom(address,address,uint256,uint256,bytes,uint64,uint8)": "240b3b49",
			"disableChain(uint64)": "41eade46",
			"enableChain(uint64,address,bytes)": "0ce639c4",
			"exists(uint256)": "4f558e79",
			"getNftMetadata()": "e6b46ff5",
			"getPriceDetails(uint256)": "f0ed2e80",
			"getPrices()": "bd9a548b",
			"handleOracleFulfillment(bytes32,bytes,bytes)": "0ca76175",
			"isApprovedForAll(address,address)": "e985e9c5",
			"mint(address,uint256,uint256,bytes,string)": "c1341c4f",
			"mintBatch(address,uint256[],uint256[],bytes,string[])": "b942f8cb",
			"owner()": "8da5cb5b",
			"s_chains(uint64)": "5dc5ebdb",
			"safeBatchTransferFrom(address,address,uint256[],uint256[],bytes)": "2eb2c2d6",
			"safeTransferFrom(address,address,uint256,uint256,bytes)": "f242432a",
			"setApprovalForAll(address,bool)": "a22cb465",
			"setAutomationForwarder(address)": "d40d17bc",
			"setIssuer(address)": "55cc4e57",
			"supportsInterface(bytes4)": "01ffc9a7",
			"totalSupply()": "18160ddd",
			"totalSupply(uint256)": "bd85b039",
			"transferOwnership(address)": "f2fde38b",
			"updatePriceDetails(string,uint64,uint32,bytes32)": "a843a0ab",
			"uri(uint256)": "0e89341c",
			"withdraw(address)": "51cff8d9",
			"withdrawToken(address,address)": "3aeac4e1"
		}
	},
	"abi": [
		{
			"inputs": [
				{
					"internalType": "string",
					"name": "uri_",
					"type": "string"
				},
				{
					"internalType": "address",
					"name": "ccipRouterAddress",
					"type": "address"
				},
				{
					"internalType": "address",
					"name": "linkTokenAddress",
					"type": "address"
				},
				{
					"internalType": "uint64",
					"name": "currentChainSelector",
					"type": "uint64"
				},
				{
					"internalType": "address",
					"name": "functionsRouterAddress",
					"type": "address"
				}
			],
			"stateMutability": "nonpayable",
			"type": "constructor"
		},
		{
			"inputs": [
				{
					"internalType": "uint64",
					"name": "chainSelector",
					"type": "uint64"
				}
			],
			"name": "ChainNotEnabled",
			"type": "error"
		},
		{
			"inputs": [
				{
					"internalType": "address",
					"name": "msgSender",
					"type": "address"
				}
			],
			"name": "ERC1155Core_CallerIsNotIssuerOrItself",
			"type": "error"
		},
		{
			"inputs": [
				{
					"internalType": "address",
					"name": "sender",
					"type": "address"
				},
				{
					"internalType": "uint256",
					"name": "balance",
					"type": "uint256"
				},
				{
					"internalType": "uint256",
					"name": "needed",
					"type": "uint256"
				},
				{
					"internalType": "uint256",
					"name": "tokenId",
					"type": "uint256"
				}
			],
			"name": "ERC1155InsufficientBalance",
			"type": "error"
		},
		{
			"inputs": [
				{
					"internalType": "address",
					"name": "approver",
					"type": "address"
				}
			],
			"name": "ERC1155InvalidApprover",
			"type": "error"
		},
		{
			"inputs": [
				{
					"internalType": "uint256",
					"name": "idsLength",
					"type": "uint256"
				},
				{
					"internalType": "uint256",
					"name": "valuesLength",
					"type": "uint256"
				}
			],
			"name": "ERC1155InvalidArrayLength",
			"type": "error"
		},
		{
			"inputs": [
				{
					"internalType": "address",
					"name": "operator",
					"type": "address"
				}
			],
			"name": "ERC1155InvalidOperator",
			"type": "error"
		},
		{
			"inputs": [
				{
					"internalType": "address",
					"name": "receiver",
					"type": "address"
				}
			],
			"name": "ERC1155InvalidReceiver",
			"type": "error"
		},
		{
			"inputs": [
				{
					"internalType": "address",
					"name": "sender",
					"type": "address"
				}
			],
			"name": "ERC1155InvalidSender",
			"type": "error"
		},
		{
			"inputs": [
				{
					"internalType": "address",
					"name": "operator",
					"type": "address"
				},
				{
					"internalType": "address",
					"name": "owner",
					"type": "address"
				}
			],
			"name": "ERC1155MissingApprovalForAll",
			"type": "error"
		},
		{
			"inputs": [],
			"name": "EmptyArgs",
			"type": "error"
		},
		{
			"inputs": [],
			"name": "EmptySource",
			"type": "error"
		},
		{
			"inputs": [
				{
					"internalType": "address",
					"name": "owner",
					"type": "address"
				},
				{
					"internalType": "address",
					"name": "target",
					"type": "address"
				},
				{
					"internalType": "uint256",
					"name": "value",
					"type": "uint256"
				}
			],
			"name": "FailedToWithdrawEth",
			"type": "error"
		},
		{
			"inputs": [
				{
					"internalType": "address",
					"name": "router",
					"type": "address"
				}
			],
			"name": "InvalidRouter",
			"type": "error"
		},
		{
			"inputs": [],
			"name": "NoInlineSecrets",
			"type": "error"
		},
		{
			"inputs": [
				{
					"internalType": "uint256",
					"name": "currentBalance",
					"type": "uint256"
				},
				{
					"internalType": "uint256",
					"name": "calculatedFees",
					"type": "uint256"
				}
			],
			"name": "NotEnoughBalanceForFees",
			"type": "error"
		},
		{
			"inputs": [],
			"name": "NothingToWithdraw",
			"type": "error"
		},
		{
			"inputs": [],
			"name": "OnlyAutomationForwarderOrOwnerCanCall",
			"type": "error"
		},
		{
			"inputs": [],
			"name": "OnlyRouterCanFulfill",
			"type": "error"
		},
		{
			"inputs": [
				{
					"internalType": "uint64",
					"name": "chainSelector",
					"type": "uint64"
				}
			],
			"name": "OperationNotAllowedOnCurrentChain",
			"type": "error"
		},
		{
			"inputs": [],
			"name": "ReentrancyGuardReentrantCall",
			"type": "error"
		},
		{
			"inputs": [
				{
					"internalType": "address",
					"name": "token",
					"type": "address"
				}
			],
			"name": "SafeERC20FailedOperation",
			"type": "error"
		},
		{
			"inputs": [
				{
					"internalType": "address",
					"name": "sender",
					"type": "address"
				}
			],
			"name": "SenderNotEnabled",
			"type": "error"
		},
		{
			"anonymous": false,
			"inputs": [
				{
					"indexed": true,
					"internalType": "address",
					"name": "account",
					"type": "address"
				},
				{
					"indexed": true,
					"internalType": "address",
					"name": "operator",
					"type": "address"
				},
				{
					"indexed": false,
					"internalType": "bool",
					"name": "approved",
					"type": "bool"
				}
			],
			"name": "ApprovalForAll",
			"type": "event"
		},
		{
			"anonymous": false,
			"inputs": [
				{
					"indexed": false,
					"internalType": "uint64",
					"name": "chainSelector",
					"type": "uint64"
				}
			],
			"name": "ChainDisabled",
			"type": "event"
		},
		{
			"anonymous": false,
			"inputs": [
				{
					"indexed": false,
					"internalType": "uint64",
					"name": "chainSelector",
					"type": "uint64"
				},
				{
					"indexed": false,
					"internalType": "address",
					"name": "xNftAddress",
					"type": "address"
				},
				{
					"indexed": false,
					"internalType": "bytes",
					"name": "ccipExtraArgs",
					"type": "bytes"
				}
			],
			"name": "ChainEnabled",
			"type": "event"
		},
		{
			"anonymous": false,
			"inputs": [
				{
					"indexed": false,
					"internalType": "address",
					"name": "from",
					"type": "address"
				},
				{
					"indexed": false,
					"internalType": "address",
					"name": "to",
					"type": "address"
				},
				{
					"indexed": false,
					"internalType": "uint256",
					"name": "id",
					"type": "uint256"
				},
				{
					"indexed": false,
					"internalType": "uint256",
					"name": "amount",
					"type": "uint256"
				},
				{
					"indexed": false,
					"internalType": "bytes",
					"name": "data",
					"type": "bytes"
				},
				{
					"indexed": false,
					"internalType": "uint64",
					"name": "sourceChainSelector",
					"type": "uint64"
				},
				{
					"indexed": false,
					"internalType": "uint64",
					"name": "destinationChainSelector",
					"type": "uint64"
				}
			],
			"name": "CrossChainReceived",
			"type": "event"
		},
		{
			"anonymous": false,
			"inputs": [
				{
					"indexed": false,
					"internalType": "address",
					"name": "from",
					"type": "address"
				},
				{
					"indexed": false,
					"internalType": "address",
					"name": "to",
					"type": "address"
				},
				{
					"indexed": false,
					"internalType": "uint256",
					"name": "id",
					"type": "uint256"
				},
				{
					"indexed": false,
					"internalType": "uint256",
					"name": "amount",
					"type": "uint256"
				},
				{
					"indexed": false,
					"internalType": "bytes",
					"name": "data",
					"type": "bytes"
				},
				{
					"indexed": false,
					"internalType": "uint64",
					"name": "sourceChainSelector",
					"type": "uint64"
				},
				{
					"indexed": false,
					"internalType": "uint64",
					"name": "destinationChainSelector",
					"type": "uint64"
				}
			],
			"name": "CrossChainSent",
			"type": "event"
		},
		{
			"anonymous": false,
			"inputs": [
				{
					"indexed": true,
					"internalType": "address",
					"name": "from",
					"type": "address"
				},
				{
					"indexed": true,
					"internalType": "address",
					"name": "to",
					"type": "address"
				}
			],
			"name": "OwnershipTransferRequested",
			"type": "event"
		},
		{
			"anonymous": false,
			"inputs": [
				{
					"indexed": true,
					"internalType": "address",
					"name": "from",
					"type": "address"
				},
				{
					"indexed": true,
					"internalType": "address",
					"name": "to",
					"type": "address"
				}
			],
			"name": "OwnershipTransferred",
			"type": "event"
		},
		{
			"anonymous": false,
			"inputs": [
				{
					"indexed": true,
					"internalType": "bytes32",
					"name": "id",
					"type": "bytes32"
				}
			],
			"name": "RequestFulfilled",
			"type": "event"
		},
		{
			"anonymous": false,
			"inputs": [
				{
					"indexed": true,
					"internalType": "bytes32",
					"name": "id",
					"type": "bytes32"
				}
			],
			"name": "RequestSent",
			"type": "event"
		},
		{
			"anonymous": false,
			"inputs": [
				{
					"indexed": true,
					"internalType": "address",
					"name": "issuer",
					"type": "address"
				}
			],
			"name": "SetIssuer",
			"type": "event"
		},
		{
			"anonymous": false,
			"inputs": [
				{
					"indexed": true,
					"internalType": "address",
					"name": "operator",
					"type": "address"
				},
				{
					"indexed": true,
					"internalType": "address",
					"name": "from",
					"type": "address"
				},
				{
					"indexed": true,
					"internalType": "address",
					"name": "to",
					"type": "address"
				},
				{
					"indexed": false,
					"internalType": "uint256[]",
					"name": "ids",
					"type": "uint256[]"
				},
				{
					"indexed": false,
					"internalType": "uint256[]",
					"name": "values",
					"type": "uint256[]"
				}
			],
			"name": "TransferBatch",
			"type": "event"
		},
		{
			"anonymous": false,
			"inputs": [
				{
					"indexed": true,
					"internalType": "address",
					"name": "operator",
					"type": "address"
				},
				{
					"indexed": true,
					"internalType": "address",
					"name": "from",
					"type": "address"
				},
				{
					"indexed": true,
					"internalType": "address",
					"name": "to",
					"type": "address"
				},
				{
					"indexed": false,
					"internalType": "uint256",
					"name": "id",
					"type": "uint256"
				},
				{
					"indexed": false,
					"internalType": "uint256",
					"name": "value",
					"type": "uint256"
				}
			],
			"name": "TransferSingle",
			"type": "event"
		},
		{
			"anonymous": false,
			"inputs": [
				{
					"indexed": false,
					"internalType": "string",
					"name": "value",
					"type": "string"
				},
				{
					"indexed": true,
					"internalType": "uint256",
					"name": "id",
					"type": "uint256"
				}
			],
			"name": "URI",
			"type": "event"
		},
		{
			"inputs": [],
			"name": "acceptOwnership",
			"outputs": [],
			"stateMutability": "nonpayable",
			"type": "function"
		},
		{
			"inputs": [
				{
					"internalType": "address",
					"name": "account",
					"type": "address"
				},
				{
					"internalType": "uint256",
					"name": "id",
					"type": "uint256"
				}
			],
			"name": "balanceOf",
			"outputs": [
				{
					"internalType": "uint256",
					"name": "",
					"type": "uint256"
				}
			],
			"stateMutability": "view",
			"type": "function"
		},
		{
			"inputs": [
				{
					"internalType": "address[]",
					"name": "accounts",
					"type": "address[]"
				},
				{
					"internalType": "uint256[]",
					"name": "ids",
					"type": "uint256[]"
				}
			],
			"name": "balanceOfBatch",
			"outputs": [
				{
					"internalType": "uint256[]",
					"name": "",
					"type": "uint256[]"
				}
			],
			"stateMutability": "view",
			"type": "function"
		},
		{
			"inputs": [
				{
					"internalType": "address",
					"name": "account",
					"type": "address"
				},
				{
					"internalType": "uint256",
					"name": "id",
					"type": "uint256"
				},
				{
					"internalType": "uint256",
					"name": "amount",
					"type": "uint256"
				}
			],
			"name": "burn",
			"outputs": [],
			"stateMutability": "nonpayable",
			"type": "function"
		},
		{
			"inputs": [
				{
					"internalType": "address",
					"name": "account",
					"type": "address"
				},
				{
					"internalType": "uint256[]",
					"name": "ids",
					"type": "uint256[]"
				},
				{
					"internalType": "uint256[]",
					"name": "amounts",
					"type": "uint256[]"
				}
			],
			"name": "burnBatch",
			"outputs": [],
			"stateMutability": "nonpayable",
			"type": "function"
		},
		{
			"inputs": [
				{
					"components": [
						{
							"internalType": "bytes32",
							"name": "messageId",
							"type": "bytes32"
						},
						{
							"internalType": "uint64",
							"name": "sourceChainSelector",
							"type": "uint64"
						},
						{
							"internalType": "bytes",
							"name": "sender",
							"type": "bytes"
						},
						{
							"internalType": "bytes",
							"name": "data",
							"type": "bytes"
						},
						{
							"components": [
								{
									"internalType": "address",
									"name": "token",
									"type": "address"
								},
								{
									"internalType": "uint256",
									"name": "amount",
									"type": "uint256"
								}
							],
							"internalType": "struct Client.EVMTokenAmount[]",
							"name": "destTokenAmounts",
							"type": "tuple[]"
						}
					],
					"internalType": "struct Client.Any2EVMMessage",
					"name": "message",
					"type": "tuple"
				}
			],
			"name": "ccipReceive",
			"outputs": [],
			"stateMutability": "nonpayable",
			"type": "function"
		},
		{
			"inputs": [
				{
					"internalType": "address",
					"name": "from",
					"type": "address"
				},
				{
					"internalType": "address",
					"name": "to",
					"type": "address"
				},
				{
					"internalType": "uint256",
					"name": "id",
					"type": "uint256"
				},
				{
					"internalType": "uint256",
					"name": "amount",
					"type": "uint256"
				},
				{
					"internalType": "bytes",
					"name": "data",
					"type": "bytes"
				},
				{
					"internalType": "uint64",
					"name": "destinationChainSelector",
					"type": "uint64"
				},
				{
					"internalType": "enum CrossChainBurnAndMintERC1155.PayFeesIn",
					"name": "payFeesIn",
					"type": "uint8"
				}
			],
			"name": "crossChainTransferFrom",
			"outputs": [
				{
					"internalType": "bytes32",
					"name": "messageId",
					"type": "bytes32"
				}
			],
			"stateMutability": "nonpayable",
			"type": "function"
		},
		{
			"inputs": [
				{
					"internalType": "uint64",
					"name": "chainSelector",
					"type": "uint64"
				}
			],
			"name": "disableChain",
			"outputs": [],
			"stateMutability": "nonpayable",
			"type": "function"
		},
		{
			"inputs": [
				{
					"internalType": "uint64",
					"name": "chainSelector",
					"type": "uint64"
				},
				{
					"internalType": "address",
					"name": "xNftAddress",
					"type": "address"
				},
				{
					"internalType": "bytes",
					"name": "ccipExtraArgs",
					"type": "bytes"
				}
			],
			"name": "enableChain",
			"outputs": [],
			"stateMutability": "nonpayable",
			"type": "function"
		},
		{
			"inputs": [
				{
					"internalType": "uint256",
					"name": "id",
					"type": "uint256"
				}
			],
			"name": "exists",
			"outputs": [
				{
					"internalType": "bool",
					"name": "",
					"type": "bool"
				}
			],
			"stateMutability": "view",
			"type": "function"
		},
		{
			"inputs": [],
			"name": "getNftMetadata",
			"outputs": [
				{
					"internalType": "string",
					"name": "",
					"type": "string"
				}
			],
			"stateMutability": "view",
			"type": "function"
		},
		{
			"inputs": [
				{
					"internalType": "uint256",
					"name": "tokenId",
					"type": "uint256"
				}
			],
			"name": "getPriceDetails",
			"outputs": [
				{
					"components": [
						{
							"internalType": "uint80",
							"name": "listPrice",
							"type": "uint80"
						},
						{
							"internalType": "uint80",
							"name": "originalListPrice",
							"type": "uint80"
						},
						{
							"internalType": "uint80",
							"name": "taxAssessedValue",
							"type": "uint80"
						}
					],
					"internalType": "struct RealEstatePriceDetails.PriceDetails",
					"name": "",
					"type": "tuple"
				}
			],
			"stateMutability": "view",
			"type": "function"
		},
		{
			"inputs": [],
			"name": "getPrices",
			"outputs": [
				{
					"internalType": "string",
					"name": "",
					"type": "string"
				}
			],
			"stateMutability": "view",
			"type": "function"
		},
		{
			"inputs": [
				{
					"internalType": "bytes32",
					"name": "requestId",
					"type": "bytes32"
				},
				{
					"internalType": "bytes",
					"name": "response",
					"type": "bytes"
				},
				{
					"internalType": "bytes",
					"name": "err",
					"type": "bytes"
				}
			],
			"name": "handleOracleFulfillment",
			"outputs": [],
			"stateMutability": "nonpayable",
			"type": "function"
		},
		{
			"inputs": [
				{
					"internalType": "address",
					"name": "account",
					"type": "address"
				},
				{
					"internalType": "address",
					"name": "operator",
					"type": "address"
				}
			],
			"name": "isApprovedForAll",
			"outputs": [
				{
					"internalType": "bool",
					"name": "",
					"type": "bool"
				}
			],
			"stateMutability": "view",
			"type": "function"
		},
		{
			"inputs": [
				{
					"internalType": "address",
					"name": "_to",
					"type": "address"
				},
				{
					"internalType": "uint256",
					"name": "_id",
					"type": "uint256"
				},
				{
					"internalType": "uint256",
					"name": "_amount",
					"type": "uint256"
				},
				{
					"internalType": "bytes",
					"name": "_data",
					"type": "bytes"
				},
				{
					"internalType": "string",
					"name": "_tokenUri",
					"type": "string"
				}
			],
			"name": "mint",
			"outputs": [],
			"stateMutability": "nonpayable",
			"type": "function"
		},
		{
			"inputs": [
				{
					"internalType": "address",
					"name": "_to",
					"type": "address"
				},
				{
					"internalType": "uint256[]",
					"name": "_ids",
					"type": "uint256[]"
				},
				{
					"internalType": "uint256[]",
					"name": "_amounts",
					"type": "uint256[]"
				},
				{
					"internalType": "bytes",
					"name": "_data",
					"type": "bytes"
				},
				{
					"internalType": "string[]",
					"name": "_tokenUris",
					"type": "string[]"
				}
			],
			"name": "mintBatch",
			"outputs": [],
			"stateMutability": "nonpayable",
			"type": "function"
		},
		{
			"inputs": [],
			"name": "owner",
			"outputs": [
				{
					"internalType": "address",
					"name": "",
					"type": "address"
				}
			],
			"stateMutability": "view",
			"type": "function"
		},
		{
			"inputs": [
				{
					"internalType": "uint64",
					"name": "destChainSelector",
					"type": "uint64"
				}
			],
			"name": "s_chains",
			"outputs": [
				{
					"internalType": "address",
					"name": "xNftAddress",
					"type": "address"
				},
				{
					"internalType": "bytes",
					"name": "ccipExtraArgsBytes",
					"type": "bytes"
				}
			],
			"stateMutability": "view",
			"type": "function"
		},
		{
			"inputs": [
				{
					"internalType": "address",
					"name": "from",
					"type": "address"
				},
				{
					"internalType": "address",
					"name": "to",
					"type": "address"
				},
				{
					"internalType": "uint256[]",
					"name": "ids",
					"type": "uint256[]"
				},
				{
					"internalType": "uint256[]",
					"name": "values",
					"type": "uint256[]"
				},
				{
					"internalType": "bytes",
					"name": "data",
					"type": "bytes"
				}
			],
			"name": "safeBatchTransferFrom",
			"outputs": [],
			"stateMutability": "nonpayable",
			"type": "function"
		},
		{
			"inputs": [
				{
					"internalType": "address",
					"name": "from",
					"type": "address"
				},
				{
					"internalType": "address",
					"name": "to",
					"type": "address"
				},
				{
					"internalType": "uint256",
					"name": "id",
					"type": "uint256"
				},
				{
					"internalType": "uint256",
					"name": "value",
					"type": "uint256"
				},
				{
					"internalType": "bytes",
					"name": "data",
					"type": "bytes"
				}
			],
			"name": "safeTransferFrom",
			"outputs": [],
			"stateMutability": "nonpayable",
			"type": "function"
		},
		{
			"inputs": [
				{
					"internalType": "address",
					"name": "operator",
					"type": "address"
				},
				{
					"internalType": "bool",
					"name": "approved",
					"type": "bool"
				}
			],
			"name": "setApprovalForAll",
			"outputs": [],
			"stateMutability": "nonpayable",
			"type": "function"
		},
		{
			"inputs": [
				{
					"internalType": "address",
					"name": "automationForwarderAddress",
					"type": "address"
				}
			],
			"name": "setAutomationForwarder",
			"outputs": [],
			"stateMutability": "nonpayable",
			"type": "function"
		},
		{
			"inputs": [
				{
					"internalType": "address",
					"name": "_issuer",
					"type": "address"
				}
			],
			"name": "setIssuer",
			"outputs": [],
			"stateMutability": "nonpayable",
			"type": "function"
		},
		{
			"inputs": [
				{
					"internalType": "bytes4",
					"name": "interfaceId",
					"type": "bytes4"
				}
			],
			"name": "supportsInterface",
			"outputs": [
				{
					"internalType": "bool",
					"name": "",
					"type": "bool"
				}
			],
			"stateMutability": "view",
			"type": "function"
		},
		{
			"inputs": [],
			"name": "totalSupply",
			"outputs": [
				{
					"internalType": "uint256",
					"name": "",
					"type": "uint256"
				}
			],
			"stateMutability": "view",
			"type": "function"
		},
		{
			"inputs": [
				{
					"internalType": "uint256",
					"name": "id",
					"type": "uint256"
				}
			],
			"name": "totalSupply",
			"outputs": [
				{
					"internalType": "uint256",
					"name": "",
					"type": "uint256"
				}
			],
			"stateMutability": "view",
			"type": "function"
		},
		{
			"inputs": [
				{
					"internalType": "address",
					"name": "to",
					"type": "address"
				}
			],
			"name": "transferOwnership",
			"outputs": [],
			"stateMutability": "nonpayable",
			"type": "function"
		},
		{
			"inputs": [
				{
					"internalType": "string",
					"name": "tokenId",
					"type": "string"
				},
				{
					"internalType": "uint64",
					"name": "subscriptionId",
					"type": "uint64"
				},
				{
					"internalType": "uint32",
					"name": "gasLimit",
					"type": "uint32"
				},
				{
					"internalType": "bytes32",
					"name": "donID",
					"type": "bytes32"
				}
			],
			"name": "updatePriceDetails",
			"outputs": [
				{
					"internalType": "bytes32",
					"name": "requestId",
					"type": "bytes32"
				}
			],
			"stateMutability": "nonpayable",
			"type": "function"
		},
		{
			"inputs": [
				{
					"internalType": "uint256",
					"name": "tokenId",
					"type": "uint256"
				}
			],
			"name": "uri",
			"outputs": [
				{
					"internalType": "string",
					"name": "",
					"type": "string"
				}
			],
			"stateMutability": "view",
			"type": "function"
		},
		{
			"inputs": [
				{
					"internalType": "address",
					"name": "_beneficiary",
					"type": "address"
				}
			],
			"name": "withdraw",
			"outputs": [],
			"stateMutability": "nonpayable",
			"type": "function"
		},
		{
			"inputs": [
				{
					"internalType": "address",
					"name": "_beneficiary",
					"type": "address"
				},
				{
					"internalType": "address",
					"name": "_token",
					"type": "address"
				}
			],
			"name": "withdrawToken",
			"outputs": [],
			"stateMutability": "nonpayable",
			"type": "function"
		}
	]
}